{
  "contractName": "CanReclaimToken",
  "abi": [
    {
      "constant": true,
      "inputs": [
        {
          "name": "addr",
          "type": "address"
        }
      ],
      "name": "validate",
      "outputs": [
        {
          "name": "",
          "type": "bool"
        }
      ],
      "payable": false,
      "stateMutability": "view",
      "type": "function"
    },
    {
      "constant": true,
      "inputs": [],
      "name": "owner",
      "outputs": [
        {
          "name": "",
          "type": "address"
        }
      ],
      "payable": false,
      "stateMutability": "view",
      "type": "function"
    },
    {
      "constant": false,
      "inputs": [
        {
          "name": "newOwner",
          "type": "address"
        }
      ],
      "name": "transferOwnership",
      "outputs": [],
      "payable": false,
      "stateMutability": "nonpayable",
      "type": "function"
    },
    {
      "anonymous": false,
      "inputs": [
        {
          "indexed": true,
          "name": "previousOwner",
          "type": "address"
        },
        {
          "indexed": true,
          "name": "newOwner",
          "type": "address"
        }
      ],
      "name": "OwnershipTransferred",
      "type": "event"
    },
    {
      "constant": false,
      "inputs": [
        {
          "name": "token",
          "type": "address"
        }
      ],
      "name": "reclaimToken",
      "outputs": [],
      "payable": false,
      "stateMutability": "nonpayable",
      "type": "function"
    }
  ],
  "bytecode": "0x606060405260008054600160a060020a033316600160a060020a03199091161790556102fb806100306000396000f3006060604052600436106100485763ffffffff60e060020a60003504166317ffc320811461004d578063207c64fb1461006e5780638da5cb5b146100a1578063f2fde38b146100d0575b600080fd5b341561005857600080fd5b61006c600160a060020a03600435166100ef565b005b341561007957600080fd5b61008d600160a060020a0360043516610196565b604051901515815260200160405180910390f35b34156100ac57600080fd5b6100b46101ad565b604051600160a060020a03909116815260200160405180910390f35b34156100db57600080fd5b61006c600160a060020a03600435166101bc565b6000805433600160a060020a0390811691161461010b57600080fd5b81600160a060020a03166370a082313060405160e060020a63ffffffff8416028152600160a060020a039091166004820152602401602060405180830381600087803b151561015957600080fd5b5af1151561016657600080fd5b50505060405180516000549092506101929150600160a060020a0384811691168363ffffffff61025716565b5050565b60005433600160a060020a03908116911614919050565b600054600160a060020a031681565b60005433600160a060020a039081169116146101d757600080fd5b600160a060020a03811615156101ec57600080fd5b600054600160a060020a0380831691167f8be0079c531659141344cd1fd0a4f28419497f9722a3daafe3b4186f6b6457e060405160405180910390a36000805473ffffffffffffffffffffffffffffffffffffffff1916600160a060020a0392909216919091179055565b82600160a060020a031663a9059cbb838360405160e060020a63ffffffff8516028152600160a060020a0390921660048301526024820152604401602060405180830381600087803b15156102ab57600080fd5b5af115156102b857600080fd5b5050506040518051905015156102ca57fe5b5050505600a165627a7a72305820f47bad91750fe1225bccf283ee16d8eecff876a0656c90059bbc8c9bdbca181c0029",
  "source": "pragma solidity ^0.4.21;\r\n\r\nimport \"./Ownable.sol\";\r\nimport \"./ERC20.sol\";\r\nimport \"./SafeERC20.sol\";\r\n\r\n\r\ncontract CanReclaimToken is Ownable {\r\n    using SafeERC20 for ERC20;\r\n\r\n    function reclaimToken(ERC20 token) external onlyOwner {\r\n        uint256 balance = token.balanceOf(this);\r\n        token.safeTransfer(owner, balance);\r\n    }\r\n\r\n}",
  "sourcePath": "C:\\Users\\DXenu\\Desktop\\box\\demo_contract\\contracts\\zeppelin\\CanReclaimToken.sol",
  "compiler": {
    "name": "solc",
    "version": "0.4.21+commit.dfe3193c.Emscripten.clang"
  },
  "schemaVersion": "2.0.0",
  "updatedAt": "2018-04-16T11:26:29.024Z"
}