{
  "contractName": "Certificates",
  "abi": [
    {
      "constant": true,
      "inputs": [],
      "name": "reserves",
      "outputs": [
        {
          "name": "",
          "type": "uint256"
        }
      ],
      "payable": false,
      "stateMutability": "view",
      "type": "function"
    },
    {
      "constant": true,
      "inputs": [],
      "name": "owner",
      "outputs": [
        {
          "name": "",
          "type": "address"
        }
      ],
      "payable": false,
      "stateMutability": "view",
      "type": "function"
    },
    {
      "constant": false,
      "inputs": [
        {
          "name": "newOwner",
          "type": "address"
        }
      ],
      "name": "transferOwnership",
      "outputs": [],
      "payable": false,
      "stateMutability": "nonpayable",
      "type": "function"
    },
    {
      "anonymous": false,
      "inputs": [
        {
          "indexed": true,
          "name": "previousOwner",
          "type": "address"
        },
        {
          "indexed": true,
          "name": "newOwner",
          "type": "address"
        }
      ],
      "name": "OwnershipTransferred",
      "type": "event"
    },
    {
      "constant": false,
      "inputs": [
        {
          "name": "_url",
          "type": "bytes32"
        },
        {
          "name": "_amount",
          "type": "uint256"
        }
      ],
      "name": "addCertificate",
      "outputs": [],
      "payable": false,
      "stateMutability": "nonpayable",
      "type": "function"
    },
    {
      "constant": true,
      "inputs": [],
      "name": "getCertificatesLength",
      "outputs": [
        {
          "name": "",
          "type": "uint256"
        }
      ],
      "payable": false,
      "stateMutability": "view",
      "type": "function"
    },
    {
      "constant": true,
      "inputs": [
        {
          "name": "_index",
          "type": "uint256"
        }
      ],
      "name": "getCertificate",
      "outputs": [
        {
          "name": "",
          "type": "bytes32"
        },
        {
          "name": "",
          "type": "uint256"
        },
        {
          "name": "",
          "type": "uint256"
        }
      ],
      "payable": false,
      "stateMutability": "view",
      "type": "function"
    },
    {
      "constant": false,
      "inputs": [
        {
          "name": "_index",
          "type": "uint256"
        }
      ],
      "name": "deleteCertificate",
      "outputs": [],
      "payable": false,
      "stateMutability": "nonpayable",
      "type": "function"
    }
  ],
  "bytecode": "0x6060604052600060018190558054600160a060020a033316600160a060020a0319909116179055610537806100356000396000f3006060604052600436106100825763ffffffff7c010000000000000000000000000000000000000000000000000000000060003504166347c9e356811461008757806351640fee146100a257806375172a8b146100dc578063883eeb6e146101015780638da5cb5b14610117578063c503b4da14610146578063f2fde38b14610159575b600080fd5b341561009257600080fd5b6100a0600435602435610178565b005b34156100ad57600080fd5b6100b860043561021b565b60405192835260208301919091526040808301919091526060909101905180910390f35b34156100e757600080fd5b6100ef6102a3565b60405190815260200160405180910390f35b341561010c57600080fd5b6100a06004356102a9565b341561012257600080fd5b61012a610399565b604051600160a060020a03909116815260200160405180910390f35b341561015157600080fd5b6100ef6103a8565b341561016457600080fd5b6100a0600160a060020a03600435166103cc565b61018061048f565b60005433600160a060020a0390811691161461019b57600080fd5b606060405190810160405280846000191681526020018381526020014281525090506101d481602001516001549063ffffffff61046716565b600190815560028054909181016101eb83826104af565b60009283526020909220839160030201815181556020820151816001015560408201518160020155505050505050565b600080600061022861048f565b60005433600160a060020a0390811691161461024357600080fd5b600280548690811061025157fe5b9060005260206000209060030201606060405190810160409081528254825260018301546020830152600290920154918101919091529050805181602001518260400151935093509350509193909250565b60015481565b60005433600160a060020a039081169116146102c457600080fd5b60006002828154811015156102d557fe5b906000526020600020906003020160010154101515156102f457600080fd5b61032960028281548110151561030657fe5b90600052602060002090600302016001015460015461047d90919063ffffffff16565b60015560028054600019810190811061033e57fe5b906000526020600020906003020160028281548110151561035b57fe5b60009182526020909120825460039092020190815560018083015490820155600291820154908201558054906103959060001983016104af565b5050565b600054600160a060020a031681565b6000805433600160a060020a039081169116146103c457600080fd5b506002545b90565b60005433600160a060020a039081169116146103e757600080fd5b600160a060020a03811615156103fc57600080fd5b600054600160a060020a0380831691167f8be0079c531659141344cd1fd0a4f28419497f9722a3daafe3b4186f6b6457e060405160405180910390a36000805473ffffffffffffffffffffffffffffffffffffffff1916600160a060020a0392909216919091179055565b60008282018381101561047657fe5b9392505050565b60008282111561048957fe5b50900390565b606060405190810160409081526000808352602083018190529082015290565b8154818355818115116104db576003028160030283600052602060002091820191016104db91906104e0565b505050565b6103c991905b808211156105075760008082556001820181905560028201556003016104e6565b50905600a165627a7a72305820b61251c7ad23234ff1a2456237fb9c2c6f6f2e08cf482bb7d9ea0dc1c9512c7e0029",
  "source": "pragma solidity ^0.4.21;\r\n\r\nimport \"./zeppelin/Ownable.sol\";\r\nimport \"./zeppelin/SafeMath.sol\";\r\n// import \"zeppelin-solidity/contracts/ownership/Ownable.sol\";\r\n// import \"zeppelin-solidity/contracts/math/SafeMath.sol\";\r\n\r\n\r\ncontract Certificates is Ownable {\r\n    using SafeMath for uint;\r\n\r\n    struct Certificate {\r\n        bytes32 url;\r\n        uint amount;\r\n        uint timestamp;\r\n    }\r\n\r\n    uint public reserves = 0;\r\n\r\n    Certificate[] certificates;\r\n\r\n    function addCertificate(bytes32 _url, uint _amount) public onlyOwner {\r\n        Certificate memory certificate = Certificate({\r\n            url: _url,\r\n            amount: _amount,\r\n            timestamp: now\r\n        });\r\n\r\n        reserves = reserves.add(certificate.amount);\r\n\r\n        certificates.push(certificate);\r\n    }\r\n\r\n    function getCertificatesLength() public constant onlyOwner returns (uint) {\r\n        return certificates.length;\r\n    }\r\n\r\n    function getCertificate(uint _index) public constant onlyOwner returns (bytes32, uint, uint) {\r\n        Certificate memory certificate = certificates[_index];\r\n        return (\r\n            certificate.url,\r\n            certificate.amount,\r\n            certificate.timestamp\r\n        );\r\n    }\r\n\r\n    function deleteCertificate(uint _index) public onlyOwner {\r\n        require(certificates[_index].amount >= 0);\r\n\r\n        reserves = reserves.sub(certificates[_index].amount);\r\n\r\n        certificates[_index] = certificates[certificates.length-1];\r\n        certificates.length--;\r\n    }\r\n\r\n}\r\n",
  "sourcePath": "C:\\Users\\DXenu\\Desktop\\box\\demo_contract\\contracts\\Certificate.sol",
  "compiler": {
    "name": "solc",
    "version": "0.4.21+commit.dfe3193c.Emscripten.clang"
  },
  "schemaVersion": "2.0.0",
  "updatedAt": "2018-04-14T18:23:52.377Z"
}