{
  "contractName": "Certificates",
  "abi": [
    {
      "constant": true,
      "inputs": [],
      "name": "reserves",
      "outputs": [
        {
          "name": "",
          "type": "uint256"
        }
      ],
      "payable": false,
      "stateMutability": "view",
      "type": "function"
    },
    {
      "constant": true,
      "inputs": [],
      "name": "owner",
      "outputs": [
        {
          "name": "",
          "type": "address"
        }
      ],
      "payable": false,
      "stateMutability": "view",
      "type": "function"
    },
    {
      "constant": false,
      "inputs": [
        {
          "name": "newOwner",
          "type": "address"
        }
      ],
      "name": "transferOwnership",
      "outputs": [],
      "payable": false,
      "stateMutability": "nonpayable",
      "type": "function"
    },
    {
      "anonymous": false,
      "inputs": [
        {
          "indexed": true,
          "name": "previousOwner",
          "type": "address"
        },
        {
          "indexed": true,
          "name": "newOwner",
          "type": "address"
        }
      ],
      "name": "OwnershipTransferred",
      "type": "event"
    },
    {
      "constant": false,
      "inputs": [
        {
          "name": "_url",
          "type": "bytes32"
        },
        {
          "name": "_amount",
          "type": "uint256"
        }
      ],
      "name": "addCertificate",
      "outputs": [],
      "payable": false,
      "stateMutability": "nonpayable",
      "type": "function"
    },
    {
      "constant": true,
      "inputs": [],
      "name": "getCertificatesLength",
      "outputs": [
        {
          "name": "",
          "type": "uint256"
        }
      ],
      "payable": false,
      "stateMutability": "view",
      "type": "function"
    },
    {
      "constant": true,
      "inputs": [
        {
          "name": "_index",
          "type": "uint256"
        }
      ],
      "name": "getCertificate",
      "outputs": [
        {
          "name": "",
          "type": "bytes32"
        },
        {
          "name": "",
          "type": "uint256"
        },
        {
          "name": "",
          "type": "uint256"
        }
      ],
      "payable": false,
      "stateMutability": "view",
      "type": "function"
    },
    {
      "constant": false,
      "inputs": [
        {
          "name": "_index",
          "type": "uint256"
        }
      ],
      "name": "deleteCertificate",
      "outputs": [],
      "payable": false,
      "stateMutability": "nonpayable",
      "type": "function"
    }
  ],
  "bytecode": "0x60606040526000600155336000806101000a81548173ffffffffffffffffffffffffffffffffffffffff021916908373ffffffffffffffffffffffffffffffffffffffff16021790555061082b806100586000396000f300606060405260043610610083576000357c0100000000000000000000000000000000000000000000000000000000900463ffffffff16806347c9e3561461008857806351640fee146100b857806375172a8b14610105578063883eeb6e1461012e5780638da5cb5b14610151578063c503b4da146101a6578063f2fde38b146101cf575b600080fd5b341561009357600080fd5b6100b6600480803560001916906020019091908035906020019091905050610208565b005b34156100c357600080fd5b6100d96004808035906020019091905050610302565b604051808460001916600019168152602001838152602001828152602001935050505060405180910390f35b341561011057600080fd5b6101186103d8565b6040518082815260200191505060405180910390f35b341561013957600080fd5b61014f60048080359060200190919050506103de565b005b341561015c57600080fd5b610164610526565b604051808273ffffffffffffffffffffffffffffffffffffffff1673ffffffffffffffffffffffffffffffffffffffff16815260200191505060405180910390f35b34156101b157600080fd5b6101b961054b565b6040518082815260200191505060405180910390f35b34156101da57600080fd5b610206600480803573ffffffffffffffffffffffffffffffffffffffff169060200190919050506105b3565b005b61021061073f565b6000809054906101000a900473ffffffffffffffffffffffffffffffffffffffff1673ffffffffffffffffffffffffffffffffffffffff163373ffffffffffffffffffffffffffffffffffffffff1614151561026b57600080fd5b606060405190810160405280846000191681526020018381526020014281525090506102a6816020015160015461070890919063ffffffff16565b600181905550600280548060010182816102c09190610764565b91600052602060002090600302016000839091909150600082015181600001906000191690556020820151816001015560408201518160020155505050505050565b600080600061030f61073f565b6000809054906101000a900473ffffffffffffffffffffffffffffffffffffffff1673ffffffffffffffffffffffffffffffffffffffff163373ffffffffffffffffffffffffffffffffffffffff1614151561036a57600080fd5b60028581548110151561037957fe5b906000526020600020906003020160606040519081016040529081600082015460001916600019168152602001600182015481526020016002820154815250509050806000015181602001518260400151935093509350509193909250565b60015481565b6000809054906101000a900473ffffffffffffffffffffffffffffffffffffffff1673ffffffffffffffffffffffffffffffffffffffff163373ffffffffffffffffffffffffffffffffffffffff1614151561043957600080fd5b600060028281548110151561044a57fe5b9060005260206000209060030201600101541015151561046957600080fd5b61049e60028281548110151561047b57fe5b90600052602060002090600302016001015460015461072690919063ffffffff16565b60018190555060026001600280549050038154811015156104bb57fe5b90600052602060002090600302016002828154811015156104d857fe5b906000526020600020906003020160008201548160000190600019169055600182015481600101556002820154816002015590505060028054809190600190036105229190610796565b5050565b6000809054906101000a900473ffffffffffffffffffffffffffffffffffffffff1681565b60008060009054906101000a900473ffffffffffffffffffffffffffffffffffffffff1673ffffffffffffffffffffffffffffffffffffffff163373ffffffffffffffffffffffffffffffffffffffff161415156105a857600080fd5b600280549050905090565b6000809054906101000a900473ffffffffffffffffffffffffffffffffffffffff1673ffffffffffffffffffffffffffffffffffffffff163373ffffffffffffffffffffffffffffffffffffffff1614151561060e57600080fd5b600073ffffffffffffffffffffffffffffffffffffffff168173ffffffffffffffffffffffffffffffffffffffff161415151561064a57600080fd5b8073ffffffffffffffffffffffffffffffffffffffff166000809054906101000a900473ffffffffffffffffffffffffffffffffffffffff1673ffffffffffffffffffffffffffffffffffffffff167f8be0079c531659141344cd1fd0a4f28419497f9722a3daafe3b4186f6b6457e060405160405180910390a3806000806101000a81548173ffffffffffffffffffffffffffffffffffffffff021916908373ffffffffffffffffffffffffffffffffffffffff16021790555050565b600080828401905083811015151561071c57fe5b8091505092915050565b600082821115151561073457fe5b818303905092915050565b6060604051908101604052806000801916815260200160008152602001600081525090565b8154818355818115116107915760030281600302836000526020600020918201910161079091906107c8565b5b505050565b8154818355818115116107c3576003028160030283600052602060002091820191016107c291906107c8565b5b505050565b6107fc91905b808211156107f85760008082016000905560018201600090556002820160009055506003016107ce565b5090565b905600a165627a7a723058202b9ae554b16ad52bf5b49e7d72295d02a22a7fba7bf2257981f6107c69b5d4170029",
  "source": "pragma solidity ^0.4.19;\r\n\r\nimport \"./zeppelin/Ownable.sol\";\r\nimport \"./zeppelin/SafeMath.sol\";\r\n\r\n\r\ncontract Certificates is Ownable {\r\n    using SafeMath for uint;\r\n\r\n    struct Certificate {\r\n        bytes32 url;\r\n        uint amount;\r\n        uint timestamp;\r\n    }\r\n\r\n    uint public reserves = 0;\r\n\r\n    Certificate[] certificates;\r\n\r\n    function addCertificate(bytes32 _url, uint _amount) public onlyOwner {\r\n        Certificate memory certificate = Certificate({\r\n            url: _url,\r\n            amount: _amount,\r\n            timestamp: now\r\n        });\r\n\r\n        reserves = reserves.add(certificate.amount);\r\n\r\n        certificates.push(certificate);\r\n    }\r\n\r\n    function getCertificatesLength() public constant onlyOwner returns (uint) {\r\n        return certificates.length;\r\n    }\r\n\r\n    function getCertificate(uint _index) public constant onlyOwner returns (bytes32, uint, uint) {\r\n        Certificate memory certificate = certificates[_index];\r\n        return (\r\n            certificate.url,\r\n            certificate.amount,\r\n            certificate.timestamp\r\n        );\r\n    }\r\n\r\n    function deleteCertificate(uint _index) public onlyOwner {\r\n        require(certificates[_index].amount >= 0);\r\n\r\n        reserves = reserves.sub(certificates[_index].amount);\r\n\r\n        certificates[_index] = certificates[certificates.length-1];\r\n        certificates.length--;\r\n    }\r\n\r\n}\r\n",
  "sourcePath": "C:\\Users\\DXenu\\Desktop\\box\\demo_contract\\contracts\\Certificate.sol",
  "compiler": {
    "name": "solc",
    "version": "0.4.19+commit.c4cbbb05.Emscripten.clang"
  },
  "schemaVersion": "2.0.0",
  "updatedAt": "2018-04-04T06:11:47.339Z"
}