{
  "contractName": "Exchange",
  "abi": [
    {
      "constant": true,
      "inputs": [],
      "name": "getOrdersLength",
      "outputs": [
        {
          "name": "",
          "type": "uint256"
        }
      ],
      "payable": false,
      "stateMutability": "view",
      "type": "function"
    },
    {
      "constant": true,
      "inputs": [
        {
          "name": "_index",
          "type": "uint256"
        }
      ],
      "name": "getRedemption",
      "outputs": [
        {
          "name": "",
          "type": "address"
        },
        {
          "name": "",
          "type": "uint256"
        },
        {
          "name": "",
          "type": "string"
        },
        {
          "name": "",
          "type": "uint256"
        }
      ],
      "payable": false,
      "stateMutability": "view",
      "type": "function"
    },
    {
      "constant": false,
      "inputs": [
        {
          "name": "_value",
          "type": "uint256"
        },
        {
          "name": "_location",
          "type": "string"
        }
      ],
      "name": "redeem",
      "outputs": [
        {
          "name": "",
          "type": "uint256"
        }
      ],
      "payable": false,
      "stateMutability": "nonpayable",
      "type": "function"
    },
    {
      "constant": true,
      "inputs": [],
      "name": "getRedemptionsLength",
      "outputs": [
        {
          "name": "",
          "type": "uint256"
        }
      ],
      "payable": false,
      "stateMutability": "view",
      "type": "function"
    },
    {
      "constant": false,
      "inputs": [
        {
          "name": "_index",
          "type": "uint256"
        },
        {
          "name": "_amount",
          "type": "uint256"
        }
      ],
      "name": "approveOrder",
      "outputs": [],
      "payable": false,
      "stateMutability": "nonpayable",
      "type": "function"
    },
    {
      "constant": false,
      "inputs": [
        {
          "name": "_url",
          "type": "bytes32"
        },
        {
          "name": "_amount",
          "type": "uint256"
        }
      ],
      "name": "addCertificate",
      "outputs": [],
      "payable": false,
      "stateMutability": "nonpayable",
      "type": "function"
    },
    {
      "constant": false,
      "inputs": [],
      "name": "buyDirect",
      "outputs": [],
      "payable": true,
      "stateMutability": "payable",
      "type": "function"
    },
    {
      "constant": true,
      "inputs": [
        {
          "name": "_index",
          "type": "uint256"
        }
      ],
      "name": "getCertificate",
      "outputs": [
        {
          "name": "",
          "type": "bytes32"
        },
        {
          "name": "",
          "type": "uint256"
        },
        {
          "name": "",
          "type": "uint256"
        }
      ],
      "payable": false,
      "stateMutability": "view",
      "type": "function"
    },
    {
      "constant": false,
      "inputs": [
        {
          "name": "_addr",
          "type": "address"
        }
      ],
      "name": "deleteUser",
      "outputs": [
        {
          "name": "index",
          "type": "uint256"
        }
      ],
      "payable": false,
      "stateMutability": "nonpayable",
      "type": "function"
    },
    {
      "constant": true,
      "inputs": [
        {
          "name": "_addr",
          "type": "address"
        }
      ],
      "name": "getUser",
      "outputs": [
        {
          "name": "index",
          "type": "uint256"
        },
        {
          "name": "email",
          "type": "bytes32"
        },
        {
          "name": "firstName",
          "type": "bytes32"
        },
        {
          "name": "lastName",
          "type": "bytes32"
        }
      ],
      "payable": false,
      "stateMutability": "view",
      "type": "function"
    },
    {
      "constant": false,
      "inputs": [
        {
          "name": "_index",
          "type": "uint256"
        }
      ],
      "name": "approveRedemption",
      "outputs": [],
      "payable": false,
      "stateMutability": "nonpayable",
      "type": "function"
    },
    {
      "constant": true,
      "inputs": [],
      "name": "reserves",
      "outputs": [
        {
          "name": "",
          "type": "uint256"
        }
      ],
      "payable": false,
      "stateMutability": "view",
      "type": "function"
    },
    {
      "constant": false,
      "inputs": [
        {
          "name": "_index",
          "type": "uint256"
        }
      ],
      "name": "deleteCertificate",
      "outputs": [],
      "payable": false,
      "stateMutability": "nonpayable",
      "type": "function"
    },
    {
      "constant": true,
      "inputs": [],
      "name": "owner",
      "outputs": [
        {
          "name": "",
          "type": "address"
        }
      ],
      "payable": false,
      "stateMutability": "view",
      "type": "function"
    },
    {
      "constant": false,
      "inputs": [
        {
          "name": "_addr",
          "type": "address"
        },
        {
          "name": "_email",
          "type": "bytes32"
        },
        {
          "name": "_firstName",
          "type": "bytes32"
        },
        {
          "name": "_lastName",
          "type": "bytes32"
        }
      ],
      "name": "updateUser",
      "outputs": [
        {
          "name": "",
          "type": "bool"
        }
      ],
      "payable": false,
      "stateMutability": "nonpayable",
      "type": "function"
    },
    {
      "constant": true,
      "inputs": [],
      "name": "getUserCount",
      "outputs": [
        {
          "name": "count",
          "type": "uint256"
        }
      ],
      "payable": false,
      "stateMutability": "view",
      "type": "function"
    },
    {
      "constant": true,
      "inputs": [],
      "name": "getCertificatesLength",
      "outputs": [
        {
          "name": "",
          "type": "uint256"
        }
      ],
      "payable": false,
      "stateMutability": "view",
      "type": "function"
    },
    {
      "constant": false,
      "inputs": [
        {
          "name": "_index",
          "type": "uint256"
        }
      ],
      "name": "declineOrder",
      "outputs": [],
      "payable": false,
      "stateMutability": "nonpayable",
      "type": "function"
    },
    {
      "constant": true,
      "inputs": [
        {
          "name": "_index",
          "type": "uint256"
        }
      ],
      "name": "getOrder",
      "outputs": [
        {
          "name": "",
          "type": "address"
        },
        {
          "name": "",
          "type": "uint256"
        },
        {
          "name": "",
          "type": "uint256"
        }
      ],
      "payable": false,
      "stateMutability": "view",
      "type": "function"
    },
    {
      "constant": false,
      "inputs": [
        {
          "name": "newOwner",
          "type": "address"
        }
      ],
      "name": "transferOwnership",
      "outputs": [],
      "payable": false,
      "stateMutability": "nonpayable",
      "type": "function"
    },
    {
      "constant": true,
      "inputs": [
        {
          "name": "_addr",
          "type": "address"
        }
      ],
      "name": "existsUser",
      "outputs": [
        {
          "name": "isIndexed",
          "type": "bool"
        }
      ],
      "payable": false,
      "stateMutability": "view",
      "type": "function"
    },
    {
      "constant": false,
      "inputs": [
        {
          "name": "_index",
          "type": "uint256"
        }
      ],
      "name": "declineRedemption",
      "outputs": [],
      "payable": false,
      "stateMutability": "nonpayable",
      "type": "function"
    },
    {
      "constant": false,
      "inputs": [
        {
          "name": "_addr",
          "type": "address"
        },
        {
          "name": "_email",
          "type": "bytes32"
        },
        {
          "name": "_firstName",
          "type": "bytes32"
        },
        {
          "name": "_lastName",
          "type": "bytes32"
        }
      ],
      "name": "newtUser",
      "outputs": [
        {
          "name": "index",
          "type": "uint256"
        }
      ],
      "payable": false,
      "stateMutability": "nonpayable",
      "type": "function"
    },
    {
      "constant": true,
      "inputs": [],
      "name": "token",
      "outputs": [
        {
          "name": "",
          "type": "address"
        }
      ],
      "payable": false,
      "stateMutability": "view",
      "type": "function"
    },
    {
      "constant": true,
      "inputs": [
        {
          "name": "index",
          "type": "uint256"
        }
      ],
      "name": "getUserAtIndex",
      "outputs": [
        {
          "name": "_addr",
          "type": "address"
        }
      ],
      "payable": false,
      "stateMutability": "view",
      "type": "function"
    },
    {
      "inputs": [
        {
          "name": "_tokenAddress",
          "type": "address"
        }
      ],
      "payable": false,
      "stateMutability": "nonpayable",
      "type": "constructor"
    },
    {
      "anonymous": false,
      "inputs": [
        {
          "indexed": true,
          "name": "_from",
          "type": "address"
        },
        {
          "indexed": false,
          "name": "_value",
          "type": "uint256"
        }
      ],
      "name": "DestroyTokensEvent",
      "type": "event"
    },
    {
      "anonymous": false,
      "inputs": [
        {
          "indexed": false,
          "name": "_redeember",
          "type": "address"
        },
        {
          "indexed": false,
          "name": "_amount",
          "type": "uint256"
        },
        {
          "indexed": false,
          "name": "_timestamp",
          "type": "uint256"
        }
      ],
      "name": "RedeemEvent",
      "type": "event"
    },
    {
      "anonymous": false,
      "inputs": [
        {
          "indexed": false,
          "name": "_buyer",
          "type": "address"
        },
        {
          "indexed": false,
          "name": "_amount",
          "type": "uint256"
        },
        {
          "indexed": false,
          "name": "_timestamp",
          "type": "uint256"
        }
      ],
      "name": "BuyDirectEvent",
      "type": "event"
    },
    {
      "anonymous": false,
      "inputs": [
        {
          "indexed": true,
          "name": "_addr",
          "type": "address"
        },
        {
          "indexed": false,
          "name": "_index",
          "type": "uint256"
        },
        {
          "indexed": false,
          "name": "_email",
          "type": "bytes32"
        },
        {
          "indexed": false,
          "name": "_firstName",
          "type": "bytes32"
        },
        {
          "indexed": false,
          "name": "_lastName",
          "type": "bytes32"
        }
      ],
      "name": "NewUser",
      "type": "event"
    },
    {
      "anonymous": false,
      "inputs": [
        {
          "indexed": true,
          "name": "_addr",
          "type": "address"
        },
        {
          "indexed": false,
          "name": "_index",
          "type": "uint256"
        },
        {
          "indexed": false,
          "name": "_email",
          "type": "bytes32"
        },
        {
          "indexed": false,
          "name": "_firstName",
          "type": "bytes32"
        },
        {
          "indexed": false,
          "name": "_lastName",
          "type": "bytes32"
        }
      ],
      "name": "UpdateUser",
      "type": "event"
    },
    {
      "anonymous": false,
      "inputs": [
        {
          "indexed": true,
          "name": "_addr",
          "type": "address"
        },
        {
          "indexed": false,
          "name": "_index",
          "type": "uint256"
        }
      ],
      "name": "DeleteUser",
      "type": "event"
    },
    {
      "anonymous": false,
      "inputs": [
        {
          "indexed": true,
          "name": "previousOwner",
          "type": "address"
        },
        {
          "indexed": true,
          "name": "newOwner",
          "type": "address"
        }
      ],
      "name": "OwnershipTransferred",
      "type": "event"
    },
    {
      "constant": false,
      "inputs": [
        {
          "name": "_value",
          "type": "uint256"
        }
      ],
      "name": "destroyTokens",
      "outputs": [],
      "payable": false,
      "stateMutability": "nonpayable",
      "type": "function"
    },
    {
      "constant": true,
      "inputs": [
        {
          "name": "_amount",
          "type": "uint256"
        }
      ],
      "name": "calculateFee",
      "outputs": [
        {
          "name": "",
          "type": "uint256"
        }
      ],
      "payable": false,
      "stateMutability": "view",
      "type": "function"
    }
  ],
  "bytecode": "0x606060405260006005556000600b556001600c55341561001e57600080fd5b604051602080611ea98339810160405280805160008054600160a060020a03338116600160a060020a031992831617909255600a80549290931691161790555050611e3b8061006e6000396000f3006060604052600436106101455763ffffffff60e060020a60003504166307c2e16c811461014a5780631953cc211461016f57806324b76fd51461021c578063342a382d146102725780634198bb7b1461028557806347c9e356146102a0578063483e0bd9146102b957806351640fee146102c15780635c60f226146102fb57806367fbd2891461031a5780636f77926b14610330578063700479241461037b57806375172a8b14610391578063883eeb6e146103a45780638da5cb5b146103ba57806399a5d747146103e95780639bd19ca9146103ff578063b5cb15f71461043b578063c503b4da1461044e578063ccbdb85c14610461578063d09ef24114610477578063f2fde38b146104c3578063f409e87d146104e2578063f4f3315814610501578063f53f35ff14610517578063fc0c546a1461053f578063ffcc7bbf14610552575b600080fd5b341561015557600080fd5b61015d610568565b60405190815260200160405180910390f35b341561017a57600080fd5b61018560043561058c565b604051600160a060020a0385168152602081018490526060810182905260806040820181815290820184818151815260200191508051906020019080838360005b838110156101de5780820151838201526020016101c6565b50505050905090810190601f16801561020b5780820380516001836020036101000a031916815260200191505b509550505050505060405180910390f35b341561022757600080fd5b61015d600480359060446024803590810190830135806020601f820181900481020160405190810160405281815292919060208401838380828437509496506106ed95505050505050565b341561027d57600080fd5b61015d61095f565b341561029057600080fd5b61029e600435602435610982565b005b34156102ab57600080fd5b61029e600435602435610ad0565b61029e610b71565b34156102cc57600080fd5b6102d7600435610c6b565b60405192835260208301919091526040808301919091526060909101905180910390f35b341561030657600080fd5b61015d600160a060020a0360043516610cf3565b341561032557600080fd5b61029e600435610eb0565b341561033b57600080fd5b61034f600160a060020a0360043516610f6e565b604051938452602084019290925260408084019190915260608301919091526080909101905180910390f35b341561038657600080fd5b61029e600435611004565b341561039c57600080fd5b61015d61127a565b34156103af57600080fd5b61029e600435611280565b34156103c557600080fd5b6103cd611371565b604051600160a060020a03909116815260200160405180910390f35b34156103f457600080fd5b61015d600435611380565b341561040a57600080fd5b610427600160a060020a03600435166024356044356064356113b1565b604051901515815260200160405180910390f35b341561044657600080fd5b61015d611499565b341561045957600080fd5b61015d61149f565b341561046c57600080fd5b61029e6004356114c2565b341561048257600080fd5b61048d600435611623565b6040518084600160a060020a0316600160a060020a03168152602001838152602001828152602001935050505060405180910390f35b34156104ce57600080fd5b61029e600160a060020a03600435166116b4565b34156104ed57600080fd5b610427600160a060020a0360043516611742565b341561050c57600080fd5b61029e60043561179c565b341561052257600080fd5b61015d600160a060020a0360043516602435604435606435611984565b341561054a57600080fd5b6103cd611a9b565b341561055d57600080fd5b6103cd600435611aaa565b6000805433600160a060020a0390811691161461058457600080fd5b506003545b90565b600080610597611b17565b60006105a1611b29565b60005433600160a060020a039081169116146105bc57600080fd5b60078054879081106105ca57fe5b9060005260206000209060040201608060405190810160405290816000820160009054906101000a9004600160a060020a0316600160a060020a0316600160a060020a03168152602001600182018054600181600116156101000203166002900480601f0160208091040260200160405190810160405280929190818152602001828054600181600116156101000203166002900480156106ac5780601f10610681576101008083540402835291602001916106ac565b820191906000526020600020905b81548152906001019060200180831161068f57829003601f168201915b505050918352505060028201546020820152600390910154604090910152905080518160400151826020015183606001519299919850965090945092505050565b60006106f7611b29565b6008548490600160a060020a03166370a082313360405160e060020a63ffffffff8416028152600160a060020a039091166004820152602401602060405180830381600087803b151561074957600080fd5b5af1151561075657600080fd5b505050604051805190501015151561076d57600080fd5b600854600160a060020a031663095ea7b3338660405160e060020a63ffffffff8516028152600160a060020a0390921660048301526024820152604401602060405180830381600087803b15156107c357600080fd5b5af115156107d057600080fd5b50505060405180515050600854600160a060020a03166323b872dd33308760405160e060020a63ffffffff8616028152600160a060020a0393841660048201529190921660248201526044810191909152606401602060405180830381600087803b151561083d57600080fd5b5af1151561084a57600080fd5b505050604051805190505060806040519081016040528033600160a060020a03168152602001848152602001858152602001428152509050600780548060010182816108969190611b58565b6000928352602090922083916004020181518154600160a060020a031916600160a060020a03919091161781556020820151816001019080516108dd929160200190611b84565b50604082015181600201556060820151600390910155507f0e46a0c191564864bd7a70f14ef566cba8f8494211c829a52275f65d5b7d4ce290508151826040015183606001516040518084600160a060020a0316600160a060020a03168152602001838152602001828152602001935050505060405180910390a15092915050565b6000805433600160a060020a0390811691161461097b57600080fd5b5060075490565b6000805433600160a060020a0390811691161461099e57600080fd5b60006003848154811015156109af57fe5b906000526020600020906003020160010154101515156109ce57600080fd5b600454600160a060020a03166399a5d7478360405160e060020a63ffffffff84160281526004810191909152602401602060405180830381600087803b1515610a1657600080fd5b5af11515610a2357600080fd5b50505060405180519150610a3f9050828263ffffffff611aef16565b60038054919350906000198101908110610a5557fe5b9060005260206000209060030201600384815481101515610a7257fe5b60009182526020909120825460039283029091018054600160a060020a031916600160a060020a0390921691909117815560018084015490820155600292830154920191909155805490610aca906000198301611c02565b50505050565b610ad8611c2e565b60005433600160a060020a03908116911614610af357600080fd5b60606040519081016040528084600019168152602001838152602001428152509050610b2c81602001516005549063ffffffff611b0116565b6005556006805460018101610b418382611c4e565b60009283526020909220839160030201815181556020820151816001015560408201518160020155505050505050565b610b79611c2e565b60003411610b8657600080fd5b60606040519081016040528033600160a060020a0316815260200134815260200142815250905060038054806001018281610bc19190611c02565b6000928352602090922083916003020181518154600160a060020a031916600160a060020a0391909116178155602082015181600101556040820151600290910155507f2c33c574213feb1047a6378e9beca724f8bda16b6624875a6dee2edb3edfcdb690508151826020015183604001516040518084600160a060020a0316600160a060020a03168152602001838152602001828152602001935050505060405180910390a150565b6000806000610c78611c2e565b60005433600160a060020a03908116911614610c9357600080fd5b6006805486908110610ca157fe5b9060005260206000209060030201606060405190810160409081528254825260018301546020830152600290920154918101919091529050805181602001518260400151935093509350509193909250565b600080548190819033600160a060020a03908116911614610d1357600080fd5b8380600160a060020a031633600160a060020a0316141515610d3457600080fd5b610d3d85611742565b1515600114610d4b57600080fd5b600160a060020a03851660009081526001602052604090205460028054919450906000198101908110610d7a57fe5b60009182526020909120015460028054600160a060020a039092169350839185908110610da357fe5b60009182526020808320919091018054600160a060020a031916600160a060020a0394851617905591841681526001909152604090208390556002805490610def906000198301611c7a565b5084600160a060020a03167f117183c06981515bdfa0b70d0448d8eb6ba07648cda62ab7c2b4361eeff80a1b8460405190815260200160405180910390a2600160a060020a0382166000818152600160208190526040918290209081015460028201546003909201547f36cd692caa63e05d06ec64ae3a07dffe3b224fecb32af5fa7bc1469f5bcdde57938893919051938452602084019290925260408084019190915260608301919091526080909101905180910390a250909392505050565b600160a060020a0333166000908152600d602052604090205481901015610ed657600080fd5b600160a060020a0333166000908152600d6020526040902054610eff908263ffffffff611aef16565b600160a060020a0333166000908152600d6020526040902055600b54610f2b908263ffffffff611aef16565b600b55600160a060020a0333167f97be2b260c37911b6820288ff7c611943a32889e8ce0bf313da8569522073d4d8260405190815260200160405180910390a250565b6000805481908190819033600160a060020a03908116911614610f9057600080fd5b8480600160a060020a031633600160a060020a0316141515610fb157600080fd5b610fba86611742565b1515600114610fc857600080fd5b50505050600160a060020a0391909116600090815260016020819052604090912080549181015460028201546003909201549294909350909190565b61100c611b29565b60005433600160a060020a0390811691161461102757600080fd5b600060078381548110151561103857fe5b9060005260206000209060040201600201541015151561105757600080fd5b600780548390811061106557fe5b9060005260206000209060040201608060405190810160405290816000820160009054906101000a9004600160a060020a0316600160a060020a0316600160a060020a03168152602001600182018054600181600116156101000203166002900480601f0160208091040260200160405190810160405280929190818152602001828054600181600116156101000203166002900480156111475780601f1061111c57610100808354040283529160200191611147565b820191906000526020600020905b81548152906001019060200180831161112a57829003601f168201915b505050918352505060028201546020820152600390910154604091820152600954919250600160a060020a03909116906367fbd2899083015160405160e060020a63ffffffff84160281526004810191909152602401600060405180830381600087803b15156111b657600080fd5b5af115156111c357600080fd5b50506007805490915060001981019081106111da57fe5b90600052602060002090600402016007838154811015156111f757fe5b6000918252602090912082546004909202018054600160a060020a031916600160a060020a039092169190911781556001808301805461124e92808501929160026000199282161561010002929092011604611c9e565b50600282810154908201556003918201549101556007805490611275906000198301611b58565b505050565b60055481565b60005433600160a060020a0390811691161461129b57600080fd5b60006006828154811015156112ac57fe5b906000526020600020906003020160010154101515156112cb57600080fd5b6113006006828154811015156112dd57fe5b906000526020600020906003020160010154600554611aef90919063ffffffff16565b60055560068054600019810190811061131557fe5b906000526020600020906003020160068281548110151561133257fe5b60009182526020909120825460039092020190815560018083015490820155600291820154910155600680549061136d906000198301611c4e565b5050565b600054600160a060020a031681565b6000806103e8600c54840281151561139457fe5b0490508015156113a757600191506113ab565b8091505b50919050565b6000805433600160a060020a039081169116146113cd57600080fd5b8480600160a060020a031633600160a060020a03161415156113ee57600080fd5b8484846113fa89611742565b151560011461140857600080fd5b600160a060020a0389166000818152600160208190526040918290209081018b9055600281018a905560038101899055547f36cd692caa63e05d06ec64ae3a07dffe3b224fecb32af5fa7bc1469f5bcdde57918b908b908b9051938452602084019290925260408084019190915260608301919091526080909101905180910390a250600198975050505050505050565b60025490565b6000805433600160a060020a039081169116146114bb57600080fd5b5060065490565b6114ca611c2e565b60005433600160a060020a039081169116146114e557600080fd5b60006003838154811015156114f657fe5b9060005260206000209060030201600101541015151561151557600080fd5b600380548390811061152357fe5b9060005260206000209060030201606060405190810160409081528254600160a060020a03168252600183015460208301526002909201549181019190915290508051600160a060020a03166108fc82602001519081150290604051600060405180830381858888f19350505050151561159c57600080fd5b6003805460001981019081106115ae57fe5b90600052602060002090600302016003838154811015156115cb57fe5b60009182526020909120825460039283029091018054600160a060020a031916600160a060020a0390921691909117815560018084015490820155600292830154920191909155805490611275906000198301611c02565b6000806000611630611c2e565b60005433600160a060020a0390811691161461164b57600080fd5b600380548690811061165957fe5b9060005260206000209060030201606060405190810160409081528254600160a060020a0316825260018301546020830152600290920154918101919091529050805181602001518260400151935093509350509193909250565b60005433600160a060020a039081169116146116cf57600080fd5b600160a060020a03811615156116e457600080fd5b600054600160a060020a0380831691167f8be0079c531659141344cd1fd0a4f28419497f9722a3daafe3b4186f6b6457e060405160405180910390a360008054600160a060020a031916600160a060020a0392909216919091179055565b600254600090151561175657506000611797565b600160a060020a03821660008181526001602052604090205460028054909190811061177e57fe5b600091825260209091200154600160a060020a03161490505b919050565b6117a4611b29565b60005433600160a060020a039081169116146117bf57600080fd5b60006007838154811015156117d057fe5b906000526020600020906004020160020154101515156117ef57600080fd5b60078054839081106117fd57fe5b9060005260206000209060040201608060405190810160405290816000820160009054906101000a9004600160a060020a0316600160a060020a0316600160a060020a03168152602001600182018054600181600116156101000203166002900480601f0160208091040260200160405190810160405280929190818152602001828054600181600116156101000203166002900480156118df5780601f106118b4576101008083540402835291602001916118df565b820191906000526020600020905b8154815290600101906020018083116118c257829003601f168201915b505050918352505060028201546020820152600390910154604090910152600854909150600160a060020a031663a9059cbb8251836040015160405160e060020a63ffffffff8516028152600160a060020a0390921660048301526024820152604401602060405180830381600087803b151561195b57600080fd5b5af1151561196857600080fd5b505050604051805150506007805460001981019081106111da57fe5b60008360005433600160a060020a039081169116146119a257600080fd5b83836119ad88611742565b156119b757600080fd5b600160a060020a03881660009081526001602081905260409091208082018990556002808201899055600390910187905580548083016119f78382611c7a565b60009283526020808420929092018054600160a060020a031916600160a060020a038e16908117909155808452600190925260409283902093900392839055917f78b833eacd29aac1183e31c8289157ed550f3b1f9f1526bf2055ef195cac287f918a908a908a9051938452602084019290925260408084019190915260608301919091526080909101905180910390a25050600254600019019695505050505050565b600a54600160a060020a031681565b6000805433600160a060020a03908116911614611ac657600080fd5b6002805483908110611ad457fe5b600091825260209091200154600160a060020a031692915050565b600082821115611afb57fe5b50900390565b600082820183811015611b1057fe5b9392505050565b60206040519081016040526000815290565b60806040519081016040526000815260208101611b44611b17565b815260200160008152602001600081525090565b815481835581811511611275576004028160040283600052602060002091820191016112759190611d13565b828054600181600116156101000203166002900490600052602060002090601f016020900481019282601f10611bc557805160ff1916838001178555611bf2565b82800160010185558215611bf2579182015b82811115611bf2578251825591602001919060010190611bd7565b50611bfe929150611d55565b5090565b815481835581811511611275576003028160030283600052602060002091820191016112759190611d6f565b606060405190810160409081526000808352602083018190529082015290565b815481835581811511611275576003028160030283600052602060002091820191016112759190611da1565b81548183558181151161127557600083815260209020611275918101908301611d55565b828054600181600116156101000203166002900490600052602060002090601f016020900481019282601f10611cd75780548555611bf2565b82800160010185558215611bf257600052602060002091601f016020900482015b82811115611bf2578254825591600101919060010190611cf8565b61058991905b80821115611bfe578054600160a060020a03191681556000611d3e6001830182611dc8565b506000600282018190556003820155600401611d19565b61058991905b80821115611bfe5760008155600101611d5b565b61058991905b80821115611bfe578054600160a060020a03191681556000600182018190556002820155600301611d75565b61058991905b80821115611bfe576000808255600182018190556002820155600301611da7565b50805460018160011615610100020316600290046000825580601f10611dee5750611e0c565b601f016020900490600052602060002090810190611e0c9190611d55565b505600a165627a7a723058207a94b64c510921e797fe268832fe4363dc83e38443688cc91e5d30b6d367dbfe0029",
  "source": "pragma solidity ^0.4.21;\r\n\r\nimport \"./zeppelin/SafeMath.sol\";\r\nimport \"./Order.sol\";\r\nimport \"./Certificate.sol\";\r\nimport \"./Redemption.sol\";\r\nimport \"./PowerPiperToken.sol\";\r\n\r\n\r\ncontract Exchange is Orders, Certificates, Redemptions {\r\n    using SafeMath for uint;\r\n\r\n    PowerPiperToken public token;\r\n    uint256 _supply = 0;\r\n    uint fee  = 1;\r\n    mapping(address => uint) balances;\r\n    event DestroyTokensEvent(address indexed _from, uint _value);\r\n    // uint public fee = 300; // 300 = 0.3% in 1-digit precision\r\n    // uint public energyPriceMarkup = 1000; // 1000 = 1% in 3-digit precision\r\n\r\n    // @TODO fee functions duplicate with Token, should be united\r\n    function Exchange(address _tokenAddress) public {\r\n        token = PowerPiperToken(_tokenAddress);\r\n        // fee = 300; // 300 = 0.3% in 1-digit precision\r\n        // energyPriceMarkup = 1000; // 1000 = 1% in 3-digit precision\r\n    }\r\n\r\n    function destroyTokens(uint _value) external {\r\n        require(balances[msg.sender] >= _value);\r\n\r\n        balances[msg.sender] = balances[msg.sender].sub(_value);\r\n        _supply = _supply.sub(_value);\r\n\r\n        emit DestroyTokensEvent(msg.sender, _value);\r\n    }\r\n\r\n    function calculateFee(uint _amount) public constant returns (uint) {\r\n        uint feeAmount = _amount * fee / 1000;\r\n\r\n        if (feeAmount == 0) {\r\n            return 1;\r\n        } else {\r\n            return feeAmount;\r\n        }\r\n    }\r\n\r\n}\r\n",
  "sourcePath": "C:\\Users\\DXenu\\Desktop\\box\\demo_contract\\contracts\\Exchange.sol",
  "compiler": {
    "name": "solc",
    "version": "0.4.21+commit.dfe3193c.Emscripten.clang"
  },
  "schemaVersion": "2.0.0",
  "updatedAt": "2018-04-14T18:23:52.385Z"
}