{
  "contractName": "Exchange",
  "abi": [
    {
      "constant": true,
      "inputs": [],
      "name": "getOrdersLength",
      "outputs": [
        {
          "name": "",
          "type": "uint256"
        }
      ],
      "payable": false,
      "stateMutability": "view",
      "type": "function"
    },
    {
      "constant": true,
      "inputs": [
        {
          "name": "_index",
          "type": "uint256"
        }
      ],
      "name": "getRedemption",
      "outputs": [
        {
          "name": "",
          "type": "address"
        },
        {
          "name": "",
          "type": "uint256"
        },
        {
          "name": "",
          "type": "string"
        },
        {
          "name": "",
          "type": "uint256"
        }
      ],
      "payable": false,
      "stateMutability": "view",
      "type": "function"
    },
    {
      "constant": true,
      "inputs": [
        {
          "name": "addr",
          "type": "address"
        }
      ],
      "name": "validate",
      "outputs": [
        {
          "name": "",
          "type": "bool"
        }
      ],
      "payable": false,
      "stateMutability": "view",
      "type": "function"
    },
    {
      "constant": false,
      "inputs": [
        {
          "name": "_value",
          "type": "uint256"
        },
        {
          "name": "_location",
          "type": "string"
        }
      ],
      "name": "redeem",
      "outputs": [
        {
          "name": "",
          "type": "uint256"
        }
      ],
      "payable": false,
      "stateMutability": "nonpayable",
      "type": "function"
    },
    {
      "constant": true,
      "inputs": [],
      "name": "getRedemptionsLength",
      "outputs": [
        {
          "name": "",
          "type": "uint256"
        }
      ],
      "payable": false,
      "stateMutability": "view",
      "type": "function"
    },
    {
      "constant": false,
      "inputs": [
        {
          "name": "_index",
          "type": "uint256"
        },
        {
          "name": "_amount",
          "type": "uint256"
        }
      ],
      "name": "approveOrder",
      "outputs": [],
      "payable": false,
      "stateMutability": "nonpayable",
      "type": "function"
    },
    {
      "constant": false,
      "inputs": [
        {
          "name": "_url",
          "type": "bytes32"
        },
        {
          "name": "_amount",
          "type": "uint256"
        }
      ],
      "name": "addCertificate",
      "outputs": [],
      "payable": false,
      "stateMutability": "nonpayable",
      "type": "function"
    },
    {
      "constant": false,
      "inputs": [],
      "name": "buyDirect",
      "outputs": [],
      "payable": true,
      "stateMutability": "payable",
      "type": "function"
    },
    {
      "constant": true,
      "inputs": [
        {
          "name": "_index",
          "type": "uint256"
        }
      ],
      "name": "getCertificate",
      "outputs": [
        {
          "name": "",
          "type": "bytes32"
        },
        {
          "name": "",
          "type": "uint256"
        },
        {
          "name": "",
          "type": "uint256"
        }
      ],
      "payable": false,
      "stateMutability": "view",
      "type": "function"
    },
    {
      "constant": false,
      "inputs": [
        {
          "name": "_addr",
          "type": "address"
        }
      ],
      "name": "deleteUser",
      "outputs": [
        {
          "name": "index",
          "type": "uint256"
        }
      ],
      "payable": false,
      "stateMutability": "nonpayable",
      "type": "function"
    },
    {
      "constant": true,
      "inputs": [
        {
          "name": "_addr",
          "type": "address"
        }
      ],
      "name": "getUser",
      "outputs": [
        {
          "name": "index",
          "type": "uint256"
        },
        {
          "name": "email",
          "type": "bytes32"
        },
        {
          "name": "firstName",
          "type": "bytes32"
        },
        {
          "name": "lastName",
          "type": "bytes32"
        }
      ],
      "payable": false,
      "stateMutability": "view",
      "type": "function"
    },
    {
      "constant": false,
      "inputs": [
        {
          "name": "_index",
          "type": "uint256"
        }
      ],
      "name": "approveRedemption",
      "outputs": [],
      "payable": false,
      "stateMutability": "nonpayable",
      "type": "function"
    },
    {
      "constant": true,
      "inputs": [],
      "name": "reserves",
      "outputs": [
        {
          "name": "",
          "type": "uint256"
        }
      ],
      "payable": false,
      "stateMutability": "view",
      "type": "function"
    },
    {
      "constant": false,
      "inputs": [
        {
          "name": "_index",
          "type": "uint256"
        }
      ],
      "name": "deleteCertificate",
      "outputs": [],
      "payable": false,
      "stateMutability": "nonpayable",
      "type": "function"
    },
    {
      "constant": true,
      "inputs": [],
      "name": "owner",
      "outputs": [
        {
          "name": "",
          "type": "address"
        }
      ],
      "payable": false,
      "stateMutability": "view",
      "type": "function"
    },
    {
      "constant": false,
      "inputs": [
        {
          "name": "_addr",
          "type": "address"
        },
        {
          "name": "_email",
          "type": "bytes32"
        },
        {
          "name": "_firstName",
          "type": "bytes32"
        },
        {
          "name": "_lastName",
          "type": "bytes32"
        }
      ],
      "name": "updateUser",
      "outputs": [
        {
          "name": "",
          "type": "bool"
        }
      ],
      "payable": false,
      "stateMutability": "nonpayable",
      "type": "function"
    },
    {
      "constant": true,
      "inputs": [],
      "name": "getUserCount",
      "outputs": [
        {
          "name": "count",
          "type": "uint256"
        }
      ],
      "payable": false,
      "stateMutability": "view",
      "type": "function"
    },
    {
      "constant": true,
      "inputs": [],
      "name": "getCertificatesLength",
      "outputs": [
        {
          "name": "",
          "type": "uint256"
        }
      ],
      "payable": false,
      "stateMutability": "view",
      "type": "function"
    },
    {
      "constant": false,
      "inputs": [
        {
          "name": "_index",
          "type": "uint256"
        }
      ],
      "name": "declineOrder",
      "outputs": [],
      "payable": false,
      "stateMutability": "nonpayable",
      "type": "function"
    },
    {
      "constant": true,
      "inputs": [
        {
          "name": "_index",
          "type": "uint256"
        }
      ],
      "name": "getOrder",
      "outputs": [
        {
          "name": "",
          "type": "address"
        },
        {
          "name": "",
          "type": "uint256"
        },
        {
          "name": "",
          "type": "uint256"
        }
      ],
      "payable": false,
      "stateMutability": "view",
      "type": "function"
    },
    {
      "constant": false,
      "inputs": [
        {
          "name": "newOwner",
          "type": "address"
        }
      ],
      "name": "transferOwnership",
      "outputs": [],
      "payable": false,
      "stateMutability": "nonpayable",
      "type": "function"
    },
    {
      "constant": true,
      "inputs": [
        {
          "name": "_addr",
          "type": "address"
        }
      ],
      "name": "existsUser",
      "outputs": [
        {
          "name": "isIndexed",
          "type": "bool"
        }
      ],
      "payable": false,
      "stateMutability": "view",
      "type": "function"
    },
    {
      "constant": false,
      "inputs": [
        {
          "name": "_index",
          "type": "uint256"
        }
      ],
      "name": "declineRedemption",
      "outputs": [],
      "payable": false,
      "stateMutability": "nonpayable",
      "type": "function"
    },
    {
      "constant": false,
      "inputs": [
        {
          "name": "_addr",
          "type": "address"
        },
        {
          "name": "_email",
          "type": "bytes32"
        },
        {
          "name": "_firstName",
          "type": "bytes32"
        },
        {
          "name": "_lastName",
          "type": "bytes32"
        }
      ],
      "name": "newtUser",
      "outputs": [
        {
          "name": "index",
          "type": "uint256"
        }
      ],
      "payable": false,
      "stateMutability": "nonpayable",
      "type": "function"
    },
    {
      "constant": true,
      "inputs": [],
      "name": "token",
      "outputs": [
        {
          "name": "",
          "type": "address"
        }
      ],
      "payable": false,
      "stateMutability": "view",
      "type": "function"
    },
    {
      "constant": true,
      "inputs": [
        {
          "name": "index",
          "type": "uint256"
        }
      ],
      "name": "getUserAtIndex",
      "outputs": [
        {
          "name": "_addr",
          "type": "address"
        }
      ],
      "payable": false,
      "stateMutability": "view",
      "type": "function"
    },
    {
      "inputs": [
        {
          "name": "_tokenAddress",
          "type": "address"
        }
      ],
      "payable": false,
      "stateMutability": "nonpayable",
      "type": "constructor"
    },
    {
      "anonymous": false,
      "inputs": [
        {
          "indexed": true,
          "name": "_from",
          "type": "address"
        },
        {
          "indexed": false,
          "name": "_value",
          "type": "uint256"
        }
      ],
      "name": "DestroyTokensEvent",
      "type": "event"
    },
    {
      "anonymous": false,
      "inputs": [
        {
          "indexed": false,
          "name": "_redeember",
          "type": "address"
        },
        {
          "indexed": false,
          "name": "_amount",
          "type": "uint256"
        },
        {
          "indexed": false,
          "name": "_timestamp",
          "type": "uint256"
        }
      ],
      "name": "RedeemEvent",
      "type": "event"
    },
    {
      "anonymous": false,
      "inputs": [
        {
          "indexed": false,
          "name": "_buyer",
          "type": "address"
        },
        {
          "indexed": false,
          "name": "_amount",
          "type": "uint256"
        },
        {
          "indexed": false,
          "name": "_timestamp",
          "type": "uint256"
        }
      ],
      "name": "BuyDirectEvent",
      "type": "event"
    },
    {
      "anonymous": false,
      "inputs": [
        {
          "indexed": true,
          "name": "_addr",
          "type": "address"
        },
        {
          "indexed": false,
          "name": "_index",
          "type": "uint256"
        },
        {
          "indexed": false,
          "name": "_email",
          "type": "bytes32"
        },
        {
          "indexed": false,
          "name": "_firstName",
          "type": "bytes32"
        },
        {
          "indexed": false,
          "name": "_lastName",
          "type": "bytes32"
        }
      ],
      "name": "NewUser",
      "type": "event"
    },
    {
      "anonymous": false,
      "inputs": [
        {
          "indexed": true,
          "name": "_addr",
          "type": "address"
        },
        {
          "indexed": false,
          "name": "_index",
          "type": "uint256"
        },
        {
          "indexed": false,
          "name": "_email",
          "type": "bytes32"
        },
        {
          "indexed": false,
          "name": "_firstName",
          "type": "bytes32"
        },
        {
          "indexed": false,
          "name": "_lastName",
          "type": "bytes32"
        }
      ],
      "name": "UpdateUser",
      "type": "event"
    },
    {
      "anonymous": false,
      "inputs": [
        {
          "indexed": true,
          "name": "_addr",
          "type": "address"
        },
        {
          "indexed": false,
          "name": "_index",
          "type": "uint256"
        }
      ],
      "name": "DeleteUser",
      "type": "event"
    },
    {
      "anonymous": false,
      "inputs": [
        {
          "indexed": true,
          "name": "previousOwner",
          "type": "address"
        },
        {
          "indexed": true,
          "name": "newOwner",
          "type": "address"
        }
      ],
      "name": "OwnershipTransferred",
      "type": "event"
    },
    {
      "constant": false,
      "inputs": [
        {
          "name": "_value",
          "type": "uint256"
        }
      ],
      "name": "destroyTokens",
      "outputs": [],
      "payable": false,
      "stateMutability": "nonpayable",
      "type": "function"
    },
    {
      "constant": true,
      "inputs": [
        {
          "name": "_amount",
          "type": "uint256"
        }
      ],
      "name": "calculateFee",
      "outputs": [
        {
          "name": "",
          "type": "uint256"
        }
      ],
      "payable": false,
      "stateMutability": "view",
      "type": "function"
    }
  ],
  "bytecode": "0x606060405260006005556000600b556001600c55341561001e57600080fd5b604051602080611eef8339810160405280805160008054600160a060020a03338116600160a060020a031992831617909255600a80549290931691161790555050611e818061006e6000396000f3006060604052600436106101505763ffffffff60e060020a60003504166307c2e16c81146101555780631953cc211461017a578063207c64fb1461022757806324b76fd51461025a578063342a382d146102b05780634198bb7b146102c357806347c9e356146102de578063483e0bd9146102f757806351640fee146102ff5780635c60f2261461033957806367fbd289146103585780636f77926b1461036e57806370047924146103b957806375172a8b146103cf578063883eeb6e146103e25780638da5cb5b146103f857806399a5d747146104275780639bd19ca91461043d578063b5cb15f714610465578063c503b4da14610478578063ccbdb85c1461048b578063d09ef241146104a1578063f2fde38b146104ed578063f409e87d1461050c578063f4f331581461052b578063f53f35ff14610541578063fc0c546a14610569578063ffcc7bbf1461057c575b600080fd5b341561016057600080fd5b610168610592565b60405190815260200160405180910390f35b341561018557600080fd5b6101906004356105b6565b604051600160a060020a0385168152602081018490526060810182905260806040820181815290820184818151815260200191508051906020019080838360005b838110156101e95780820151838201526020016101d1565b50505050905090810190601f1680156102165780820380516001836020036101000a031916815260200191505b509550505050505060405180910390f35b341561023257600080fd5b610246600160a060020a0360043516610717565b604051901515815260200160405180910390f35b341561026557600080fd5b610168600480359060446024803590810190830135806020601f8201819004810201604051908101604052818152929190602084018383808284375094965061072f95505050505050565b34156102bb57600080fd5b6101686109a1565b34156102ce57600080fd5b6102dc6004356024356109c4565b005b34156102e957600080fd5b6102dc600435602435610b12565b6102dc610bb3565b341561030a57600080fd5b610315600435610cad565b60405192835260208301919091526040808301919091526060909101905180910390f35b341561034457600080fd5b610168600160a060020a0360043516610d35565b341561036357600080fd5b6102dc600435610ef2565b341561037957600080fd5b61038d600160a060020a0360043516610fb0565b604051938452602084019290925260408084019190915260608301919091526080909101905180910390f35b34156103c457600080fd5b6102dc600435611046565b34156103da57600080fd5b6101686112bc565b34156103ed57600080fd5b6102dc6004356112c2565b341561040357600080fd5b61040b6113b3565b604051600160a060020a03909116815260200160405180910390f35b341561043257600080fd5b6101686004356113c2565b341561044857600080fd5b610246600160a060020a03600435166024356044356064356113f3565b341561047057600080fd5b6101686114db565b341561048357600080fd5b6101686114e1565b341561049657600080fd5b6102dc600435611504565b34156104ac57600080fd5b6104b7600435611665565b6040518084600160a060020a0316600160a060020a03168152602001838152602001828152602001935050505060405180910390f35b34156104f857600080fd5b6102dc600160a060020a03600435166116f6565b341561051757600080fd5b610246600160a060020a0360043516611784565b341561053657600080fd5b6102dc6004356117dc565b341561054c57600080fd5b610168600160a060020a03600435166024356044356064356119c4565b341561057457600080fd5b61040b611adb565b341561058757600080fd5b61040b600435611aea565b6000805433600160a060020a039081169116146105ae57600080fd5b506003545b90565b6000806105c1611b5d565b60006105cb611b6f565b60005433600160a060020a039081169116146105e657600080fd5b60078054879081106105f457fe5b9060005260206000209060040201608060405190810160405290816000820160009054906101000a9004600160a060020a0316600160a060020a0316600160a060020a03168152602001600182018054600181600116156101000203166002900480601f0160208091040260200160405190810160405280929190818152602001828054600181600116156101000203166002900480156106d65780601f106106ab576101008083540402835291602001916106d6565b820191906000526020600020905b8154815290600101906020018083116106b957829003601f168201915b505050918352505060028201546020820152600390910154604090910152905080518160400151826020015183606001519299919850965090945092505050565b60005433600160a060020a039081169116145b919050565b6000610739611b6f565b6008548490600160a060020a03166370a082313360405160e060020a63ffffffff8416028152600160a060020a039091166004820152602401602060405180830381600087803b151561078b57600080fd5b5af1151561079857600080fd5b50505060405180519050101515156107af57600080fd5b600854600160a060020a031663095ea7b3338660405160e060020a63ffffffff8516028152600160a060020a0390921660048301526024820152604401602060405180830381600087803b151561080557600080fd5b5af1151561081257600080fd5b50505060405180515050600854600160a060020a03166323b872dd33308760405160e060020a63ffffffff8616028152600160a060020a0393841660048201529190921660248201526044810191909152606401602060405180830381600087803b151561087f57600080fd5b5af1151561088c57600080fd5b505050604051805190505060806040519081016040528033600160a060020a03168152602001848152602001858152602001428152509050600780548060010182816108d89190611b9e565b6000928352602090922083916004020181518154600160a060020a031916600160a060020a039190911617815560208201518160010190805161091f929160200190611bca565b50604082015181600201556060820151600390910155507f0e46a0c191564864bd7a70f14ef566cba8f8494211c829a52275f65d5b7d4ce290508151826040015183606001516040518084600160a060020a0316600160a060020a03168152602001838152602001828152602001935050505060405180910390a15092915050565b6000805433600160a060020a039081169116146109bd57600080fd5b5060075490565b6000805433600160a060020a039081169116146109e057600080fd5b60006003848154811015156109f157fe5b90600052602060002090600302016001015410151515610a1057600080fd5b600454600160a060020a03166399a5d7478360405160e060020a63ffffffff84160281526004810191909152602401602060405180830381600087803b1515610a5857600080fd5b5af11515610a6557600080fd5b50505060405180519150610a819050828263ffffffff611b2f16565b60038054919350906000198101908110610a9757fe5b9060005260206000209060030201600384815481101515610ab457fe5b60009182526020909120825460039283029091018054600160a060020a031916600160a060020a0390921691909117815560018084015490820155600292830154920191909155805490610b0c906000198301611c48565b50505050565b610b1a611c74565b60005433600160a060020a03908116911614610b3557600080fd5b60606040519081016040528084600019168152602001838152602001428152509050610b6e81602001516005549063ffffffff611b4416565b6005556006805460018101610b838382611c94565b60009283526020909220839160030201815181556020820151816001015560408201518160020155505050505050565b610bbb611c74565b60003411610bc857600080fd5b60606040519081016040528033600160a060020a0316815260200134815260200142815250905060038054806001018281610c039190611c48565b6000928352602090922083916003020181518154600160a060020a031916600160a060020a0391909116178155602082015181600101556040820151600290910155507f2c33c574213feb1047a6378e9beca724f8bda16b6624875a6dee2edb3edfcdb690508151826020015183604001516040518084600160a060020a0316600160a060020a03168152602001838152602001828152602001935050505060405180910390a150565b6000806000610cba611c74565b60005433600160a060020a03908116911614610cd557600080fd5b6006805486908110610ce357fe5b9060005260206000209060030201606060405190810160409081528254825260018301546020830152600290920154918101919091529050805181602001518260400151935093509350509193909250565b600080548190819033600160a060020a03908116911614610d5557600080fd5b8380600160a060020a031633600160a060020a0316141515610d7657600080fd5b610d7f85611784565b1515600114610d8d57600080fd5b600160a060020a03851660009081526001602052604090205460028054919450906000198101908110610dbc57fe5b60009182526020909120015460028054600160a060020a039092169350839185908110610de557fe5b60009182526020808320919091018054600160a060020a031916600160a060020a0394851617905591841681526001909152604090208390556002805490610e31906000198301611cc0565b5084600160a060020a03167f117183c06981515bdfa0b70d0448d8eb6ba07648cda62ab7c2b4361eeff80a1b8460405190815260200160405180910390a2600160a060020a0382166000818152600160208190526040918290209081015460028201546003909201547f36cd692caa63e05d06ec64ae3a07dffe3b224fecb32af5fa7bc1469f5bcdde57938893919051938452602084019290925260408084019190915260608301919091526080909101905180910390a250909392505050565b600160a060020a0333166000908152600d602052604090205481901015610f1857600080fd5b600160a060020a0333166000908152600d6020526040902054610f41908263ffffffff611b2f16565b600160a060020a0333166000908152600d6020526040902055600b54610f6d908263ffffffff611b2f16565b600b55600160a060020a0333167f97be2b260c37911b6820288ff7c611943a32889e8ce0bf313da8569522073d4d8260405190815260200160405180910390a250565b6000805481908190819033600160a060020a03908116911614610fd257600080fd5b8480600160a060020a031633600160a060020a0316141515610ff357600080fd5b610ffc86611784565b151560011461100a57600080fd5b50505050600160a060020a0391909116600090815260016020819052604090912080549181015460028201546003909201549294909350909190565b61104e611b6f565b60005433600160a060020a0390811691161461106957600080fd5b600060078381548110151561107a57fe5b9060005260206000209060040201600201541015151561109957600080fd5b60078054839081106110a757fe5b9060005260206000209060040201608060405190810160405290816000820160009054906101000a9004600160a060020a0316600160a060020a0316600160a060020a03168152602001600182018054600181600116156101000203166002900480601f0160208091040260200160405190810160405280929190818152602001828054600181600116156101000203166002900480156111895780601f1061115e57610100808354040283529160200191611189565b820191906000526020600020905b81548152906001019060200180831161116c57829003601f168201915b505050918352505060028201546020820152600390910154604091820152600954919250600160a060020a03909116906367fbd2899083015160405160e060020a63ffffffff84160281526004810191909152602401600060405180830381600087803b15156111f857600080fd5b5af1151561120557600080fd5b505060078054909150600019810190811061121c57fe5b906000526020600020906004020160078381548110151561123957fe5b6000918252602090912082546004909202018054600160a060020a031916600160a060020a039092169190911781556001808301805461129092808501929160026000199282161561010002929092011604611ce4565b506002828101549082015560039182015491015560078054906112b7906000198301611b9e565b505050565b60055481565b60005433600160a060020a039081169116146112dd57600080fd5b60006006828154811015156112ee57fe5b9060005260206000209060030201600101541015151561130d57600080fd5b61134260068281548110151561131f57fe5b906000526020600020906003020160010154600554611b2f90919063ffffffff16565b60055560068054600019810190811061135757fe5b906000526020600020906003020160068281548110151561137457fe5b6000918252602090912082546003909202019081556001808301549082015560029182015491015560068054906113af906000198301611c94565b5050565b600054600160a060020a031681565b6000806103e8600c5484028115156113d657fe5b0490508015156113e957600191506113ed565b8091505b50919050565b6000805433600160a060020a0390811691161461140f57600080fd5b8480600160a060020a031633600160a060020a031614151561143057600080fd5b84848461143c89611784565b151560011461144a57600080fd5b600160a060020a0389166000818152600160208190526040918290209081018b9055600281018a905560038101899055547f36cd692caa63e05d06ec64ae3a07dffe3b224fecb32af5fa7bc1469f5bcdde57918b908b908b9051938452602084019290925260408084019190915260608301919091526080909101905180910390a250600198975050505050505050565b60025490565b6000805433600160a060020a039081169116146114fd57600080fd5b5060065490565b61150c611c74565b60005433600160a060020a0390811691161461152757600080fd5b600060038381548110151561153857fe5b9060005260206000209060030201600101541015151561155757600080fd5b600380548390811061156557fe5b9060005260206000209060030201606060405190810160409081528254600160a060020a03168252600183015460208301526002909201549181019190915290508051600160a060020a03166108fc82602001519081150290604051600060405180830381858888f1935050505015156115de57600080fd5b6003805460001981019081106115f057fe5b906000526020600020906003020160038381548110151561160d57fe5b60009182526020909120825460039283029091018054600160a060020a031916600160a060020a03909216919091178155600180840154908201556002928301549201919091558054906112b7906000198301611c48565b6000806000611672611c74565b60005433600160a060020a0390811691161461168d57600080fd5b600380548690811061169b57fe5b9060005260206000209060030201606060405190810160409081528254600160a060020a0316825260018301546020830152600290920154918101919091529050805181602001518260400151935093509350509193909250565b60005433600160a060020a0390811691161461171157600080fd5b600160a060020a038116151561172657600080fd5b600054600160a060020a0380831691167f8be0079c531659141344cd1fd0a4f28419497f9722a3daafe3b4186f6b6457e060405160405180910390a360008054600160a060020a031916600160a060020a0392909216919091179055565b60025460009015156117985750600061072a565b600160a060020a0382166000818152600160205260409020546002805490919081106117c057fe5b600091825260209091200154600160a060020a03161492915050565b6117e4611b6f565b60005433600160a060020a039081169116146117ff57600080fd5b600060078381548110151561181057fe5b9060005260206000209060040201600201541015151561182f57600080fd5b600780548390811061183d57fe5b9060005260206000209060040201608060405190810160405290816000820160009054906101000a9004600160a060020a0316600160a060020a0316600160a060020a03168152602001600182018054600181600116156101000203166002900480601f01602080910402602001604051908101604052809291908181526020018280546001816001161561010002031660029004801561191f5780601f106118f45761010080835404028352916020019161191f565b820191906000526020600020905b81548152906001019060200180831161190257829003601f168201915b505050918352505060028201546020820152600390910154604090910152600854909150600160a060020a031663a9059cbb8251836040015160405160e060020a63ffffffff8516028152600160a060020a0390921660048301526024820152604401602060405180830381600087803b151561199b57600080fd5b5af115156119a857600080fd5b5050506040518051505060078054600019810190811061121c57fe5b60008360005433600160a060020a039081169116146119e257600080fd5b83836119ed88611784565b156119f757600080fd5b600160a060020a0388166000908152600160208190526040909120808201899055600280820189905560039091018790558054808301611a378382611cc0565b60009283526020808420929092018054600160a060020a031916600160a060020a038e16908117909155808452600190925260409283902093900392839055917f78b833eacd29aac1183e31c8289157ed550f3b1f9f1526bf2055ef195cac287f918a908a908a9051938452602084019290925260408084019190915260608301919091526080909101905180910390a25050600254600019019695505050505050565b600a54600160a060020a031681565b6000805433600160a060020a03908116911614611b0657600080fd5b6002805483908110611b1457fe5b600091825260209091200154600160a060020a031692915050565b600082821115611b3e57600080fd5b50900390565b600082820183811015611b5657600080fd5b9392505050565b60206040519081016040526000815290565b60806040519081016040526000815260208101611b8a611b5d565b815260200160008152602001600081525090565b8154818355818115116112b7576004028160040283600052602060002091820191016112b79190611d59565b828054600181600116156101000203166002900490600052602060002090601f016020900481019282601f10611c0b57805160ff1916838001178555611c38565b82800160010185558215611c38579182015b82811115611c38578251825591602001919060010190611c1d565b50611c44929150611d9b565b5090565b8154818355818115116112b7576003028160030283600052602060002091820191016112b79190611db5565b606060405190810160409081526000808352602083018190529082015290565b8154818355818115116112b7576003028160030283600052602060002091820191016112b79190611de7565b8154818355818115116112b7576000838152602090206112b7918101908301611d9b565b828054600181600116156101000203166002900490600052602060002090601f016020900481019282601f10611d1d5780548555611c38565b82800160010185558215611c3857600052602060002091601f016020900482015b82811115611c38578254825591600101919060010190611d3e565b6105b391905b80821115611c44578054600160a060020a03191681556000611d846001830182611e0e565b506000600282018190556003820155600401611d5f565b6105b391905b80821115611c445760008155600101611da1565b6105b391905b80821115611c44578054600160a060020a03191681556000600182018190556002820155600301611dbb565b6105b391905b80821115611c44576000808255600182018190556002820155600301611ded565b50805460018160011615610100020316600290046000825580601f10611e345750611e52565b601f016020900490600052602060002090810190611e529190611d9b565b505600a165627a7a72305820e64edf61e0101eb6cd2e7437aa2ccc5519e8d9bed83e332fa5dee9200f2c3ead0029",
  "source": "pragma solidity ^0.4.21;\r\n\r\nimport \"./zeppelin/SafeMath.sol\";\r\nimport \"./Order.sol\";\r\nimport \"./Certificate.sol\";\r\nimport \"./Redemption.sol\";\r\nimport \"./PowerPiperToken.sol\";\r\n\r\n\r\ncontract Exchange is Orders, Certificates, Redemptions {\r\n    using SafeMath for uint;\r\n\r\n    PowerPiperToken public token;\r\n    uint256 _supply = 0;\r\n    uint fee  = 1;\r\n    mapping(address => uint) balances;\r\n    event DestroyTokensEvent(address indexed _from, uint _value);\r\n    // uint public fee = 300; // 300 = 0.3% in 1-digit precision\r\n    // uint public energyPriceMarkup = 1000; // 1000 = 1% in 3-digit precision\r\n\r\n    // @TODO fee functions duplicate with Token, should be united\r\n    function Exchange(address _tokenAddress) public {\r\n        token = PowerPiperToken(_tokenAddress);\r\n        // fee = 300; // 300 = 0.3% in 1-digit precision\r\n        // energyPriceMarkup = 1000; // 1000 = 1% in 3-digit precision\r\n    }\r\n\r\n    function destroyTokens(uint _value) external {\r\n        require(balances[msg.sender] >= _value);\r\n\r\n        balances[msg.sender] = balances[msg.sender].sub(_value);\r\n        _supply = _supply.sub(_value);\r\n\r\n        emit DestroyTokensEvent(msg.sender, _value);\r\n    }\r\n\r\n    function calculateFee(uint _amount) public constant returns (uint) {\r\n        uint feeAmount = _amount * fee / 1000;\r\n\r\n        if (feeAmount == 0) {\r\n            return 1;\r\n        } else {\r\n            return feeAmount;\r\n        }\r\n    }\r\n\r\n}\r\n",
  "sourcePath": "C:\\Users\\DXenu\\Desktop\\box\\demo_contract\\contracts\\Exchange.sol",
  "compiler": {
    "name": "solc",
    "version": "0.4.21+commit.dfe3193c.Emscripten.clang"
  },
  "schemaVersion": "2.0.0",
  "updatedAt": "2018-04-16T11:26:28.959Z"
}