{
  "contractName": "HasNoContracts",
  "abi": [
    {
      "constant": true,
      "inputs": [
        {
          "name": "addr",
          "type": "address"
        }
      ],
      "name": "validate",
      "outputs": [
        {
          "name": "",
          "type": "bool"
        }
      ],
      "payable": false,
      "stateMutability": "view",
      "type": "function"
    },
    {
      "constant": true,
      "inputs": [],
      "name": "owner",
      "outputs": [
        {
          "name": "",
          "type": "address"
        }
      ],
      "payable": false,
      "stateMutability": "view",
      "type": "function"
    },
    {
      "constant": false,
      "inputs": [
        {
          "name": "newOwner",
          "type": "address"
        }
      ],
      "name": "transferOwnership",
      "outputs": [],
      "payable": false,
      "stateMutability": "nonpayable",
      "type": "function"
    },
    {
      "anonymous": false,
      "inputs": [
        {
          "indexed": true,
          "name": "previousOwner",
          "type": "address"
        },
        {
          "indexed": true,
          "name": "newOwner",
          "type": "address"
        }
      ],
      "name": "OwnershipTransferred",
      "type": "event"
    },
    {
      "constant": false,
      "inputs": [
        {
          "name": "contractAddr",
          "type": "address"
        }
      ],
      "name": "reclaimContract",
      "outputs": [],
      "payable": false,
      "stateMutability": "nonpayable",
      "type": "function"
    }
  ],
  "bytecode": "0x606060405260008054600160a060020a033316600160a060020a0319909116179055610295806100306000396000f3006060604052600436106100615763ffffffff7c0100000000000000000000000000000000000000000000000000000000600035041663207c64fb81146100665780632aed7f3f146100995780638da5cb5b146100ba578063f2fde38b146100e9575b600080fd5b341561007157600080fd5b610085600160a060020a0360043516610108565b604051901515815260200160405180910390f35b34156100a457600080fd5b6100b8600160a060020a036004351661011f565b005b34156100c557600080fd5b6100cd6101bf565b604051600160a060020a03909116815260200160405180910390f35b34156100f457600080fd5b6100b8600160a060020a03600435166101ce565b60005433600160a060020a03908116911614919050565b6000805433600160a060020a0390811691161461013b57600080fd5b506000548190600160a060020a038083169163f2fde38b91166040517c010000000000000000000000000000000000000000000000000000000063ffffffff8416028152600160a060020a039091166004820152602401600060405180830381600087803b15156101ab57600080fd5b5af115156101b857600080fd5b5050505050565b600054600160a060020a031681565b60005433600160a060020a039081169116146101e957600080fd5b600160a060020a03811615156101fe57600080fd5b600054600160a060020a0380831691167f8be0079c531659141344cd1fd0a4f28419497f9722a3daafe3b4186f6b6457e060405160405180910390a36000805473ffffffffffffffffffffffffffffffffffffffff1916600160a060020a03929092169190911790555600a165627a7a7230582006484150f9544133d676e924edae887fcd9868922179db1a3bc46c4a6f2b2a920029",
  "source": "pragma solidity ^0.4.21;\r\n\r\nimport \"./Ownable.sol\";\r\n\r\n\r\ncontract HasNoContracts is Ownable {\r\n\r\n    function reclaimContract(address contractAddr) external onlyOwner {\r\n        Ownable contractInst = Ownable(contractAddr);\r\n        contractInst.transferOwnership(owner);\r\n    }\r\n}\r\n",
  "sourcePath": "C:\\Users\\DXenu\\Desktop\\box\\demo_contract\\contracts\\zeppelin\\HasNoContracts.sol",
  "compiler": {
    "name": "solc",
    "version": "0.4.21+commit.dfe3193c.Emscripten.clang"
  },
  "schemaVersion": "2.0.0",
  "updatedAt": "2018-04-16T11:26:29.024Z"
}