{
  "contractName": "HasNoContracts",
  "abi": [
    {
      "constant": true,
      "inputs": [],
      "name": "owner",
      "outputs": [
        {
          "name": "",
          "type": "address"
        }
      ],
      "payable": false,
      "stateMutability": "view",
      "type": "function"
    },
    {
      "constant": false,
      "inputs": [
        {
          "name": "newOwner",
          "type": "address"
        }
      ],
      "name": "transferOwnership",
      "outputs": [],
      "payable": false,
      "stateMutability": "nonpayable",
      "type": "function"
    },
    {
      "anonymous": false,
      "inputs": [
        {
          "indexed": true,
          "name": "previousOwner",
          "type": "address"
        },
        {
          "indexed": true,
          "name": "newOwner",
          "type": "address"
        }
      ],
      "name": "OwnershipTransferred",
      "type": "event"
    },
    {
      "constant": false,
      "inputs": [
        {
          "name": "contractAddr",
          "type": "address"
        }
      ],
      "name": "reclaimContract",
      "outputs": [],
      "payable": false,
      "stateMutability": "nonpayable",
      "type": "function"
    }
  ],
  "bytecode": "0x606060405260008054600160a060020a033316600160a060020a0319909116179055610240806100306000396000f3006060604052600436106100565763ffffffff7c01000000000000000000000000000000000000000000000000000000006000350416632aed7f3f811461005b5780638da5cb5b1461007c578063f2fde38b146100ab575b600080fd5b341561006657600080fd5b61007a600160a060020a03600435166100ca565b005b341561008757600080fd5b61008f61016a565b604051600160a060020a03909116815260200160405180910390f35b34156100b657600080fd5b61007a600160a060020a0360043516610179565b6000805433600160a060020a039081169116146100e657600080fd5b506000548190600160a060020a038083169163f2fde38b91166040517c010000000000000000000000000000000000000000000000000000000063ffffffff8416028152600160a060020a039091166004820152602401600060405180830381600087803b151561015657600080fd5b5af1151561016357600080fd5b5050505050565b600054600160a060020a031681565b60005433600160a060020a0390811691161461019457600080fd5b600160a060020a03811615156101a957600080fd5b600054600160a060020a0380831691167f8be0079c531659141344cd1fd0a4f28419497f9722a3daafe3b4186f6b6457e060405160405180910390a36000805473ffffffffffffffffffffffffffffffffffffffff1916600160a060020a03929092169190911790555600a165627a7a7230582012000f82c9766f9120db02429221ca16e47f557ab4678e16b89a841761e20ee20029",
  "source": "pragma solidity ^0.4.21;\r\n\r\nimport \"./Ownable.sol\";\r\n\r\n/**\r\n * @title Contracts that should not own Contracts\r\n * @author Remco Bloemen <remco@2π.com>\r\n * @dev Should contracts (anything Ownable) end up being owned by this contract, it allows the owner\r\n * of this contract to reclaim ownership of the contracts.\r\n */\r\ncontract HasNoContracts is Ownable {\r\n\r\n    /**\r\n    * @dev Reclaim ownership of Ownable contracts\r\n    * @param contractAddr The address of the Ownable to be reclaimed.\r\n    */\r\n    function reclaimContract(address contractAddr) external onlyOwner {\r\n        Ownable contractInst = Ownable(contractAddr);\r\n        contractInst.transferOwnership(owner);\r\n    }\r\n}\r\n",
  "sourcePath": "C:\\Users\\DXenu\\Desktop\\box\\demo_contract\\contracts\\zeppelin\\HasNoContracts.sol",
  "compiler": {
    "name": "solc",
    "version": "0.4.21+commit.dfe3193c.Emscripten.clang"
  },
  "schemaVersion": "2.0.0",
  "updatedAt": "2018-04-14T18:23:52.425Z"
}