{
  "contractName": "HasNoTokens",
  "abi": [
    {
      "constant": false,
      "inputs": [
        {
          "name": "token",
          "type": "address"
        }
      ],
      "name": "reclaimToken",
      "outputs": [],
      "payable": false,
      "stateMutability": "nonpayable",
      "type": "function"
    },
    {
      "constant": true,
      "inputs": [],
      "name": "owner",
      "outputs": [
        {
          "name": "",
          "type": "address"
        }
      ],
      "payable": false,
      "stateMutability": "view",
      "type": "function"
    },
    {
      "constant": false,
      "inputs": [
        {
          "name": "newOwner",
          "type": "address"
        }
      ],
      "name": "transferOwnership",
      "outputs": [],
      "payable": false,
      "stateMutability": "nonpayable",
      "type": "function"
    },
    {
      "anonymous": false,
      "inputs": [
        {
          "indexed": true,
          "name": "previousOwner",
          "type": "address"
        },
        {
          "indexed": true,
          "name": "newOwner",
          "type": "address"
        }
      ],
      "name": "OwnershipTransferred",
      "type": "event"
    },
    {
      "constant": true,
      "inputs": [
        {
          "name": "from_",
          "type": "address"
        },
        {
          "name": "value_",
          "type": "uint256"
        },
        {
          "name": "data_",
          "type": "bytes"
        }
      ],
      "name": "tokenFallback",
      "outputs": [],
      "payable": false,
      "stateMutability": "pure",
      "type": "function"
    }
  ],
  "bytecode": "0x606060405260008054600160a060020a033316600160a060020a03199091161790556102e0806100306000396000f3006060604052600436106100485763ffffffff60e060020a60003504166317ffc320811461004d5780638da5cb5b1461006e578063c0ee0b8a1461009d578063f2fde38b146100cc575b600080fd5b341561005857600080fd5b61006c600160a060020a03600435166100eb565b005b341561007957600080fd5b610081610192565b604051600160a060020a03909116815260200160405180910390f35b34156100a857600080fd5b61006c60048035600160a060020a0316906024803591604435918201910135610048565b34156100d757600080fd5b61006c600160a060020a03600435166101a1565b6000805433600160a060020a0390811691161461010757600080fd5b81600160a060020a03166370a082313060405160e060020a63ffffffff8416028152600160a060020a039091166004820152602401602060405180830381600087803b151561015557600080fd5b5af1151561016257600080fd5b505050604051805160005490925061018e9150600160a060020a0384811691168363ffffffff61023c16565b5050565b600054600160a060020a031681565b60005433600160a060020a039081169116146101bc57600080fd5b600160a060020a03811615156101d157600080fd5b600054600160a060020a0380831691167f8be0079c531659141344cd1fd0a4f28419497f9722a3daafe3b4186f6b6457e060405160405180910390a36000805473ffffffffffffffffffffffffffffffffffffffff1916600160a060020a0392909216919091179055565b82600160a060020a031663a9059cbb838360405160e060020a63ffffffff8516028152600160a060020a0390921660048301526024820152604401602060405180830381600087803b151561029057600080fd5b5af1151561029d57600080fd5b5050506040518051905015156102af57fe5b5050505600a165627a7a723058201d8f4f4202da32b425bf5d0e04250c3063a83e9bc21095580202db12de0870d50029",
  "source": "pragma solidity ^0.4.21;\r\n\r\nimport \"./CanReclaimToken.sol\";\r\n\r\n\r\n/**\r\n * @title Contracts that should not own Tokens\r\n * @author Remco Bloemen <remco@2π.com>\r\n * @dev This blocks incoming ERC223 tokens to prevent accidental loss of tokens.\r\n * Should tokens (any ERC20Basic compatible) end up in the contract, it allows the\r\n * owner to reclaim the tokens.\r\n */\r\ncontract HasNoTokens is CanReclaimToken {\r\n\r\n  /**\r\n    * @dev Reject all ERC223 compatible tokens\r\n    * @param from_ address The address that is transferring the tokens\r\n    * @param value_ uint256 the amount of the specified token\r\n    * @param data_ Bytes The data passed from the caller.\r\n    */\r\n    function tokenFallback(address from_, uint256 value_, bytes data_) pure external {\r\n        from_;\r\n        value_;\r\n        data_;\r\n        revert();\r\n    }\r\n\r\n}",
  "sourcePath": "C:\\Users\\DXenu\\Desktop\\box\\demo_contract\\contracts\\zeppelin\\HasNoTokens.sol",
  "compiler": {
    "name": "solc",
    "version": "0.4.21+commit.dfe3193c.Emscripten.clang"
  },
  "schemaVersion": "2.0.0",
  "updatedAt": "2018-04-14T18:23:52.427Z"
}