{
  "contractName": "HasNoTokens",
  "abi": [
    {
      "constant": false,
      "inputs": [
        {
          "name": "token",
          "type": "address"
        }
      ],
      "name": "reclaimToken",
      "outputs": [],
      "payable": false,
      "stateMutability": "nonpayable",
      "type": "function"
    },
    {
      "constant": true,
      "inputs": [
        {
          "name": "addr",
          "type": "address"
        }
      ],
      "name": "validate",
      "outputs": [
        {
          "name": "",
          "type": "bool"
        }
      ],
      "payable": false,
      "stateMutability": "view",
      "type": "function"
    },
    {
      "constant": true,
      "inputs": [],
      "name": "owner",
      "outputs": [
        {
          "name": "",
          "type": "address"
        }
      ],
      "payable": false,
      "stateMutability": "view",
      "type": "function"
    },
    {
      "constant": false,
      "inputs": [
        {
          "name": "newOwner",
          "type": "address"
        }
      ],
      "name": "transferOwnership",
      "outputs": [],
      "payable": false,
      "stateMutability": "nonpayable",
      "type": "function"
    },
    {
      "anonymous": false,
      "inputs": [
        {
          "indexed": true,
          "name": "previousOwner",
          "type": "address"
        },
        {
          "indexed": true,
          "name": "newOwner",
          "type": "address"
        }
      ],
      "name": "OwnershipTransferred",
      "type": "event"
    },
    {
      "constant": true,
      "inputs": [
        {
          "name": "from_",
          "type": "address"
        },
        {
          "name": "value_",
          "type": "uint256"
        },
        {
          "name": "data_",
          "type": "bytes"
        }
      ],
      "name": "tokenFallback",
      "outputs": [],
      "payable": false,
      "stateMutability": "pure",
      "type": "function"
    }
  ],
  "bytecode": "0x606060405260008054600160a060020a033316600160a060020a0319909116179055610335806100306000396000f3006060604052600436106100535763ffffffff60e060020a60003504166317ffc3208114610058578063207c64fb146100795780638da5cb5b146100ac578063c0ee0b8a146100db578063f2fde38b1461010a575b600080fd5b341561006357600080fd5b610077600160a060020a0360043516610129565b005b341561008457600080fd5b610098600160a060020a03600435166101d0565b604051901515815260200160405180910390f35b34156100b757600080fd5b6100bf6101e7565b604051600160a060020a03909116815260200160405180910390f35b34156100e657600080fd5b61007760048035600160a060020a0316906024803591604435918201910135610053565b341561011557600080fd5b610077600160a060020a03600435166101f6565b6000805433600160a060020a0390811691161461014557600080fd5b81600160a060020a03166370a082313060405160e060020a63ffffffff8416028152600160a060020a039091166004820152602401602060405180830381600087803b151561019357600080fd5b5af115156101a057600080fd5b50505060405180516000549092506101cc9150600160a060020a0384811691168363ffffffff61029116565b5050565b60005433600160a060020a03908116911614919050565b600054600160a060020a031681565b60005433600160a060020a0390811691161461021157600080fd5b600160a060020a038116151561022657600080fd5b600054600160a060020a0380831691167f8be0079c531659141344cd1fd0a4f28419497f9722a3daafe3b4186f6b6457e060405160405180910390a36000805473ffffffffffffffffffffffffffffffffffffffff1916600160a060020a0392909216919091179055565b82600160a060020a031663a9059cbb838360405160e060020a63ffffffff8516028152600160a060020a0390921660048301526024820152604401602060405180830381600087803b15156102e557600080fd5b5af115156102f257600080fd5b50505060405180519050151561030457fe5b5050505600a165627a7a7230582082a7ede76ebdf366d83e9002d519e75af0c57abbf810b38c7ecbabc23670b6ff0029",
  "source": "pragma solidity ^0.4.21;\r\n\r\nimport \"./CanReclaimToken.sol\";\r\n\r\n\r\n/**\r\n * @title Contracts that should not own Tokens\r\n * @author Remco Bloemen <remco@2π.com>\r\n * @dev This blocks incoming ERC223 tokens to prevent accidental loss of tokens.\r\n * Should tokens (any ERC20Basic compatible) end up in the contract, it allows the\r\n * owner to reclaim the tokens.\r\n */\r\ncontract HasNoTokens is CanReclaimToken {\r\n\r\n  /**\r\n    * @dev Reject all ERC223 compatible tokens\r\n    * @param from_ address The address that is transferring the tokens\r\n    * @param value_ uint256 the amount of the specified token\r\n    * @param data_ Bytes The data passed from the caller.\r\n    */\r\n    function tokenFallback(address from_, uint256 value_, bytes data_) pure external {\r\n        from_;\r\n        value_;\r\n        data_;\r\n        revert();\r\n    }\r\n\r\n}",
  "sourcePath": "C:\\Users\\DXenu\\Desktop\\box\\demo_contract\\contracts\\zeppelin\\HasNoTokens.sol",
  "compiler": {
    "name": "solc",
    "version": "0.4.21+commit.dfe3193c.Emscripten.clang"
  },
  "schemaVersion": "2.0.0",
  "updatedAt": "2018-04-16T11:26:29.025Z"
}