{
  "contractName": "Management",
  "abi": [
    {
      "constant": false,
      "inputs": [
        {
          "name": "_addr",
          "type": "address"
        },
        {
          "name": "_userAddr",
          "type": "address"
        }
      ],
      "name": "deletePlace",
      "outputs": [
        {
          "name": "index",
          "type": "uint256"
        }
      ],
      "payable": false,
      "stateMutability": "nonpayable",
      "type": "function"
    },
    {
      "constant": true,
      "inputs": [
        {
          "name": "_addr",
          "type": "address"
        }
      ],
      "name": "getPlace",
      "outputs": [
        {
          "name": "index",
          "type": "uint256"
        },
        {
          "name": "msq",
          "type": "uint8"
        },
        {
          "name": "kwh",
          "type": "uint8"
        },
        {
          "name": "price",
          "type": "uint16"
        },
        {
          "name": "userId",
          "type": "address"
        }
      ],
      "payable": false,
      "stateMutability": "view",
      "type": "function"
    },
    {
      "constant": false,
      "inputs": [
        {
          "name": "_addr",
          "type": "address"
        },
        {
          "name": "_userAddr",
          "type": "address"
        }
      ],
      "name": "deleteEquipment",
      "outputs": [
        {
          "name": "index",
          "type": "uint256"
        }
      ],
      "payable": false,
      "stateMutability": "nonpayable",
      "type": "function"
    },
    {
      "constant": false,
      "inputs": [
        {
          "name": "_addr",
          "type": "address"
        },
        {
          "name": "_userAddr",
          "type": "address"
        },
        {
          "name": "_kwh",
          "type": "uint8"
        },
        {
          "name": "_price",
          "type": "uint16"
        }
      ],
      "name": "updateEquipment",
      "outputs": [
        {
          "name": "",
          "type": "bool"
        }
      ],
      "payable": false,
      "stateMutability": "nonpayable",
      "type": "function"
    },
    {
      "constant": true,
      "inputs": [
        {
          "name": "index",
          "type": "uint256"
        }
      ],
      "name": "getEquipmentAtIndex",
      "outputs": [
        {
          "name": "_addr",
          "type": "address"
        }
      ],
      "payable": false,
      "stateMutability": "view",
      "type": "function"
    },
    {
      "constant": true,
      "inputs": [
        {
          "name": "_addr",
          "type": "address"
        }
      ],
      "name": "existsPlace",
      "outputs": [
        {
          "name": "isIndexed",
          "type": "bool"
        }
      ],
      "payable": false,
      "stateMutability": "view",
      "type": "function"
    },
    {
      "constant": false,
      "inputs": [
        {
          "name": "_addr",
          "type": "address"
        }
      ],
      "name": "deleteUser",
      "outputs": [
        {
          "name": "index",
          "type": "uint256"
        }
      ],
      "payable": false,
      "stateMutability": "nonpayable",
      "type": "function"
    },
    {
      "constant": true,
      "inputs": [],
      "name": "getPlaceCount",
      "outputs": [
        {
          "name": "count",
          "type": "uint256"
        }
      ],
      "payable": false,
      "stateMutability": "view",
      "type": "function"
    },
    {
      "constant": true,
      "inputs": [
        {
          "name": "_addr",
          "type": "address"
        }
      ],
      "name": "getUser",
      "outputs": [
        {
          "name": "index",
          "type": "uint256"
        },
        {
          "name": "email",
          "type": "bytes32"
        },
        {
          "name": "firstName",
          "type": "bytes32"
        },
        {
          "name": "lastName",
          "type": "bytes32"
        }
      ],
      "payable": false,
      "stateMutability": "view",
      "type": "function"
    },
    {
      "constant": true,
      "inputs": [
        {
          "name": "_addr",
          "type": "address"
        }
      ],
      "name": "getEquipment",
      "outputs": [
        {
          "name": "index",
          "type": "uint256"
        },
        {
          "name": "kwh",
          "type": "uint8"
        },
        {
          "name": "price",
          "type": "uint16"
        },
        {
          "name": "userId",
          "type": "address"
        }
      ],
      "payable": false,
      "stateMutability": "view",
      "type": "function"
    },
    {
      "constant": true,
      "inputs": [],
      "name": "owner",
      "outputs": [
        {
          "name": "",
          "type": "address"
        }
      ],
      "payable": false,
      "stateMutability": "view",
      "type": "function"
    },
    {
      "constant": false,
      "inputs": [
        {
          "name": "_addr",
          "type": "address"
        },
        {
          "name": "_email",
          "type": "bytes32"
        },
        {
          "name": "_firstName",
          "type": "bytes32"
        },
        {
          "name": "_lastName",
          "type": "bytes32"
        }
      ],
      "name": "updateUser",
      "outputs": [
        {
          "name": "",
          "type": "bool"
        }
      ],
      "payable": false,
      "stateMutability": "nonpayable",
      "type": "function"
    },
    {
      "constant": true,
      "inputs": [],
      "name": "getUserCount",
      "outputs": [
        {
          "name": "count",
          "type": "uint256"
        }
      ],
      "payable": false,
      "stateMutability": "view",
      "type": "function"
    },
    {
      "constant": false,
      "inputs": [
        {
          "name": "_addr",
          "type": "address"
        },
        {
          "name": "_userAddr",
          "type": "address"
        },
        {
          "name": "_msq",
          "type": "uint8"
        },
        {
          "name": "_kwh",
          "type": "uint8"
        },
        {
          "name": "_price",
          "type": "uint16"
        }
      ],
      "name": "updatePlace",
      "outputs": [
        {
          "name": "",
          "type": "bool"
        }
      ],
      "payable": false,
      "stateMutability": "nonpayable",
      "type": "function"
    },
    {
      "constant": false,
      "inputs": [
        {
          "name": "_addr",
          "type": "address"
        },
        {
          "name": "_userAddr",
          "type": "address"
        },
        {
          "name": "_kwh",
          "type": "uint8"
        },
        {
          "name": "_price",
          "type": "uint16"
        }
      ],
      "name": "newEquipment",
      "outputs": [
        {
          "name": "index",
          "type": "uint256"
        }
      ],
      "payable": false,
      "stateMutability": "nonpayable",
      "type": "function"
    },
    {
      "constant": true,
      "inputs": [
        {
          "name": "_addr",
          "type": "address"
        }
      ],
      "name": "existsEquipment",
      "outputs": [
        {
          "name": "isIndexed",
          "type": "bool"
        }
      ],
      "payable": false,
      "stateMutability": "view",
      "type": "function"
    },
    {
      "constant": true,
      "inputs": [
        {
          "name": "index",
          "type": "uint256"
        }
      ],
      "name": "getPlaceAtIndex",
      "outputs": [
        {
          "name": "_addr",
          "type": "address"
        }
      ],
      "payable": false,
      "stateMutability": "view",
      "type": "function"
    },
    {
      "constant": false,
      "inputs": [
        {
          "name": "newOwner",
          "type": "address"
        }
      ],
      "name": "transferOwnership",
      "outputs": [],
      "payable": false,
      "stateMutability": "nonpayable",
      "type": "function"
    },
    {
      "constant": true,
      "inputs": [
        {
          "name": "_addr",
          "type": "address"
        }
      ],
      "name": "existsUser",
      "outputs": [
        {
          "name": "isIndexed",
          "type": "bool"
        }
      ],
      "payable": false,
      "stateMutability": "view",
      "type": "function"
    },
    {
      "constant": false,
      "inputs": [
        {
          "name": "_addr",
          "type": "address"
        },
        {
          "name": "_email",
          "type": "bytes32"
        },
        {
          "name": "_firstName",
          "type": "bytes32"
        },
        {
          "name": "_lastName",
          "type": "bytes32"
        }
      ],
      "name": "newtUser",
      "outputs": [
        {
          "name": "index",
          "type": "uint256"
        }
      ],
      "payable": false,
      "stateMutability": "nonpayable",
      "type": "function"
    },
    {
      "constant": false,
      "inputs": [
        {
          "name": "_addr",
          "type": "address"
        },
        {
          "name": "_userAddr",
          "type": "address"
        },
        {
          "name": "_msq",
          "type": "uint8"
        },
        {
          "name": "_kwh",
          "type": "uint8"
        },
        {
          "name": "_price",
          "type": "uint16"
        }
      ],
      "name": "newPlace",
      "outputs": [
        {
          "name": "index",
          "type": "uint256"
        }
      ],
      "payable": false,
      "stateMutability": "nonpayable",
      "type": "function"
    },
    {
      "constant": true,
      "inputs": [],
      "name": "getEquipmentCount",
      "outputs": [
        {
          "name": "count",
          "type": "uint256"
        }
      ],
      "payable": false,
      "stateMutability": "view",
      "type": "function"
    },
    {
      "constant": true,
      "inputs": [
        {
          "name": "index",
          "type": "uint256"
        }
      ],
      "name": "getUserAtIndex",
      "outputs": [
        {
          "name": "_addr",
          "type": "address"
        }
      ],
      "payable": false,
      "stateMutability": "view",
      "type": "function"
    },
    {
      "anonymous": false,
      "inputs": [
        {
          "indexed": true,
          "name": "_addr",
          "type": "address"
        },
        {
          "indexed": true,
          "name": "_userAddr",
          "type": "address"
        },
        {
          "indexed": false,
          "name": "_index",
          "type": "uint256"
        },
        {
          "indexed": false,
          "name": "_msq",
          "type": "uint8"
        },
        {
          "indexed": false,
          "name": "_kwh",
          "type": "uint8"
        },
        {
          "indexed": false,
          "name": "_price",
          "type": "uint16"
        }
      ],
      "name": "NewPlace",
      "type": "event"
    },
    {
      "anonymous": false,
      "inputs": [
        {
          "indexed": true,
          "name": "_addr",
          "type": "address"
        },
        {
          "indexed": true,
          "name": "_userAddr",
          "type": "address"
        },
        {
          "indexed": false,
          "name": "_index",
          "type": "uint256"
        },
        {
          "indexed": false,
          "name": "_msq",
          "type": "uint8"
        },
        {
          "indexed": false,
          "name": "_kwh",
          "type": "uint8"
        },
        {
          "indexed": false,
          "name": "_price",
          "type": "uint16"
        }
      ],
      "name": "UpdatePlace",
      "type": "event"
    },
    {
      "anonymous": false,
      "inputs": [
        {
          "indexed": true,
          "name": "_addr",
          "type": "address"
        },
        {
          "indexed": false,
          "name": "_index",
          "type": "uint256"
        }
      ],
      "name": "DeletePlace",
      "type": "event"
    },
    {
      "anonymous": false,
      "inputs": [
        {
          "indexed": true,
          "name": "_addr",
          "type": "address"
        },
        {
          "indexed": true,
          "name": "_userAddr",
          "type": "address"
        },
        {
          "indexed": false,
          "name": "_index",
          "type": "uint256"
        },
        {
          "indexed": false,
          "name": "_kwh",
          "type": "uint8"
        },
        {
          "indexed": false,
          "name": "_price",
          "type": "uint16"
        }
      ],
      "name": "NewEquipment",
      "type": "event"
    },
    {
      "anonymous": false,
      "inputs": [
        {
          "indexed": true,
          "name": "_addr",
          "type": "address"
        },
        {
          "indexed": true,
          "name": "_userAddr",
          "type": "address"
        },
        {
          "indexed": false,
          "name": "_index",
          "type": "uint256"
        },
        {
          "indexed": false,
          "name": "_kwh",
          "type": "uint8"
        },
        {
          "indexed": false,
          "name": "_price",
          "type": "uint16"
        }
      ],
      "name": "UpdateEquipment",
      "type": "event"
    },
    {
      "anonymous": false,
      "inputs": [
        {
          "indexed": true,
          "name": "_addr",
          "type": "address"
        },
        {
          "indexed": false,
          "name": "_index",
          "type": "uint256"
        }
      ],
      "name": "DeleteEquipment",
      "type": "event"
    },
    {
      "anonymous": false,
      "inputs": [
        {
          "indexed": true,
          "name": "_addr",
          "type": "address"
        },
        {
          "indexed": false,
          "name": "_index",
          "type": "uint256"
        },
        {
          "indexed": false,
          "name": "_email",
          "type": "bytes32"
        },
        {
          "indexed": false,
          "name": "_firstName",
          "type": "bytes32"
        },
        {
          "indexed": false,
          "name": "_lastName",
          "type": "bytes32"
        }
      ],
      "name": "NewUser",
      "type": "event"
    },
    {
      "anonymous": false,
      "inputs": [
        {
          "indexed": true,
          "name": "_addr",
          "type": "address"
        },
        {
          "indexed": false,
          "name": "_index",
          "type": "uint256"
        },
        {
          "indexed": false,
          "name": "_email",
          "type": "bytes32"
        },
        {
          "indexed": false,
          "name": "_firstName",
          "type": "bytes32"
        },
        {
          "indexed": false,
          "name": "_lastName",
          "type": "bytes32"
        }
      ],
      "name": "UpdateUser",
      "type": "event"
    },
    {
      "anonymous": false,
      "inputs": [
        {
          "indexed": true,
          "name": "_addr",
          "type": "address"
        },
        {
          "indexed": false,
          "name": "_index",
          "type": "uint256"
        }
      ],
      "name": "DeleteUser",
      "type": "event"
    },
    {
      "anonymous": false,
      "inputs": [
        {
          "indexed": true,
          "name": "previousOwner",
          "type": "address"
        },
        {
          "indexed": true,
          "name": "newOwner",
          "type": "address"
        }
      ],
      "name": "OwnershipTransferred",
      "type": "event"
    }
  ],
  "bytecode": "0x606060405260008054600160a060020a033316600160a060020a0319909116179055611639806100306000396000f3006060604052600436106101325763ffffffff7c010000000000000000000000000000000000000000000000000000000060003504166304af48608114610137578063142478d61461016e5780631a4f36c5146101d05780631aeb4c56146101f5578063216d9fce1461023b5780632a2bb4c41461026d5780635c60f2261461028c5780636f75cada146102ab5780636f77926b146102be5780637b2f8f9b146103095780638da5cb5b146103625780639bd19ca914610375578063b5cb15f71461039d578063d5bdb6ec146103b0578063e9ae7693146103e8578063ecac11741461041a578063f03ba3ee14610439578063f2fde38b1461044f578063f409e87d14610470578063f53f35ff1461048f578063fa2b259c146104b7578063ff67dada146104ef578063ffcc7bbf14610502575b600080fd5b341561014257600080fd5b61015c600160a060020a0360043581169060243516610518565b60405190815260200160405180910390f35b341561017957600080fd5b61018d600160a060020a03600435166106f5565b60405194855260ff93841660208601529190921660408085019190915261ffff9092166060840152600160a060020a0316608083015260a0909101905180910390f35b34156101db57600080fd5b61015c600160a060020a0360043581169060243516610762565b341561020057600080fd5b610227600160a060020a036004358116906024351660ff6044351661ffff6064351661092b565b604051901515815260200160405180910390f35b341561024657600080fd5b610251600435610a30565b604051600160a060020a03909116815260200160405180910390f35b341561027857600080fd5b610227600160a060020a0360043516610a5e565b341561029757600080fd5b61015c600160a060020a0360043516610ab6565b34156102b657600080fd5b61015c610c73565b34156102c957600080fd5b6102dd600160a060020a0360043516610c7a565b604051938452602084019290925260408084019190915260608301919091526080909101905180910390f35b341561031457600080fd5b610328600160a060020a0360043516610d10565b60405193845260ff909216602084015261ffff16604080840191909152600160a060020a0390911660608301526080909101905180910390f35b341561036d57600080fd5b610251610d6e565b341561038057600080fd5b610227600160a060020a0360043516602435604435606435610d7d565b34156103a857600080fd5b61015c610e65565b34156103bb57600080fd5b610227600160a060020a036004358116906024351660ff6044358116906064351661ffff60843516610e6b565b34156103f357600080fd5b61015c600160a060020a036004358116906024351660ff6044351661ffff60643516610f92565b341561042557600080fd5b610227600160a060020a036004351661116b565b341561044457600080fd5b6102516004356111a7565b341561045a57600080fd5b61046e600160a060020a03600435166111b8565b005b341561047b57600080fd5b610227600160a060020a0360043516611246565b341561049a57600080fd5b61015c600160a060020a0360043516602435604435606435611282565b34156104c257600080fd5b61015c600160a060020a036004358116906024351660ff6044358116906064351661ffff60843516611399565b34156104fa57600080fd5b61015c611596565b341561050d57600080fd5b61025160043561159c565b600080548190819033600160a060020a0390811691161461053857600080fd5b8380600160a060020a031633600160a060020a031614151561055957600080fd5b61056286610a5e565b151560011461057057600080fd5b600160a060020a0386166000908152600560205260409020546006805491945090600019810190811061059f57fe5b60009182526020909120015460068054600160a060020a0390921693508391859081106105c857fe5b60009182526020808320919091018054600160a060020a031916600160a060020a03948516179055918416815260059091526040902083905560068054906106149060001983016115c6565b5085600160a060020a03167f6c1d95bd25751045e988b768e3e9d37019d92428e694b456cc77d0eb83a49bd18460405190815260200160405180910390a2600160a060020a0382811660008181526005602052604090819020600101546401000000008104909316927f14e6f8ed13bdc5b46b0fec74e94e70b199f0a484e034fb5ab0bb646db34f5f8a91879160ff8082169261010083049091169162010000900461ffff16905193845260ff9283166020850152911660408084019190915261ffff90911660608301526080909101905180910390a35090949350505050565b600080600080600061070686610a5e565b151560011461071457600080fd5b50505050600160a060020a0391821660009081526005602052604090208054600190910154909360ff808316946101008404909116935062010000830461ffff169264010000000090041690565b600080548190819033600160a060020a0390811691161461078257600080fd5b8380600160a060020a031633600160a060020a03161415156107a357600080fd5b6107ac8661116b565b15156001146107ba57600080fd5b600160a060020a038616600090815260036020526040902054600480549194509060001981019081106107e957fe5b60009182526020909120015460048054600160a060020a03909216935083918590811061081257fe5b60009182526020808320919091018054600160a060020a031916600160a060020a039485161790559184168152600390915260409020839055600480549061085e9060001983016115c6565b5085600160a060020a03167fd148fe57b3fff28741992aeda9478edbabac766349efe9845531a6c5a49436f18460405190815260200160405180910390a2600160a060020a03828116600081815260036020526040908190206001015463010000008104909316927f0a4c250e9de61a8a976cda60c9c8f15010b642fba1c79edaa71c8a14764d576491879160ff81169161010090910461ffff16905192835260ff909116602083015261ffff166040808301919091526060909101905180910390a35090949350505050565b6000805433600160a060020a0390811691161461094757600080fd5b8380600160a060020a031633600160a060020a031614151561096857600080fd5b6109718661116b565b151560011461097f57600080fd5b61098885611246565b151560011461099657600080fd5b600160a060020a038681166000818152600360205260409081902060018101805460ff191660ff8a161762ffff00191661010061ffff8a160217905554928816927f0a4c250e9de61a8a976cda60c9c8f15010b642fba1c79edaa71c8a14764d576491889088905192835260ff909116602083015261ffff166040808301919091526060909101905180910390a350600195945050505050565b6000600482815481101515610a4157fe5b600091825260209091200154600160a060020a031690505b919050565b6006546000901515610a7257506000610a59565b600160a060020a038216600081815260056020526040902054600680549091908110610a9a57fe5b600091825260209091200154600160a060020a03161492915050565b600080548190819033600160a060020a03908116911614610ad657600080fd5b8380600160a060020a031633600160a060020a0316141515610af757600080fd5b610b0085611246565b1515600114610b0e57600080fd5b600160a060020a03851660009081526001602052604090205460028054919450906000198101908110610b3d57fe5b60009182526020909120015460028054600160a060020a039092169350839185908110610b6657fe5b60009182526020808320919091018054600160a060020a031916600160a060020a0394851617905591841681526001909152604090208390556002805490610bb29060001983016115c6565b5084600160a060020a03167f117183c06981515bdfa0b70d0448d8eb6ba07648cda62ab7c2b4361eeff80a1b8460405190815260200160405180910390a2600160a060020a0382166000818152600160208190526040918290209081015460028201546003909201547f36cd692caa63e05d06ec64ae3a07dffe3b224fecb32af5fa7bc1469f5bcdde57938893919051938452602084019290925260408084019190915260608301919091526080909101905180910390a250909392505050565b6006545b90565b6000805481908190819033600160a060020a03908116911614610c9c57600080fd5b8480600160a060020a031633600160a060020a0316141515610cbd57600080fd5b610cc686611246565b1515600114610cd457600080fd5b50505050600160a060020a0391909116600090815260016020819052604090912080549181015460028201546003909201549294909350909190565b600080600080610d1f8561116b565b1515600114610d2d57600080fd5b50505050600160a060020a0390811660009081526003602052604090208054600190910154909260ff821692610100830461ffff1692630100000090041690565b600054600160a060020a031681565b6000805433600160a060020a03908116911614610d9957600080fd5b8480600160a060020a031633600160a060020a0316141515610dba57600080fd5b848484610dc689611246565b1515600114610dd457600080fd5b600160a060020a0389166000818152600160208190526040918290209081018b9055600281018a905560038101899055547f36cd692caa63e05d06ec64ae3a07dffe3b224fecb32af5fa7bc1469f5bcdde57918b908b908b9051938452602084019290925260408084019190915260608301919091526080909101905180910390a250600198975050505050505050565b60025490565b6000805433600160a060020a03908116911614610e8757600080fd5b8480600160a060020a031633600160a060020a0316141515610ea857600080fd5b610eb187610a5e565b1515600114610ebf57600080fd5b610ec886611246565b1515600114610ed657600080fd5b600160a060020a038781166000818152600560205260409081902060018101805460ff191660ff8b81169190911761ff001916610100918b16919091021763ffff000019166201000061ffff8a160217905554928916927f14e6f8ed13bdc5b46b0fec74e94e70b199f0a484e034fb5ab0bb646db34f5f8a918990899089905193845260ff9283166020850152911660408084019190915261ffff90911660608301526080909101905180910390a35060019695505050505050565b6000805433600160a060020a03908116911614610fae57600080fd5b8380600160a060020a031633600160a060020a0316141515610fcf57600080fd5b610fd88661116b565b15610fe257600080fd5b610feb86611246565b1515600114610ff957600080fd5b600160a060020a0386811660009081526003602052604090206001908101805460ff191660ff88161762ffff00191661010061ffff8816021776ffffffffffffffffffffffffffffffffffffffff0000001916630100000093891693909302929092179091556004805480830161107083826115c6565b60009283526020808420929092018054600160a060020a031916600160a060020a038c81169182179092558085526003909352604093849020949091039384905588169290917f33e6002de33fb59e2bee761013a061b0a46de2ff5fbc0fe7c5783203ee867ab99190889088905192835260ff909116602083015261ffff166040808301919091526060909101905180910390a3600160a060020a038616600090815260016020819052604090912060050180549091810161113283826115c6565b5060009182526020909120018054600160a060020a038816600160a060020a031990911617905560045460001901915050949350505050565b600454600090151561117f57506000610a59565b600160a060020a038216600081815260036020526040902054600480549091908110610a9a57fe5b6000600682815481101515610a4157fe5b60005433600160a060020a039081169116146111d357600080fd5b600160a060020a03811615156111e857600080fd5b600054600160a060020a0380831691167f8be0079c531659141344cd1fd0a4f28419497f9722a3daafe3b4186f6b6457e060405160405180910390a360008054600160a060020a031916600160a060020a0392909216919091179055565b600254600090151561125a57506000610a59565b600160a060020a038216600081815260016020526040902054600280549091908110610a9a57fe5b60008360005433600160a060020a039081169116146112a057600080fd5b83836112ab88611246565b156112b557600080fd5b600160a060020a03881660009081526001602081905260409091208082018990556002808201899055600390910187905580548083016112f583826115c6565b60009283526020808420929092018054600160a060020a031916600160a060020a038e16908117909155808452600190925260409283902093900392839055917f78b833eacd29aac1183e31c8289157ed550f3b1f9f1526bf2055ef195cac287f918a908a908a9051938452602084019290925260408084019190915260608301919091526080909101905180910390a25050600254600019019695505050505050565b6000805433600160a060020a039081169116146113b557600080fd5b8480600160a060020a031633600160a060020a03161415156113d657600080fd5b6113df87610a5e565b156113e957600080fd5b6113f287611246565b151560011461140057600080fd5b600160a060020a0387811660009081526005602052604090206001908101805460ff191660ff8981169190911761ff001916610100918916919091021763ffff000019166201000061ffff8816021777ffffffffffffffffffffffffffffffffffffffff000000001916640100000000938a1693909302929092179091556006805480830161148f83826115c6565b60009283526020808420929092018054600160a060020a031916600160a060020a038d81169182179092558085526005909352604093849020949091039384905589169290917f2a4af3dcdaf87b692186cac5b607d155f4e1c99f127fdd97c6a8a257b3a063d191908990899089905193845260ff9283166020850152911660408084019190915261ffff90911660608301526080909101905180910390a3600160a060020a038716600090815260016020819052604090912060040180549091810161155c83826115c6565b5060009182526020909120018054600160a060020a038916600160a060020a03199091161790556006546000190191505095945050505050565b60045490565b6000805433600160a060020a039081169116146115b857600080fd5b6002805483908110610a4157fe5b8154818355818115116115ea576000838152602090206115ea9181019083016115ef565b505050565b610c7791905b8082111561160957600081556001016115f5565b50905600a165627a7a72305820145819ff9b89fc4a7df0bba2eee66bf461d40ab072ab553ab136222f3a0101d10029",
  "source": "pragma solidity ^0.4.21;\r\n\r\nimport \"./Equipment.sol\";\r\nimport \"./Place.sol\";\r\n\r\n\r\ncontract Management is Equipments, Places {\r\n}\r\n",
  "sourcePath": "C:\\Users\\DXenu\\Desktop\\box\\demo_contract\\contracts\\Management.sol",
  "compiler": {
    "name": "solc",
    "version": "0.4.21+commit.dfe3193c.Emscripten.clang"
  },
  "schemaVersion": "2.0.0",
  "updatedAt": "2018-04-14T18:23:52.386Z"
}