{
  "contractName": "NoOwner",
  "abi": [
    {
      "constant": false,
      "inputs": [
        {
          "name": "token",
          "type": "address"
        }
      ],
      "name": "reclaimToken",
      "outputs": [],
      "payable": false,
      "stateMutability": "nonpayable",
      "type": "function"
    },
    {
      "constant": true,
      "inputs": [
        {
          "name": "addr",
          "type": "address"
        }
      ],
      "name": "validate",
      "outputs": [
        {
          "name": "",
          "type": "bool"
        }
      ],
      "payable": false,
      "stateMutability": "view",
      "type": "function"
    },
    {
      "constant": false,
      "inputs": [
        {
          "name": "contractAddr",
          "type": "address"
        }
      ],
      "name": "reclaimContract",
      "outputs": [],
      "payable": false,
      "stateMutability": "nonpayable",
      "type": "function"
    },
    {
      "constant": true,
      "inputs": [],
      "name": "owner",
      "outputs": [
        {
          "name": "",
          "type": "address"
        }
      ],
      "payable": false,
      "stateMutability": "view",
      "type": "function"
    },
    {
      "constant": false,
      "inputs": [],
      "name": "reclaimEther",
      "outputs": [],
      "payable": false,
      "stateMutability": "nonpayable",
      "type": "function"
    },
    {
      "constant": true,
      "inputs": [
        {
          "name": "from_",
          "type": "address"
        },
        {
          "name": "value_",
          "type": "uint256"
        },
        {
          "name": "data_",
          "type": "bytes"
        }
      ],
      "name": "tokenFallback",
      "outputs": [],
      "payable": false,
      "stateMutability": "pure",
      "type": "function"
    },
    {
      "constant": false,
      "inputs": [
        {
          "name": "newOwner",
          "type": "address"
        }
      ],
      "name": "transferOwnership",
      "outputs": [],
      "payable": false,
      "stateMutability": "nonpayable",
      "type": "function"
    },
    {
      "payable": false,
      "stateMutability": "nonpayable",
      "type": "fallback"
    },
    {
      "anonymous": false,
      "inputs": [
        {
          "indexed": true,
          "name": "previousOwner",
          "type": "address"
        },
        {
          "indexed": true,
          "name": "newOwner",
          "type": "address"
        }
      ],
      "name": "OwnershipTransferred",
      "type": "event"
    }
  ],
  "bytecode": "0x606060405260008054600160a060020a03191633600160a060020a0316179055341561002a57600080fd5b610462806100396000396000f3006060604052600436106100695763ffffffff60e060020a60003504166317ffc3208114610076578063207c64fb146100955780632aed7f3f146100c85780638da5cb5b146100e75780639f727c2714610116578063c0ee0b8a14610129578063f2fde38b14610158575b341561007457600080fd5b005b341561008157600080fd5b610074600160a060020a0360043516610177565b34156100a057600080fd5b6100b4600160a060020a036004351661021e565b604051901515815260200160405180910390f35b34156100d357600080fd5b610074600160a060020a0360043516610235565b34156100f257600080fd5b6100fa6102bc565b604051600160a060020a03909116815260200160405180910390f35b341561012157600080fd5b6100746102cb565b341561013457600080fd5b61007460048035600160a060020a031690602480359160443591820191013561031e565b341561016357600080fd5b610074600160a060020a0360043516610323565b6000805433600160a060020a0390811691161461019357600080fd5b81600160a060020a03166370a082313060405160e060020a63ffffffff8416028152600160a060020a039091166004820152602401602060405180830381600087803b15156101e157600080fd5b5af115156101ee57600080fd5b505050604051805160005490925061021a9150600160a060020a0384811691168363ffffffff6103be16565b5050565b60005433600160a060020a03908116911614919050565b6000805433600160a060020a0390811691161461025157600080fd5b506000548190600160a060020a038083169163f2fde38b911660405160e060020a63ffffffff8416028152600160a060020a039091166004820152602401600060405180830381600087803b15156102a857600080fd5b5af115156102b557600080fd5b5050505050565b600054600160a060020a031681565b60005433600160a060020a039081169116146102e657600080fd5b600054600160a060020a039081169030163180156108fc0290604051600060405180830381858888f19350505050151561031c57fe5b565b600080fd5b60005433600160a060020a0390811691161461033e57600080fd5b600160a060020a038116151561035357600080fd5b600054600160a060020a0380831691167f8be0079c531659141344cd1fd0a4f28419497f9722a3daafe3b4186f6b6457e060405160405180910390a36000805473ffffffffffffffffffffffffffffffffffffffff1916600160a060020a0392909216919091179055565b82600160a060020a031663a9059cbb838360405160e060020a63ffffffff8516028152600160a060020a0390921660048301526024820152604401602060405180830381600087803b151561041257600080fd5b5af1151561041f57600080fd5b50505060405180519050151561043157fe5b5050505600a165627a7a72305820bea5c8dfb57519b15fb02f1f90cf45aaa4e7b486a7588f42b289ecba9a3326d00029",
  "source": "pragma solidity ^0.4.21;\r\n\r\nimport \"./HasNoEther.sol\";\r\nimport \"./HasNoTokens.sol\";\r\nimport \"./HasNoContracts.sol\";\r\n\r\n\r\ncontract NoOwner is HasNoEther, HasNoTokens, HasNoContracts {\r\n}\r\n",
  "sourcePath": "C:\\Users\\DXenu\\Desktop\\box\\demo_contract\\contracts\\zeppelin\\NoOwner.sol",
  "compiler": {
    "name": "solc",
    "version": "0.4.21+commit.dfe3193c.Emscripten.clang"
  },
  "schemaVersion": "2.0.0",
  "updatedAt": "2018-04-16T11:26:29.026Z"
}