{
  "contractName": "NoOwner",
  "abi": [
    {
      "constant": false,
      "inputs": [
        {
          "name": "token",
          "type": "address"
        }
      ],
      "name": "reclaimToken",
      "outputs": [],
      "payable": false,
      "stateMutability": "nonpayable",
      "type": "function"
    },
    {
      "constant": false,
      "inputs": [
        {
          "name": "contractAddr",
          "type": "address"
        }
      ],
      "name": "reclaimContract",
      "outputs": [],
      "payable": false,
      "stateMutability": "nonpayable",
      "type": "function"
    },
    {
      "constant": true,
      "inputs": [],
      "name": "owner",
      "outputs": [
        {
          "name": "",
          "type": "address"
        }
      ],
      "payable": false,
      "stateMutability": "view",
      "type": "function"
    },
    {
      "constant": false,
      "inputs": [],
      "name": "reclaimEther",
      "outputs": [],
      "payable": false,
      "stateMutability": "nonpayable",
      "type": "function"
    },
    {
      "constant": true,
      "inputs": [
        {
          "name": "from_",
          "type": "address"
        },
        {
          "name": "value_",
          "type": "uint256"
        },
        {
          "name": "data_",
          "type": "bytes"
        }
      ],
      "name": "tokenFallback",
      "outputs": [],
      "payable": false,
      "stateMutability": "pure",
      "type": "function"
    },
    {
      "constant": false,
      "inputs": [
        {
          "name": "newOwner",
          "type": "address"
        }
      ],
      "name": "transferOwnership",
      "outputs": [],
      "payable": false,
      "stateMutability": "nonpayable",
      "type": "function"
    },
    {
      "payable": false,
      "stateMutability": "nonpayable",
      "type": "fallback"
    },
    {
      "anonymous": false,
      "inputs": [
        {
          "indexed": true,
          "name": "previousOwner",
          "type": "address"
        },
        {
          "indexed": true,
          "name": "newOwner",
          "type": "address"
        }
      ],
      "name": "OwnershipTransferred",
      "type": "event"
    }
  ],
  "bytecode": "0x606060405260008054600160a060020a03191633600160a060020a0316179055341561002a57600080fd5b61040d806100396000396000f30060606040526004361061005e5763ffffffff60e060020a60003504166317ffc320811461006b5780632aed7f3f1461008a5780638da5cb5b146100a95780639f727c27146100d8578063c0ee0b8a146100eb578063f2fde38b1461011a575b341561006957600080fd5b005b341561007657600080fd5b610069600160a060020a0360043516610139565b341561009557600080fd5b610069600160a060020a03600435166101e0565b34156100b457600080fd5b6100bc610267565b604051600160a060020a03909116815260200160405180910390f35b34156100e357600080fd5b610069610276565b34156100f657600080fd5b61006960048035600160a060020a03169060248035916044359182019101356102c9565b341561012557600080fd5b610069600160a060020a03600435166102ce565b6000805433600160a060020a0390811691161461015557600080fd5b81600160a060020a03166370a082313060405160e060020a63ffffffff8416028152600160a060020a039091166004820152602401602060405180830381600087803b15156101a357600080fd5b5af115156101b057600080fd5b50505060405180516000549092506101dc9150600160a060020a0384811691168363ffffffff61036916565b5050565b6000805433600160a060020a039081169116146101fc57600080fd5b506000548190600160a060020a038083169163f2fde38b911660405160e060020a63ffffffff8416028152600160a060020a039091166004820152602401600060405180830381600087803b151561025357600080fd5b5af1151561026057600080fd5b5050505050565b600054600160a060020a031681565b60005433600160a060020a0390811691161461029157600080fd5b600054600160a060020a039081169030163180156108fc0290604051600060405180830381858888f1935050505015156102c757fe5b565b600080fd5b60005433600160a060020a039081169116146102e957600080fd5b600160a060020a03811615156102fe57600080fd5b600054600160a060020a0380831691167f8be0079c531659141344cd1fd0a4f28419497f9722a3daafe3b4186f6b6457e060405160405180910390a36000805473ffffffffffffffffffffffffffffffffffffffff1916600160a060020a0392909216919091179055565b82600160a060020a031663a9059cbb838360405160e060020a63ffffffff8516028152600160a060020a0390921660048301526024820152604401602060405180830381600087803b15156103bd57600080fd5b5af115156103ca57600080fd5b5050506040518051905015156103dc57fe5b5050505600a165627a7a723058204da6393c00d4612fcf86d739ebba50ae1cb8d717a04e69d8175de0158f2d94d70029",
  "source": "pragma solidity ^0.4.21;\r\n\r\nimport \"./HasNoEther.sol\";\r\nimport \"./HasNoTokens.sol\";\r\nimport \"./HasNoContracts.sol\";\r\n\r\n\r\ncontract NoOwner is HasNoEther, HasNoTokens, HasNoContracts {\r\n}\r\n",
  "sourcePath": "C:\\Users\\DXenu\\Desktop\\box\\demo_contract\\contracts\\zeppelin\\NoOwner.sol",
  "compiler": {
    "name": "solc",
    "version": "0.4.21+commit.dfe3193c.Emscripten.clang"
  },
  "schemaVersion": "2.0.0",
  "updatedAt": "2018-04-14T18:23:52.434Z"
}