{
  "contractName": "Orders",
  "abi": [
    {
      "constant": false,
      "inputs": [
        {
          "name": "_addr",
          "type": "address"
        }
      ],
      "name": "deleteUser",
      "outputs": [
        {
          "name": "index",
          "type": "uint256"
        }
      ],
      "payable": false,
      "stateMutability": "nonpayable",
      "type": "function"
    },
    {
      "constant": true,
      "inputs": [
        {
          "name": "_addr",
          "type": "address"
        }
      ],
      "name": "getUser",
      "outputs": [
        {
          "name": "index",
          "type": "uint256"
        },
        {
          "name": "email",
          "type": "bytes32"
        },
        {
          "name": "firstName",
          "type": "bytes32"
        },
        {
          "name": "lastName",
          "type": "bytes32"
        }
      ],
      "payable": false,
      "stateMutability": "view",
      "type": "function"
    },
    {
      "constant": true,
      "inputs": [],
      "name": "getEnergyPriceMarkup",
      "outputs": [
        {
          "name": "",
          "type": "uint256"
        }
      ],
      "payable": false,
      "stateMutability": "view",
      "type": "function"
    },
    {
      "constant": true,
      "inputs": [],
      "name": "owner",
      "outputs": [
        {
          "name": "",
          "type": "address"
        }
      ],
      "payable": false,
      "stateMutability": "view",
      "type": "function"
    },
    {
      "constant": true,
      "inputs": [
        {
          "name": "_amount",
          "type": "uint256"
        }
      ],
      "name": "calculateFee",
      "outputs": [
        {
          "name": "",
          "type": "uint256"
        }
      ],
      "payable": false,
      "stateMutability": "view",
      "type": "function"
    },
    {
      "constant": false,
      "inputs": [
        {
          "name": "_addr",
          "type": "address"
        },
        {
          "name": "_email",
          "type": "bytes32"
        },
        {
          "name": "_firstName",
          "type": "bytes32"
        },
        {
          "name": "_lastName",
          "type": "bytes32"
        }
      ],
      "name": "updateUser",
      "outputs": [
        {
          "name": "",
          "type": "bool"
        }
      ],
      "payable": false,
      "stateMutability": "nonpayable",
      "type": "function"
    },
    {
      "constant": true,
      "inputs": [],
      "name": "getUserCount",
      "outputs": [
        {
          "name": "count",
          "type": "uint256"
        }
      ],
      "payable": false,
      "stateMutability": "view",
      "type": "function"
    },
    {
      "constant": false,
      "inputs": [
        {
          "name": "_priceMarkup",
          "type": "uint256"
        }
      ],
      "name": "setPriceMarkup",
      "outputs": [
        {
          "name": "",
          "type": "uint256"
        }
      ],
      "payable": false,
      "stateMutability": "nonpayable",
      "type": "function"
    },
    {
      "constant": true,
      "inputs": [],
      "name": "fee",
      "outputs": [
        {
          "name": "",
          "type": "uint256"
        }
      ],
      "payable": false,
      "stateMutability": "view",
      "type": "function"
    },
    {
      "constant": false,
      "inputs": [
        {
          "name": "newOwner",
          "type": "address"
        }
      ],
      "name": "transferOwnership",
      "outputs": [],
      "payable": false,
      "stateMutability": "nonpayable",
      "type": "function"
    },
    {
      "constant": true,
      "inputs": [
        {
          "name": "_addr",
          "type": "address"
        }
      ],
      "name": "existsUser",
      "outputs": [
        {
          "name": "isIndexed",
          "type": "bool"
        }
      ],
      "payable": false,
      "stateMutability": "view",
      "type": "function"
    },
    {
      "constant": false,
      "inputs": [
        {
          "name": "_fee",
          "type": "uint256"
        }
      ],
      "name": "setNewFee",
      "outputs": [],
      "payable": false,
      "stateMutability": "nonpayable",
      "type": "function"
    },
    {
      "constant": false,
      "inputs": [
        {
          "name": "_addr",
          "type": "address"
        },
        {
          "name": "_email",
          "type": "bytes32"
        },
        {
          "name": "_firstName",
          "type": "bytes32"
        },
        {
          "name": "_lastName",
          "type": "bytes32"
        }
      ],
      "name": "newtUser",
      "outputs": [
        {
          "name": "index",
          "type": "uint256"
        }
      ],
      "payable": false,
      "stateMutability": "nonpayable",
      "type": "function"
    },
    {
      "constant": true,
      "inputs": [
        {
          "name": "index",
          "type": "uint256"
        }
      ],
      "name": "getUserAtIndex",
      "outputs": [
        {
          "name": "_addr",
          "type": "address"
        }
      ],
      "payable": false,
      "stateMutability": "view",
      "type": "function"
    },
    {
      "anonymous": false,
      "inputs": [
        {
          "indexed": false,
          "name": "_buyer",
          "type": "address"
        },
        {
          "indexed": false,
          "name": "_amount",
          "type": "uint256"
        },
        {
          "indexed": false,
          "name": "_timestamp",
          "type": "uint256"
        }
      ],
      "name": "BuyDirectEvent",
      "type": "event"
    },
    {
      "anonymous": false,
      "inputs": [
        {
          "indexed": true,
          "name": "_addr",
          "type": "address"
        },
        {
          "indexed": false,
          "name": "_index",
          "type": "uint256"
        },
        {
          "indexed": false,
          "name": "_email",
          "type": "bytes32"
        },
        {
          "indexed": false,
          "name": "_firstName",
          "type": "bytes32"
        },
        {
          "indexed": false,
          "name": "_lastName",
          "type": "bytes32"
        }
      ],
      "name": "NewUser",
      "type": "event"
    },
    {
      "anonymous": false,
      "inputs": [
        {
          "indexed": true,
          "name": "_addr",
          "type": "address"
        },
        {
          "indexed": false,
          "name": "_index",
          "type": "uint256"
        },
        {
          "indexed": false,
          "name": "_email",
          "type": "bytes32"
        },
        {
          "indexed": false,
          "name": "_firstName",
          "type": "bytes32"
        },
        {
          "indexed": false,
          "name": "_lastName",
          "type": "bytes32"
        }
      ],
      "name": "UpdateUser",
      "type": "event"
    },
    {
      "anonymous": false,
      "inputs": [
        {
          "indexed": true,
          "name": "_addr",
          "type": "address"
        },
        {
          "indexed": false,
          "name": "_index",
          "type": "uint256"
        }
      ],
      "name": "DeleteUser",
      "type": "event"
    },
    {
      "anonymous": false,
      "inputs": [
        {
          "indexed": true,
          "name": "previousOwner",
          "type": "address"
        },
        {
          "indexed": true,
          "name": "newOwner",
          "type": "address"
        }
      ],
      "name": "OwnershipTransferred",
      "type": "event"
    },
    {
      "constant": true,
      "inputs": [
        {
          "name": "_index",
          "type": "uint256"
        }
      ],
      "name": "getOrder",
      "outputs": [
        {
          "name": "",
          "type": "address"
        },
        {
          "name": "",
          "type": "uint256"
        },
        {
          "name": "",
          "type": "uint256"
        }
      ],
      "payable": false,
      "stateMutability": "view",
      "type": "function"
    },
    {
      "constant": false,
      "inputs": [
        {
          "name": "_index",
          "type": "uint256"
        },
        {
          "name": "_amount",
          "type": "uint256"
        }
      ],
      "name": "approveOrder",
      "outputs": [],
      "payable": false,
      "stateMutability": "nonpayable",
      "type": "function"
    },
    {
      "constant": false,
      "inputs": [
        {
          "name": "_index",
          "type": "uint256"
        }
      ],
      "name": "declineOrder",
      "outputs": [],
      "payable": false,
      "stateMutability": "nonpayable",
      "type": "function"
    },
    {
      "constant": true,
      "inputs": [],
      "name": "getOrdersLength",
      "outputs": [
        {
          "name": "",
          "type": "uint256"
        }
      ],
      "payable": false,
      "stateMutability": "view",
      "type": "function"
    },
    {
      "constant": false,
      "inputs": [],
      "name": "buyDirect",
      "outputs": [],
      "payable": true,
      "stateMutability": "payable",
      "type": "function"
    }
  ],
  "bytecode": "0x606060405260006003556000600455336000806101000a81548173ffffffffffffffffffffffffffffffffffffffff021916908373ffffffffffffffffffffffffffffffffffffffff16021790555060646003819055506103e8600481905550611d7b8061006e6000396000f300606060405260043610610107576000357c0100000000000000000000000000000000000000000000000000000000900463ffffffff16806307c2e16c1461010c5780634198bb7b14610135578063483e0bd9146101615780635c60f2261461016b5780636f77926b146101b85780637f5d695a146102325780638da5cb5b1461025b57806399a5d747146102b05780639bd19ca9146102e7578063b5cb15f71461035f578063ccbdb85c14610388578063d09ef241146103ab578063d0dafe7e1461041c578063ddca3f4314610453578063f2fde38b1461047c578063f409e87d146104b5578063f4ef90be14610506578063f53f35ff14610529578063ffcc7bbf1461059d575b600080fd5b341561011757600080fd5b61011f610600565b6040518082815260200191505060405180910390f35b341561014057600080fd5b61015f6004808035906020019091908035906020019091905050610668565b005b6101696107f0565b005b341561017657600080fd5b6101a2600480803573ffffffffffffffffffffffffffffffffffffffff16906020019091905050610945565b6040518082815260200191505060405180910390f35b34156101c357600080fd5b6101ef600480803573ffffffffffffffffffffffffffffffffffffffff16906020019091905050610cd8565b6040518085815260200184600019166000191681526020018360001916600019168152602001826000191660001916815260200194505050505060405180910390f35b341561023d57600080fd5b610245610eab565b6040518082815260200191505060405180910390f35b341561026657600080fd5b61026e610eb5565b604051808273ffffffffffffffffffffffffffffffffffffffff1673ffffffffffffffffffffffffffffffffffffffff16815260200191505060405180910390f35b34156102bb57600080fd5b6102d16004808035906020019091905050610eda565b6040518082815260200191505060405180910390f35b34156102f257600080fd5b610345600480803573ffffffffffffffffffffffffffffffffffffffff16906020019091908035600019169060200190919080356000191690602001909190803560001916906020019091905050610f0d565b604051808215151515815260200191505060405180910390f35b341561036a57600080fd5b6103726111ad565b6040518082815260200191505060405180910390f35b341561039357600080fd5b6103a960048080359060200190919050506111ba565b005b34156103b657600080fd5b6103cc6004808035906020019091905050611404565b604051808473ffffffffffffffffffffffffffffffffffffffff1673ffffffffffffffffffffffffffffffffffffffff168152602001838152602001828152602001935050505060405180910390f35b341561042757600080fd5b61043d600480803590602001909190505061151e565b6040518082815260200191505060405180910390f35b341561045e57600080fd5b610466611587565b6040518082815260200191505060405180910390f35b341561048757600080fd5b6104b3600480803573ffffffffffffffffffffffffffffffffffffffff1690602001909190505061158d565b005b34156104c057600080fd5b6104ec600480803573ffffffffffffffffffffffffffffffffffffffff169060200190919050506116e2565b604051808215151515815260200191505060405180910390f35b341561051157600080fd5b61052760048080359060200190919050506117ad565b005b341561053457600080fd5b610587600480803573ffffffffffffffffffffffffffffffffffffffff16906020019091908035600019169060200190919080356000191690602001909190803560001916906020019091905050611812565b6040518082815260200191505060405180910390f35b34156105a857600080fd5b6105be6004808035906020019091905050611b28565b604051808273ffffffffffffffffffffffffffffffffffffffff1673ffffffffffffffffffffffffffffffffffffffff16815260200191505060405180910390f35b60008060009054906101000a900473ffffffffffffffffffffffffffffffffffffffff1673ffffffffffffffffffffffffffffffffffffffff163373ffffffffffffffffffffffffffffffffffffffff1614151561065d57600080fd5b600580549050905090565b60008060009054906101000a900473ffffffffffffffffffffffffffffffffffffffff1673ffffffffffffffffffffffffffffffffffffffff163373ffffffffffffffffffffffffffffffffffffffff161415156106c557600080fd5b60006005848154811015156106d657fe5b906000526020600020906003020160010154101515156106f557600080fd5b6106fe82610eda565b90506107138183611bc790919063ffffffff16565b9150600560016005805490500381548110151561072c57fe5b906000526020600020906003020160058481548110151561074957fe5b90600052602060002090600302016000820160009054906101000a900473ffffffffffffffffffffffffffffffffffffffff168160000160006101000a81548173ffffffffffffffffffffffffffffffffffffffff021916908373ffffffffffffffffffffffffffffffffffffffff160217905550600182015481600101556002820154816002015590505060058054809190600190036107ea9190611be0565b50505050565b6107f8611c12565b60003411151561080757600080fd5b6060604051908101604052803373ffffffffffffffffffffffffffffffffffffffff1681526020013481526020014281525090506005805480600101828161084f9190611c4a565b9160005260206000209060030201600083909190915060008201518160000160006101000a81548173ffffffffffffffffffffffffffffffffffffffff021916908373ffffffffffffffffffffffffffffffffffffffff16021790555060208201518160010155604082015181600201555050507f2c33c574213feb1047a6378e9beca724f8bda16b6624875a6dee2edb3edfcdb6816000015182602001518360400151604051808473ffffffffffffffffffffffffffffffffffffffff1673ffffffffffffffffffffffffffffffffffffffff168152602001838152602001828152602001935050505060405180910390a150565b60008060008060009054906101000a900473ffffffffffffffffffffffffffffffffffffffff1673ffffffffffffffffffffffffffffffffffffffff163373ffffffffffffffffffffffffffffffffffffffff161415156109a557600080fd5b838073ffffffffffffffffffffffffffffffffffffffff163373ffffffffffffffffffffffffffffffffffffffff161415156109e057600080fd5b600115156109ed866116e2565b15151415156109fb57600080fd5b600160008673ffffffffffffffffffffffffffffffffffffffff1673ffffffffffffffffffffffffffffffffffffffff1681526020019081526020016000206000015492506002600160028054905003815481101515610a5757fe5b906000526020600020900160009054906101000a900473ffffffffffffffffffffffffffffffffffffffff16915081600284815481101515610a9557fe5b906000526020600020900160006101000a81548173ffffffffffffffffffffffffffffffffffffffff021916908373ffffffffffffffffffffffffffffffffffffffff16021790555082600160008473ffffffffffffffffffffffffffffffffffffffff1673ffffffffffffffffffffffffffffffffffffffff168152602001908152602001600020600001819055506002805480919060019003610b3a9190611c7c565b508473ffffffffffffffffffffffffffffffffffffffff167f117183c06981515bdfa0b70d0448d8eb6ba07648cda62ab7c2b4361eeff80a1b846040518082815260200191505060405180910390a28173ffffffffffffffffffffffffffffffffffffffff167f36cd692caa63e05d06ec64ae3a07dffe3b224fecb32af5fa7bc1469f5bcdde5784600160008673ffffffffffffffffffffffffffffffffffffffff1673ffffffffffffffffffffffffffffffffffffffff16815260200190815260200160002060010154600160008773ffffffffffffffffffffffffffffffffffffffff1673ffffffffffffffffffffffffffffffffffffffff16815260200190815260200160002060020154600160008873ffffffffffffffffffffffffffffffffffffffff1673ffffffffffffffffffffffffffffffffffffffff168152602001908152602001600020600301546040518085815260200184600019166000191681526020018360001916600019168152602001826000191660001916815260200194505050505060405180910390a2829350505050919050565b6000806000806000809054906101000a900473ffffffffffffffffffffffffffffffffffffffff1673ffffffffffffffffffffffffffffffffffffffff163373ffffffffffffffffffffffffffffffffffffffff16141515610d3957600080fd5b848073ffffffffffffffffffffffffffffffffffffffff163373ffffffffffffffffffffffffffffffffffffffff16141515610d7457600080fd5b60011515610d81876116e2565b1515141515610d8f57600080fd5b600160008773ffffffffffffffffffffffffffffffffffffffff1673ffffffffffffffffffffffffffffffffffffffff16815260200190815260200160002060000154600160008873ffffffffffffffffffffffffffffffffffffffff1673ffffffffffffffffffffffffffffffffffffffff16815260200190815260200160002060010154600160008973ffffffffffffffffffffffffffffffffffffffff1673ffffffffffffffffffffffffffffffffffffffff16815260200190815260200160002060020154600160008a73ffffffffffffffffffffffffffffffffffffffff1673ffffffffffffffffffffffffffffffffffffffff168152602001908152602001600020600301549450945094509450509193509193565b6000600454905090565b6000809054906101000a900473ffffffffffffffffffffffffffffffffffffffff1681565b6000806103e86003548402811515610eee57fe5b0490506000811415610f035760019150610f07565b8091505b50919050565b60008060009054906101000a900473ffffffffffffffffffffffffffffffffffffffff1673ffffffffffffffffffffffffffffffffffffffff163373ffffffffffffffffffffffffffffffffffffffff16141515610f6a57600080fd5b848073ffffffffffffffffffffffffffffffffffffffff163373ffffffffffffffffffffffffffffffffffffffff16141515610fa557600080fd5b846005602060ff16111515610fb957600080fd5b846005602060ff16111515610fcd57600080fd5b846005602060ff16111515610fe157600080fd5b60011515610fee8a6116e2565b1515141515610ffc57600080fd5b87600160008b73ffffffffffffffffffffffffffffffffffffffff1673ffffffffffffffffffffffffffffffffffffffff168152602001908152602001600020600101816000191690555086600160008b73ffffffffffffffffffffffffffffffffffffffff1673ffffffffffffffffffffffffffffffffffffffff168152602001908152602001600020600201816000191690555085600160008b73ffffffffffffffffffffffffffffffffffffffff1673ffffffffffffffffffffffffffffffffffffffff16815260200190815260200160002060030181600019169055508873ffffffffffffffffffffffffffffffffffffffff167f36cd692caa63e05d06ec64ae3a07dffe3b224fecb32af5fa7bc1469f5bcdde57600160008c73ffffffffffffffffffffffffffffffffffffffff1673ffffffffffffffffffffffffffffffffffffffff168152602001908152602001600020600001548a8a8a6040518085815260200184600019166000191681526020018360001916600019168152602001826000191660001916815260200194505050505060405180910390a26001945050505050949350505050565b6000600280549050905090565b6111c2611c12565b6000809054906101000a900473ffffffffffffffffffffffffffffffffffffffff1673ffffffffffffffffffffffffffffffffffffffff163373ffffffffffffffffffffffffffffffffffffffff1614151561121d57600080fd5b600060058381548110151561122e57fe5b9060005260206000209060030201600101541015151561124d57600080fd5b60058281548110151561125c57fe5b9060005260206000209060030201606060405190810160405290816000820160009054906101000a900473ffffffffffffffffffffffffffffffffffffffff1673ffffffffffffffffffffffffffffffffffffffff1673ffffffffffffffffffffffffffffffffffffffff168152602001600182015481526020016002820154815250509050806000015173ffffffffffffffffffffffffffffffffffffffff166108fc82602001519081150290604051600060405180830381858888f19350505050151561132a57600080fd5b600560016005805490500381548110151561134157fe5b906000526020600020906003020160058381548110151561135e57fe5b90600052602060002090600302016000820160009054906101000a900473ffffffffffffffffffffffffffffffffffffffff168160000160006101000a81548173ffffffffffffffffffffffffffffffffffffffff021916908373ffffffffffffffffffffffffffffffffffffffff160217905550600182015481600101556002820154816002015590505060058054809190600190036113ff9190611be0565b505050565b6000806000611411611c12565b6000809054906101000a900473ffffffffffffffffffffffffffffffffffffffff1673ffffffffffffffffffffffffffffffffffffffff163373ffffffffffffffffffffffffffffffffffffffff1614151561146c57600080fd5b60058581548110151561147b57fe5b9060005260206000209060030201606060405190810160405290816000820160009054906101000a900473ffffffffffffffffffffffffffffffffffffffff1673ffffffffffffffffffffffffffffffffffffffff1673ffffffffffffffffffffffffffffffffffffffff168152602001600182015481526020016002820154815250509050806000015181602001518260400151935093509350509193909250565b60008060009054906101000a900473ffffffffffffffffffffffffffffffffffffffff1673ffffffffffffffffffffffffffffffffffffffff163373ffffffffffffffffffffffffffffffffffffffff1614151561157b57600080fd5b81600481905550919050565b60035481565b6000809054906101000a900473ffffffffffffffffffffffffffffffffffffffff1673ffffffffffffffffffffffffffffffffffffffff163373ffffffffffffffffffffffffffffffffffffffff161415156115e857600080fd5b600073ffffffffffffffffffffffffffffffffffffffff168173ffffffffffffffffffffffffffffffffffffffff161415151561162457600080fd5b8073ffffffffffffffffffffffffffffffffffffffff166000809054906101000a900473ffffffffffffffffffffffffffffffffffffffff1673ffffffffffffffffffffffffffffffffffffffff167f8be0079c531659141344cd1fd0a4f28419497f9722a3daafe3b4186f6b6457e060405160405180910390a3806000806101000a81548173ffffffffffffffffffffffffffffffffffffffff021916908373ffffffffffffffffffffffffffffffffffffffff16021790555050565b60008060028054905014156116fa57600090506117a8565b8173ffffffffffffffffffffffffffffffffffffffff166002600160008573ffffffffffffffffffffffffffffffffffffffff1673ffffffffffffffffffffffffffffffffffffffff1681526020019081526020016000206000015481548110151561176257fe5b906000526020600020900160009054906101000a900473ffffffffffffffffffffffffffffffffffffffff1673ffffffffffffffffffffffffffffffffffffffff161490505b919050565b6000809054906101000a900473ffffffffffffffffffffffffffffffffffffffff1673ffffffffffffffffffffffffffffffffffffffff163373ffffffffffffffffffffffffffffffffffffffff1614151561180857600080fd5b8060038190555050565b6000836005602060ff1611151561182857600080fd5b6000809054906101000a900473ffffffffffffffffffffffffffffffffffffffff1673ffffffffffffffffffffffffffffffffffffffff163373ffffffffffffffffffffffffffffffffffffffff1614151561188357600080fd5b836005602060ff1611151561189757600080fd5b836005602060ff161115156118ab57600080fd5b600015156118b8896116e2565b15151415156118c657600080fd5b86600160008a73ffffffffffffffffffffffffffffffffffffffff1673ffffffffffffffffffffffffffffffffffffffff168152602001908152602001600020600101816000191690555085600160008a73ffffffffffffffffffffffffffffffffffffffff1673ffffffffffffffffffffffffffffffffffffffff168152602001908152602001600020600201816000191690555084600160008a73ffffffffffffffffffffffffffffffffffffffff1673ffffffffffffffffffffffffffffffffffffffff16815260200190815260200160002060030181600019169055506001600280548060010182816119bd9190611ca8565b916000526020600020900160008b909190916101000a81548173ffffffffffffffffffffffffffffffffffffffff021916908373ffffffffffffffffffffffffffffffffffffffff16021790555003600160008a73ffffffffffffffffffffffffffffffffffffffff1673ffffffffffffffffffffffffffffffffffffffff168152602001908152602001600020600001819055508773ffffffffffffffffffffffffffffffffffffffff167f78b833eacd29aac1183e31c8289157ed550f3b1f9f1526bf2055ef195cac287f600160008b73ffffffffffffffffffffffffffffffffffffffff1673ffffffffffffffffffffffffffffffffffffffff168152602001908152602001600020600001548989896040518085815260200184600019166000191681526020018360001916600019168152602001826000191660001916815260200194505050505060405180910390a26001600280549050039350505050949350505050565b60008060009054906101000a900473ffffffffffffffffffffffffffffffffffffffff1673ffffffffffffffffffffffffffffffffffffffff163373ffffffffffffffffffffffffffffffffffffffff16141515611b8557600080fd5b600282815481101515611b9457fe5b906000526020600020900160009054906101000a900473ffffffffffffffffffffffffffffffffffffffff169050919050565b6000828211151515611bd557fe5b818303905092915050565b815481835581811511611c0d57600302816003028360005260206000209182019101611c0c9190611cd4565b5b505050565b606060405190810160405280600073ffffffffffffffffffffffffffffffffffffffff16815260200160008152602001600081525090565b815481835581811511611c7757600302816003028360005260206000209182019101611c769190611cd4565b5b505050565b815481835581811511611ca357818360005260206000209182019101611ca29190611d2a565b5b505050565b815481835581811511611ccf57818360005260206000209182019101611cce9190611d2a565b5b505050565b611d2791905b80821115611d2357600080820160006101000a81549073ffffffffffffffffffffffffffffffffffffffff02191690556001820160009055600282016000905550600301611cda565b5090565b90565b611d4c91905b80821115611d48576000816000905550600101611d30565b5090565b905600a165627a7a723058209abd90c4a13ee0739cffee168d3dda6db512a376f566ae567c9d349e617d22ff0029",
  "source": "pragma solidity ^0.4.19;\r\n\r\nimport \"./zeppelin/Ownable.sol\";\r\nimport \"./zeppelin/SafeMath.sol\";\r\nimport \"./User.sol\";\r\nimport \"./Fee.sol\";\r\n\r\n\r\ncontract Orders is Ownable, User, Fees {\r\n    using SafeMath for uint;\r\n\r\n    struct Order {\r\n        address buyer;\r\n        uint amount;\r\n        uint timestamp;\r\n    }\r\n\r\n    Order[] orders;\r\n    event BuyDirectEvent(address _buyer, uint _amount, uint _timestamp);\r\n\r\n    function getOrder(uint _index) public constant onlyOwner returns (address, uint, uint) {\r\n        Order memory order = orders[_index];\r\n        return (order.buyer, order.amount, order.timestamp);\r\n    }\r\n\r\n    function approveOrder(uint _index, uint _amount) public onlyOwner {\r\n        require(orders[_index].amount >= 0);\r\n\r\n        //Order memory order = orders[_index];\r\n\r\n        uint feeAmount = calculateFee(_amount);\r\n        _amount = _amount.sub(feeAmount);\r\n        // mint(this, feeAmount);\r\n\r\n        //mint(order.buyer, _amount);\r\n\r\n        orders[_index] = orders[orders.length-1];\r\n        orders.length--;\r\n    }\r\n\r\n    function declineOrder(uint _index) public onlyOwner {\r\n        require(orders[_index].amount >= 0);\r\n\r\n        Order memory order = orders[_index];\r\n        order.buyer.transfer(order.amount);\r\n\r\n        orders[_index] = orders[orders.length-1];\r\n        orders.length--;\r\n    }\r\n\r\n    function getOrdersLength() public constant onlyOwner returns (uint) {\r\n        return orders.length;\r\n    }\r\n\r\n    function buyDirect() public payable {\r\n        require(msg.value > 0);\r\n\r\n        Order memory order = Order({\r\n            buyer: msg.sender,\r\n            amount: msg.value,\r\n            timestamp: now\r\n        });\r\n\r\n        orders.push(order);\r\n\r\n        BuyDirectEvent(order.buyer, order.amount, order.timestamp);\r\n    }\r\n\r\n}\r\n",
  "sourcePath": "C:\\Users\\DXenu\\Desktop\\box\\demo_contract\\contracts\\Order.sol",
  "compiler": {
    "name": "solc",
    "version": "0.4.19+commit.c4cbbb05.Emscripten.clang"
  },
  "schemaVersion": "2.0.0",
  "updatedAt": "2018-04-02T16:54:03.551Z"
}