{
  "contractName": "Orders",
  "abi": [
    {
      "constant": true,
      "inputs": [
        {
          "name": "addr",
          "type": "address"
        }
      ],
      "name": "validate",
      "outputs": [
        {
          "name": "",
          "type": "bool"
        }
      ],
      "payable": false,
      "stateMutability": "view",
      "type": "function"
    },
    {
      "constant": false,
      "inputs": [
        {
          "name": "_addr",
          "type": "address"
        }
      ],
      "name": "deleteUser",
      "outputs": [
        {
          "name": "index",
          "type": "uint256"
        }
      ],
      "payable": false,
      "stateMutability": "nonpayable",
      "type": "function"
    },
    {
      "constant": true,
      "inputs": [
        {
          "name": "_addr",
          "type": "address"
        }
      ],
      "name": "getUser",
      "outputs": [
        {
          "name": "index",
          "type": "uint256"
        },
        {
          "name": "email",
          "type": "bytes32"
        },
        {
          "name": "firstName",
          "type": "bytes32"
        },
        {
          "name": "lastName",
          "type": "bytes32"
        }
      ],
      "payable": false,
      "stateMutability": "view",
      "type": "function"
    },
    {
      "constant": true,
      "inputs": [],
      "name": "owner",
      "outputs": [
        {
          "name": "",
          "type": "address"
        }
      ],
      "payable": false,
      "stateMutability": "view",
      "type": "function"
    },
    {
      "constant": false,
      "inputs": [
        {
          "name": "_addr",
          "type": "address"
        },
        {
          "name": "_email",
          "type": "bytes32"
        },
        {
          "name": "_firstName",
          "type": "bytes32"
        },
        {
          "name": "_lastName",
          "type": "bytes32"
        }
      ],
      "name": "updateUser",
      "outputs": [
        {
          "name": "",
          "type": "bool"
        }
      ],
      "payable": false,
      "stateMutability": "nonpayable",
      "type": "function"
    },
    {
      "constant": true,
      "inputs": [],
      "name": "getUserCount",
      "outputs": [
        {
          "name": "count",
          "type": "uint256"
        }
      ],
      "payable": false,
      "stateMutability": "view",
      "type": "function"
    },
    {
      "constant": false,
      "inputs": [
        {
          "name": "newOwner",
          "type": "address"
        }
      ],
      "name": "transferOwnership",
      "outputs": [],
      "payable": false,
      "stateMutability": "nonpayable",
      "type": "function"
    },
    {
      "constant": true,
      "inputs": [
        {
          "name": "_addr",
          "type": "address"
        }
      ],
      "name": "existsUser",
      "outputs": [
        {
          "name": "isIndexed",
          "type": "bool"
        }
      ],
      "payable": false,
      "stateMutability": "view",
      "type": "function"
    },
    {
      "constant": false,
      "inputs": [
        {
          "name": "_addr",
          "type": "address"
        },
        {
          "name": "_email",
          "type": "bytes32"
        },
        {
          "name": "_firstName",
          "type": "bytes32"
        },
        {
          "name": "_lastName",
          "type": "bytes32"
        }
      ],
      "name": "newtUser",
      "outputs": [
        {
          "name": "index",
          "type": "uint256"
        }
      ],
      "payable": false,
      "stateMutability": "nonpayable",
      "type": "function"
    },
    {
      "constant": true,
      "inputs": [
        {
          "name": "index",
          "type": "uint256"
        }
      ],
      "name": "getUserAtIndex",
      "outputs": [
        {
          "name": "_addr",
          "type": "address"
        }
      ],
      "payable": false,
      "stateMutability": "view",
      "type": "function"
    },
    {
      "anonymous": false,
      "inputs": [
        {
          "indexed": false,
          "name": "_buyer",
          "type": "address"
        },
        {
          "indexed": false,
          "name": "_amount",
          "type": "uint256"
        },
        {
          "indexed": false,
          "name": "_timestamp",
          "type": "uint256"
        }
      ],
      "name": "BuyDirectEvent",
      "type": "event"
    },
    {
      "anonymous": false,
      "inputs": [
        {
          "indexed": true,
          "name": "_addr",
          "type": "address"
        },
        {
          "indexed": false,
          "name": "_index",
          "type": "uint256"
        },
        {
          "indexed": false,
          "name": "_email",
          "type": "bytes32"
        },
        {
          "indexed": false,
          "name": "_firstName",
          "type": "bytes32"
        },
        {
          "indexed": false,
          "name": "_lastName",
          "type": "bytes32"
        }
      ],
      "name": "NewUser",
      "type": "event"
    },
    {
      "anonymous": false,
      "inputs": [
        {
          "indexed": true,
          "name": "_addr",
          "type": "address"
        },
        {
          "indexed": false,
          "name": "_index",
          "type": "uint256"
        },
        {
          "indexed": false,
          "name": "_email",
          "type": "bytes32"
        },
        {
          "indexed": false,
          "name": "_firstName",
          "type": "bytes32"
        },
        {
          "indexed": false,
          "name": "_lastName",
          "type": "bytes32"
        }
      ],
      "name": "UpdateUser",
      "type": "event"
    },
    {
      "anonymous": false,
      "inputs": [
        {
          "indexed": true,
          "name": "_addr",
          "type": "address"
        },
        {
          "indexed": false,
          "name": "_index",
          "type": "uint256"
        }
      ],
      "name": "DeleteUser",
      "type": "event"
    },
    {
      "anonymous": false,
      "inputs": [
        {
          "indexed": true,
          "name": "previousOwner",
          "type": "address"
        },
        {
          "indexed": true,
          "name": "newOwner",
          "type": "address"
        }
      ],
      "name": "OwnershipTransferred",
      "type": "event"
    },
    {
      "constant": true,
      "inputs": [
        {
          "name": "_index",
          "type": "uint256"
        }
      ],
      "name": "getOrder",
      "outputs": [
        {
          "name": "",
          "type": "address"
        },
        {
          "name": "",
          "type": "uint256"
        },
        {
          "name": "",
          "type": "uint256"
        }
      ],
      "payable": false,
      "stateMutability": "view",
      "type": "function"
    },
    {
      "constant": false,
      "inputs": [
        {
          "name": "_index",
          "type": "uint256"
        },
        {
          "name": "_amount",
          "type": "uint256"
        }
      ],
      "name": "approveOrder",
      "outputs": [],
      "payable": false,
      "stateMutability": "nonpayable",
      "type": "function"
    },
    {
      "constant": false,
      "inputs": [
        {
          "name": "_index",
          "type": "uint256"
        }
      ],
      "name": "declineOrder",
      "outputs": [],
      "payable": false,
      "stateMutability": "nonpayable",
      "type": "function"
    },
    {
      "constant": true,
      "inputs": [],
      "name": "getOrdersLength",
      "outputs": [
        {
          "name": "",
          "type": "uint256"
        }
      ],
      "payable": false,
      "stateMutability": "view",
      "type": "function"
    },
    {
      "constant": false,
      "inputs": [],
      "name": "buyDirect",
      "outputs": [],
      "payable": true,
      "stateMutability": "payable",
      "type": "function"
    }
  ],
  "bytecode": "0x606060405260008054600160a060020a033316600160a060020a0319909116179055610e33806100306000396000f3006060604052600436106100da5763ffffffff7c010000000000000000000000000000000000000000000000000000000060003504166307c2e16c81146100df578063207c64fb146101045780634198bb7b14610137578063483e0bd9146101525780635c60f2261461015a5780636f77926b146101795780638da5cb5b146101c45780639bd19ca9146101f3578063b5cb15f71461021b578063ccbdb85c1461022e578063d09ef24114610244578063f2fde38b14610290578063f409e87d146102af578063f53f35ff146102ce578063ffcc7bbf146102f6575b600080fd5b34156100ea57600080fd5b6100f261030c565b60405190815260200160405180910390f35b341561010f57600080fd5b610123600160a060020a0360043516610330565b604051901515815260200160405180910390f35b341561014257600080fd5b610150600435602435610348565b005b6101506104af565b341561016557600080fd5b6100f2600160a060020a03600435166105a9565b341561018457600080fd5b610198600160a060020a0360043516610766565b604051938452602084019290925260408084019190915260608301919091526080909101905180910390f35b34156101cf57600080fd5b6101d76107fc565b604051600160a060020a03909116815260200160405180910390f35b34156101fe57600080fd5b610123600160a060020a036004351660243560443560643561080b565b341561022657600080fd5b6100f26108f3565b341561023957600080fd5b6101506004356108f9565b341561024f57600080fd5b61025a600435610a5f565b6040518084600160a060020a0316600160a060020a03168152602001838152602001828152602001935050505060405180910390f35b341561029b57600080fd5b610150600160a060020a0360043516610af0565b34156102ba57600080fd5b610123600160a060020a0360043516610b7e565b34156102d957600080fd5b6100f2600160a060020a0360043516602435604435606435610bd6565b341561030157600080fd5b6101d7600435610ced565b6000805433600160a060020a0390811691161461032857600080fd5b506003545b90565b60005433600160a060020a039081169116145b919050565b6000805433600160a060020a0390811691161461036457600080fd5b600060038481548110151561037557fe5b9060005260206000209060030201600101541015151561039457600080fd5b600454600160a060020a03166399a5d747836040517c010000000000000000000000000000000000000000000000000000000063ffffffff84160281526004810191909152602401602060405180830381600087803b15156103f557600080fd5b5af1151561040257600080fd5b5050506040518051915061041e9050828263ffffffff610d3216565b6003805491935090600019810190811061043457fe5b906000526020600020906003020160038481548110151561045157fe5b60009182526020909120825460039283029091018054600160a060020a031916600160a060020a03909216919091178155600180840154908201556002928301549201919091558054906104a9906000198301610d47565b50505050565b6104b7610d73565b600034116104c457600080fd5b60606040519081016040528033600160a060020a03168152602001348152602001428152509050600380548060010182816104ff9190610d47565b6000928352602090922083916003020181518154600160a060020a031916600160a060020a0391909116178155602082015181600101556040820151600290910155507f2c33c574213feb1047a6378e9beca724f8bda16b6624875a6dee2edb3edfcdb690508151826020015183604001516040518084600160a060020a0316600160a060020a03168152602001838152602001828152602001935050505060405180910390a150565b600080548190819033600160a060020a039081169116146105c957600080fd5b8380600160a060020a031633600160a060020a03161415156105ea57600080fd5b6105f385610b7e565b151560011461060157600080fd5b600160a060020a0385166000908152600160205260409020546002805491945090600019810190811061063057fe5b60009182526020909120015460028054600160a060020a03909216935083918590811061065957fe5b60009182526020808320919091018054600160a060020a031916600160a060020a03948516179055918416815260019091526040902083905560028054906106a5906000198301610d93565b5084600160a060020a03167f117183c06981515bdfa0b70d0448d8eb6ba07648cda62ab7c2b4361eeff80a1b8460405190815260200160405180910390a2600160a060020a0382166000818152600160208190526040918290209081015460028201546003909201547f36cd692caa63e05d06ec64ae3a07dffe3b224fecb32af5fa7bc1469f5bcdde57938893919051938452602084019290925260408084019190915260608301919091526080909101905180910390a250909392505050565b6000805481908190819033600160a060020a0390811691161461078857600080fd5b8480600160a060020a031633600160a060020a03161415156107a957600080fd5b6107b286610b7e565b15156001146107c057600080fd5b50505050600160a060020a0391909116600090815260016020819052604090912080549181015460028201546003909201549294909350909190565b600054600160a060020a031681565b6000805433600160a060020a0390811691161461082757600080fd5b8480600160a060020a031633600160a060020a031614151561084857600080fd5b84848461085489610b7e565b151560011461086257600080fd5b600160a060020a0389166000818152600160208190526040918290209081018b9055600281018a905560038101899055547f36cd692caa63e05d06ec64ae3a07dffe3b224fecb32af5fa7bc1469f5bcdde57918b908b908b9051938452602084019290925260408084019190915260608301919091526080909101905180910390a250600198975050505050505050565b60025490565b610901610d73565b60005433600160a060020a0390811691161461091c57600080fd5b600060038381548110151561092d57fe5b9060005260206000209060030201600101541015151561094c57600080fd5b600380548390811061095a57fe5b9060005260206000209060030201606060405190810160409081528254600160a060020a03168252600183015460208301526002909201549181019190915290508051600160a060020a03166108fc82602001519081150290604051600060405180830381858888f1935050505015156109d357600080fd5b6003805460001981019081106109e557fe5b9060005260206000209060030201600383815481101515610a0257fe5b60009182526020909120825460039283029091018054600160a060020a031916600160a060020a0390921691909117815560018084015490820155600292830154920191909155805490610a5a906000198301610d47565b505050565b6000806000610a6c610d73565b60005433600160a060020a03908116911614610a8757600080fd5b6003805486908110610a9557fe5b9060005260206000209060030201606060405190810160409081528254600160a060020a0316825260018301546020830152600290920154918101919091529050805181602001518260400151935093509350509193909250565b60005433600160a060020a03908116911614610b0b57600080fd5b600160a060020a0381161515610b2057600080fd5b600054600160a060020a0380831691167f8be0079c531659141344cd1fd0a4f28419497f9722a3daafe3b4186f6b6457e060405160405180910390a360008054600160a060020a031916600160a060020a0392909216919091179055565b6002546000901515610b9257506000610343565b600160a060020a038216600081815260016020526040902054600280549091908110610bba57fe5b600091825260209091200154600160a060020a03161492915050565b60008360005433600160a060020a03908116911614610bf457600080fd5b8383610bff88610b7e565b15610c0957600080fd5b600160a060020a0388166000908152600160208190526040909120808201899055600280820189905560039091018790558054808301610c498382610d93565b60009283526020808420929092018054600160a060020a031916600160a060020a038e16908117909155808452600190925260409283902093900392839055917f78b833eacd29aac1183e31c8289157ed550f3b1f9f1526bf2055ef195cac287f918a908a908a9051938452602084019290925260408084019190915260608301919091526080909101905180910390a25050600254600019019695505050505050565b6000805433600160a060020a03908116911614610d0957600080fd5b6002805483908110610d1757fe5b600091825260209091200154600160a060020a031692915050565b600082821115610d4157600080fd5b50900390565b815481835581811511610a5a57600302816003028360005260206000209182019101610a5a9190610db7565b606060405190810160409081526000808352602083018190529082015290565b815481835581811511610a5a57600083815260209020610a5a918101908301610ded565b61032d91905b80821115610de9578054600160a060020a03191681556000600182018190556002820155600301610dbd565b5090565b61032d91905b80821115610de95760008155600101610df35600a165627a7a72305820d7d4d105feb4ab15562a6ca9b6405ee11ea7d84673ed1e533272022c6252c22d0029",
  "source": "pragma solidity ^0.4.21;\r\n\r\nimport \"./zeppelin/Ownable.sol\";\r\nimport \"./zeppelin/SafeMath.sol\";\r\n// import \"zeppelin-solidity/contracts/ownership/Ownable.sol\";\r\n// import \"zeppelin-solidity/contracts/math/SafeMath.sol\";\r\nimport \"./User.sol\";\r\nimport \"./Exchange.sol\";\r\n\r\n\r\ncontract Orders is Ownable, User {\r\n    using SafeMath for uint;\r\n\r\n    struct Order {\r\n        address buyer;\r\n        uint amount;\r\n        uint timestamp;\r\n    }\r\n\r\n    Order[] orders;\r\n    Exchange _exchange;\r\n    event BuyDirectEvent(address _buyer, uint _amount, uint _timestamp);\r\n\r\n    function getOrder(uint _index) public constant onlyOwner returns (address, uint, uint) {\r\n        Order memory order = orders[_index];\r\n        return (order.buyer, order.amount, order.timestamp);\r\n    }\r\n\r\n    function approveOrder(uint _index, uint _amount) public onlyOwner {\r\n        require(orders[_index].amount >= 0);\r\n\r\n        //Order memory order = orders[_index];\r\n\r\n        uint feeAmount = _exchange.calculateFee(_amount);\r\n        _amount = _amount.sub(feeAmount);\r\n        // mint(this, feeAmount);\r\n\r\n        //mint(order.buyer, _amount);\r\n\r\n        orders[_index] = orders[orders.length-1];\r\n        orders.length--;\r\n    }\r\n\r\n    function declineOrder(uint _index) public onlyOwner {\r\n        require(orders[_index].amount >= 0);\r\n\r\n        Order memory order = orders[_index];\r\n        order.buyer.transfer(order.amount);\r\n\r\n        orders[_index] = orders[orders.length-1];\r\n        orders.length--;\r\n    }\r\n\r\n    function getOrdersLength() public constant onlyOwner returns (uint) {\r\n        return orders.length;\r\n    }\r\n\r\n    function buyDirect() public payable {\r\n        require(msg.value > 0);\r\n\r\n        Order memory order = Order({\r\n            buyer: msg.sender,\r\n            amount: msg.value,\r\n            timestamp: now\r\n        });\r\n\r\n        orders.push(order);\r\n\r\n        emit BuyDirectEvent(order.buyer, order.amount, order.timestamp);\r\n    }\r\n\r\n}\r\n",
  "sourcePath": "C:\\Users\\DXenu\\Desktop\\box\\demo_contract\\contracts\\Order.sol",
  "compiler": {
    "name": "solc",
    "version": "0.4.21+commit.dfe3193c.Emscripten.clang"
  },
  "schemaVersion": "2.0.0",
  "updatedAt": "2018-04-16T11:26:28.969Z"
}