{
  "contractName": "Orders",
  "abi": [
    {
      "constant": false,
      "inputs": [
        {
          "name": "_addr",
          "type": "address"
        }
      ],
      "name": "deleteUser",
      "outputs": [
        {
          "name": "index",
          "type": "uint256"
        }
      ],
      "payable": false,
      "stateMutability": "nonpayable",
      "type": "function"
    },
    {
      "constant": true,
      "inputs": [
        {
          "name": "_addr",
          "type": "address"
        }
      ],
      "name": "getUser",
      "outputs": [
        {
          "name": "index",
          "type": "uint256"
        },
        {
          "name": "email",
          "type": "bytes32"
        },
        {
          "name": "firstName",
          "type": "bytes32"
        },
        {
          "name": "lastName",
          "type": "bytes32"
        }
      ],
      "payable": false,
      "stateMutability": "view",
      "type": "function"
    },
    {
      "constant": true,
      "inputs": [],
      "name": "owner",
      "outputs": [
        {
          "name": "",
          "type": "address"
        }
      ],
      "payable": false,
      "stateMutability": "view",
      "type": "function"
    },
    {
      "constant": false,
      "inputs": [
        {
          "name": "_addr",
          "type": "address"
        },
        {
          "name": "_email",
          "type": "bytes32"
        },
        {
          "name": "_firstName",
          "type": "bytes32"
        },
        {
          "name": "_lastName",
          "type": "bytes32"
        }
      ],
      "name": "updateUser",
      "outputs": [
        {
          "name": "",
          "type": "bool"
        }
      ],
      "payable": false,
      "stateMutability": "nonpayable",
      "type": "function"
    },
    {
      "constant": true,
      "inputs": [],
      "name": "getUserCount",
      "outputs": [
        {
          "name": "count",
          "type": "uint256"
        }
      ],
      "payable": false,
      "stateMutability": "view",
      "type": "function"
    },
    {
      "constant": false,
      "inputs": [
        {
          "name": "newOwner",
          "type": "address"
        }
      ],
      "name": "transferOwnership",
      "outputs": [],
      "payable": false,
      "stateMutability": "nonpayable",
      "type": "function"
    },
    {
      "constant": true,
      "inputs": [
        {
          "name": "_addr",
          "type": "address"
        }
      ],
      "name": "existsUser",
      "outputs": [
        {
          "name": "isIndexed",
          "type": "bool"
        }
      ],
      "payable": false,
      "stateMutability": "view",
      "type": "function"
    },
    {
      "constant": false,
      "inputs": [
        {
          "name": "_addr",
          "type": "address"
        },
        {
          "name": "_email",
          "type": "bytes32"
        },
        {
          "name": "_firstName",
          "type": "bytes32"
        },
        {
          "name": "_lastName",
          "type": "bytes32"
        }
      ],
      "name": "newtUser",
      "outputs": [
        {
          "name": "index",
          "type": "uint256"
        }
      ],
      "payable": false,
      "stateMutability": "nonpayable",
      "type": "function"
    },
    {
      "constant": true,
      "inputs": [
        {
          "name": "index",
          "type": "uint256"
        }
      ],
      "name": "getUserAtIndex",
      "outputs": [
        {
          "name": "_addr",
          "type": "address"
        }
      ],
      "payable": false,
      "stateMutability": "view",
      "type": "function"
    },
    {
      "anonymous": false,
      "inputs": [
        {
          "indexed": false,
          "name": "_buyer",
          "type": "address"
        },
        {
          "indexed": false,
          "name": "_amount",
          "type": "uint256"
        },
        {
          "indexed": false,
          "name": "_timestamp",
          "type": "uint256"
        }
      ],
      "name": "BuyDirectEvent",
      "type": "event"
    },
    {
      "anonymous": false,
      "inputs": [
        {
          "indexed": true,
          "name": "_addr",
          "type": "address"
        },
        {
          "indexed": false,
          "name": "_index",
          "type": "uint256"
        },
        {
          "indexed": false,
          "name": "_email",
          "type": "bytes32"
        },
        {
          "indexed": false,
          "name": "_firstName",
          "type": "bytes32"
        },
        {
          "indexed": false,
          "name": "_lastName",
          "type": "bytes32"
        }
      ],
      "name": "NewUser",
      "type": "event"
    },
    {
      "anonymous": false,
      "inputs": [
        {
          "indexed": true,
          "name": "_addr",
          "type": "address"
        },
        {
          "indexed": false,
          "name": "_index",
          "type": "uint256"
        },
        {
          "indexed": false,
          "name": "_email",
          "type": "bytes32"
        },
        {
          "indexed": false,
          "name": "_firstName",
          "type": "bytes32"
        },
        {
          "indexed": false,
          "name": "_lastName",
          "type": "bytes32"
        }
      ],
      "name": "UpdateUser",
      "type": "event"
    },
    {
      "anonymous": false,
      "inputs": [
        {
          "indexed": true,
          "name": "_addr",
          "type": "address"
        },
        {
          "indexed": false,
          "name": "_index",
          "type": "uint256"
        }
      ],
      "name": "DeleteUser",
      "type": "event"
    },
    {
      "anonymous": false,
      "inputs": [
        {
          "indexed": true,
          "name": "previousOwner",
          "type": "address"
        },
        {
          "indexed": true,
          "name": "newOwner",
          "type": "address"
        }
      ],
      "name": "OwnershipTransferred",
      "type": "event"
    },
    {
      "constant": true,
      "inputs": [
        {
          "name": "_index",
          "type": "uint256"
        }
      ],
      "name": "getOrder",
      "outputs": [
        {
          "name": "",
          "type": "address"
        },
        {
          "name": "",
          "type": "uint256"
        },
        {
          "name": "",
          "type": "uint256"
        }
      ],
      "payable": false,
      "stateMutability": "view",
      "type": "function"
    },
    {
      "constant": false,
      "inputs": [
        {
          "name": "_index",
          "type": "uint256"
        },
        {
          "name": "_amount",
          "type": "uint256"
        }
      ],
      "name": "approveOrder",
      "outputs": [],
      "payable": false,
      "stateMutability": "nonpayable",
      "type": "function"
    },
    {
      "constant": false,
      "inputs": [
        {
          "name": "_index",
          "type": "uint256"
        }
      ],
      "name": "declineOrder",
      "outputs": [],
      "payable": false,
      "stateMutability": "nonpayable",
      "type": "function"
    },
    {
      "constant": true,
      "inputs": [],
      "name": "getOrdersLength",
      "outputs": [
        {
          "name": "",
          "type": "uint256"
        }
      ],
      "payable": false,
      "stateMutability": "view",
      "type": "function"
    },
    {
      "constant": false,
      "inputs": [],
      "name": "buyDirect",
      "outputs": [],
      "payable": true,
      "stateMutability": "payable",
      "type": "function"
    }
  ],
  "bytecode": "0x6060604052336000806101000a81548173ffffffffffffffffffffffffffffffffffffffff021916908373ffffffffffffffffffffffffffffffffffffffff160217905550611bfb806100536000396000f3006060604052600436106100d0576000357c0100000000000000000000000000000000000000000000000000000000900463ffffffff16806307c2e16c146100d55780634198bb7b146100fe578063483e0bd91461012a5780635c60f226146101345780636f77926b146101815780638da5cb5b146101fb5780639bd19ca914610250578063b5cb15f7146102c8578063ccbdb85c146102f1578063d09ef24114610314578063f2fde38b14610385578063f409e87d146103be578063f53f35ff1461040f578063ffcc7bbf14610483575b600080fd5b34156100e057600080fd5b6100e86104e6565b6040518082815260200191505060405180910390f35b341561010957600080fd5b610128600480803590602001909190803590602001909190505061054e565b005b610132610781565b005b341561013f57600080fd5b61016b600480803573ffffffffffffffffffffffffffffffffffffffff169060200190919050506108d6565b6040518082815260200191505060405180910390f35b341561018c57600080fd5b6101b8600480803573ffffffffffffffffffffffffffffffffffffffff16906020019091905050610c69565b6040518085815260200184600019166000191681526020018360001916600019168152602001826000191660001916815260200194505050505060405180910390f35b341561020657600080fd5b61020e610e3c565b604051808273ffffffffffffffffffffffffffffffffffffffff1673ffffffffffffffffffffffffffffffffffffffff16815260200191505060405180910390f35b341561025b57600080fd5b6102ae600480803573ffffffffffffffffffffffffffffffffffffffff16906020019091908035600019169060200190919080356000191690602001909190803560001916906020019091905050610e61565b604051808215151515815260200191505060405180910390f35b34156102d357600080fd5b6102db611101565b6040518082815260200191505060405180910390f35b34156102fc57600080fd5b610312600480803590602001909190505061110e565b005b341561031f57600080fd5b6103356004808035906020019091905050611358565b604051808473ffffffffffffffffffffffffffffffffffffffff1673ffffffffffffffffffffffffffffffffffffffff168152602001838152602001828152602001935050505060405180910390f35b341561039057600080fd5b6103bc600480803573ffffffffffffffffffffffffffffffffffffffff16906020019091905050611472565b005b34156103c957600080fd5b6103f5600480803573ffffffffffffffffffffffffffffffffffffffff169060200190919050506115c7565b604051808215151515815260200191505060405180910390f35b341561041a57600080fd5b61046d600480803573ffffffffffffffffffffffffffffffffffffffff16906020019091908035600019169060200190919080356000191690602001909190803560001916906020019091905050611692565b6040518082815260200191505060405180910390f35b341561048e57600080fd5b6104a460048080359060200190919050506119a8565b604051808273ffffffffffffffffffffffffffffffffffffffff1673ffffffffffffffffffffffffffffffffffffffff16815260200191505060405180910390f35b60008060009054906101000a900473ffffffffffffffffffffffffffffffffffffffff1673ffffffffffffffffffffffffffffffffffffffff163373ffffffffffffffffffffffffffffffffffffffff1614151561054357600080fd5b600380549050905090565b60008060009054906101000a900473ffffffffffffffffffffffffffffffffffffffff1673ffffffffffffffffffffffffffffffffffffffff163373ffffffffffffffffffffffffffffffffffffffff161415156105ab57600080fd5b60006003848154811015156105bc57fe5b906000526020600020906003020160010154101515156105db57600080fd5b600460009054906101000a900473ffffffffffffffffffffffffffffffffffffffff1673ffffffffffffffffffffffffffffffffffffffff166399a5d747836000604051602001526040518263ffffffff167c010000000000000000000000000000000000000000000000000000000002815260040180828152602001915050602060405180830381600087803b151561067457600080fd5b6102c65a03f1151561068557600080fd5b5050506040518051905090506106a48183611a4790919063ffffffff16565b915060036001600380549050038154811015156106bd57fe5b90600052602060002090600302016003848154811015156106da57fe5b90600052602060002090600302016000820160009054906101000a900473ffffffffffffffffffffffffffffffffffffffff168160000160006101000a81548173ffffffffffffffffffffffffffffffffffffffff021916908373ffffffffffffffffffffffffffffffffffffffff1602179055506001820154816001015560028201548160020155905050600380548091906001900361077b9190611a60565b50505050565b610789611a92565b60003411151561079857600080fd5b6060604051908101604052803373ffffffffffffffffffffffffffffffffffffffff168152602001348152602001428152509050600380548060010182816107e09190611aca565b9160005260206000209060030201600083909190915060008201518160000160006101000a81548173ffffffffffffffffffffffffffffffffffffffff021916908373ffffffffffffffffffffffffffffffffffffffff16021790555060208201518160010155604082015181600201555050507f2c33c574213feb1047a6378e9beca724f8bda16b6624875a6dee2edb3edfcdb6816000015182602001518360400151604051808473ffffffffffffffffffffffffffffffffffffffff1673ffffffffffffffffffffffffffffffffffffffff168152602001838152602001828152602001935050505060405180910390a150565b60008060008060009054906101000a900473ffffffffffffffffffffffffffffffffffffffff1673ffffffffffffffffffffffffffffffffffffffff163373ffffffffffffffffffffffffffffffffffffffff1614151561093657600080fd5b838073ffffffffffffffffffffffffffffffffffffffff163373ffffffffffffffffffffffffffffffffffffffff1614151561097157600080fd5b6001151561097e866115c7565b151514151561098c57600080fd5b600160008673ffffffffffffffffffffffffffffffffffffffff1673ffffffffffffffffffffffffffffffffffffffff16815260200190815260200160002060000154925060026001600280549050038154811015156109e857fe5b906000526020600020900160009054906101000a900473ffffffffffffffffffffffffffffffffffffffff16915081600284815481101515610a2657fe5b906000526020600020900160006101000a81548173ffffffffffffffffffffffffffffffffffffffff021916908373ffffffffffffffffffffffffffffffffffffffff16021790555082600160008473ffffffffffffffffffffffffffffffffffffffff1673ffffffffffffffffffffffffffffffffffffffff168152602001908152602001600020600001819055506002805480919060019003610acb9190611afc565b508473ffffffffffffffffffffffffffffffffffffffff167f117183c06981515bdfa0b70d0448d8eb6ba07648cda62ab7c2b4361eeff80a1b846040518082815260200191505060405180910390a28173ffffffffffffffffffffffffffffffffffffffff167f36cd692caa63e05d06ec64ae3a07dffe3b224fecb32af5fa7bc1469f5bcdde5784600160008673ffffffffffffffffffffffffffffffffffffffff1673ffffffffffffffffffffffffffffffffffffffff16815260200190815260200160002060010154600160008773ffffffffffffffffffffffffffffffffffffffff1673ffffffffffffffffffffffffffffffffffffffff16815260200190815260200160002060020154600160008873ffffffffffffffffffffffffffffffffffffffff1673ffffffffffffffffffffffffffffffffffffffff168152602001908152602001600020600301546040518085815260200184600019166000191681526020018360001916600019168152602001826000191660001916815260200194505050505060405180910390a2829350505050919050565b6000806000806000809054906101000a900473ffffffffffffffffffffffffffffffffffffffff1673ffffffffffffffffffffffffffffffffffffffff163373ffffffffffffffffffffffffffffffffffffffff16141515610cca57600080fd5b848073ffffffffffffffffffffffffffffffffffffffff163373ffffffffffffffffffffffffffffffffffffffff16141515610d0557600080fd5b60011515610d12876115c7565b1515141515610d2057600080fd5b600160008773ffffffffffffffffffffffffffffffffffffffff1673ffffffffffffffffffffffffffffffffffffffff16815260200190815260200160002060000154600160008873ffffffffffffffffffffffffffffffffffffffff1673ffffffffffffffffffffffffffffffffffffffff16815260200190815260200160002060010154600160008973ffffffffffffffffffffffffffffffffffffffff1673ffffffffffffffffffffffffffffffffffffffff16815260200190815260200160002060020154600160008a73ffffffffffffffffffffffffffffffffffffffff1673ffffffffffffffffffffffffffffffffffffffff168152602001908152602001600020600301549450945094509450509193509193565b6000809054906101000a900473ffffffffffffffffffffffffffffffffffffffff1681565b60008060009054906101000a900473ffffffffffffffffffffffffffffffffffffffff1673ffffffffffffffffffffffffffffffffffffffff163373ffffffffffffffffffffffffffffffffffffffff16141515610ebe57600080fd5b848073ffffffffffffffffffffffffffffffffffffffff163373ffffffffffffffffffffffffffffffffffffffff16141515610ef957600080fd5b846005602060ff16111515610f0d57600080fd5b846005602060ff16111515610f2157600080fd5b846005602060ff16111515610f3557600080fd5b60011515610f428a6115c7565b1515141515610f5057600080fd5b87600160008b73ffffffffffffffffffffffffffffffffffffffff1673ffffffffffffffffffffffffffffffffffffffff168152602001908152602001600020600101816000191690555086600160008b73ffffffffffffffffffffffffffffffffffffffff1673ffffffffffffffffffffffffffffffffffffffff168152602001908152602001600020600201816000191690555085600160008b73ffffffffffffffffffffffffffffffffffffffff1673ffffffffffffffffffffffffffffffffffffffff16815260200190815260200160002060030181600019169055508873ffffffffffffffffffffffffffffffffffffffff167f36cd692caa63e05d06ec64ae3a07dffe3b224fecb32af5fa7bc1469f5bcdde57600160008c73ffffffffffffffffffffffffffffffffffffffff1673ffffffffffffffffffffffffffffffffffffffff168152602001908152602001600020600001548a8a8a6040518085815260200184600019166000191681526020018360001916600019168152602001826000191660001916815260200194505050505060405180910390a26001945050505050949350505050565b6000600280549050905090565b611116611a92565b6000809054906101000a900473ffffffffffffffffffffffffffffffffffffffff1673ffffffffffffffffffffffffffffffffffffffff163373ffffffffffffffffffffffffffffffffffffffff1614151561117157600080fd5b600060038381548110151561118257fe5b906000526020600020906003020160010154101515156111a157600080fd5b6003828154811015156111b057fe5b9060005260206000209060030201606060405190810160405290816000820160009054906101000a900473ffffffffffffffffffffffffffffffffffffffff1673ffffffffffffffffffffffffffffffffffffffff1673ffffffffffffffffffffffffffffffffffffffff168152602001600182015481526020016002820154815250509050806000015173ffffffffffffffffffffffffffffffffffffffff166108fc82602001519081150290604051600060405180830381858888f19350505050151561127e57600080fd5b600360016003805490500381548110151561129557fe5b90600052602060002090600302016003838154811015156112b257fe5b90600052602060002090600302016000820160009054906101000a900473ffffffffffffffffffffffffffffffffffffffff168160000160006101000a81548173ffffffffffffffffffffffffffffffffffffffff021916908373ffffffffffffffffffffffffffffffffffffffff160217905550600182015481600101556002820154816002015590505060038054809190600190036113539190611a60565b505050565b6000806000611365611a92565b6000809054906101000a900473ffffffffffffffffffffffffffffffffffffffff1673ffffffffffffffffffffffffffffffffffffffff163373ffffffffffffffffffffffffffffffffffffffff161415156113c057600080fd5b6003858154811015156113cf57fe5b9060005260206000209060030201606060405190810160405290816000820160009054906101000a900473ffffffffffffffffffffffffffffffffffffffff1673ffffffffffffffffffffffffffffffffffffffff1673ffffffffffffffffffffffffffffffffffffffff168152602001600182015481526020016002820154815250509050806000015181602001518260400151935093509350509193909250565b6000809054906101000a900473ffffffffffffffffffffffffffffffffffffffff1673ffffffffffffffffffffffffffffffffffffffff163373ffffffffffffffffffffffffffffffffffffffff161415156114cd57600080fd5b600073ffffffffffffffffffffffffffffffffffffffff168173ffffffffffffffffffffffffffffffffffffffff161415151561150957600080fd5b8073ffffffffffffffffffffffffffffffffffffffff166000809054906101000a900473ffffffffffffffffffffffffffffffffffffffff1673ffffffffffffffffffffffffffffffffffffffff167f8be0079c531659141344cd1fd0a4f28419497f9722a3daafe3b4186f6b6457e060405160405180910390a3806000806101000a81548173ffffffffffffffffffffffffffffffffffffffff021916908373ffffffffffffffffffffffffffffffffffffffff16021790555050565b60008060028054905014156115df576000905061168d565b8173ffffffffffffffffffffffffffffffffffffffff166002600160008573ffffffffffffffffffffffffffffffffffffffff1673ffffffffffffffffffffffffffffffffffffffff1681526020019081526020016000206000015481548110151561164757fe5b906000526020600020900160009054906101000a900473ffffffffffffffffffffffffffffffffffffffff1673ffffffffffffffffffffffffffffffffffffffff161490505b919050565b6000836005602060ff161115156116a857600080fd5b6000809054906101000a900473ffffffffffffffffffffffffffffffffffffffff1673ffffffffffffffffffffffffffffffffffffffff163373ffffffffffffffffffffffffffffffffffffffff1614151561170357600080fd5b836005602060ff1611151561171757600080fd5b836005602060ff1611151561172b57600080fd5b60001515611738896115c7565b151514151561174657600080fd5b86600160008a73ffffffffffffffffffffffffffffffffffffffff1673ffffffffffffffffffffffffffffffffffffffff168152602001908152602001600020600101816000191690555085600160008a73ffffffffffffffffffffffffffffffffffffffff1673ffffffffffffffffffffffffffffffffffffffff168152602001908152602001600020600201816000191690555084600160008a73ffffffffffffffffffffffffffffffffffffffff1673ffffffffffffffffffffffffffffffffffffffff168152602001908152602001600020600301816000191690555060016002805480600101828161183d9190611b28565b916000526020600020900160008b909190916101000a81548173ffffffffffffffffffffffffffffffffffffffff021916908373ffffffffffffffffffffffffffffffffffffffff16021790555003600160008a73ffffffffffffffffffffffffffffffffffffffff1673ffffffffffffffffffffffffffffffffffffffff168152602001908152602001600020600001819055508773ffffffffffffffffffffffffffffffffffffffff167f78b833eacd29aac1183e31c8289157ed550f3b1f9f1526bf2055ef195cac287f600160008b73ffffffffffffffffffffffffffffffffffffffff1673ffffffffffffffffffffffffffffffffffffffff168152602001908152602001600020600001548989896040518085815260200184600019166000191681526020018360001916600019168152602001826000191660001916815260200194505050505060405180910390a26001600280549050039350505050949350505050565b60008060009054906101000a900473ffffffffffffffffffffffffffffffffffffffff1673ffffffffffffffffffffffffffffffffffffffff163373ffffffffffffffffffffffffffffffffffffffff16141515611a0557600080fd5b600282815481101515611a1457fe5b906000526020600020900160009054906101000a900473ffffffffffffffffffffffffffffffffffffffff169050919050565b6000828211151515611a5557fe5b818303905092915050565b815481835581811511611a8d57600302816003028360005260206000209182019101611a8c9190611b54565b5b505050565b606060405190810160405280600073ffffffffffffffffffffffffffffffffffffffff16815260200160008152602001600081525090565b815481835581811511611af757600302816003028360005260206000209182019101611af69190611b54565b5b505050565b815481835581811511611b2357818360005260206000209182019101611b229190611baa565b5b505050565b815481835581811511611b4f57818360005260206000209182019101611b4e9190611baa565b5b505050565b611ba791905b80821115611ba357600080820160006101000a81549073ffffffffffffffffffffffffffffffffffffffff02191690556001820160009055600282016000905550600301611b5a565b5090565b90565b611bcc91905b80821115611bc8576000816000905550600101611bb0565b5090565b905600a165627a7a7230582008a0626b93a0065edfc4d170ddb68075dd501af111c7f1342e355315202a3f830029",
  "source": "pragma solidity ^0.4.19;\r\n\r\nimport \"./zeppelin/Ownable.sol\";\r\nimport \"./zeppelin/SafeMath.sol\";\r\nimport \"./User.sol\";\r\nimport \"./Exchange.sol\";\r\n\r\n\r\ncontract Orders is Ownable, User {\r\n    using SafeMath for uint;\r\n\r\n    struct Order {\r\n        address buyer;\r\n        uint amount;\r\n        uint timestamp;\r\n    }\r\n\r\n    Order[] orders;\r\n    Exchange _exchange;\r\n    event BuyDirectEvent(address _buyer, uint _amount, uint _timestamp);\r\n\r\n    function getOrder(uint _index) public constant onlyOwner returns (address, uint, uint) {\r\n        Order memory order = orders[_index];\r\n        return (order.buyer, order.amount, order.timestamp);\r\n    }\r\n\r\n    function approveOrder(uint _index, uint _amount) public onlyOwner {\r\n        require(orders[_index].amount >= 0);\r\n\r\n        //Order memory order = orders[_index];\r\n\r\n        uint feeAmount = _exchange.calculateFee(_amount);\r\n        _amount = _amount.sub(feeAmount);\r\n        // mint(this, feeAmount);\r\n\r\n        //mint(order.buyer, _amount);\r\n\r\n        orders[_index] = orders[orders.length-1];\r\n        orders.length--;\r\n    }\r\n\r\n    function declineOrder(uint _index) public onlyOwner {\r\n        require(orders[_index].amount >= 0);\r\n\r\n        Order memory order = orders[_index];\r\n        order.buyer.transfer(order.amount);\r\n\r\n        orders[_index] = orders[orders.length-1];\r\n        orders.length--;\r\n    }\r\n\r\n    function getOrdersLength() public constant onlyOwner returns (uint) {\r\n        return orders.length;\r\n    }\r\n\r\n    function buyDirect() public payable {\r\n        require(msg.value > 0);\r\n\r\n        Order memory order = Order({\r\n            buyer: msg.sender,\r\n            amount: msg.value,\r\n            timestamp: now\r\n        });\r\n\r\n        orders.push(order);\r\n\r\n        BuyDirectEvent(order.buyer, order.amount, order.timestamp);\r\n    }\r\n\r\n}\r\n",
  "sourcePath": "C:\\Users\\DXenu\\Desktop\\box\\demo_contract\\contracts\\Order.sol",
  "compiler": {
    "name": "solc",
    "version": "0.4.19+commit.c4cbbb05.Emscripten.clang"
  },
  "schemaVersion": "2.0.0",
  "updatedAt": "2018-04-03T19:43:49.091Z"
}