{
  "contractName": "Ownable",
  "abi": [
    {
      "constant": true,
      "inputs": [],
      "name": "owner",
      "outputs": [
        {
          "name": "",
          "type": "address"
        }
      ],
      "payable": false,
      "stateMutability": "view",
      "type": "function"
    },
    {
      "inputs": [],
      "payable": false,
      "stateMutability": "nonpayable",
      "type": "constructor"
    },
    {
      "anonymous": false,
      "inputs": [
        {
          "indexed": true,
          "name": "previousOwner",
          "type": "address"
        },
        {
          "indexed": true,
          "name": "newOwner",
          "type": "address"
        }
      ],
      "name": "OwnershipTransferred",
      "type": "event"
    },
    {
      "constant": true,
      "inputs": [
        {
          "name": "addr",
          "type": "address"
        }
      ],
      "name": "validate",
      "outputs": [
        {
          "name": "",
          "type": "bool"
        }
      ],
      "payable": false,
      "stateMutability": "view",
      "type": "function"
    },
    {
      "constant": false,
      "inputs": [
        {
          "name": "newOwner",
          "type": "address"
        }
      ],
      "name": "transferOwnership",
      "outputs": [],
      "payable": false,
      "stateMutability": "nonpayable",
      "type": "function"
    }
  ],
  "bytecode": "0x6060604052341561000f57600080fd5b60008054600160a060020a033316600160a060020a03199091161790556101cb8061003b6000396000f3006060604052600436106100565763ffffffff7c0100000000000000000000000000000000000000000000000000000000600035041663207c64fb811461005b5780638da5cb5b1461008e578063f2fde38b146100bd575b600080fd5b341561006657600080fd5b61007a600160a060020a03600435166100de565b604051901515815260200160405180910390f35b341561009957600080fd5b6100a16100f5565b604051600160a060020a03909116815260200160405180910390f35b34156100c857600080fd5b6100dc600160a060020a0360043516610104565b005b60005433600160a060020a03908116911614919050565b600054600160a060020a031681565b60005433600160a060020a0390811691161461011f57600080fd5b600160a060020a038116151561013457600080fd5b600054600160a060020a0380831691167f8be0079c531659141344cd1fd0a4f28419497f9722a3daafe3b4186f6b6457e060405160405180910390a36000805473ffffffffffffffffffffffffffffffffffffffff1916600160a060020a03929092169190911790555600a165627a7a723058208b069052b85b76b214044020feddeb41b273ca719315f3e2d9f254ea9175fbdc0029",
  "source": "pragma solidity ^0.4.21;\r\n\r\n\r\ncontract Ownable {\r\n\r\n    address public owner;\r\n\r\n    event OwnershipTransferred(address indexed previousOwner, address indexed newOwner);\r\n\r\n    function Ownable() public {\r\n        owner = msg.sender;\r\n    }\r\n\r\n    modifier onlyOwner() {\r\n        require(msg.sender == owner);\r\n        _;\r\n    }\r\n\r\n    modifier onlyBy(address _account) {\r\n        require(msg.sender == _account);\r\n        _;\r\n    }\r\n\r\n    function validate(address addr) public view returns (bool) {\r\n        return (msg.sender == owner);\r\n    }\r\n\r\n    function transferOwnership(address newOwner) public onlyOwner {\r\n        require(newOwner != address(0));\r\n        emit OwnershipTransferred(owner, newOwner);\r\n        owner = newOwner;\r\n    }\r\n\r\n}\r\n",
  "sourcePath": "C:\\Users\\DXenu\\Desktop\\box\\demo_contract\\contracts\\zeppelin\\Ownable.sol",
  "compiler": {
    "name": "solc",
    "version": "0.4.21+commit.dfe3193c.Emscripten.clang"
  },
  "schemaVersion": "2.0.0",
  "updatedAt": "2018-04-16T11:26:29.026Z"
}