{
  "contractName": "Pausable",
  "abi": [
    {
      "constant": true,
      "inputs": [
        {
          "name": "addr",
          "type": "address"
        }
      ],
      "name": "validate",
      "outputs": [
        {
          "name": "",
          "type": "bool"
        }
      ],
      "payable": false,
      "stateMutability": "view",
      "type": "function"
    },
    {
      "constant": true,
      "inputs": [],
      "name": "paused",
      "outputs": [
        {
          "name": "",
          "type": "bool"
        }
      ],
      "payable": false,
      "stateMutability": "view",
      "type": "function"
    },
    {
      "constant": true,
      "inputs": [],
      "name": "owner",
      "outputs": [
        {
          "name": "",
          "type": "address"
        }
      ],
      "payable": false,
      "stateMutability": "view",
      "type": "function"
    },
    {
      "constant": false,
      "inputs": [
        {
          "name": "newOwner",
          "type": "address"
        }
      ],
      "name": "transferOwnership",
      "outputs": [],
      "payable": false,
      "stateMutability": "nonpayable",
      "type": "function"
    },
    {
      "anonymous": false,
      "inputs": [],
      "name": "Pause",
      "type": "event"
    },
    {
      "anonymous": false,
      "inputs": [],
      "name": "Unpause",
      "type": "event"
    },
    {
      "anonymous": false,
      "inputs": [
        {
          "indexed": true,
          "name": "previousOwner",
          "type": "address"
        },
        {
          "indexed": true,
          "name": "newOwner",
          "type": "address"
        }
      ],
      "name": "OwnershipTransferred",
      "type": "event"
    },
    {
      "constant": false,
      "inputs": [],
      "name": "pause",
      "outputs": [],
      "payable": false,
      "stateMutability": "nonpayable",
      "type": "function"
    },
    {
      "constant": false,
      "inputs": [],
      "name": "unpause",
      "outputs": [],
      "payable": false,
      "stateMutability": "nonpayable",
      "type": "function"
    }
  ],
  "bytecode": "0x606060405260008054600160a060020a033316600160a860020a031990911617905561037c806100306000396000f3006060604052600436106100775763ffffffff7c0100000000000000000000000000000000000000000000000000000000600035041663207c64fb811461007c5780633f4ba83a146100af5780635c975abb146100c45780638456cb59146100d75780638da5cb5b146100ea578063f2fde38b14610119575b600080fd5b341561008757600080fd5b61009b600160a060020a0360043516610138565b604051901515815260200160405180910390f35b34156100ba57600080fd5b6100c261014f565b005b34156100cf57600080fd5b61009b6101df565b34156100e257600080fd5b6100c2610200565b34156100f557600080fd5b6100fd6102a6565b604051600160a060020a03909116815260200160405180910390f35b341561012457600080fd5b6100c2600160a060020a03600435166102b5565b60005433600160a060020a03908116911614919050565b60005433600160a060020a0390811691161461016a57600080fd5b60005474010000000000000000000000000000000000000000900460ff16151561019357600080fd5b6000805474ff0000000000000000000000000000000000000000191690557f7805862f689e2f13df9f062ff482ad3ad112aca9e0847911ed832e158c525b3360405160405180910390a1565b60005474010000000000000000000000000000000000000000900460ff1681565b60005433600160a060020a0390811691161461021b57600080fd5b60005474010000000000000000000000000000000000000000900460ff161561024357600080fd5b6000805474ff00000000000000000000000000000000000000001916740100000000000000000000000000000000000000001790557f6985a02210a168e66602d3235cb6db0e70f92b3ba4d376a33c0f3d9434bff62560405160405180910390a1565b600054600160a060020a031681565b60005433600160a060020a039081169116146102d057600080fd5b600160a060020a03811615156102e557600080fd5b600054600160a060020a0380831691167f8be0079c531659141344cd1fd0a4f28419497f9722a3daafe3b4186f6b6457e060405160405180910390a36000805473ffffffffffffffffffffffffffffffffffffffff1916600160a060020a03929092169190911790555600a165627a7a72305820ae852af3fe3cb91ab744188cc1d39078e832976fb04c7fbb3e2ac07f56db60750029",
  "source": "pragma solidity ^0.4.21;\r\n\r\nimport \"./Ownable.sol\";\r\n\r\n\r\ncontract Pausable is Ownable {\r\n    event Pause();\r\n    event Unpause();\r\n\r\n    bool public paused = false;\r\n\r\n    modifier whenNotPaused() {\r\n        require(!paused);\r\n        _;\r\n    }\r\n\r\n    modifier whenPaused() {\r\n        require(paused);\r\n        _;\r\n    }\r\n\r\n    function pause() onlyOwner whenNotPaused public {\r\n        paused = true;\r\n        emit Pause();\r\n    }\r\n\r\n    function unpause() onlyOwner whenPaused public {\r\n        paused = false;\r\n        emit Unpause();\r\n    }\r\n\r\n}\r\n",
  "sourcePath": "C:\\Users\\DXenu\\Desktop\\box\\demo_contract\\contracts\\zeppelin\\Pausable.sol",
  "compiler": {
    "name": "solc",
    "version": "0.4.21+commit.dfe3193c.Emscripten.clang"
  },
  "schemaVersion": "2.0.0",
  "updatedAt": "2018-04-16T11:26:29.034Z"
}