{
  "contractName": "PausableToken",
  "abi": [
    {
      "constant": true,
      "inputs": [],
      "name": "totalSupply",
      "outputs": [
        {
          "name": "",
          "type": "uint256"
        }
      ],
      "payable": false,
      "stateMutability": "view",
      "type": "function"
    },
    {
      "constant": true,
      "inputs": [
        {
          "name": "addr",
          "type": "address"
        }
      ],
      "name": "validate",
      "outputs": [
        {
          "name": "",
          "type": "bool"
        }
      ],
      "payable": false,
      "stateMutability": "view",
      "type": "function"
    },
    {
      "constant": false,
      "inputs": [],
      "name": "unpause",
      "outputs": [],
      "payable": false,
      "stateMutability": "nonpayable",
      "type": "function"
    },
    {
      "constant": true,
      "inputs": [],
      "name": "paused",
      "outputs": [
        {
          "name": "",
          "type": "bool"
        }
      ],
      "payable": false,
      "stateMutability": "view",
      "type": "function"
    },
    {
      "constant": true,
      "inputs": [
        {
          "name": "_owner",
          "type": "address"
        }
      ],
      "name": "balanceOf",
      "outputs": [
        {
          "name": "balance",
          "type": "uint256"
        }
      ],
      "payable": false,
      "stateMutability": "view",
      "type": "function"
    },
    {
      "constant": false,
      "inputs": [],
      "name": "pause",
      "outputs": [],
      "payable": false,
      "stateMutability": "nonpayable",
      "type": "function"
    },
    {
      "constant": true,
      "inputs": [],
      "name": "owner",
      "outputs": [
        {
          "name": "",
          "type": "address"
        }
      ],
      "payable": false,
      "stateMutability": "view",
      "type": "function"
    },
    {
      "constant": true,
      "inputs": [
        {
          "name": "_owner",
          "type": "address"
        },
        {
          "name": "_spender",
          "type": "address"
        }
      ],
      "name": "allowance",
      "outputs": [
        {
          "name": "",
          "type": "uint256"
        }
      ],
      "payable": false,
      "stateMutability": "view",
      "type": "function"
    },
    {
      "constant": false,
      "inputs": [
        {
          "name": "newOwner",
          "type": "address"
        }
      ],
      "name": "transferOwnership",
      "outputs": [],
      "payable": false,
      "stateMutability": "nonpayable",
      "type": "function"
    },
    {
      "anonymous": false,
      "inputs": [],
      "name": "Pause",
      "type": "event"
    },
    {
      "anonymous": false,
      "inputs": [],
      "name": "Unpause",
      "type": "event"
    },
    {
      "anonymous": false,
      "inputs": [
        {
          "indexed": true,
          "name": "previousOwner",
          "type": "address"
        },
        {
          "indexed": true,
          "name": "newOwner",
          "type": "address"
        }
      ],
      "name": "OwnershipTransferred",
      "type": "event"
    },
    {
      "anonymous": false,
      "inputs": [
        {
          "indexed": true,
          "name": "from",
          "type": "address"
        },
        {
          "indexed": true,
          "name": "to",
          "type": "address"
        },
        {
          "indexed": false,
          "name": "value",
          "type": "uint256"
        }
      ],
      "name": "Transfer",
      "type": "event"
    },
    {
      "anonymous": false,
      "inputs": [
        {
          "indexed": true,
          "name": "owner",
          "type": "address"
        },
        {
          "indexed": true,
          "name": "spender",
          "type": "address"
        },
        {
          "indexed": false,
          "name": "value",
          "type": "uint256"
        }
      ],
      "name": "Approval",
      "type": "event"
    },
    {
      "constant": false,
      "inputs": [
        {
          "name": "_to",
          "type": "address"
        },
        {
          "name": "_value",
          "type": "uint256"
        }
      ],
      "name": "transfer",
      "outputs": [
        {
          "name": "",
          "type": "bool"
        }
      ],
      "payable": false,
      "stateMutability": "nonpayable",
      "type": "function"
    },
    {
      "constant": false,
      "inputs": [
        {
          "name": "_from",
          "type": "address"
        },
        {
          "name": "_to",
          "type": "address"
        },
        {
          "name": "_value",
          "type": "uint256"
        }
      ],
      "name": "transferFrom",
      "outputs": [
        {
          "name": "",
          "type": "bool"
        }
      ],
      "payable": false,
      "stateMutability": "nonpayable",
      "type": "function"
    },
    {
      "constant": false,
      "inputs": [
        {
          "name": "_spender",
          "type": "address"
        },
        {
          "name": "_value",
          "type": "uint256"
        }
      ],
      "name": "approve",
      "outputs": [
        {
          "name": "",
          "type": "bool"
        }
      ],
      "payable": false,
      "stateMutability": "nonpayable",
      "type": "function"
    },
    {
      "constant": false,
      "inputs": [
        {
          "name": "_spender",
          "type": "address"
        },
        {
          "name": "_addedValue",
          "type": "uint256"
        }
      ],
      "name": "increaseApproval",
      "outputs": [
        {
          "name": "success",
          "type": "bool"
        }
      ],
      "payable": false,
      "stateMutability": "nonpayable",
      "type": "function"
    },
    {
      "constant": false,
      "inputs": [
        {
          "name": "_spender",
          "type": "address"
        },
        {
          "name": "_subtractedValue",
          "type": "uint256"
        }
      ],
      "name": "decreaseApproval",
      "outputs": [
        {
          "name": "success",
          "type": "bool"
        }
      ],
      "payable": false,
      "stateMutability": "nonpayable",
      "type": "function"
    }
  ],
  "bytecode": "0x606060405260038054600160a860020a03191633600160a060020a0316179055610a7c8061002e6000396000f3006060604052600436106100cf5763ffffffff7c0100000000000000000000000000000000000000000000000000000000600035041663095ea7b381146100d457806318160ddd1461010a578063207c64fb1461012f57806323b872dd1461014e5780633f4ba83a146101765780635c975abb1461018b578063661884631461019e57806370a08231146101c05780638456cb59146101df5780638da5cb5b146101f2578063a9059cbb14610221578063d73dd62314610243578063dd62ed3e14610265578063f2fde38b1461028a575b600080fd5b34156100df57600080fd5b6100f6600160a060020a03600435166024356102a9565b604051901515815260200160405180910390f35b341561011557600080fd5b61011d6102d4565b60405190815260200160405180910390f35b341561013a57600080fd5b6100f6600160a060020a03600435166102da565b341561015957600080fd5b6100f6600160a060020a03600435811690602435166044356102f1565b341561018157600080fd5b61018961031e565b005b341561019657600080fd5b6100f661039d565b34156101a957600080fd5b6100f6600160a060020a03600435166024356103ad565b34156101cb57600080fd5b61011d600160a060020a03600435166103d1565b34156101ea57600080fd5b6101896103ec565b34156101fd57600080fd5b610205610470565b604051600160a060020a03909116815260200160405180910390f35b341561022c57600080fd5b6100f6600160a060020a036004351660243561047f565b341561024e57600080fd5b6100f6600160a060020a03600435166024356104a3565b341561027057600080fd5b61011d600160a060020a03600435811690602435166104c7565b341561029557600080fd5b610189600160a060020a03600435166104f2565b60035460009060a060020a900460ff16156102c357600080fd5b6102cd838361058d565b9392505050565b60015490565b60035433600160a060020a03908116911614919050565b60035460009060a060020a900460ff161561030b57600080fd5b6103168484846105f9565b949350505050565b60035433600160a060020a0390811691161461033957600080fd5b60035460a060020a900460ff16151561035157600080fd5b6003805474ff0000000000000000000000000000000000000000191690557f7805862f689e2f13df9f062ff482ad3ad112aca9e0847911ed832e158c525b3360405160405180910390a1565b60035460a060020a900460ff1681565b60035460009060a060020a900460ff16156103c757600080fd5b6102cd8383610779565b600160a060020a031660009081526020819052604090205490565b60035433600160a060020a0390811691161461040757600080fd5b60035460a060020a900460ff161561041e57600080fd5b6003805474ff0000000000000000000000000000000000000000191660a060020a1790557f6985a02210a168e66602d3235cb6db0e70f92b3ba4d376a33c0f3d9434bff62560405160405180910390a1565b600354600160a060020a031681565b60035460009060a060020a900460ff161561049957600080fd5b6102cd8383610873565b60035460009060a060020a900460ff16156104bd57600080fd5b6102cd8383610985565b600160a060020a03918216600090815260026020908152604080832093909416825291909152205490565b60035433600160a060020a0390811691161461050d57600080fd5b600160a060020a038116151561052257600080fd5b600354600160a060020a0380831691167f8be0079c531659141344cd1fd0a4f28419497f9722a3daafe3b4186f6b6457e060405160405180910390a36003805473ffffffffffffffffffffffffffffffffffffffff1916600160a060020a0392909216919091179055565b600160a060020a03338116600081815260026020908152604080832094871680845294909152808220859055909291907f8c5be1e5ebec7d5bd14f71427d1e84f3dd0314c0f7b2291e5b200ac8c7c3b9259085905190815260200160405180910390a350600192915050565b6000600160a060020a038316151561061057600080fd5b600160a060020a03841660009081526020819052604090205482111561063557600080fd5b600160a060020a038085166000908152600260209081526040808320339094168352929052205482111561066857600080fd5b600160a060020a038416600090815260208190526040902054610691908363ffffffff610a2916565b600160a060020a0380861660009081526020819052604080822093909355908516815220546106c6908363ffffffff610a3e16565b600160a060020a038085166000908152602081815260408083209490945587831682526002815283822033909316825291909152205461070c908363ffffffff610a2916565b600160a060020a03808616600081815260026020908152604080832033861684529091529081902093909355908516917fddf252ad1be2c89b69c2b068fc378daa952ba7f163c4a11628f55a4df523b3ef9085905190815260200160405180910390a35060019392505050565b600160a060020a033381166000908152600260209081526040808320938616835292905290812054808311156107d657600160a060020a03338116600090815260026020908152604080832093881683529290529081205561080d565b6107e6818463ffffffff610a2916565b600160a060020a033381166000908152600260209081526040808320938916835292905220555b600160a060020a0333811660008181526002602090815260408083209489168084529490915290819020547f8c5be1e5ebec7d5bd14f71427d1e84f3dd0314c0f7b2291e5b200ac8c7c3b925915190815260200160405180910390a35060019392505050565b6000600160a060020a038316151561088a57600080fd5b600160a060020a0333166000908152602081905260409020548211156108af57600080fd5b600160a060020a0333166000908152602081905260409020546108d8908363ffffffff610a2916565b600160a060020a03338116600090815260208190526040808220939093559085168152205461090d908363ffffffff610a3e16565b60008085600160a060020a0316600160a060020a031681526020019081526020016000208190555082600160a060020a031633600160a060020a03167fddf252ad1be2c89b69c2b068fc378daa952ba7f163c4a11628f55a4df523b3ef8460405190815260200160405180910390a350600192915050565b600160a060020a0333811660009081526002602090815260408083209386168352929052908120546109bd908363ffffffff610a3e16565b600160a060020a0333811660008181526002602090815260408083209489168084529490915290819020849055919290917f8c5be1e5ebec7d5bd14f71427d1e84f3dd0314c0f7b2291e5b200ac8c7c3b92591905190815260200160405180910390a350600192915050565b600082821115610a3857600080fd5b50900390565b6000828201838110156102cd57600080fd00a165627a7a723058209afac6c91f92ac2df7b3bb6e7e77175a9f04a408232f4043cb64bd0c0dfa20920029",
  "source": "pragma solidity ^0.4.21;\r\n\r\nimport \"./StandardToken.sol\";\r\nimport \"./Pausable.sol\";\r\n\r\n\r\ncontract PausableToken is StandardToken, Pausable {\r\n    function transfer(address _to, uint256 _value) public whenNotPaused returns (bool) {\r\n        return super.transfer(_to, _value);\r\n    }\r\n\r\n    function transferFrom(address _from, address _to, uint256 _value) public whenNotPaused returns (bool) {\r\n        return super.transferFrom(_from, _to, _value);\r\n    }\r\n\r\n    function approve(address _spender, uint256 _value) public whenNotPaused returns (bool) {\r\n        return super.approve(_spender, _value);\r\n    }\r\n\r\n    function increaseApproval(address _spender, uint _addedValue) public whenNotPaused returns (bool success) {\r\n        return super.increaseApproval(_spender, _addedValue);\r\n    }\r\n\r\n    function decreaseApproval(address _spender, uint _subtractedValue) public whenNotPaused returns (bool success) {\r\n        return super.decreaseApproval(_spender, _subtractedValue);\r\n    }\r\n}\r\n",
  "sourcePath": "C:\\Users\\DXenu\\Desktop\\box\\demo_contract\\contracts\\zeppelin\\PausableToken.sol",
  "compiler": {
    "name": "solc",
    "version": "0.4.21+commit.dfe3193c.Emscripten.clang"
  },
  "schemaVersion": "2.0.0",
  "updatedAt": "2018-04-16T11:26:29.034Z"
}