{
  "contractName": "PowerPiperToken",
  "abi": [
    {
      "constant": true,
      "inputs": [],
      "name": "getUsers",
      "outputs": [
        {
          "name": "",
          "type": "address[]"
        }
      ],
      "payable": false,
      "stateMutability": "view",
      "type": "function"
    },
    {
      "constant": true,
      "inputs": [],
      "name": "mintingFinished",
      "outputs": [
        {
          "name": "",
          "type": "bool"
        }
      ],
      "payable": false,
      "stateMutability": "view",
      "type": "function"
    },
    {
      "constant": true,
      "inputs": [],
      "name": "name",
      "outputs": [
        {
          "name": "",
          "type": "bytes32"
        }
      ],
      "payable": false,
      "stateMutability": "view",
      "type": "function"
    },
    {
      "constant": false,
      "inputs": [
        {
          "name": "_spender",
          "type": "address"
        },
        {
          "name": "_tokens",
          "type": "uint256"
        }
      ],
      "name": "approve",
      "outputs": [
        {
          "name": "success",
          "type": "bool"
        }
      ],
      "payable": false,
      "stateMutability": "nonpayable",
      "type": "function"
    },
    {
      "constant": true,
      "inputs": [],
      "name": "totalSupply",
      "outputs": [
        {
          "name": "",
          "type": "uint256"
        }
      ],
      "payable": false,
      "stateMutability": "view",
      "type": "function"
    },
    {
      "constant": false,
      "inputs": [
        {
          "name": "_hash",
          "type": "string"
        }
      ],
      "name": "newUser",
      "outputs": [
        {
          "name": "",
          "type": "bool"
        }
      ],
      "payable": false,
      "stateMutability": "nonpayable",
      "type": "function"
    },
    {
      "constant": false,
      "inputs": [
        {
          "name": "_from",
          "type": "address"
        },
        {
          "name": "_to",
          "type": "address"
        },
        {
          "name": "_tokens",
          "type": "uint256"
        }
      ],
      "name": "transferFrom",
      "outputs": [
        {
          "name": "success",
          "type": "bool"
        }
      ],
      "payable": false,
      "stateMutability": "nonpayable",
      "type": "function"
    },
    {
      "constant": true,
      "inputs": [],
      "name": "decimals",
      "outputs": [
        {
          "name": "",
          "type": "uint256"
        }
      ],
      "payable": false,
      "stateMutability": "view",
      "type": "function"
    },
    {
      "constant": true,
      "inputs": [],
      "name": "priceMarkup",
      "outputs": [
        {
          "name": "",
          "type": "uint256"
        }
      ],
      "payable": false,
      "stateMutability": "view",
      "type": "function"
    },
    {
      "constant": true,
      "inputs": [],
      "name": "_totalSupply",
      "outputs": [
        {
          "name": "",
          "type": "uint256"
        }
      ],
      "payable": false,
      "stateMutability": "view",
      "type": "function"
    },
    {
      "constant": false,
      "inputs": [
        {
          "name": "_to",
          "type": "address"
        },
        {
          "name": "_amount",
          "type": "uint256"
        }
      ],
      "name": "mint",
      "outputs": [
        {
          "name": "",
          "type": "bool"
        }
      ],
      "payable": false,
      "stateMutability": "nonpayable",
      "type": "function"
    },
    {
      "constant": false,
      "inputs": [
        {
          "name": "_addr",
          "type": "address"
        }
      ],
      "name": "deleteUser",
      "outputs": [
        {
          "name": "index",
          "type": "uint256"
        }
      ],
      "payable": false,
      "stateMutability": "nonpayable",
      "type": "function"
    },
    {
      "constant": false,
      "inputs": [
        {
          "name": "_amount",
          "type": "uint256"
        }
      ],
      "name": "destroyTokens",
      "outputs": [],
      "payable": false,
      "stateMutability": "nonpayable",
      "type": "function"
    },
    {
      "constant": true,
      "inputs": [],
      "name": "validate",
      "outputs": [
        {
          "name": "",
          "type": "bool"
        }
      ],
      "payable": false,
      "stateMutability": "view",
      "type": "function"
    },
    {
      "constant": true,
      "inputs": [
        {
          "name": "_addr",
          "type": "address"
        }
      ],
      "name": "getUser",
      "outputs": [
        {
          "name": "index",
          "type": "uint256"
        },
        {
          "name": "_hash",
          "type": "string"
        }
      ],
      "payable": false,
      "stateMutability": "view",
      "type": "function"
    },
    {
      "constant": true,
      "inputs": [
        {
          "name": "_tokenOwner",
          "type": "address"
        }
      ],
      "name": "balanceOf",
      "outputs": [
        {
          "name": "balance",
          "type": "uint256"
        }
      ],
      "payable": false,
      "stateMutability": "view",
      "type": "function"
    },
    {
      "constant": true,
      "inputs": [],
      "name": "reserves",
      "outputs": [
        {
          "name": "",
          "type": "uint256"
        }
      ],
      "payable": false,
      "stateMutability": "view",
      "type": "function"
    },
    {
      "constant": false,
      "inputs": [],
      "name": "finishMinting",
      "outputs": [
        {
          "name": "",
          "type": "bool"
        }
      ],
      "payable": false,
      "stateMutability": "nonpayable",
      "type": "function"
    },
    {
      "constant": true,
      "inputs": [],
      "name": "owner",
      "outputs": [
        {
          "name": "",
          "type": "address"
        }
      ],
      "payable": false,
      "stateMutability": "view",
      "type": "function"
    },
    {
      "constant": true,
      "inputs": [],
      "name": "symbol",
      "outputs": [
        {
          "name": "",
          "type": "bytes32"
        }
      ],
      "payable": false,
      "stateMutability": "view",
      "type": "function"
    },
    {
      "constant": true,
      "inputs": [
        {
          "name": "",
          "type": "address"
        }
      ],
      "name": "users",
      "outputs": [
        {
          "name": "index",
          "type": "uint256"
        },
        {
          "name": "_hash",
          "type": "string"
        }
      ],
      "payable": false,
      "stateMutability": "view",
      "type": "function"
    },
    {
      "constant": false,
      "inputs": [
        {
          "name": "_to",
          "type": "address"
        },
        {
          "name": "_tokens",
          "type": "uint256"
        }
      ],
      "name": "transfer",
      "outputs": [
        {
          "name": "success",
          "type": "bool"
        }
      ],
      "payable": false,
      "stateMutability": "nonpayable",
      "type": "function"
    },
    {
      "constant": true,
      "inputs": [
        {
          "name": "",
          "type": "address"
        }
      ],
      "name": "places",
      "outputs": [
        {
          "name": "index",
          "type": "uint256"
        },
        {
          "name": "msq",
          "type": "uint256"
        },
        {
          "name": "kwh",
          "type": "uint256"
        },
        {
          "name": "price",
          "type": "uint256"
        },
        {
          "name": "userId",
          "type": "address"
        }
      ],
      "payable": false,
      "stateMutability": "view",
      "type": "function"
    },
    {
      "constant": false,
      "inputs": [
        {
          "name": "_addr",
          "type": "address"
        },
        {
          "name": "_hash",
          "type": "string"
        }
      ],
      "name": "updateUser",
      "outputs": [
        {
          "name": "",
          "type": "bool"
        }
      ],
      "payable": false,
      "stateMutability": "nonpayable",
      "type": "function"
    },
    {
      "constant": true,
      "inputs": [],
      "name": "getUserCount",
      "outputs": [
        {
          "name": "count",
          "type": "uint256"
        }
      ],
      "payable": false,
      "stateMutability": "view",
      "type": "function"
    },
    {
      "constant": true,
      "inputs": [
        {
          "name": "",
          "type": "uint256"
        }
      ],
      "name": "userIndex",
      "outputs": [
        {
          "name": "",
          "type": "address"
        }
      ],
      "payable": false,
      "stateMutability": "view",
      "type": "function"
    },
    {
      "constant": true,
      "inputs": [
        {
          "name": "_tokenOwner",
          "type": "address"
        },
        {
          "name": "_spender",
          "type": "address"
        }
      ],
      "name": "allowance",
      "outputs": [
        {
          "name": "remaining",
          "type": "uint256"
        }
      ],
      "payable": false,
      "stateMutability": "view",
      "type": "function"
    },
    {
      "constant": true,
      "inputs": [],
      "name": "fee",
      "outputs": [
        {
          "name": "",
          "type": "uint256"
        }
      ],
      "payable": false,
      "stateMutability": "view",
      "type": "function"
    },
    {
      "constant": false,
      "inputs": [
        {
          "name": "newOwner",
          "type": "address"
        }
      ],
      "name": "transferOwnership",
      "outputs": [],
      "payable": false,
      "stateMutability": "nonpayable",
      "type": "function"
    },
    {
      "constant": true,
      "inputs": [
        {
          "name": "",
          "type": "address"
        }
      ],
      "name": "equipments",
      "outputs": [
        {
          "name": "index",
          "type": "uint256"
        },
        {
          "name": "kwh",
          "type": "uint256"
        },
        {
          "name": "price",
          "type": "uint256"
        },
        {
          "name": "userId",
          "type": "address"
        }
      ],
      "payable": false,
      "stateMutability": "view",
      "type": "function"
    },
    {
      "constant": true,
      "inputs": [
        {
          "name": "_addr",
          "type": "address"
        }
      ],
      "name": "existsUser",
      "outputs": [
        {
          "name": "isIndexed",
          "type": "bool"
        }
      ],
      "payable": false,
      "stateMutability": "view",
      "type": "function"
    },
    {
      "constant": true,
      "inputs": [
        {
          "name": "index",
          "type": "uint256"
        }
      ],
      "name": "getUserAtIndex",
      "outputs": [
        {
          "name": "",
          "type": "uint256"
        },
        {
          "name": "",
          "type": "address"
        },
        {
          "name": "",
          "type": "string"
        }
      ],
      "payable": false,
      "stateMutability": "view",
      "type": "function"
    },
    {
      "inputs": [],
      "payable": false,
      "stateMutability": "nonpayable",
      "type": "constructor"
    },
    {
      "anonymous": false,
      "inputs": [
        {
          "indexed": false,
          "name": "_redeember",
          "type": "address"
        },
        {
          "indexed": false,
          "name": "_amount",
          "type": "uint256"
        },
        {
          "indexed": false,
          "name": "_timestamp",
          "type": "uint256"
        }
      ],
      "name": "RedeemEvent",
      "type": "event"
    },
    {
      "anonymous": false,
      "inputs": [
        {
          "indexed": false,
          "name": "_buyer",
          "type": "address"
        },
        {
          "indexed": false,
          "name": "_amount",
          "type": "uint256"
        },
        {
          "indexed": false,
          "name": "_timestamp",
          "type": "uint256"
        }
      ],
      "name": "BuyDirectEvent",
      "type": "event"
    },
    {
      "anonymous": false,
      "inputs": [
        {
          "indexed": true,
          "name": "_addr",
          "type": "address"
        },
        {
          "indexed": true,
          "name": "_userAddr",
          "type": "address"
        },
        {
          "indexed": false,
          "name": "_index",
          "type": "uint256"
        },
        {
          "indexed": false,
          "name": "_kwh",
          "type": "uint256"
        },
        {
          "indexed": false,
          "name": "_price",
          "type": "uint256"
        }
      ],
      "name": "NewEquipment",
      "type": "event"
    },
    {
      "anonymous": false,
      "inputs": [
        {
          "indexed": true,
          "name": "_addr",
          "type": "address"
        },
        {
          "indexed": true,
          "name": "_userAddr",
          "type": "address"
        },
        {
          "indexed": false,
          "name": "_index",
          "type": "uint256"
        },
        {
          "indexed": false,
          "name": "_kwh",
          "type": "uint256"
        },
        {
          "indexed": false,
          "name": "_price",
          "type": "uint256"
        }
      ],
      "name": "UpdateEquipment",
      "type": "event"
    },
    {
      "anonymous": false,
      "inputs": [
        {
          "indexed": true,
          "name": "_addr",
          "type": "address"
        },
        {
          "indexed": false,
          "name": "_index",
          "type": "uint256"
        }
      ],
      "name": "DeleteEquipment",
      "type": "event"
    },
    {
      "anonymous": false,
      "inputs": [
        {
          "indexed": true,
          "name": "_addr",
          "type": "address"
        },
        {
          "indexed": true,
          "name": "_userAddr",
          "type": "address"
        },
        {
          "indexed": false,
          "name": "_index",
          "type": "uint256"
        },
        {
          "indexed": false,
          "name": "_msq",
          "type": "uint256"
        },
        {
          "indexed": false,
          "name": "_kwh",
          "type": "uint256"
        },
        {
          "indexed": false,
          "name": "_price",
          "type": "uint256"
        }
      ],
      "name": "NewPlace",
      "type": "event"
    },
    {
      "anonymous": false,
      "inputs": [
        {
          "indexed": true,
          "name": "_addr",
          "type": "address"
        },
        {
          "indexed": true,
          "name": "_userAddr",
          "type": "address"
        },
        {
          "indexed": false,
          "name": "_index",
          "type": "uint256"
        },
        {
          "indexed": false,
          "name": "_msq",
          "type": "uint256"
        },
        {
          "indexed": false,
          "name": "_kwh",
          "type": "uint256"
        },
        {
          "indexed": false,
          "name": "_price",
          "type": "uint256"
        }
      ],
      "name": "UpdatePlace",
      "type": "event"
    },
    {
      "anonymous": false,
      "inputs": [
        {
          "indexed": true,
          "name": "_addr",
          "type": "address"
        },
        {
          "indexed": false,
          "name": "_index",
          "type": "uint256"
        }
      ],
      "name": "DeletePlace",
      "type": "event"
    },
    {
      "anonymous": false,
      "inputs": [
        {
          "indexed": true,
          "name": "_addr",
          "type": "address"
        },
        {
          "indexed": false,
          "name": "_index",
          "type": "uint256"
        },
        {
          "indexed": false,
          "name": "_hash",
          "type": "string"
        }
      ],
      "name": "NewUser",
      "type": "event"
    },
    {
      "anonymous": false,
      "inputs": [
        {
          "indexed": true,
          "name": "_addr",
          "type": "address"
        },
        {
          "indexed": false,
          "name": "_index",
          "type": "uint256"
        },
        {
          "indexed": false,
          "name": "_hash",
          "type": "string"
        }
      ],
      "name": "UpdateUser",
      "type": "event"
    },
    {
      "anonymous": false,
      "inputs": [
        {
          "indexed": true,
          "name": "_addr",
          "type": "address"
        },
        {
          "indexed": false,
          "name": "_index",
          "type": "uint256"
        }
      ],
      "name": "DeleteUser",
      "type": "event"
    },
    {
      "anonymous": false,
      "inputs": [
        {
          "indexed": true,
          "name": "to",
          "type": "address"
        },
        {
          "indexed": false,
          "name": "amount",
          "type": "uint256"
        }
      ],
      "name": "Mint",
      "type": "event"
    },
    {
      "anonymous": false,
      "inputs": [],
      "name": "MintFinished",
      "type": "event"
    },
    {
      "anonymous": false,
      "inputs": [
        {
          "indexed": true,
          "name": "_from",
          "type": "address"
        },
        {
          "indexed": false,
          "name": "_value",
          "type": "uint256"
        }
      ],
      "name": "DestroyTokens",
      "type": "event"
    },
    {
      "anonymous": false,
      "inputs": [
        {
          "indexed": true,
          "name": "previousOwner",
          "type": "address"
        },
        {
          "indexed": true,
          "name": "newOwner",
          "type": "address"
        }
      ],
      "name": "OwnershipTransferred",
      "type": "event"
    },
    {
      "anonymous": false,
      "inputs": [
        {
          "indexed": true,
          "name": "from",
          "type": "address"
        },
        {
          "indexed": true,
          "name": "to",
          "type": "address"
        },
        {
          "indexed": false,
          "name": "value",
          "type": "uint256"
        }
      ],
      "name": "Transfer",
      "type": "event"
    },
    {
      "anonymous": false,
      "inputs": [
        {
          "indexed": true,
          "name": "owner",
          "type": "address"
        },
        {
          "indexed": true,
          "name": "spender",
          "type": "address"
        },
        {
          "indexed": false,
          "name": "value",
          "type": "uint256"
        }
      ],
      "name": "Approval",
      "type": "event"
    },
    {
      "constant": true,
      "inputs": [
        {
          "name": "_amount",
          "type": "uint256"
        }
      ],
      "name": "calculateFee",
      "outputs": [
        {
          "name": "",
          "type": "uint256"
        }
      ],
      "payable": false,
      "stateMutability": "view",
      "type": "function"
    },
    {
      "constant": false,
      "inputs": [
        {
          "name": "_fee",
          "type": "uint256"
        }
      ],
      "name": "setNewFee",
      "outputs": [],
      "payable": false,
      "stateMutability": "nonpayable",
      "type": "function"
    },
    {
      "constant": false,
      "inputs": [
        {
          "name": "_priceMarkup",
          "type": "uint256"
        }
      ],
      "name": "setPriceMarkup",
      "outputs": [],
      "payable": false,
      "stateMutability": "nonpayable",
      "type": "function"
    }
  ],
  "bytecode": "0x60606040526003805460a060020a60ff02191690556000600b55341561002457600080fd5b60038054600160a060020a03191633600160a060020a03161781557f50575000000000000000000000000000000000000000000000000000000000006007557f506f7765725069706572546f6b656e00000000000000000000000000000000006006556008556103e8600955611388600a556119a9806100a56000396000f3006060604052600436106101b55763ffffffff7c0100000000000000000000000000000000000000000000000000000000600035041662ce8e3e81146101ba57806305d2035b1461022057806306fdde0314610247578063095ea7b31461026c57806318160ddd1461028e5780631eed1192146102a157806323b872dd146102f2578063313ce5671461031a5780633e04619d1461032d5780633eaaf86b1461034057806340c10f19146103535780635c60f2261461037557806367fbd289146103945780636901f668146103ac5780636f77926b146103bf57806370a082311461045c57806375172a8b1461047b5780637d64bcb41461048e5780638da5cb5b146104a157806395d89b41146104d057806399a5d747146104e3578063a87430ba146104f9578063a9059cbb14610518578063ab2d479e1461053a578063b088981914610592578063b5cb15f7146105f1578063c37dfd6e14610604578063d0dafe7e1461061a578063dd62ed3e14610630578063ddca3f4314610655578063f2fde38b14610668578063f3c110ea14610687578063f409e87d146106da578063f4ef90be146106f9578063ffcc7bbf1461070f575b600080fd5b34156101c557600080fd5b6101cd6107b3565b60405160208082528190810183818151815260200191508051906020019060200280838360005b8381101561020c5780820151838201526020016101f4565b505050509050019250505060405180910390f35b341561022b57600080fd5b610233610837565b604051901515815260200160405180910390f35b341561025257600080fd5b61025a610858565b60405190815260200160405180910390f35b341561027757600080fd5b610233600160a060020a036004351660243561085e565b341561029957600080fd5b61025a6108ca565b34156102ac57600080fd5b61023360046024813581810190830135806020601f820181900481020160405190810160405281815292919060208401838380828437509496506108fb95505050505050565b34156102fd57600080fd5b610233600160a060020a0360043581169060243516604435610a4a565b341561032557600080fd5b61025a610bb7565b341561033857600080fd5b61025a610bbd565b341561034b57600080fd5b61025a610bc3565b341561035e57600080fd5b610233600160a060020a0360043516602435610bc9565b341561038057600080fd5b61025a600160a060020a0360043516610cc0565b341561039f57600080fd5b6103aa600435610ec3565b005b34156103b757600080fd5b610233610f90565b34156103ca57600080fd5b6103de600160a060020a0360043516610fa5565b60405182815260406020820181815290820183818151815260200191508051906020019080838360005b83811015610420578082015183820152602001610408565b50505050905090810190601f16801561044d5780820380516001836020036101000a031916815260200191505b50935050505060405180910390f35b341561046757600080fd5b61025a600160a060020a03600435166110cf565b341561048657600080fd5b61025a6110ea565b341561049957600080fd5b6102336110f0565b34156104ac57600080fd5b6104b461119d565b604051600160a060020a03909116815260200160405180910390f35b34156104db57600080fd5b61025a6111ac565b34156104ee57600080fd5b61025a6004356111b2565b341561050457600080fd5b6103de600160a060020a03600435166111e6565b341561052357600080fd5b610233600160a060020a03600435166024356112a2565b341561054557600080fd5b610559600160a060020a03600435166113b6565b60405194855260208501939093526040808501929092526060840152600160a060020a03909116608083015260a0909101905180910390f35b341561059d57600080fd5b61023360048035600160a060020a03169060446024803590810190830135806020601f820181900481020160405190810160405281815292919060208401838380828437509496506113ee95505050505050565b34156105fc57600080fd5b61025a611519565b341561060f57600080fd5b6104b460043561153e565b341561062557600080fd5b6103aa600435611566565b341561063b57600080fd5b61025a600160a060020a0360043581169060243516611586565b341561066057600080fd5b61025a6115b1565b341561067357600080fd5b6103aa600160a060020a03600435166115b7565b341561069257600080fd5b6106a6600160a060020a0360043516611652565b6040519384526020840192909252604080840191909152600160a060020a0390911660608301526080909101905180910390f35b34156106e557600080fd5b610233600160a060020a0360043516611682565b341561070457600080fd5b6103aa6004356116da565b341561071a57600080fd5b6107256004356116fa565b604051838152600160a060020a038316602082015260606040820181815290820183818151815260200191508051906020019080838360005b8381101561077657808201518382015260200161075e565b50505050905090810190601f1680156107a35780820380516001836020036101000a031916815260200191505b5094505050505060405180910390f35b6107bb6118aa565b60035433600160a060020a039081169116146107d657600080fd5b600580548060200260200160405190810160405280929190818152602001828054801561082c57602002820191906000526020600020905b8154600160a060020a0316815260019091019060200180831161080e575b505050505090505b90565b60035474010000000000000000000000000000000000000000900460ff1681565b60065481565b600160a060020a03338116600081815260016020908152604080832094871680845294909152808220859055909291907f8c5be1e5ebec7d5bd14f71427d1e84f3dd0314c0f7b2291e5b200ac8c7c3b9259085905190815260200160405180910390a350600192915050565b60008080526020527fad3228b676f7d3cd4284a5443f17f1962b36e491b30a40b2405849e597ba5fb5546002540390565b600061090633611682565b1561091057600080fd5b600580546001810161092283826118bc565b506000918252602080832091909101805473ffffffffffffffffffffffffffffffffffffffff191633600160a060020a03169081179091556005549083526004909152604090912060001990910181556001018280516109869291602001906118e5565b50600160a060020a03331660008181526004602052604090819020547f3f5552bae26386a672ea708b076b62b1fb9a9f821b6d35469971faa1dec9a15e9185905182815260406020820181815290820183818151815260200191508051906020019080838360005b83811015610a065780820151838201526020016109ee565b50505050905090810190601f168015610a335780820380516001836020036101000a031916815260200191505b50935050505060405180910390a25060015b919050565b6000600160a060020a0383161515610a6157600080fd5b600160a060020a038416600090815260208190526040902054821115610a8657600080fd5b600160a060020a0380851660009081526001602090815260408083203390941683529290522054821115610ab957600080fd5b600160a060020a038416600090815260208190526040902054610adc908361187c565b600160a060020a038086166000908152602081815260408083209490945560018152838220339093168252919091522054610b17908361187c565b600160a060020a03808616600090815260016020908152604080832033851684528252808320949094559186168152908190522054610b569083611891565b600160a060020a03808516600081815260208190526040908190209390935591908616907fddf252ad1be2c89b69c2b068fc378daa952ba7f163c4a11628f55a4df523b3ef9085905190815260200160405180910390a35060019392505050565b60085481565b600a5481565b60025481565b60035460009074010000000000000000000000000000000000000000900460ff1615610bf457600080fd5b610c0060025483611891565b600255600160a060020a038316600090815260208190526040902054610c269083611891565b600160a060020a0384166000818152602081905260409081902092909255907f0f6798a560793a54c3bcfe86a93cde1e73087d944c0ea20544137d41213968859084905190815260200160405180910390a2600160a060020a03831660007fddf252ad1be2c89b69c2b068fc378daa952ba7f163c4a11628f55a4df523b3ef8460405190815260200160405180910390a350600192915050565b60008060008380600160a060020a031633600160a060020a0316141515610ce657600080fd5b610cef33611682565b1515600114610cfd57600080fd5b600160a060020a03331660009081526004602052604090205460058054919450906000198101908110610d2c57fe5b60009182526020909120015460058054600160a060020a039092169350839185908110610d5557fe5b6000918252602080832091909101805473ffffffffffffffffffffffffffffffffffffffff1916600160a060020a0394851617905591841681526004909152604090208390556005805490610dae9060001983016118bc565b5033600160a060020a03167f117183c06981515bdfa0b70d0448d8eb6ba07648cda62ab7c2b4361eeff80a1b8460405190815260200160405180910390a2600160a060020a038216600081815260046020526040908190207f2b46302f47437b923a28e2b58ff2446c2a30a86f911fcf4a46395fa79a18e56a918691600101905182815260406020820181815283546002600019610100600184161502019091160491830182905290606083019084908015610eab5780601f10610e8057610100808354040283529160200191610eab565b820191906000526020600020905b815481529060010190602001808311610e8e57829003601f168201915b5050935050505060405180910390a250909392505050565b60035433600160a060020a03908116911614610ede57600080fd5b600160a060020a03331660009081526020819052604090205481901015610f0457600080fd5b600160a060020a033316600090815260208190526040902054610f27908261187c565b600160a060020a033316600090815260208190526040902055600254610f4d908261187c565b600255600160a060020a0333167f5800808f79a46b76f108a491008ac316906334adb996175d3053964b8ee12c8e8260405190815260200160405180910390a250565b60035433600160a060020a0390811691161490565b6000610faf6118aa565b8280600160a060020a031633600160a060020a03161480610fde575060035433600160a060020a039081169116145b1515610fe957600080fd5b610ff284611682565b151560011461100057600080fd5b600160a060020a03841660009081526004602090815260409182902080546001918201805491949093849360029084161561010002600019019093169290920491601f8301819004810201905190810160405280929190818152602001828054600181600116156101000203166002900480156110be5780601f10611093576101008083540402835291602001916110be565b820191906000526020600020905b8154815290600101906020018083116110a157829003601f168201915b505050505090509250925050915091565b600160a060020a031660009081526020819052604090205490565b600b5481565b60035460009074010000000000000000000000000000000000000000900460ff161561111b57600080fd5b60035433600160a060020a0390811691161461113657600080fd5b6003805474ff00000000000000000000000000000000000000001916740100000000000000000000000000000000000000001790557fae5184fba832cb2b1f702aca6117b8d265eaf03ad33eb133f19dde0f5920fa0860405160405180910390a150600190565b600354600160a060020a031681565b60075481565b600080600854600a0a60095484028115156111c957fe5b0490508015156111dc57600191506111e0565b8091505b50919050565b6004602052806000526040600020600091509050806000015490806001018054600181600116156101000203166002900480601f0160208091040260200160405190810160405280929190818152602001828054600181600116156101000203166002900480156112985780601f1061126d57610100808354040283529160200191611298565b820191906000526020600020905b81548152906001019060200180831161127b57829003601f168201915b5050505050905082565b6000600160a060020a03831615156112b957600080fd5b600160a060020a03331660009081526020819052604090205482118015906112e15750600082115b15156112ec57600080fd5b600160a060020a03331660009081526020819052604090205461130f908361187c565b600160a060020a03338116600090815260208190526040808220939093559085168152205461133e9083611891565b60008085600160a060020a0316600160a060020a031681526020019081526020016000208190555082600160a060020a031633600160a060020a03167fddf252ad1be2c89b69c2b068fc378daa952ba7f163c4a11628f55a4df523b3ef8460405190815260200160405180910390a350600192915050565b6011602052600090815260409020805460018201546002830154600384015460049094015492939192909190600160a060020a031685565b60008280600160a060020a031633600160a060020a031614151561141157600080fd5b61141a33611682565b151560011461142857600080fd5b600160a060020a03331660009081526004602052604090206001018380516114549291602001906118e5565b50600160a060020a03331660008181526004602052604090819020547f2b46302f47437b923a28e2b58ff2446c2a30a86f911fcf4a46395fa79a18e56a9186905182815260406020820181815290820183818151815260200191508051906020019080838360005b838110156114d45780820151838201526020016114bc565b50505050905090810190601f1680156115015780820380516001836020036101000a031916815260200191505b50935050505060405180910390a25060019392505050565b60035460009033600160a060020a0390811691161461153757600080fd5b5060055490565b600580548290811061154c57fe5b600091825260209091200154600160a060020a0316905081565b60035433600160a060020a0390811691161461158157600080fd5b600a55565b600160a060020a03918216600090815260016020908152604080832093909416825291909152205490565b60095481565b60035433600160a060020a039081169116146115d257600080fd5b600160a060020a03811615156115e757600080fd5b600354600160a060020a0380831691167f8be0079c531659141344cd1fd0a4f28419497f9722a3daafe3b4186f6b6457e060405160405180910390a36003805473ffffffffffffffffffffffffffffffffffffffff1916600160a060020a0392909216919091179055565b600f60205260009081526040902080546001820154600283015460039093015491929091600160a060020a031684565b600554600090151561169657506000610a45565b600160a060020a0382166000818152600460205260409020546005805490919081106116be57fe5b600091825260209091200154600160a060020a03161492915050565b60035433600160a060020a039081169116146116f557600080fd5b600955565b6000806117056118aa565b60035433600160a060020a0390811691161461172057600080fd5b6004600060058681548110151561173357fe5b6000918252602080832090910154600160a060020a03168352820192909252604001902054600580548690811061176657fe5b600091825260208220015460058054600160a060020a03909216926004929091908990811061179157fe5b906000526020600020900160009054906101000a9004600160a060020a0316600160a060020a0316600160a060020a03168152602001908152602001600020600101808054600181600116156101000203166002900480601f0160208091040260200160405190810160405280929190818152602001828054600181600116156101000203166002900480156118685780601f1061183d57610100808354040283529160200191611868565b820191906000526020600020905b81548152906001019060200180831161184b57829003601f168201915b505050505090509250925092509193909250565b60008282111561188b57600080fd5b50900390565b6000828201838110156118a357600080fd5b9392505050565b60206040519081016040526000815290565b8154818355818115116118e0576000838152602090206118e0918101908301611963565b505050565b828054600181600116156101000203166002900490600052602060002090601f016020900481019282601f1061192657805160ff1916838001178555611953565b82800160010185558215611953579182015b82811115611953578251825591602001919060010190611938565b5061195f929150611963565b5090565b61083491905b8082111561195f57600081556001016119695600a165627a7a7230582091e90b1c4f39a5e29020e52f4516159cd2ed2dd981960175e6f659ceae05b99d0029",
  "source": "pragma solidity ^0.4.21;\r\n\r\nimport \"./templates/SafeMath.sol\";\r\nimport \"./templates/Basic.sol\";\r\nimport \"./templates/Mintable.sol\";\r\nimport \"./Users.sol\";\r\n\r\n\r\ncontract PowerPiperToken is Basic, Mintable, Users {\r\n\r\n    using SafeMath for uint;\r\n\r\n    struct RedemptionStruct {\r\n        address redeemer;\r\n        string location;\r\n        uint amount;\r\n        uint timestamp;\r\n    }\r\n\r\n    struct OrderStruct {\r\n        address buyer;\r\n        uint amount;\r\n        uint timestamp;\r\n    }\r\n\r\n    struct Cert {\r\n        bytes32 url;\r\n        uint amount;\r\n        uint timestamp;\r\n    }\r\n\r\n    struct EquipmentStruct {\r\n        uint index;\r\n        uint kwh;\r\n        uint price;\r\n        address userId;\r\n    }\r\n\r\n    struct PlaceStruct {\r\n        uint index;\r\n        uint msq;\r\n        uint kwh;\r\n        uint price;\r\n        address userId;\r\n    }\r\n\r\n    bytes32 public name;\r\n    bytes32 public symbol;\r\n    uint public decimals;\r\n    uint public fee;\r\n    uint public priceMarkup;\r\n    uint public reserves = 0;\r\n    RedemptionStruct[] redemptions;\r\n    OrderStruct[] orders;\r\n    Cert[] certificates;\r\n    mapping(address => EquipmentStruct) public equipments;\r\n    address[] private equipmentIndex;\r\n    mapping(address => PlaceStruct) public places;\r\n    address[] private placeIndex;\r\n\r\n    event RedeemEvent(address _redeember, uint _amount, uint _timestamp);\r\n    event BuyDirectEvent(address _buyer, uint _amount, uint _timestamp);\r\n    event NewEquipment(address indexed _addr, address indexed _userAddr, uint _index, uint _kwh, uint _price);\r\n    event UpdateEquipment(address indexed _addr, address indexed _userAddr, uint _index, uint _kwh, uint _price);\r\n    event DeleteEquipment(address indexed _addr,  uint _index);\r\n    event NewPlace(address indexed _addr, address indexed _userAddr, uint _index, uint _msq, uint _kwh, uint _price);\r\n    event UpdatePlace(address indexed _addr, address indexed _userAddr, uint _index, uint _msq, uint _kwh, uint _price);\r\n    event DeletePlace(address indexed _addr,  uint _index);\r\n\r\n    function PowerPiperToken() public {\r\n        symbol = \"PWP\";\r\n        name = \"PowerPiperToken\";\r\n        decimals = 3;\r\n        fee = 1 * 10 ** decimals; // 1%\r\n        priceMarkup = 5 * 10 ** decimals; // 5%\r\n    }\r\n\r\n    function calculateFee(uint _amount) public view returns (uint) {\r\n        uint feeAmount = _amount * fee / (10 ** decimals);\r\n\r\n        if (feeAmount == 0) {\r\n            return 1;\r\n        } else {\r\n            return feeAmount;\r\n        }\r\n    }\r\n\r\n    function setNewFee(uint _fee) public onlyOwner {\r\n        fee = _fee;\r\n    }\r\n\r\n    function setPriceMarkup(uint _priceMarkup) public onlyOwner {\r\n        priceMarkup = _priceMarkup;\r\n    }\r\n\r\n    /*function redeem(uint _value, string _location) public returns (uint) {\r\n        require(balanceOf(msg.sender) >= _value);\r\n\r\n        approve(msg.sender, _value);\r\n        transferFrom(msg.sender, address(this), _value);\r\n\r\n        RedemptionStruct memory redemption = RedemptionStruct({\r\n            redeemer: msg.sender,\r\n            amount: _value,\r\n            location: _location,\r\n            timestamp: now\r\n        });\r\n\r\n        redemptions.push(redemption);\r\n\r\n        emit RedeemEvent(redemption.redeemer, redemption.amount, redemption.timestamp);\r\n    }\r\n\r\n    function approveRedemption(uint _index) public onlyOwner {\r\n        require(redemptions[_index].amount >= 0);\r\n\r\n        RedemptionStruct memory redemption = redemptions[_index];\r\n        destroyTokens(redemption.amount);\r\n\r\n        redemptions[_index] = redemptions[redemptions.length-1];\r\n        redemptions.length--;\r\n    }\r\n\r\n    function declineRedemption(uint _index) public onlyOwner {\r\n        require(redemptions[_index].amount >= 0);\r\n\r\n        RedemptionStruct memory redemption = redemptions[_index];\r\n        transfer(redemption.redeemer, redemption.amount);\r\n\r\n        redemptions[_index] = redemptions[redemptions.length-1];\r\n        redemptions.length--;\r\n    }\r\n\r\n    function getRedemptionsLength() public constant onlyOwner returns (uint) {\r\n        return redemptions.length;\r\n    }\r\n\r\n    function getRedemption(uint _index) public constant onlyOwner returns (address, uint, string, uint) {\r\n        RedemptionStruct memory redemption = redemptions[_index];\r\n        return (\r\n            redemption.redeemer,\r\n            redemption.amount,\r\n            redemption.location,\r\n            redemption.timestamp\r\n        );\r\n    }\r\n\r\n    function getOrder(uint _index) public constant onlyOwner returns (address, uint, uint) {\r\n        OrderStruct memory order = orders[_index];\r\n        return (order.buyer, order.amount, order.timestamp);\r\n    }\r\n\r\n    function approveOrder(uint _index, uint _amount) public onlyOwner {\r\n        require(orders[_index].amount >= 0);\r\n\r\n        OrderStruct memory order = orders[_index];\r\n\r\n        uint feeAmount = calculateFee(_amount);\r\n        _amount = _amount.sub(feeAmount);\r\n        mint(address(this), feeAmount);\r\n\r\n        mint(order.buyer, _amount);\r\n\r\n        orders[_index] = orders[orders.length-1];\r\n        orders.length--;\r\n    }\r\n\r\n    function declineOrder(uint _index) public onlyOwner {\r\n        require(orders[_index].amount >= 0);\r\n\r\n        OrderStruct memory order = orders[_index];\r\n        order.buyer.transfer(order.amount);\r\n\r\n        orders[_index] = orders[orders.length-1];\r\n        orders.length--;\r\n    }\r\n\r\n    function getOrdersLength() public constant onlyOwner returns (uint) {\r\n        return orders.length;\r\n    }\r\n\r\n    function buyDirect() public payable {\r\n        require(msg.value > 0);\r\n\r\n        OrderStruct memory order = OrderStruct({\r\n            buyer: msg.sender,\r\n            amount: msg.value,\r\n            timestamp: now\r\n        });\r\n\r\n        orders.push(order);\r\n\r\n        emit BuyDirectEvent(order.buyer, order.amount, order.timestamp);\r\n    }\r\n\r\n    function addCertificate(bytes32 _url, uint _amount) public onlyOwner {\r\n        Cert memory certificate = Cert({\r\n            url: _url,\r\n            amount: _amount,\r\n            timestamp: now\r\n        });\r\n\r\n        reserves = reserves.add(certificate.amount);\r\n\r\n        certificates.push(certificate);\r\n    }\r\n\r\n    function getCertificatesLength() public constant onlyOwner returns (uint) {\r\n        return certificates.length;\r\n    }\r\n\r\n    function getCertificate(uint _index) public constant onlyOwner returns (bytes32, uint, uint) {\r\n        Cert memory certificate = certificates[_index];\r\n        return (\r\n            certificate.url,\r\n            certificate.amount,\r\n            certificate.timestamp\r\n        );\r\n    }\r\n\r\n    function deleteCertificate(uint _index) public onlyOwner {\r\n        require(certificates[_index].amount >= 0);\r\n\r\n        reserves = reserves.sub(certificates[_index].amount);\r\n\r\n        certificates[_index] = certificates[certificates.length-1];\r\n        certificates.length--;\r\n    }\r\n\r\n    function existsEquipment(address _addr) public constant returns(bool isIndexed) {\r\n        if(equipmentIndex.length == 0) return false;\r\n        return (equipmentIndex[equipments[_addr].index] == _addr);\r\n    }\r\n\r\n    function newEquipment(address _addr, address _userAddr, uint _kwh, uint _price)\r\n    onlyOwner\r\n    onlyBy(_userAddr)\r\n    public\r\n    returns(uint index) {\r\n        require(existsEquipment(_addr) == false);\r\n        require(existsUser(_addr) == true);\r\n        equipments[_addr].kwh = _kwh;\r\n        equipments[_addr].price = _price;\r\n        equipments[_addr].userId = _userAddr;\r\n        equipments[_addr].index = equipmentIndex.push(_addr) - 1;\r\n        emit NewEquipment(_addr, _userAddr, equipments[_addr].index, _kwh, _price);\r\n        // users[_addr].equipmentId.push(_addr);\r\n        return equipmentIndex.length - 1;\r\n    }\r\n\r\n    function getEquipment(address _addr)\r\n    public\r\n    constant\r\n    returns(uint index, uint kwh, uint price, address userId) {\r\n        require(existsEquipment(_addr) == true);\r\n        return(\r\n            equipments[_addr].index,\r\n            equipments[_addr].kwh,\r\n            equipments[_addr].price,\r\n            equipments[_addr].userId\r\n        );\r\n    }\r\n\r\n    function updateEquipment(address _addr, address _userAddr, uint _kwh, uint _price)\r\n    public\r\n    onlyOwner\r\n    onlyBy(_userAddr)\r\n    returns(bool) {\r\n        require(existsEquipment(_addr) == true);\r\n        require(existsUser(_userAddr) == true);\r\n        equipments[_addr].kwh = _kwh;\r\n        equipments[_addr].price = _price;\r\n        emit UpdateEquipment(_addr, _userAddr, equipments[_addr].index, _kwh, _price);\r\n        return true;\r\n    }\r\n\r\n    function deleteEquipment(address _addr, address _userAddr)\r\n    public\r\n    onlyOwner\r\n    onlyBy(_userAddr)\r\n    returns(uint index) {\r\n        require(existsEquipment(_addr) == true);\r\n        uint _rowToDelete = equipments[_addr].index;\r\n        address _keyToMove = equipmentIndex[equipmentIndex.length - 1];\r\n        equipmentIndex[_rowToDelete] = _keyToMove;\r\n        equipments[_keyToMove].index = _rowToDelete; \r\n        equipmentIndex.length--;\r\n        emit DeleteEquipment(_addr, _rowToDelete);\r\n        emit UpdateEquipment(_keyToMove, equipments[_keyToMove].userId, _rowToDelete, equipments[_keyToMove].kwh, equipments[_keyToMove].price);\r\n        return _rowToDelete;\r\n    }\r\n\r\n    function getEquipmentCount() public constant returns(uint count) {\r\n        return equipmentIndex.length;\r\n    }\r\n\r\n    function getEquipmentAtIndex(uint index) public  constant returns(address _addr) {\r\n        return equipmentIndex[index];\r\n    }\r\n\r\n    function existsPlace(address _addr) public constant returns(bool isIndexed) {\r\n        if(placeIndex.length == 0) return false;\r\n        return (placeIndex[places[_addr].index] == _addr);\r\n    }\r\n\r\n    function newPlace(address _addr, address _userAddr, uint _msq, uint _kwh, uint _price)\r\n    onlyOwner\r\n    onlyBy(_userAddr)\r\n    public\r\n    returns(uint index) {\r\n        require(existsPlace(_addr) == false);\r\n        require(existsUser(_addr) == true);\r\n        places[_addr].msq = _msq;\r\n        places[_addr].kwh = _kwh;\r\n        places[_addr].price = _price;\r\n        places[_addr].userId = _userAddr;\r\n        places[_addr].index = placeIndex.push(_addr) - 1;\r\n        emit NewPlace(_addr, _userAddr, places[_addr].index,  _msq, _kwh, _price);\r\n        // users[_addr].placeId.push(_addr);\r\n        return placeIndex.length - 1;\r\n    }\r\n\r\n    function getPlace(address _addr)\r\n    public\r\n    constant\r\n    returns(uint index, uint msq, uint kwh, uint price, address userId) {\r\n        require(existsPlace(_addr) == true);\r\n        return(\r\n            places[_addr].index,\r\n            places[_addr].msq,\r\n            places[_addr].kwh,\r\n            places[_addr].price,\r\n            places[_addr].userId\r\n        );\r\n    }\r\n\r\n    function updatePlace(address _addr, address _userAddr, uint _msq, uint _kwh, uint _price)\r\n    public\r\n    onlyOwner\r\n    onlyBy(_userAddr)\r\n    returns(bool) {\r\n        require(existsPlace(_addr) == true);\r\n        require(existsUser(_userAddr) == true);\r\n        places[_addr].msq = _msq;\r\n        places[_addr].kwh = _kwh;\r\n        places[_addr].price = _price;\r\n        emit UpdatePlace(_addr, _userAddr, places[_addr].index, _msq, _kwh, _price);\r\n        return true;\r\n    }\r\n\r\n    function deletePlace(address _addr, address _userAddr)\r\n    public\r\n    onlyOwner\r\n    onlyBy(_userAddr)\r\n    returns(uint index) {\r\n        require(existsPlace(_addr) == true);\r\n        uint _rowToDelete = places[_addr].index;\r\n        address _keyToMove = placeIndex[placeIndex.length - 1];\r\n        placeIndex[_rowToDelete] = _keyToMove;\r\n        places[_keyToMove].index = _rowToDelete; \r\n        placeIndex.length--;\r\n        emit DeletePlace(_addr, _rowToDelete);\r\n        emit UpdatePlace(_keyToMove, places[_keyToMove].userId, _rowToDelete, places[_keyToMove].msq, places[_keyToMove].kwh, places[_keyToMove].price);\r\n        return _rowToDelete;\r\n    }\r\n\r\n    function getPlaceCount() public constant returns(uint count) {\r\n        return placeIndex.length;\r\n    }\r\n\r\n    function getPlaceAtIndex(uint index) public constant returns(address _addr) {\r\n        return placeIndex[index];\r\n    }*/\r\n\r\n}\r\n",
  "sourcePath": "C:\\Users\\DXenu\\Desktop\\box\\demo_contract\\contracts\\PowerPiperToken.sol",
  "compiler": {
    "name": "solc",
    "version": "0.4.21+commit.dfe3193c.Emscripten.clang"
  },
  "schemaVersion": "2.0.0",
  "updatedAt": "2018-04-20T13:49:42.634Z"
}