{
  "contractName": "PowerPiperCrowdsale",
  "abi": [
    {
      "constant": true,
      "inputs": [],
      "name": "name",
      "outputs": [
        {
          "name": "",
          "type": "string"
        }
      ],
      "payable": false,
      "stateMutability": "view",
      "type": "function"
    },
    {
      "constant": true,
      "inputs": [],
      "name": "startDate",
      "outputs": [
        {
          "name": "",
          "type": "uint256"
        }
      ],
      "payable": false,
      "stateMutability": "view",
      "type": "function"
    },
    {
      "constant": true,
      "inputs": [],
      "name": "rate",
      "outputs": [
        {
          "name": "",
          "type": "uint256"
        }
      ],
      "payable": false,
      "stateMutability": "view",
      "type": "function"
    },
    {
      "constant": true,
      "inputs": [],
      "name": "decimals",
      "outputs": [
        {
          "name": "",
          "type": "uint8"
        }
      ],
      "payable": false,
      "stateMutability": "view",
      "type": "function"
    },
    {
      "constant": true,
      "inputs": [],
      "name": "cap",
      "outputs": [
        {
          "name": "",
          "type": "uint256"
        }
      ],
      "payable": false,
      "stateMutability": "view",
      "type": "function"
    },
    {
      "constant": true,
      "inputs": [],
      "name": "_totalSupply",
      "outputs": [
        {
          "name": "",
          "type": "uint256"
        }
      ],
      "payable": false,
      "stateMutability": "view",
      "type": "function"
    },
    {
      "constant": true,
      "inputs": [],
      "name": "weiRaised",
      "outputs": [
        {
          "name": "",
          "type": "uint256"
        }
      ],
      "payable": false,
      "stateMutability": "view",
      "type": "function"
    },
    {
      "constant": true,
      "inputs": [],
      "name": "bonusEnds",
      "outputs": [
        {
          "name": "",
          "type": "uint256"
        }
      ],
      "payable": false,
      "stateMutability": "view",
      "type": "function"
    },
    {
      "constant": true,
      "inputs": [],
      "name": "bonusRate",
      "outputs": [
        {
          "name": "",
          "type": "uint256"
        }
      ],
      "payable": false,
      "stateMutability": "view",
      "type": "function"
    },
    {
      "constant": true,
      "inputs": [],
      "name": "owner",
      "outputs": [
        {
          "name": "",
          "type": "address"
        }
      ],
      "payable": false,
      "stateMutability": "view",
      "type": "function"
    },
    {
      "constant": true,
      "inputs": [],
      "name": "symbol",
      "outputs": [
        {
          "name": "",
          "type": "string"
        }
      ],
      "payable": false,
      "stateMutability": "view",
      "type": "function"
    },
    {
      "constant": true,
      "inputs": [],
      "name": "endDate",
      "outputs": [
        {
          "name": "",
          "type": "uint256"
        }
      ],
      "payable": false,
      "stateMutability": "view",
      "type": "function"
    },
    {
      "constant": false,
      "inputs": [
        {
          "name": "newOwner",
          "type": "address"
        }
      ],
      "name": "transferOwnership",
      "outputs": [],
      "payable": false,
      "stateMutability": "nonpayable",
      "type": "function"
    },
    {
      "inputs": [],
      "payable": false,
      "stateMutability": "nonpayable",
      "type": "constructor"
    },
    {
      "payable": true,
      "stateMutability": "payable",
      "type": "fallback"
    },
    {
      "anonymous": false,
      "inputs": [
        {
          "indexed": true,
          "name": "previousOwner",
          "type": "address"
        },
        {
          "indexed": true,
          "name": "newOwner",
          "type": "address"
        }
      ],
      "name": "OwnershipTransferred",
      "type": "event"
    },
    {
      "anonymous": false,
      "inputs": [
        {
          "indexed": true,
          "name": "from",
          "type": "address"
        },
        {
          "indexed": true,
          "name": "to",
          "type": "address"
        },
        {
          "indexed": false,
          "name": "value",
          "type": "uint256"
        }
      ],
      "name": "Transfer",
      "type": "event"
    },
    {
      "anonymous": false,
      "inputs": [
        {
          "indexed": true,
          "name": "owner",
          "type": "address"
        },
        {
          "indexed": true,
          "name": "spender",
          "type": "address"
        },
        {
          "indexed": false,
          "name": "value",
          "type": "uint256"
        }
      ],
      "name": "Approval",
      "type": "event"
    },
    {
      "constant": true,
      "inputs": [],
      "name": "hasClosed",
      "outputs": [
        {
          "name": "",
          "type": "bool"
        }
      ],
      "payable": false,
      "stateMutability": "view",
      "type": "function"
    },
    {
      "constant": true,
      "inputs": [],
      "name": "capReached",
      "outputs": [
        {
          "name": "",
          "type": "bool"
        }
      ],
      "payable": false,
      "stateMutability": "view",
      "type": "function"
    },
    {
      "constant": true,
      "inputs": [],
      "name": "totalSupply",
      "outputs": [
        {
          "name": "",
          "type": "uint256"
        }
      ],
      "payable": false,
      "stateMutability": "view",
      "type": "function"
    },
    {
      "constant": true,
      "inputs": [
        {
          "name": "_tokenOwner",
          "type": "address"
        }
      ],
      "name": "balanceOf",
      "outputs": [
        {
          "name": "balance",
          "type": "uint256"
        }
      ],
      "payable": false,
      "stateMutability": "view",
      "type": "function"
    },
    {
      "constant": false,
      "inputs": [
        {
          "name": "_to",
          "type": "address"
        },
        {
          "name": "_tokens",
          "type": "uint256"
        }
      ],
      "name": "transfer",
      "outputs": [
        {
          "name": "success",
          "type": "bool"
        }
      ],
      "payable": false,
      "stateMutability": "nonpayable",
      "type": "function"
    },
    {
      "constant": false,
      "inputs": [
        {
          "name": "_spender",
          "type": "address"
        },
        {
          "name": "_tokens",
          "type": "uint256"
        }
      ],
      "name": "approve",
      "outputs": [
        {
          "name": "success",
          "type": "bool"
        }
      ],
      "payable": false,
      "stateMutability": "nonpayable",
      "type": "function"
    },
    {
      "constant": false,
      "inputs": [
        {
          "name": "_from",
          "type": "address"
        },
        {
          "name": "_to",
          "type": "address"
        },
        {
          "name": "_tokens",
          "type": "uint256"
        }
      ],
      "name": "transferFrom",
      "outputs": [
        {
          "name": "success",
          "type": "bool"
        }
      ],
      "payable": false,
      "stateMutability": "nonpayable",
      "type": "function"
    },
    {
      "constant": true,
      "inputs": [
        {
          "name": "_tokenOwner",
          "type": "address"
        },
        {
          "name": "_spender",
          "type": "address"
        }
      ],
      "name": "allowance",
      "outputs": [
        {
          "name": "remaining",
          "type": "uint256"
        }
      ],
      "payable": false,
      "stateMutability": "view",
      "type": "function"
    },
    {
      "constant": false,
      "inputs": [
        {
          "name": "_spender",
          "type": "address"
        },
        {
          "name": "_tokens",
          "type": "uint256"
        },
        {
          "name": "_data",
          "type": "bytes"
        }
      ],
      "name": "approveAndCall",
      "outputs": [
        {
          "name": "success",
          "type": "bool"
        }
      ],
      "payable": false,
      "stateMutability": "nonpayable",
      "type": "function"
    },
    {
      "constant": false,
      "inputs": [
        {
          "name": "_tokenAddress",
          "type": "address"
        },
        {
          "name": "_tokens",
          "type": "uint256"
        }
      ],
      "name": "refund",
      "outputs": [
        {
          "name": "success",
          "type": "bool"
        }
      ],
      "payable": false,
      "stateMutability": "nonpayable",
      "type": "function"
    }
  ],
  "bytecode": "0x6060604052341561000f57600080fd5b60008054600160a060020a03191633600160a060020a031617905560408051908101604052600381527f5057500000000000000000000000000000000000000000000000000000000000602082015260019080516100719291602001906100f8565b5060408051908101604052600f81527f506f7765725069706572546f6b656e0000000000000000000000000000000000602082015260029080516100b99291602001906100f8565b506003805460ff1916601217905562093a8042908101600655624099800160075561138860085568056bc75e2d63100000600a55611770600955610193565b828054600181600116156101000203166002900490600052602060002090601f016020900481019282601f1061013957805160ff1916838001178555610166565b82800160010185558215610166579182015b8281111561016657825182559160200191906001019061014b565b50610172929150610176565b5090565b61019091905b80821115610172576000815560010161017c565b90565b610cc8806101a26000396000f3006060604052600436106101195763ffffffff60e060020a60003504166306fdde038114610267578063095ea7b3146102f15780630b97bc86146103275780631515bc2b1461034c57806318160ddd1461035f57806323b872dd146103725780632c4e722e1461039a578063313ce567146103ad578063355274ea146103d65780633eaaf86b146103e95780634042b66f146103fc57806340c650031461040f578063410085df146104225780634f935945146104445780635af123f41461045757806370a082311461046a5780638da5cb5b1461048957806395d89b41146104b8578063a9059cbb146104cb578063c24a0f8b146104ed578063cae9ca5114610500578063dd62ed3e14610565578063f2fde38b1461058a575b60055434903390600090421080159061013457506007544211155b151561013f57600080fd5b600a5461014e600b54856105ab565b111561015957600080fd5b600160a060020a038216151561016e57600080fd5b82151561017a57600080fd5b600654421161018e57506009543402610195565b5060085434025b600160a060020a0382166000908152600c60205260409020546101b890826105ab565b600160a060020a0383166000908152600c60205260409020556004546101de90826105ab565b600455600160a060020a03821660007fddf252ad1be2c89b69c2b068fc378daa952ba7f163c4a11628f55a4df523b3ef8360405190815260200160405180910390a3600054600160a060020a031683156108fc0284604051600060405180830381858888f19350505050151561025357600080fd5b61025f600b54846105ab565b600b55505050005b341561027257600080fd5b61027a6105c1565b60405160208082528190810183818151815260200191508051906020019080838360005b838110156102b657808201518382015260200161029e565b50505050905090810190601f1680156102e35780820380516001836020036101000a031916815260200191505b509250505060405180910390f35b34156102fc57600080fd5b610313600160a060020a036004351660243561065f565b604051901515815260200160405180910390f35b341561033257600080fd5b61033a6106cb565b60405190815260200160405180910390f35b341561035757600080fd5b6103136106d1565b341561036a57600080fd5b61033a6106d9565b341561037d57600080fd5b610313600160a060020a036004358116906024351660443561070b565b34156103a557600080fd5b61033a61080c565b34156103b857600080fd5b6103c0610812565b60405160ff909116815260200160405180910390f35b34156103e157600080fd5b61033a61081b565b34156103f457600080fd5b61033a610821565b341561040757600080fd5b61033a610827565b341561041a57600080fd5b61033a61082d565b341561042d57600080fd5b610313600160a060020a0360043516602435610833565b341561044f57600080fd5b6103136108c6565b341561046257600080fd5b61033a6108d1565b341561047557600080fd5b61033a600160a060020a03600435166108d7565b341561049457600080fd5b61049c6108f2565b604051600160a060020a03909116815260200160405180910390f35b34156104c357600080fd5b61027a610901565b34156104d657600080fd5b610313600160a060020a036004351660243561096c565b34156104f857600080fd5b61033a610a5b565b341561050b57600080fd5b61031360048035600160a060020a03169060248035919060649060443590810190830135806020601f82018190048102016040519081016040528181529291906020840183838082843750949650610a6195505050505050565b341561057057600080fd5b61033a600160a060020a0360043581169060243516610bc4565b341561059557600080fd5b6105a9600160a060020a0360043516610bef565b005b6000828201838110156105ba57fe5b9392505050565b60028054600181600116156101000203166002900480601f0160208091040260200160405190810160405280929190818152602001828054600181600116156101000203166002900480156106575780601f1061062c57610100808354040283529160200191610657565b820191906000526020600020905b81548152906001019060200180831161063a57829003601f168201915b505050505081565b600160a060020a033381166000818152600d6020908152604080832094871680845294909152808220859055909291907f8c5be1e5ebec7d5bd14f71427d1e84f3dd0314c0f7b2291e5b200ac8c7c3b9259085905190815260200160405180910390a350600192915050565b60055481565b600754421190565b60008052600c6020527f13649b2456f1b42fef0f0040b3aaeabcd21a76a0f3f5defd4f583839455116e8546004540390565b600160a060020a0383166000908152600c602052604081205461072e9083610c8a565b600160a060020a038086166000908152600c6020908152604080832094909455600d815283822033909316825291909152205461076b9083610c8a565b600160a060020a038086166000908152600d6020908152604080832033851684528252808320949094559186168152600c90915220546107ab90836105ab565b600160a060020a038085166000818152600c6020526040908190209390935591908616907fddf252ad1be2c89b69c2b068fc378daa952ba7f163c4a11628f55a4df523b3ef9085905190815260200160405180910390a35060019392505050565b60085481565b60035460ff1681565b600a5481565b60045481565b600b5481565b60065481565b6000805433600160a060020a0390811691161461084f57600080fd5b600054600160a060020a038085169163a9059cbb91168460405160e060020a63ffffffff8516028152600160a060020a0390921660048301526024820152604401602060405180830381600087803b15156108a957600080fd5b5af115156108b657600080fd5b5050506040518051949350505050565b600a54600b54101590565b60095481565b600160a060020a03166000908152600c602052604090205490565b600054600160a060020a031681565b60018054600181600116156101000203166002900480601f0160208091040260200160405190810160405280929190818152602001828054600181600116156101000203166002900480156106575780601f1061062c57610100808354040283529160200191610657565b6000600160a060020a038316151561098357600080fd5b600160a060020a0333166000908152600c60205260409020548211156109a857600080fd5b600160a060020a0333166000908152600c60205260409020546109cb9083610c8a565b600160a060020a033381166000908152600c602052604080822093909355908516815220546109fa90836105ab565b600160a060020a038085166000818152600c602052604090819020939093559133909116907fddf252ad1be2c89b69c2b068fc378daa952ba7f163c4a11628f55a4df523b3ef9085905190815260200160405180910390a350600192915050565b60075481565b600160a060020a033381166000818152600d6020908152604080832094881680845294909152808220869055909291907f8c5be1e5ebec7d5bd14f71427d1e84f3dd0314c0f7b2291e5b200ac8c7c3b9259086905190815260200160405180910390a383600160a060020a0316638f4ffcb1338530866040518563ffffffff1660e060020a0281526004018085600160a060020a0316600160a060020a0316815260200184815260200183600160a060020a0316600160a060020a0316815260200180602001828103825283818151815260200191508051906020019080838360005b83811015610b5c578082015183820152602001610b44565b50505050905090810190601f168015610b895780820380516001836020036101000a031916815260200191505b5095505050505050600060405180830381600087803b1515610baa57600080fd5b5af11515610bb757600080fd5b5060019695505050505050565b600160a060020a039182166000908152600d6020908152604080832093909416825291909152205490565b60005433600160a060020a03908116911614610c0a57600080fd5b600160a060020a0381161515610c1f57600080fd5b600054600160a060020a0380831691167f8be0079c531659141344cd1fd0a4f28419497f9722a3daafe3b4186f6b6457e060405160405180910390a36000805473ffffffffffffffffffffffffffffffffffffffff1916600160a060020a0392909216919091179055565b600082821115610c9657fe5b509003905600a165627a7a723058200788ba3fe6e9065a6c87f436af9ace1716dcdee6aaf146c23e713be3a5952bc80029",
  "source": "pragma solidity ^0.4.21;\r\n\r\nimport \"./zeppelin/Ownable.sol\";\r\nimport \"./zeppelin/ERC20.sol\";\r\nimport \"./zeppelin/ApproveAndCallFallBack.sol\";\r\nimport \"./zeppelin/SafeMath.sol\";\r\n\r\ncontract PowerPiperCrowdsale is ERC20, Ownable {\r\n    using SafeMath for uint;\r\n\r\n    string public symbol;\r\n    string public  name;\r\n    uint8 public decimals;\r\n    uint public _totalSupply;\r\n    uint public startDate;\r\n    uint public bonusEnds;\r\n    uint public endDate;\r\n    uint public rate;\r\n    uint public bonusRate;\r\n    uint public cap;\r\n    uint public weiRaised;\r\n\r\n    mapping(address => uint) balances;\r\n    mapping(address => mapping(address => uint)) allowed;\r\n\r\n    function PowerPiperCrowdsale() public {\r\n        symbol = \"PWP\";\r\n        name = \"PowerPiperToken\";\r\n        decimals = 18;\r\n        bonusEnds = now + 1 weeks;\r\n        endDate = now + 7 weeks;\r\n        rate = 5000;\r\n        cap = 100 ether;\r\n        bonusRate = 6000;\r\n    }\r\n\r\n    function hasClosed() public view returns (bool) {\r\n        return now > endDate;\r\n    }\r\n\r\n    function capReached() public view returns (bool) {\r\n        return weiRaised >= cap;\r\n    }\r\n\r\n    function totalSupply() public constant returns (uint) {\r\n        return _totalSupply  - balances[address(0)];\r\n    }\r\n\r\n    function balanceOf(address _tokenOwner) public constant returns (uint balance) {\r\n        return balances[_tokenOwner];\r\n    }\r\n\r\n    function transfer(address _to, uint _tokens) public returns (bool success) {\r\n        require(_to != address(0));\r\n        require(_tokens <= balances[msg.sender]);\r\n\r\n        balances[msg.sender] = SafeMath.sub(balances[msg.sender], _tokens);\r\n        balances[_to] = SafeMath.add(balances[_to], _tokens);\r\n        emit Transfer(msg.sender, _to, _tokens);\r\n        return true;\r\n    }\r\n\r\n    function approve(address _spender, uint _tokens) public returns (bool success) {\r\n        allowed[msg.sender][_spender] = _tokens;\r\n        emit Approval(msg.sender, _spender, _tokens);\r\n        return true;\r\n    }\r\n\r\n    function transferFrom(address _from, address _to, uint _tokens) public returns (bool success) {\r\n        balances[_from] = SafeMath.sub(balances[_from], _tokens);\r\n        allowed[_from][msg.sender] = SafeMath.sub(allowed[_from][msg.sender], _tokens);\r\n        balances[_to] = SafeMath.add(balances[_to], _tokens);\r\n        emit Transfer(_from, _to, _tokens);\r\n        return true;\r\n    }\r\n\r\n    function allowance(address _tokenOwner, address _spender) public constant returns (uint remaining) {\r\n        return allowed[_tokenOwner][_spender];\r\n    }\r\n\r\n    function approveAndCall(address _spender, uint _tokens, bytes _data) public returns (bool success) {\r\n        allowed[msg.sender][_spender] = _tokens;\r\n        emit Approval(msg.sender, _spender, _tokens);\r\n        ApproveAndCallFallBack(_spender).receiveApproval(msg.sender, _tokens, this, _data);\r\n        return true;\r\n    }\r\n\r\n    function () public payable {\r\n        uint256 _weiAmount = msg.value;\r\n        address _beneficiary = msg.sender;\r\n\r\n        require(now >= startDate && now <= endDate);\r\n        require(SafeMath.add(weiRaised, _weiAmount) <= cap);\r\n        require(_beneficiary != address(0));\r\n        require(_weiAmount != 0);\r\n\r\n        uint tokens;\r\n\r\n        if (now <= bonusEnds) {\r\n            tokens = msg.value * bonusRate;\r\n        } else {\r\n            tokens = msg.value * rate;\r\n        }\r\n\r\n        balances[_beneficiary] = SafeMath.add(balances[_beneficiary], tokens);\r\n        _totalSupply = SafeMath.add(_totalSupply, tokens);\r\n        emit Transfer(address(0), _beneficiary, tokens);\r\n        owner.transfer(_weiAmount);\r\n        weiRaised = SafeMath.add(weiRaised, _weiAmount);\r\n    }\r\n\r\n    function refund(address _tokenAddress, uint _tokens) public onlyOwner returns (bool success) {\r\n        return ERC20(_tokenAddress).transfer(owner, _tokens);\r\n    }\r\n}\r\n",
  "sourcePath": "C:\\Users\\DXenu\\Desktop\\box\\demo_contract\\contracts\\PowerPiperCrowdsale.sol",
  "compiler": {
    "name": "solc",
    "version": "0.4.21+commit.dfe3193c.Emscripten.clang"
  },
  "schemaVersion": "2.0.0",
  "updatedAt": "2018-04-14T20:10:57.734Z"
}