{
  "contractName": "PowerPiperToken",
  "abi": [
    {
      "constant": false,
      "inputs": [
        {
          "name": "_addr",
          "type": "address"
        },
        {
          "name": "_userAddr",
          "type": "address"
        }
      ],
      "name": "deletePlace",
      "outputs": [
        {
          "name": "index",
          "type": "uint256"
        }
      ],
      "payable": false,
      "stateMutability": "nonpayable",
      "type": "function"
    },
    {
      "constant": true,
      "inputs": [],
      "name": "mintingFinished",
      "outputs": [
        {
          "name": "",
          "type": "bool"
        }
      ],
      "payable": false,
      "stateMutability": "view",
      "type": "function"
    },
    {
      "constant": true,
      "inputs": [],
      "name": "name",
      "outputs": [
        {
          "name": "",
          "type": "string"
        }
      ],
      "payable": false,
      "stateMutability": "view",
      "type": "function"
    },
    {
      "constant": false,
      "inputs": [
        {
          "name": "_spender",
          "type": "address"
        },
        {
          "name": "_value",
          "type": "uint256"
        }
      ],
      "name": "approve",
      "outputs": [
        {
          "name": "",
          "type": "bool"
        }
      ],
      "payable": false,
      "stateMutability": "nonpayable",
      "type": "function"
    },
    {
      "constant": true,
      "inputs": [
        {
          "name": "_addr",
          "type": "address"
        }
      ],
      "name": "getPlace",
      "outputs": [
        {
          "name": "index",
          "type": "uint256"
        },
        {
          "name": "msq",
          "type": "uint8"
        },
        {
          "name": "kwh",
          "type": "uint8"
        },
        {
          "name": "price",
          "type": "uint16"
        },
        {
          "name": "userId",
          "type": "address"
        }
      ],
      "payable": false,
      "stateMutability": "view",
      "type": "function"
    },
    {
      "constant": false,
      "inputs": [
        {
          "name": "token",
          "type": "address"
        }
      ],
      "name": "reclaimToken",
      "outputs": [],
      "payable": false,
      "stateMutability": "nonpayable",
      "type": "function"
    },
    {
      "constant": true,
      "inputs": [],
      "name": "totalSupply",
      "outputs": [
        {
          "name": "",
          "type": "uint256"
        }
      ],
      "payable": false,
      "stateMutability": "view",
      "type": "function"
    },
    {
      "constant": false,
      "inputs": [
        {
          "name": "_addr",
          "type": "address"
        },
        {
          "name": "_userAddr",
          "type": "address"
        }
      ],
      "name": "deleteEquipment",
      "outputs": [
        {
          "name": "index",
          "type": "uint256"
        }
      ],
      "payable": false,
      "stateMutability": "nonpayable",
      "type": "function"
    },
    {
      "constant": false,
      "inputs": [
        {
          "name": "_addr",
          "type": "address"
        },
        {
          "name": "_userAddr",
          "type": "address"
        },
        {
          "name": "_kwh",
          "type": "uint8"
        },
        {
          "name": "_price",
          "type": "uint16"
        }
      ],
      "name": "updateEquipment",
      "outputs": [
        {
          "name": "",
          "type": "bool"
        }
      ],
      "payable": false,
      "stateMutability": "nonpayable",
      "type": "function"
    },
    {
      "constant": true,
      "inputs": [
        {
          "name": "index",
          "type": "uint256"
        }
      ],
      "name": "getEquipmentAtIndex",
      "outputs": [
        {
          "name": "_addr",
          "type": "address"
        }
      ],
      "payable": false,
      "stateMutability": "view",
      "type": "function"
    },
    {
      "constant": false,
      "inputs": [
        {
          "name": "_from",
          "type": "address"
        },
        {
          "name": "_to",
          "type": "address"
        },
        {
          "name": "_value",
          "type": "uint256"
        }
      ],
      "name": "transferFrom",
      "outputs": [
        {
          "name": "",
          "type": "bool"
        }
      ],
      "payable": false,
      "stateMutability": "nonpayable",
      "type": "function"
    },
    {
      "constant": true,
      "inputs": [
        {
          "name": "_addr",
          "type": "address"
        }
      ],
      "name": "existsPlace",
      "outputs": [
        {
          "name": "isIndexed",
          "type": "bool"
        }
      ],
      "payable": false,
      "stateMutability": "view",
      "type": "function"
    },
    {
      "constant": false,
      "inputs": [
        {
          "name": "contractAddr",
          "type": "address"
        }
      ],
      "name": "reclaimContract",
      "outputs": [],
      "payable": false,
      "stateMutability": "nonpayable",
      "type": "function"
    },
    {
      "constant": true,
      "inputs": [],
      "name": "rate",
      "outputs": [
        {
          "name": "",
          "type": "uint256"
        }
      ],
      "payable": false,
      "stateMutability": "view",
      "type": "function"
    },
    {
      "constant": true,
      "inputs": [],
      "name": "decimals",
      "outputs": [
        {
          "name": "",
          "type": "uint8"
        }
      ],
      "payable": false,
      "stateMutability": "view",
      "type": "function"
    },
    {
      "constant": false,
      "inputs": [
        {
          "name": "_to",
          "type": "address"
        },
        {
          "name": "_amount",
          "type": "uint256"
        }
      ],
      "name": "mint",
      "outputs": [
        {
          "name": "",
          "type": "bool"
        }
      ],
      "payable": false,
      "stateMutability": "nonpayable",
      "type": "function"
    },
    {
      "constant": true,
      "inputs": [],
      "name": "energyPriceMarkup",
      "outputs": [
        {
          "name": "",
          "type": "uint256"
        }
      ],
      "payable": false,
      "stateMutability": "view",
      "type": "function"
    },
    {
      "constant": false,
      "inputs": [
        {
          "name": "_addr",
          "type": "address"
        }
      ],
      "name": "deleteUser",
      "outputs": [
        {
          "name": "index",
          "type": "uint256"
        }
      ],
      "payable": false,
      "stateMutability": "nonpayable",
      "type": "function"
    },
    {
      "constant": false,
      "inputs": [
        {
          "name": "_spender",
          "type": "address"
        },
        {
          "name": "_subtractedValue",
          "type": "uint256"
        }
      ],
      "name": "decreaseApproval",
      "outputs": [
        {
          "name": "",
          "type": "bool"
        }
      ],
      "payable": false,
      "stateMutability": "nonpayable",
      "type": "function"
    },
    {
      "constant": true,
      "inputs": [],
      "name": "getPlaceCount",
      "outputs": [
        {
          "name": "count",
          "type": "uint256"
        }
      ],
      "payable": false,
      "stateMutability": "view",
      "type": "function"
    },
    {
      "constant": true,
      "inputs": [
        {
          "name": "_addr",
          "type": "address"
        }
      ],
      "name": "getUser",
      "outputs": [
        {
          "name": "index",
          "type": "uint256"
        },
        {
          "name": "email",
          "type": "bytes32"
        },
        {
          "name": "firstName",
          "type": "bytes32"
        },
        {
          "name": "lastName",
          "type": "bytes32"
        }
      ],
      "payable": false,
      "stateMutability": "view",
      "type": "function"
    },
    {
      "constant": true,
      "inputs": [
        {
          "name": "_owner",
          "type": "address"
        }
      ],
      "name": "balanceOf",
      "outputs": [
        {
          "name": "balance",
          "type": "uint256"
        }
      ],
      "payable": false,
      "stateMutability": "view",
      "type": "function"
    },
    {
      "constant": true,
      "inputs": [
        {
          "name": "_addr",
          "type": "address"
        }
      ],
      "name": "getEquipment",
      "outputs": [
        {
          "name": "index",
          "type": "uint256"
        },
        {
          "name": "kwh",
          "type": "uint8"
        },
        {
          "name": "price",
          "type": "uint16"
        },
        {
          "name": "userId",
          "type": "address"
        }
      ],
      "payable": false,
      "stateMutability": "view",
      "type": "function"
    },
    {
      "constant": false,
      "inputs": [],
      "name": "finishMinting",
      "outputs": [
        {
          "name": "",
          "type": "bool"
        }
      ],
      "payable": false,
      "stateMutability": "nonpayable",
      "type": "function"
    },
    {
      "constant": true,
      "inputs": [],
      "name": "owner",
      "outputs": [
        {
          "name": "",
          "type": "address"
        }
      ],
      "payable": false,
      "stateMutability": "view",
      "type": "function"
    },
    {
      "constant": true,
      "inputs": [],
      "name": "symbol",
      "outputs": [
        {
          "name": "",
          "type": "string"
        }
      ],
      "payable": false,
      "stateMutability": "view",
      "type": "function"
    },
    {
      "constant": false,
      "inputs": [
        {
          "name": "_addr",
          "type": "address"
        },
        {
          "name": "_email",
          "type": "bytes32"
        },
        {
          "name": "_firstName",
          "type": "bytes32"
        },
        {
          "name": "_lastName",
          "type": "bytes32"
        }
      ],
      "name": "updateUser",
      "outputs": [
        {
          "name": "",
          "type": "bool"
        }
      ],
      "payable": false,
      "stateMutability": "nonpayable",
      "type": "function"
    },
    {
      "constant": false,
      "inputs": [],
      "name": "reclaimEther",
      "outputs": [],
      "payable": false,
      "stateMutability": "nonpayable",
      "type": "function"
    },
    {
      "constant": false,
      "inputs": [
        {
          "name": "_to",
          "type": "address"
        },
        {
          "name": "_value",
          "type": "uint256"
        }
      ],
      "name": "transfer",
      "outputs": [
        {
          "name": "",
          "type": "bool"
        }
      ],
      "payable": false,
      "stateMutability": "nonpayable",
      "type": "function"
    },
    {
      "constant": true,
      "inputs": [],
      "name": "getUserCount",
      "outputs": [
        {
          "name": "count",
          "type": "uint256"
        }
      ],
      "payable": false,
      "stateMutability": "view",
      "type": "function"
    },
    {
      "constant": true,
      "inputs": [
        {
          "name": "from_",
          "type": "address"
        },
        {
          "name": "value_",
          "type": "uint256"
        },
        {
          "name": "data_",
          "type": "bytes"
        }
      ],
      "name": "tokenFallback",
      "outputs": [],
      "payable": false,
      "stateMutability": "pure",
      "type": "function"
    },
    {
      "constant": false,
      "inputs": [
        {
          "name": "_addr",
          "type": "address"
        },
        {
          "name": "_userAddr",
          "type": "address"
        },
        {
          "name": "_msq",
          "type": "uint8"
        },
        {
          "name": "_kwh",
          "type": "uint8"
        },
        {
          "name": "_price",
          "type": "uint16"
        }
      ],
      "name": "updatePlace",
      "outputs": [
        {
          "name": "",
          "type": "bool"
        }
      ],
      "payable": false,
      "stateMutability": "nonpayable",
      "type": "function"
    },
    {
      "constant": false,
      "inputs": [
        {
          "name": "_spender",
          "type": "address"
        },
        {
          "name": "_addedValue",
          "type": "uint256"
        }
      ],
      "name": "increaseApproval",
      "outputs": [
        {
          "name": "",
          "type": "bool"
        }
      ],
      "payable": false,
      "stateMutability": "nonpayable",
      "type": "function"
    },
    {
      "constant": true,
      "inputs": [
        {
          "name": "_owner",
          "type": "address"
        },
        {
          "name": "_spender",
          "type": "address"
        }
      ],
      "name": "allowance",
      "outputs": [
        {
          "name": "",
          "type": "uint256"
        }
      ],
      "payable": false,
      "stateMutability": "view",
      "type": "function"
    },
    {
      "constant": true,
      "inputs": [],
      "name": "fee",
      "outputs": [
        {
          "name": "",
          "type": "uint256"
        }
      ],
      "payable": false,
      "stateMutability": "view",
      "type": "function"
    },
    {
      "constant": false,
      "inputs": [
        {
          "name": "_addr",
          "type": "address"
        },
        {
          "name": "_userAddr",
          "type": "address"
        },
        {
          "name": "_kwh",
          "type": "uint8"
        },
        {
          "name": "_price",
          "type": "uint16"
        }
      ],
      "name": "newEquipment",
      "outputs": [
        {
          "name": "index",
          "type": "uint256"
        }
      ],
      "payable": false,
      "stateMutability": "nonpayable",
      "type": "function"
    },
    {
      "constant": true,
      "inputs": [
        {
          "name": "_addr",
          "type": "address"
        }
      ],
      "name": "existsEquipment",
      "outputs": [
        {
          "name": "isIndexed",
          "type": "bool"
        }
      ],
      "payable": false,
      "stateMutability": "view",
      "type": "function"
    },
    {
      "constant": true,
      "inputs": [
        {
          "name": "index",
          "type": "uint256"
        }
      ],
      "name": "getPlaceAtIndex",
      "outputs": [
        {
          "name": "_addr",
          "type": "address"
        }
      ],
      "payable": false,
      "stateMutability": "view",
      "type": "function"
    },
    {
      "constant": false,
      "inputs": [
        {
          "name": "newOwner",
          "type": "address"
        }
      ],
      "name": "transferOwnership",
      "outputs": [],
      "payable": false,
      "stateMutability": "nonpayable",
      "type": "function"
    },
    {
      "constant": true,
      "inputs": [
        {
          "name": "_addr",
          "type": "address"
        }
      ],
      "name": "existsUser",
      "outputs": [
        {
          "name": "isIndexed",
          "type": "bool"
        }
      ],
      "payable": false,
      "stateMutability": "view",
      "type": "function"
    },
    {
      "constant": false,
      "inputs": [
        {
          "name": "_addr",
          "type": "address"
        },
        {
          "name": "_email",
          "type": "bytes32"
        },
        {
          "name": "_firstName",
          "type": "bytes32"
        },
        {
          "name": "_lastName",
          "type": "bytes32"
        }
      ],
      "name": "newtUser",
      "outputs": [
        {
          "name": "index",
          "type": "uint256"
        }
      ],
      "payable": false,
      "stateMutability": "nonpayable",
      "type": "function"
    },
    {
      "constant": false,
      "inputs": [
        {
          "name": "_addr",
          "type": "address"
        },
        {
          "name": "_userAddr",
          "type": "address"
        },
        {
          "name": "_msq",
          "type": "uint8"
        },
        {
          "name": "_kwh",
          "type": "uint8"
        },
        {
          "name": "_price",
          "type": "uint16"
        }
      ],
      "name": "newPlace",
      "outputs": [
        {
          "name": "index",
          "type": "uint256"
        }
      ],
      "payable": false,
      "stateMutability": "nonpayable",
      "type": "function"
    },
    {
      "constant": true,
      "inputs": [],
      "name": "getEquipmentCount",
      "outputs": [
        {
          "name": "count",
          "type": "uint256"
        }
      ],
      "payable": false,
      "stateMutability": "view",
      "type": "function"
    },
    {
      "constant": true,
      "inputs": [
        {
          "name": "index",
          "type": "uint256"
        }
      ],
      "name": "getUserAtIndex",
      "outputs": [
        {
          "name": "_addr",
          "type": "address"
        }
      ],
      "payable": false,
      "stateMutability": "view",
      "type": "function"
    },
    {
      "inputs": [
        {
          "name": "_initialAmount",
          "type": "uint256"
        }
      ],
      "payable": false,
      "stateMutability": "nonpayable",
      "type": "constructor"
    },
    {
      "payable": false,
      "stateMutability": "nonpayable",
      "type": "fallback"
    },
    {
      "anonymous": false,
      "inputs": [
        {
          "indexed": true,
          "name": "_addr",
          "type": "address"
        },
        {
          "indexed": true,
          "name": "_userAddr",
          "type": "address"
        },
        {
          "indexed": false,
          "name": "_index",
          "type": "uint256"
        },
        {
          "indexed": false,
          "name": "_msq",
          "type": "uint8"
        },
        {
          "indexed": false,
          "name": "_kwh",
          "type": "uint8"
        },
        {
          "indexed": false,
          "name": "_price",
          "type": "uint16"
        }
      ],
      "name": "NewPlace",
      "type": "event"
    },
    {
      "anonymous": false,
      "inputs": [
        {
          "indexed": true,
          "name": "_addr",
          "type": "address"
        },
        {
          "indexed": true,
          "name": "_userAddr",
          "type": "address"
        },
        {
          "indexed": false,
          "name": "_index",
          "type": "uint256"
        },
        {
          "indexed": false,
          "name": "_msq",
          "type": "uint8"
        },
        {
          "indexed": false,
          "name": "_kwh",
          "type": "uint8"
        },
        {
          "indexed": false,
          "name": "_price",
          "type": "uint16"
        }
      ],
      "name": "UpdatePlace",
      "type": "event"
    },
    {
      "anonymous": false,
      "inputs": [
        {
          "indexed": true,
          "name": "_addr",
          "type": "address"
        },
        {
          "indexed": false,
          "name": "_index",
          "type": "uint256"
        }
      ],
      "name": "DeletePlace",
      "type": "event"
    },
    {
      "anonymous": false,
      "inputs": [
        {
          "indexed": true,
          "name": "_addr",
          "type": "address"
        },
        {
          "indexed": true,
          "name": "_userAddr",
          "type": "address"
        },
        {
          "indexed": false,
          "name": "_index",
          "type": "uint256"
        },
        {
          "indexed": false,
          "name": "_kwh",
          "type": "uint8"
        },
        {
          "indexed": false,
          "name": "_price",
          "type": "uint16"
        }
      ],
      "name": "NewEquipment",
      "type": "event"
    },
    {
      "anonymous": false,
      "inputs": [
        {
          "indexed": true,
          "name": "_addr",
          "type": "address"
        },
        {
          "indexed": true,
          "name": "_userAddr",
          "type": "address"
        },
        {
          "indexed": false,
          "name": "_index",
          "type": "uint256"
        },
        {
          "indexed": false,
          "name": "_kwh",
          "type": "uint8"
        },
        {
          "indexed": false,
          "name": "_price",
          "type": "uint16"
        }
      ],
      "name": "UpdateEquipment",
      "type": "event"
    },
    {
      "anonymous": false,
      "inputs": [
        {
          "indexed": true,
          "name": "_addr",
          "type": "address"
        },
        {
          "indexed": false,
          "name": "_index",
          "type": "uint256"
        }
      ],
      "name": "DeleteEquipment",
      "type": "event"
    },
    {
      "anonymous": false,
      "inputs": [
        {
          "indexed": true,
          "name": "_addr",
          "type": "address"
        },
        {
          "indexed": false,
          "name": "_index",
          "type": "uint256"
        },
        {
          "indexed": false,
          "name": "_email",
          "type": "bytes32"
        },
        {
          "indexed": false,
          "name": "_firstName",
          "type": "bytes32"
        },
        {
          "indexed": false,
          "name": "_lastName",
          "type": "bytes32"
        }
      ],
      "name": "NewUser",
      "type": "event"
    },
    {
      "anonymous": false,
      "inputs": [
        {
          "indexed": true,
          "name": "_addr",
          "type": "address"
        },
        {
          "indexed": false,
          "name": "_index",
          "type": "uint256"
        },
        {
          "indexed": false,
          "name": "_email",
          "type": "bytes32"
        },
        {
          "indexed": false,
          "name": "_firstName",
          "type": "bytes32"
        },
        {
          "indexed": false,
          "name": "_lastName",
          "type": "bytes32"
        }
      ],
      "name": "UpdateUser",
      "type": "event"
    },
    {
      "anonymous": false,
      "inputs": [
        {
          "indexed": true,
          "name": "_addr",
          "type": "address"
        },
        {
          "indexed": false,
          "name": "_index",
          "type": "uint256"
        }
      ],
      "name": "DeleteUser",
      "type": "event"
    },
    {
      "anonymous": false,
      "inputs": [
        {
          "indexed": true,
          "name": "to",
          "type": "address"
        },
        {
          "indexed": false,
          "name": "amount",
          "type": "uint256"
        }
      ],
      "name": "Mint",
      "type": "event"
    },
    {
      "anonymous": false,
      "inputs": [],
      "name": "MintFinished",
      "type": "event"
    },
    {
      "anonymous": false,
      "inputs": [
        {
          "indexed": true,
          "name": "previousOwner",
          "type": "address"
        },
        {
          "indexed": true,
          "name": "newOwner",
          "type": "address"
        }
      ],
      "name": "OwnershipTransferred",
      "type": "event"
    },
    {
      "anonymous": false,
      "inputs": [
        {
          "indexed": true,
          "name": "from",
          "type": "address"
        },
        {
          "indexed": true,
          "name": "to",
          "type": "address"
        },
        {
          "indexed": false,
          "name": "value",
          "type": "uint256"
        }
      ],
      "name": "Transfer",
      "type": "event"
    },
    {
      "anonymous": false,
      "inputs": [
        {
          "indexed": true,
          "name": "owner",
          "type": "address"
        },
        {
          "indexed": true,
          "name": "spender",
          "type": "address"
        },
        {
          "indexed": false,
          "name": "value",
          "type": "uint256"
        }
      ],
      "name": "Approval",
      "type": "event"
    },
    {
      "constant": true,
      "inputs": [],
      "name": "getEnergyPriceMarkup",
      "outputs": [
        {
          "name": "",
          "type": "uint256"
        }
      ],
      "payable": false,
      "stateMutability": "view",
      "type": "function"
    },
    {
      "constant": true,
      "inputs": [],
      "name": "getRate",
      "outputs": [
        {
          "name": "",
          "type": "uint256"
        }
      ],
      "payable": false,
      "stateMutability": "view",
      "type": "function"
    },
    {
      "constant": true,
      "inputs": [],
      "name": "getFee",
      "outputs": [
        {
          "name": "",
          "type": "uint256"
        }
      ],
      "payable": false,
      "stateMutability": "view",
      "type": "function"
    },
    {
      "constant": true,
      "inputs": [
        {
          "name": "_amount",
          "type": "uint256"
        }
      ],
      "name": "calculateFee",
      "outputs": [
        {
          "name": "",
          "type": "uint256"
        }
      ],
      "payable": false,
      "stateMutability": "view",
      "type": "function"
    },
    {
      "constant": false,
      "inputs": [
        {
          "name": "_fee",
          "type": "uint256"
        }
      ],
      "name": "setNewFee",
      "outputs": [],
      "payable": false,
      "stateMutability": "nonpayable",
      "type": "function"
    },
    {
      "constant": false,
      "inputs": [
        {
          "name": "_priceMarkup",
          "type": "uint256"
        }
      ],
      "name": "setPriceMarkup",
      "outputs": [
        {
          "name": "",
          "type": "uint256"
        }
      ],
      "payable": false,
      "stateMutability": "nonpayable",
      "type": "function"
    }
  ],
  "bytecode": "0x60606040526003805460a060020a60ff021916905561012c600a556103e8600b55611388600c55341561003157600080fd5b60405160208061253e8339810160405280805160038054600160a060020a03191633600160a060020a0316179055915050341561006d57600080fd5b600160a060020a0333166000908152602081905260409020819055600d556124a48061009a6000396000f3006060604052600436106102425763ffffffff60e060020a60003504166304af4860811461024f57806305d2035b1461028657806306fdde03146102ad578063095ea7b314610337578063142478d61461035957806317ffc320146103bb57806318160ddd146103da5780631a4f36c5146103ed5780631aeb4c5614610412578063216d9fce1461044457806323b872dd146104765780632a2bb4c41461049e5780632aed7f3f146104bd5780632c4e722e146104dc578063313ce567146104ef57806340c10f191461051857806349d531581461053a5780635c60f2261461054d578063661884631461056c578063679aefce1461058e5780636f75cada146105a15780636f77926b146105b457806370a08231146105ff5780637b2f8f9b1461061e5780637d64bcb4146106775780637f5d695a1461068a5780638da5cb5b1461069d57806395d89b41146106b057806399a5d747146106c35780639bd19ca9146106d95780639f727c2714610701578063a9059cbb14610714578063b5cb15f714610736578063c0ee0b8a14610749578063ced72f8714610778578063d0dafe7e1461078b578063d5bdb6ec146107a1578063d73dd623146107d9578063dd62ed3e146107fb578063ddca3f4314610820578063e9ae769314610833578063ecac117414610865578063f03ba3ee14610884578063f2fde38b1461089a578063f409e87d146108b9578063f4ef90be146108d8578063f53f35ff146108ee578063fa2b259c14610916578063ff67dada1461094e578063ffcc7bbf14610961575b341561024d57600080fd5b005b341561025a57600080fd5b610274600160a060020a0360043581169060243516610977565b60405190815260200160405180910390f35b341561029157600080fd5b610299610b56565b604051901515815260200160405180910390f35b34156102b857600080fd5b6102c0610b77565b60405160208082528190810183818151815260200191508051906020019080838360005b838110156102fc5780820151838201526020016102e4565b50505050905090810190601f1680156103295780820380516001836020036101000a031916815260200191505b509250505060405180910390f35b341561034257600080fd5b610299600160a060020a0360043516602435610bae565b341561036457600080fd5b610378600160a060020a0360043516610c1a565b60405194855260ff93841660208601529190921660408085019190915261ffff9092166060840152600160a060020a0316608083015260a0909101905180910390f35b34156103c657600080fd5b61024d600160a060020a0360043516610c87565b34156103e557600080fd5b610274610d30565b34156103f857600080fd5b610274600160a060020a0360043581169060243516610d36565b341561041d57600080fd5b610299600160a060020a036004358116906024351660ff6044351661ffff60643516610f01565b341561044f57600080fd5b61045a600435611008565b604051600160a060020a03909116815260200160405180910390f35b341561048157600080fd5b610299600160a060020a0360043581169060243516604435611036565b34156104a957600080fd5b610299600160a060020a03600435166111b6565b34156104c857600080fd5b61024d600160a060020a036004351661120e565b34156104e757600080fd5b610274611297565b34156104fa57600080fd5b61050261129d565b60405160ff909116815260200160405180910390f35b341561052357600080fd5b610299600160a060020a03600435166024356112a2565b341561054557600080fd5b6102746113c1565b341561055857600080fd5b610274600160a060020a03600435166113c7565b341561057757600080fd5b610299600160a060020a0360043516602435611585565b341561059957600080fd5b61027461167f565b34156105ac57600080fd5b610274611686565b34156105bf57600080fd5b6105d3600160a060020a036004351661168c565b604051938452602084019290925260408084019190915260608301919091526080909101905180910390f35b341561060a57600080fd5b610274600160a060020a036004351661171f565b341561062957600080fd5b61063d600160a060020a036004351661173a565b60405193845260ff909216602084015261ffff16604080840191909152600160a060020a0390911660608301526080909101905180910390f35b341561068257600080fd5b610299611798565b341561069557600080fd5b610274611845565b34156106a857600080fd5b61045a61184b565b34156106bb57600080fd5b6102c061185a565b34156106ce57600080fd5b610274600435611891565b34156106e457600080fd5b610299600160a060020a03600435166024356044356064356118c2565b341561070c57600080fd5b61024d6119ab565b341561071f57600080fd5b610299600160a060020a03600435166024356119fe565b341561074157600080fd5b610274611b10565b341561075457600080fd5b61024d60048035600160a060020a0316906024803591604435918201910135611b16565b341561078357600080fd5b610274611b1b565b341561079657600080fd5b610274600435611b21565b34156107ac57600080fd5b610299600160a060020a036004358116906024351660ff6044358116906064351661ffff60843516611b48565b34156107e457600080fd5b610299600160a060020a0360043516602435611c71565b341561080657600080fd5b610274600160a060020a0360043581169060243516611d15565b341561082b57600080fd5b610274611d40565b341561083e57600080fd5b610274600160a060020a036004358116906024351660ff6044351661ffff60643516611d46565b341561087057600080fd5b610299600160a060020a0360043516611f1e565b341561088f57600080fd5b61045a600435611f5a565b34156108a557600080fd5b61024d600160a060020a0360043516611f6b565b34156108c457600080fd5b610299600160a060020a0360043516611ff9565b34156108e357600080fd5b61024d600435612035565b34156108f957600080fd5b610274600160a060020a0360043516602435604435606435612055565b341561092157600080fd5b610274600160a060020a036004358116906024351660ff6044358116906064351661ffff6084351661216c565b341561095957600080fd5b610274612369565b341561096c57600080fd5b61045a60043561236f565b6003546000908190819033600160a060020a0390811691161461099957600080fd5b8380600160a060020a031633600160a060020a03161415156109ba57600080fd5b6109c3866111b6565b15156001146109d157600080fd5b600160a060020a03861660009081526008602052604090205460098054919450906000198101908110610a0057fe5b60009182526020909120015460098054600160a060020a039092169350839185908110610a2957fe5b60009182526020808320919091018054600160a060020a031916600160a060020a0394851617905591841681526008909152604090208390556009805490610a7590600019830161243b565b5085600160a060020a03167f6c1d95bd25751045e988b768e3e9d37019d92428e694b456cc77d0eb83a49bd18460405190815260200160405180910390a2600160a060020a0382811660008181526008602052604090819020600101546401000000008104909316927f14e6f8ed13bdc5b46b0fec74e94e70b199f0a484e034fb5ab0bb646db34f5f8a91879160ff8082169261010083049091169162010000900461ffff16905193845260ff9283166020850152911660408084019190915261ffff90911660608301526080909101905180910390a35090949350505050565b60035474010000000000000000000000000000000000000000900460ff1681565b60408051908101604052600f81527f506f7765725069706572546f6b656e0000000000000000000000000000000000602082015281565b600160a060020a03338116600081815260026020908152604080832094871680845294909152808220859055909291907f8c5be1e5ebec7d5bd14f71427d1e84f3dd0314c0f7b2291e5b200ac8c7c3b9259085905190815260200160405180910390a350600192915050565b6000806000806000610c2b866111b6565b1515600114610c3957600080fd5b50505050600160a060020a0391821660009081526008602052604090208054600190910154909360ff808316946101008404909116935062010000830461ffff169264010000000090041690565b60035460009033600160a060020a03908116911614610ca557600080fd5b81600160a060020a03166370a082313060405160e060020a63ffffffff8416028152600160a060020a039091166004820152602401602060405180830381600087803b1515610cf357600080fd5b5af11515610d0057600080fd5b5050506040518051600354909250610d2c9150600160a060020a0384811691168363ffffffff61239b16565b5050565b600d5481565b6003546000908190819033600160a060020a03908116911614610d5857600080fd5b8380600160a060020a031633600160a060020a0316141515610d7957600080fd5b610d8286611f1e565b1515600114610d9057600080fd5b600160a060020a03861660009081526006602052604090205460078054919450906000198101908110610dbf57fe5b60009182526020909120015460078054600160a060020a039092169350839185908110610de857fe5b60009182526020808320919091018054600160a060020a031916600160a060020a0394851617905591841681526006909152604090208390556007805490610e3490600019830161243b565b5085600160a060020a03167fd148fe57b3fff28741992aeda9478edbabac766349efe9845531a6c5a49436f18460405190815260200160405180910390a2600160a060020a03828116600081815260066020526040908190206001015463010000008104909316927f0a4c250e9de61a8a976cda60c9c8f15010b642fba1c79edaa71c8a14764d576491879160ff81169161010090910461ffff16905192835260ff909116602083015261ffff166040808301919091526060909101905180910390a35090949350505050565b60035460009033600160a060020a03908116911614610f1f57600080fd5b8380600160a060020a031633600160a060020a0316141515610f4057600080fd5b610f4986611f1e565b1515600114610f5757600080fd5b610f6085611ff9565b1515600114610f6e57600080fd5b600160a060020a038681166000818152600660205260409081902060018101805460ff191660ff8a161762ffff00191661010061ffff8a160217905554928816927f0a4c250e9de61a8a976cda60c9c8f15010b642fba1c79edaa71c8a14764d576491889088905192835260ff909116602083015261ffff166040808301919091526060909101905180910390a350600195945050505050565b600060078281548110151561101957fe5b600091825260209091200154600160a060020a031690505b919050565b6000600160a060020a038316151561104d57600080fd5b600160a060020a03841660009081526020819052604090205482111561107257600080fd5b600160a060020a03808516600090815260026020908152604080832033909416835292905220548211156110a557600080fd5b600160a060020a0384166000908152602081905260409020546110ce908363ffffffff61241316565b600160a060020a038086166000908152602081905260408082209390935590851681522054611103908363ffffffff61242516565b600160a060020a0380851660009081526020818152604080832094909455878316825260028152838220339093168252919091522054611149908363ffffffff61241316565b600160a060020a03808616600081815260026020908152604080832033861684529091529081902093909355908516917fddf252ad1be2c89b69c2b068fc378daa952ba7f163c4a11628f55a4df523b3ef9085905190815260200160405180910390a35060019392505050565b60095460009015156111ca57506000611031565b600160a060020a0382166000818152600860205260409020546009805490919081106111f257fe5b600091825260209091200154600160a060020a03161492915050565b60035460009033600160a060020a0390811691161461122c57600080fd5b506003548190600160a060020a038083169163f2fde38b911660405160e060020a63ffffffff8416028152600160a060020a039091166004820152602401600060405180830381600087803b151561128357600080fd5b5af1151561129057600080fd5b5050505050565b600c5481565b600381565b60035460009033600160a060020a039081169116146112c057600080fd5b60035474010000000000000000000000000000000000000000900460ff16156112e857600080fd5b6001546112fb908363ffffffff61242516565b600155600160a060020a038316600090815260208190526040902054611327908363ffffffff61242516565b600160a060020a0384166000818152602081905260409081902092909255907f0f6798a560793a54c3bcfe86a93cde1e73087d944c0ea20544137d41213968859084905190815260200160405180910390a2600160a060020a03831660007fddf252ad1be2c89b69c2b068fc378daa952ba7f163c4a11628f55a4df523b3ef8460405190815260200160405180910390a350600192915050565b600b5481565b6003546000908190819033600160a060020a039081169116146113e957600080fd5b8380600160a060020a031633600160a060020a031614151561140a57600080fd5b61141385611ff9565b151560011461142157600080fd5b600160a060020a0385166000908152600460205260409020546005805491945090600019810190811061145057fe5b60009182526020909120015460058054600160a060020a03909216935083918590811061147957fe5b60009182526020808320919091018054600160a060020a031916600160a060020a03948516179055918416815260049091526040902083905560058054906114c590600019830161243b565b5084600160a060020a03167f117183c06981515bdfa0b70d0448d8eb6ba07648cda62ab7c2b4361eeff80a1b8460405190815260200160405180910390a2600160a060020a03821660008181526004602052604090819020600181015460028201546003909201547f36cd692caa63e05d06ec64ae3a07dffe3b224fecb32af5fa7bc1469f5bcdde57938893919051938452602084019290925260408084019190915260608301919091526080909101905180910390a250909392505050565b600160a060020a033381166000908152600260209081526040808320938616835292905290812054808311156115e257600160a060020a033381166000908152600260209081526040808320938816835292905290812055611619565b6115f2818463ffffffff61241316565b600160a060020a033381166000908152600260209081526040808320938916835292905220555b600160a060020a0333811660008181526002602090815260408083209489168084529490915290819020547f8c5be1e5ebec7d5bd14f71427d1e84f3dd0314c0f7b2291e5b200ac8c7c3b925915190815260200160405180910390a35060019392505050565b600c545b90565b60095490565b60035460009081908190819033600160a060020a039081169116146116b057600080fd5b8480600160a060020a031633600160a060020a03161415156116d157600080fd5b6116da86611ff9565b15156001146116e857600080fd5b50505050600160a060020a039190911660009081526004602052604090208054600182015460028301546003909301549194909350565b600160a060020a031660009081526020819052604090205490565b60008060008061174985611f1e565b151560011461175757600080fd5b50505050600160a060020a0390811660009081526006602052604090208054600190910154909260ff821692610100830461ffff1692630100000090041690565b60035460009033600160a060020a039081169116146117b657600080fd5b60035474010000000000000000000000000000000000000000900460ff16156117de57600080fd5b6003805474ff00000000000000000000000000000000000000001916740100000000000000000000000000000000000000001790557fae5184fba832cb2b1f702aca6117b8d265eaf03ad33eb133f19dde0f5920fa0860405160405180910390a150600190565b600b5490565b600354600160a060020a031681565b60408051908101604052600381527f5057500000000000000000000000000000000000000000000000000000000000602082015281565b6000806103e8600a5484028115156118a557fe5b0490508015156118b857600191506118bc565b8091505b50919050565b60035460009033600160a060020a039081169116146118e057600080fd5b8480600160a060020a031633600160a060020a031614151561190157600080fd5b84848461190d89611ff9565b151560011461191b57600080fd5b600160a060020a03891660008181526004602052604090819020600181018b9055600281018a905560038101899055547f36cd692caa63e05d06ec64ae3a07dffe3b224fecb32af5fa7bc1469f5bcdde57918b908b908b9051938452602084019290925260408084019190915260608301919091526080909101905180910390a250600198975050505050505050565b60035433600160a060020a039081169116146119c657600080fd5b600354600160a060020a039081169030163180156108fc0290604051600060405180830381858888f1935050505015156119fc57fe5b565b6000600160a060020a0383161515611a1557600080fd5b600160a060020a033316600090815260208190526040902054821115611a3a57600080fd5b600160a060020a033316600090815260208190526040902054611a63908363ffffffff61241316565b600160a060020a033381166000908152602081905260408082209390935590851681522054611a98908363ffffffff61242516565b60008085600160a060020a0316600160a060020a031681526020019081526020016000208190555082600160a060020a031633600160a060020a03167fddf252ad1be2c89b69c2b068fc378daa952ba7f163c4a11628f55a4df523b3ef8460405190815260200160405180910390a350600192915050565b60055490565b600080fd5b600a5490565b60035460009033600160a060020a03908116911614611b3f57600080fd5b600b9190915590565b60035460009033600160a060020a03908116911614611b6657600080fd5b8480600160a060020a031633600160a060020a0316141515611b8757600080fd5b611b90876111b6565b1515600114611b9e57600080fd5b611ba786611ff9565b1515600114611bb557600080fd5b600160a060020a038781166000818152600860205260409081902060018101805460ff191660ff8b81169190911761ff001916610100918b16919091021763ffff000019166201000061ffff8a160217905554928916927f14e6f8ed13bdc5b46b0fec74e94e70b199f0a484e034fb5ab0bb646db34f5f8a918990899089905193845260ff9283166020850152911660408084019190915261ffff90911660608301526080909101905180910390a35060019695505050505050565b600160a060020a033381166000908152600260209081526040808320938616835292905290812054611ca9908363ffffffff61242516565b600160a060020a0333811660008181526002602090815260408083209489168084529490915290819020849055919290917f8c5be1e5ebec7d5bd14f71427d1e84f3dd0314c0f7b2291e5b200ac8c7c3b92591905190815260200160405180910390a350600192915050565b600160a060020a03918216600090815260026020908152604080832093909416825291909152205490565b600a5481565b60035460009033600160a060020a03908116911614611d6457600080fd5b8380600160a060020a031633600160a060020a0316141515611d8557600080fd5b611d8e86611f1e565b15611d9857600080fd5b611da186611ff9565b1515600114611daf57600080fd5b600160a060020a0386811660009081526006602052604090206001908101805460ff191660ff88161762ffff00191661010061ffff8816021776ffffffffffffffffffffffffffffffffffffffff00000019166301000000938916939093029290921790915560078054808301611e26838261243b565b60009283526020808420929092018054600160a060020a031916600160a060020a038c81169182179092558085526006909352604093849020949091039384905588169290917f33e6002de33fb59e2bee761013a061b0a46de2ff5fbc0fe7c5783203ee867ab99190889088905192835260ff909116602083015261ffff166040808301919091526060909101905180910390a3600160a060020a0386166000908152600460205260409020600501805460018101611ee5838261243b565b5060009182526020909120018054600160a060020a038816600160a060020a031990911617905560075460001901915050949350505050565b6007546000901515611f3257506000611031565b600160a060020a0382166000818152600660205260409020546007805490919081106111f257fe5b600060098281548110151561101957fe5b60035433600160a060020a03908116911614611f8657600080fd5b600160a060020a0381161515611f9b57600080fd5b600354600160a060020a0380831691167f8be0079c531659141344cd1fd0a4f28419497f9722a3daafe3b4186f6b6457e060405160405180910390a360038054600160a060020a031916600160a060020a0392909216919091179055565b600554600090151561200d57506000611031565b600160a060020a0382166000818152600460205260409020546005805490919081106111f257fe5b60035433600160a060020a0390811691161461205057600080fd5b600a55565b60008360035433600160a060020a0390811691161461207357600080fd5b838361207e88611ff9565b1561208857600080fd5b600160a060020a03881660009081526004602052604090206001808201899055600282018890556003909101869055600580548083016120c8838261243b565b60009283526020808420929092018054600160a060020a031916600160a060020a038e16908117909155808452600490925260409283902093900392839055917f78b833eacd29aac1183e31c8289157ed550f3b1f9f1526bf2055ef195cac287f918a908a908a9051938452602084019290925260408084019190915260608301919091526080909101905180910390a25050600554600019019695505050505050565b60035460009033600160a060020a0390811691161461218a57600080fd5b8480600160a060020a031633600160a060020a03161415156121ab57600080fd5b6121b4876111b6565b156121be57600080fd5b6121c787611ff9565b15156001146121d557600080fd5b600160a060020a0387811660009081526008602052604090206001908101805460ff191660ff8981169190911761ff001916610100918916919091021763ffff000019166201000061ffff8816021777ffffffffffffffffffffffffffffffffffffffff000000001916640100000000938a16939093029290921790915560098054808301612264838261243b565b60009283526020808420929092018054600160a060020a031916600160a060020a038d81169182179092558085526008909352604093849020949091039384905589169290917f2a4af3dcdaf87b692186cac5b607d155f4e1c99f127fdd97c6a8a257b3a063d191908990899089905193845260ff9283166020850152911660408084019190915261ffff90911660608301526080909101905180910390a3600160a060020a03871660009081526004602081905260409091200180546001810161232f838261243b565b5060009182526020909120018054600160a060020a038916600160a060020a03199091161790556009546000190191505095945050505050565b60075490565b60035460009033600160a060020a0390811691161461238d57600080fd5b600580548390811061101957fe5b82600160a060020a031663a9059cbb838360405160e060020a63ffffffff8516028152600160a060020a0390921660048301526024820152604401602060405180830381600087803b15156123ef57600080fd5b5af115156123fc57600080fd5b50505060405180519050151561240e57fe5b505050565b60008282111561241f57fe5b50900390565b60008282018381101561243457fe5b9392505050565b81548183558181151161240e5760008381526020902061240e91810190830161168391905b808211156124745760008155600101612460565b50905600a165627a7a7230582094391c82a0e56283dcda168fce3113c51ab3341c87fb2090911ad045d9abe1e10029",
  "source": "pragma solidity ^0.4.21;\r\n\r\nimport \"./zeppelin/MintableToken.sol\";\r\nimport \"./zeppelin/NoOwner.sol\";\r\nimport \"./zeppelin/SafeMath.sol\";\r\nimport \"./Management.sol\";\r\n// import \"zeppelin-solidity/contracts/token/ERC20/MintableToken.sol\";\r\n// import \"zeppelin-solidity/contracts/ownership/NoOwner.sol\";\r\n// import \"zeppelin-solidity/contracts/math/SafeMath.sol\";\r\n// import \"./Management.sol\";\r\n\r\n/*\r\n@TODOs:\r\n* adding Management -> +4 failing crowdsale tests\r\n* equipment transfers (?)\r\n* insurance/ escrow\r\n* can't be deleted before contract ends\r\n* ensure contract time-dependency\r\n* getByLocation, getByKWh, ...\r\n* more throurough KYC\r\n* tests\r\n* privacy checks\r\n* encrypt sensitive user data (crypto.js or better)\r\n* ...\r\n*/\r\n\r\ncontract PowerPiperToken is MintableToken, NoOwner, Management {\r\n\r\n    using SafeMath for uint;\r\n\r\n    string public constant name = \"PowerPiperToken\";\r\n    string public constant symbol = \"PWP\";\r\n    uint8 public constant decimals = 3;\r\n    uint public fee = 300; // 300 = 0.3% in 1-digit precision\r\n    uint public energyPriceMarkup = 1000; // 1000 = 1% in 3-digit precision\r\n    uint public rate = 5000;\r\n    // mapping (address => uint256) balances;\r\n    uint256 public totalSupply;\r\n\r\n    function PowerPiperToken(uint256 _initialAmount) public {\r\n        balances[msg.sender] = _initialAmount;\r\n        totalSupply = _initialAmount;\r\n    }\r\n\r\n    function getEnergyPriceMarkup() public constant returns (uint) {\r\n        return energyPriceMarkup;\r\n    }\r\n\r\n    function getRate() public constant returns (uint) {\r\n        return rate;\r\n    }\r\n\r\n    function getFee() public constant returns (uint) {\r\n        return fee;\r\n    }\r\n\r\n    function calculateFee(uint _amount) public view returns (uint) {\r\n        uint feeAmount = _amount * fee / 1000;\r\n\r\n        if (feeAmount == 0) {\r\n            return 1;\r\n        } else {\r\n            return feeAmount;\r\n        }\r\n    }\r\n\r\n    function setNewFee(uint _fee) public onlyOwner {\r\n        fee = _fee;\r\n    }\r\n\r\n    function setPriceMarkup(uint _priceMarkup) public onlyOwner returns (uint) {\r\n        energyPriceMarkup = _priceMarkup;\r\n    }\r\n\r\n}\r\n",
  "sourcePath": "C:\\Users\\DXenu\\Desktop\\box\\demo_contract\\contracts\\PowerPiperToken.sol",
  "compiler": {
    "name": "solc",
    "version": "0.4.21+commit.dfe3193c.Emscripten.clang"
  },
  "schemaVersion": "2.0.0",
  "updatedAt": "2018-04-14T20:10:57.720Z"
}