{
  "contractName": "PowerPiperToken",
  "abi": [
    {
      "constant": true,
      "inputs": [],
      "name": "mintingFinished",
      "outputs": [
        {
          "name": "",
          "type": "bool"
        }
      ],
      "payable": false,
      "stateMutability": "view",
      "type": "function"
    },
    {
      "constant": true,
      "inputs": [],
      "name": "name",
      "outputs": [
        {
          "name": "",
          "type": "bytes32"
        }
      ],
      "payable": false,
      "stateMutability": "view",
      "type": "function"
    },
    {
      "constant": true,
      "inputs": [],
      "name": "decimals",
      "outputs": [
        {
          "name": "",
          "type": "uint256"
        }
      ],
      "payable": false,
      "stateMutability": "view",
      "type": "function"
    },
    {
      "constant": true,
      "inputs": [],
      "name": "priceMarkup",
      "outputs": [
        {
          "name": "",
          "type": "uint256"
        }
      ],
      "payable": false,
      "stateMutability": "view",
      "type": "function"
    },
    {
      "constant": true,
      "inputs": [],
      "name": "validate",
      "outputs": [
        {
          "name": "",
          "type": "bool"
        }
      ],
      "payable": false,
      "stateMutability": "view",
      "type": "function"
    },
    {
      "constant": true,
      "inputs": [],
      "name": "reserves",
      "outputs": [
        {
          "name": "",
          "type": "uint256"
        }
      ],
      "payable": false,
      "stateMutability": "view",
      "type": "function"
    },
    {
      "constant": true,
      "inputs": [],
      "name": "owner",
      "outputs": [
        {
          "name": "",
          "type": "address"
        }
      ],
      "payable": false,
      "stateMutability": "view",
      "type": "function"
    },
    {
      "constant": true,
      "inputs": [],
      "name": "symbol",
      "outputs": [
        {
          "name": "",
          "type": "bytes32"
        }
      ],
      "payable": false,
      "stateMutability": "view",
      "type": "function"
    },
    {
      "constant": true,
      "inputs": [
        {
          "name": "",
          "type": "address"
        }
      ],
      "name": "users",
      "outputs": [
        {
          "name": "index",
          "type": "uint256"
        },
        {
          "name": "hash",
          "type": "string"
        }
      ],
      "payable": false,
      "stateMutability": "view",
      "type": "function"
    },
    {
      "constant": true,
      "inputs": [
        {
          "name": "",
          "type": "address"
        }
      ],
      "name": "places",
      "outputs": [
        {
          "name": "index",
          "type": "uint256"
        },
        {
          "name": "msq",
          "type": "uint256"
        },
        {
          "name": "kwh",
          "type": "uint256"
        },
        {
          "name": "price",
          "type": "uint256"
        },
        {
          "name": "userId",
          "type": "address"
        }
      ],
      "payable": false,
      "stateMutability": "view",
      "type": "function"
    },
    {
      "constant": true,
      "inputs": [
        {
          "name": "",
          "type": "uint256"
        }
      ],
      "name": "userIndex",
      "outputs": [
        {
          "name": "",
          "type": "address"
        }
      ],
      "payable": false,
      "stateMutability": "view",
      "type": "function"
    },
    {
      "constant": true,
      "inputs": [],
      "name": "fee",
      "outputs": [
        {
          "name": "",
          "type": "uint256"
        }
      ],
      "payable": false,
      "stateMutability": "view",
      "type": "function"
    },
    {
      "constant": false,
      "inputs": [
        {
          "name": "newOwner",
          "type": "address"
        }
      ],
      "name": "transferOwnership",
      "outputs": [],
      "payable": false,
      "stateMutability": "nonpayable",
      "type": "function"
    },
    {
      "constant": true,
      "inputs": [
        {
          "name": "",
          "type": "address"
        }
      ],
      "name": "equipments",
      "outputs": [
        {
          "name": "index",
          "type": "uint256"
        },
        {
          "name": "kwh",
          "type": "uint256"
        },
        {
          "name": "price",
          "type": "uint256"
        },
        {
          "name": "userId",
          "type": "address"
        }
      ],
      "payable": false,
      "stateMutability": "view",
      "type": "function"
    },
    {
      "inputs": [],
      "payable": false,
      "stateMutability": "nonpayable",
      "type": "constructor"
    },
    {
      "anonymous": false,
      "inputs": [
        {
          "indexed": true,
          "name": "to",
          "type": "address"
        },
        {
          "indexed": false,
          "name": "amount",
          "type": "uint256"
        }
      ],
      "name": "Mint",
      "type": "event"
    },
    {
      "anonymous": false,
      "inputs": [],
      "name": "MintFinished",
      "type": "event"
    },
    {
      "anonymous": false,
      "inputs": [
        {
          "indexed": true,
          "name": "_from",
          "type": "address"
        },
        {
          "indexed": false,
          "name": "_value",
          "type": "uint256"
        }
      ],
      "name": "DestroyTokens",
      "type": "event"
    },
    {
      "anonymous": false,
      "inputs": [
        {
          "indexed": false,
          "name": "_redeember",
          "type": "address"
        },
        {
          "indexed": false,
          "name": "_amount",
          "type": "uint256"
        },
        {
          "indexed": false,
          "name": "_timestamp",
          "type": "uint256"
        }
      ],
      "name": "RedeemEvent",
      "type": "event"
    },
    {
      "anonymous": false,
      "inputs": [
        {
          "indexed": false,
          "name": "_buyer",
          "type": "address"
        },
        {
          "indexed": false,
          "name": "_amount",
          "type": "uint256"
        },
        {
          "indexed": false,
          "name": "_timestamp",
          "type": "uint256"
        }
      ],
      "name": "BuyDirectEvent",
      "type": "event"
    },
    {
      "anonymous": false,
      "inputs": [
        {
          "indexed": true,
          "name": "_addr",
          "type": "address"
        },
        {
          "indexed": true,
          "name": "_userAddr",
          "type": "address"
        },
        {
          "indexed": false,
          "name": "_index",
          "type": "uint256"
        },
        {
          "indexed": false,
          "name": "_kwh",
          "type": "uint256"
        },
        {
          "indexed": false,
          "name": "_price",
          "type": "uint256"
        }
      ],
      "name": "NewEquipment",
      "type": "event"
    },
    {
      "anonymous": false,
      "inputs": [
        {
          "indexed": true,
          "name": "_addr",
          "type": "address"
        },
        {
          "indexed": true,
          "name": "_userAddr",
          "type": "address"
        },
        {
          "indexed": false,
          "name": "_index",
          "type": "uint256"
        },
        {
          "indexed": false,
          "name": "_kwh",
          "type": "uint256"
        },
        {
          "indexed": false,
          "name": "_price",
          "type": "uint256"
        }
      ],
      "name": "UpdateEquipment",
      "type": "event"
    },
    {
      "anonymous": false,
      "inputs": [
        {
          "indexed": true,
          "name": "_addr",
          "type": "address"
        },
        {
          "indexed": false,
          "name": "_index",
          "type": "uint256"
        }
      ],
      "name": "DeleteEquipment",
      "type": "event"
    },
    {
      "anonymous": false,
      "inputs": [
        {
          "indexed": true,
          "name": "_addr",
          "type": "address"
        },
        {
          "indexed": true,
          "name": "_userAddr",
          "type": "address"
        },
        {
          "indexed": false,
          "name": "_index",
          "type": "uint256"
        },
        {
          "indexed": false,
          "name": "_msq",
          "type": "uint256"
        },
        {
          "indexed": false,
          "name": "_kwh",
          "type": "uint256"
        },
        {
          "indexed": false,
          "name": "_price",
          "type": "uint256"
        }
      ],
      "name": "NewPlace",
      "type": "event"
    },
    {
      "anonymous": false,
      "inputs": [
        {
          "indexed": true,
          "name": "_addr",
          "type": "address"
        },
        {
          "indexed": true,
          "name": "_userAddr",
          "type": "address"
        },
        {
          "indexed": false,
          "name": "_index",
          "type": "uint256"
        },
        {
          "indexed": false,
          "name": "_msq",
          "type": "uint256"
        },
        {
          "indexed": false,
          "name": "_kwh",
          "type": "uint256"
        },
        {
          "indexed": false,
          "name": "_price",
          "type": "uint256"
        }
      ],
      "name": "UpdatePlace",
      "type": "event"
    },
    {
      "anonymous": false,
      "inputs": [
        {
          "indexed": true,
          "name": "_addr",
          "type": "address"
        },
        {
          "indexed": false,
          "name": "_index",
          "type": "uint256"
        }
      ],
      "name": "DeletePlace",
      "type": "event"
    },
    {
      "anonymous": false,
      "inputs": [
        {
          "indexed": true,
          "name": "_addr",
          "type": "address"
        },
        {
          "indexed": false,
          "name": "_index",
          "type": "uint256"
        },
        {
          "indexed": false,
          "name": "_hash",
          "type": "string"
        }
      ],
      "name": "NewUser",
      "type": "event"
    },
    {
      "anonymous": false,
      "inputs": [
        {
          "indexed": true,
          "name": "_addr",
          "type": "address"
        },
        {
          "indexed": false,
          "name": "_index",
          "type": "uint256"
        },
        {
          "indexed": false,
          "name": "_email",
          "type": "bytes32"
        },
        {
          "indexed": false,
          "name": "_firstName",
          "type": "bytes32"
        },
        {
          "indexed": false,
          "name": "_lastName",
          "type": "bytes32"
        }
      ],
      "name": "UpdateUser",
      "type": "event"
    },
    {
      "anonymous": false,
      "inputs": [
        {
          "indexed": true,
          "name": "_addr",
          "type": "address"
        },
        {
          "indexed": false,
          "name": "_index",
          "type": "uint256"
        }
      ],
      "name": "DeleteUser",
      "type": "event"
    },
    {
      "anonymous": false,
      "inputs": [
        {
          "indexed": true,
          "name": "previousOwner",
          "type": "address"
        },
        {
          "indexed": true,
          "name": "newOwner",
          "type": "address"
        }
      ],
      "name": "OwnershipTransferred",
      "type": "event"
    },
    {
      "anonymous": false,
      "inputs": [
        {
          "indexed": true,
          "name": "from",
          "type": "address"
        },
        {
          "indexed": true,
          "name": "to",
          "type": "address"
        },
        {
          "indexed": false,
          "name": "value",
          "type": "uint256"
        }
      ],
      "name": "Transfer",
      "type": "event"
    },
    {
      "anonymous": false,
      "inputs": [
        {
          "indexed": true,
          "name": "owner",
          "type": "address"
        },
        {
          "indexed": true,
          "name": "spender",
          "type": "address"
        },
        {
          "indexed": false,
          "name": "value",
          "type": "uint256"
        }
      ],
      "name": "Approval",
      "type": "event"
    },
    {
      "constant": true,
      "inputs": [
        {
          "name": "_tokenOwner",
          "type": "address"
        }
      ],
      "name": "balanceOf",
      "outputs": [
        {
          "name": "balance",
          "type": "uint256"
        }
      ],
      "payable": false,
      "stateMutability": "view",
      "type": "function"
    },
    {
      "constant": false,
      "inputs": [
        {
          "name": "_to",
          "type": "address"
        },
        {
          "name": "_tokens",
          "type": "uint256"
        }
      ],
      "name": "transfer",
      "outputs": [
        {
          "name": "success",
          "type": "bool"
        }
      ],
      "payable": false,
      "stateMutability": "nonpayable",
      "type": "function"
    },
    {
      "constant": false,
      "inputs": [
        {
          "name": "_spender",
          "type": "address"
        },
        {
          "name": "_tokens",
          "type": "uint256"
        }
      ],
      "name": "approve",
      "outputs": [
        {
          "name": "success",
          "type": "bool"
        }
      ],
      "payable": false,
      "stateMutability": "nonpayable",
      "type": "function"
    },
    {
      "constant": false,
      "inputs": [
        {
          "name": "_from",
          "type": "address"
        },
        {
          "name": "_to",
          "type": "address"
        },
        {
          "name": "_tokens",
          "type": "uint256"
        }
      ],
      "name": "transferFrom",
      "outputs": [
        {
          "name": "success",
          "type": "bool"
        }
      ],
      "payable": false,
      "stateMutability": "nonpayable",
      "type": "function"
    },
    {
      "constant": true,
      "inputs": [
        {
          "name": "_tokenOwner",
          "type": "address"
        },
        {
          "name": "_spender",
          "type": "address"
        }
      ],
      "name": "allowance",
      "outputs": [
        {
          "name": "remaining",
          "type": "uint256"
        }
      ],
      "payable": false,
      "stateMutability": "view",
      "type": "function"
    },
    {
      "constant": true,
      "inputs": [],
      "name": "totalSupply",
      "outputs": [
        {
          "name": "",
          "type": "uint256"
        }
      ],
      "payable": false,
      "stateMutability": "view",
      "type": "function"
    },
    {
      "constant": true,
      "inputs": [
        {
          "name": "_amount",
          "type": "uint256"
        }
      ],
      "name": "calculateFee",
      "outputs": [
        {
          "name": "",
          "type": "uint256"
        }
      ],
      "payable": false,
      "stateMutability": "view",
      "type": "function"
    },
    {
      "constant": false,
      "inputs": [
        {
          "name": "_fee",
          "type": "uint256"
        }
      ],
      "name": "setNewFee",
      "outputs": [],
      "payable": false,
      "stateMutability": "nonpayable",
      "type": "function"
    },
    {
      "constant": false,
      "inputs": [
        {
          "name": "_priceMarkup",
          "type": "uint256"
        }
      ],
      "name": "setPriceMarkup",
      "outputs": [],
      "payable": false,
      "stateMutability": "nonpayable",
      "type": "function"
    },
    {
      "constant": false,
      "inputs": [
        {
          "name": "_to",
          "type": "address"
        },
        {
          "name": "_amount",
          "type": "uint256"
        }
      ],
      "name": "mint",
      "outputs": [
        {
          "name": "",
          "type": "bool"
        }
      ],
      "payable": false,
      "stateMutability": "nonpayable",
      "type": "function"
    },
    {
      "constant": false,
      "inputs": [],
      "name": "finishMinting",
      "outputs": [
        {
          "name": "",
          "type": "bool"
        }
      ],
      "payable": false,
      "stateMutability": "nonpayable",
      "type": "function"
    },
    {
      "constant": false,
      "inputs": [
        {
          "name": "_amount",
          "type": "uint256"
        }
      ],
      "name": "destroyTokens",
      "outputs": [],
      "payable": false,
      "stateMutability": "nonpayable",
      "type": "function"
    },
    {
      "constant": true,
      "inputs": [
        {
          "name": "_addr",
          "type": "address"
        }
      ],
      "name": "existsUser",
      "outputs": [
        {
          "name": "isIndexed",
          "type": "bool"
        }
      ],
      "payable": false,
      "stateMutability": "view",
      "type": "function"
    },
    {
      "constant": false,
      "inputs": [
        {
          "name": "_hash",
          "type": "string"
        }
      ],
      "name": "newUser",
      "outputs": [
        {
          "name": "",
          "type": "bool"
        }
      ],
      "payable": false,
      "stateMutability": "nonpayable",
      "type": "function"
    },
    {
      "constant": true,
      "inputs": [],
      "name": "getUsers",
      "outputs": [
        {
          "name": "",
          "type": "address[]"
        }
      ],
      "payable": false,
      "stateMutability": "view",
      "type": "function"
    },
    {
      "constant": true,
      "inputs": [],
      "name": "getUserCount",
      "outputs": [
        {
          "name": "count",
          "type": "uint256"
        }
      ],
      "payable": false,
      "stateMutability": "view",
      "type": "function"
    },
    {
      "constant": true,
      "inputs": [
        {
          "name": "index",
          "type": "uint256"
        }
      ],
      "name": "getUserAtIndex",
      "outputs": [
        {
          "name": "",
          "type": "uint256"
        },
        {
          "name": "",
          "type": "address"
        },
        {
          "name": "",
          "type": "string"
        }
      ],
      "payable": false,
      "stateMutability": "view",
      "type": "function"
    }
  ],
  "bytecode": "0x60606040526009805460ff191690556000600a55341561001e57600080fd5b60018054600160a060020a03191633600160a060020a03161790557f505750000000000000000000000000000000000000000000000000000000000060039081557f506f7765725069706572546f6b656e00000000000000000000000000000000006002556004556103e86005556113886006556113bb806100a16000396000f3006060604052600436106101895763ffffffff7c0100000000000000000000000000000000000000000000000000000000600035041662ce8e3e811461018e57806305d2035b146101f457806306fdde031461021b578063095ea7b31461024057806318160ddd146102625780631eed11921461027557806323b872dd146102c6578063313ce567146102ee5780633e04619d1461030157806340c10f191461031457806367fbd289146103365780636901f6681461034e57806370a082311461036157806375172a8b146103805780637d64bcb4146103935780638da5cb5b146103a657806395d89b41146103d557806399a5d747146103e8578063a87430ba146103fe578063a9059cbb1461049b578063ab2d479e146104bd578063b5cb15f714610515578063c37dfd6e14610528578063d0dafe7e1461053e578063dd62ed3e14610554578063ddca3f4314610579578063f2fde38b1461058c578063f3c110ea146105ab578063f409e87d146105fe578063f4ef90be1461061d578063ffcc7bbf14610633575b600080fd5b341561019957600080fd5b6101a16106d7565b60405160208082528190810183818151815260200191508051906020019060200280838360005b838110156101e05780820151838201526020016101c8565b505050509050019250505060405180910390f35b34156101ff57600080fd5b610207610740565b604051901515815260200160405180910390f35b341561022657600080fd5b61022e610749565b60405190815260200160405180910390f35b341561024b57600080fd5b610207600160a060020a036004351660243561074f565b341561026d57600080fd5b61022e6107bb565b341561028057600080fd5b61020760046024813581810190830135806020601f820181900481020160405190810160405281815292919060208401838380828437509496506107ec95505050505050565b34156102d157600080fd5b610207600160a060020a0360043581169060243516604435610931565b34156102f957600080fd5b61022e610a9e565b341561030c57600080fd5b61022e610aa4565b341561031f57600080fd5b610207600160a060020a0360043516602435610aaa565b341561034157600080fd5b61034c600435610b89565b005b341561035957600080fd5b610207610c56565b341561036c57600080fd5b61022e600160a060020a0360043516610c6b565b341561038b57600080fd5b61022e610c86565b341561039e57600080fd5b610207610c8c565b34156103b157600080fd5b6103b9610cf9565b604051600160a060020a03909116815260200160405180910390f35b34156103e057600080fd5b61022e610d08565b34156103f357600080fd5b61022e600435610d0e565b341561040957600080fd5b61041d600160a060020a0360043516610d42565b60405182815260406020820181815290820183818151815260200191508051906020019080838360005b8381101561045f578082015183820152602001610447565b50505050905090810190601f16801561048c5780820380516001836020036101000a031916815260200191505b50935050505060405180910390f35b34156104a657600080fd5b610207600160a060020a0360043516602435610dfe565b34156104c857600080fd5b6104dc600160a060020a0360043516610f12565b60405194855260208501939093526040808501929092526060840152600160a060020a03909116608083015260a0909101905180910390f35b341561052057600080fd5b61022e610f4a565b341561053357600080fd5b6103b9600435610f50565b341561054957600080fd5b61034c600435610f78565b341561055f57600080fd5b61022e600160a060020a0360043581169060243516610f98565b341561058457600080fd5b61022e610fc3565b341561059757600080fd5b61034c600160a060020a0360043516610fc9565b34156105b657600080fd5b6105ca600160a060020a0360043516611064565b6040519384526020840192909252604080840191909152600160a060020a0390911660608301526080909101905180910390f35b341561060957600080fd5b610207600160a060020a0360043516611094565b341561062857600080fd5b61034c6004356110ec565b341561063e57600080fd5b61064960043561110c565b604051838152600160a060020a038316602082015260606040820181815290820183818151815260200191508051906020019080838360005b8381101561069a578082015183820152602001610682565b50505050905090810190601f1680156106c75780820380516001836020036101000a031916815260200191505b5094505050505060405180910390f35b6106df6112bc565b601380548060200260200160405190810160405280929190818152602001828054801561073557602002820191906000526020600020905b8154600160a060020a03168152600190910190602001808311610717575b505050505090505b90565b60095460ff1681565b60025481565b600160a060020a03338116600081815260086020908152604080832094871680845294909152808220859055909291907f8c5be1e5ebec7d5bd14f71427d1e84f3dd0314c0f7b2291e5b200ac8c7c3b9259085905190815260200160405180910390a350600192915050565b60008080526020527fad3228b676f7d3cd4284a5443f17f1962b36e491b30a40b2405849e597ba5fb5546007540390565b60006107f733611094565b1561080157600080fd5b601380546001810161081383826112ce565b6000928352602080842092909201805473ffffffffffffffffffffffffffffffffffffffff191633600160a060020a031690811790915583526012909152604090912090815560010182805161086d9291602001906112f7565b50600160a060020a03331660008181526012602052604090819020547f3f5552bae26386a672ea708b076b62b1fb9a9f821b6d35469971faa1dec9a15e9185905182815260406020820181815290820183818151815260200191508051906020019080838360005b838110156108ed5780820151838201526020016108d5565b50505050905090810190601f16801561091a5780820380516001836020036101000a031916815260200191505b50935050505060405180910390a25060015b919050565b6000600160a060020a038316151561094857600080fd5b600160a060020a03841660009081526020819052604090205482111561096d57600080fd5b600160a060020a03808516600090815260086020908152604080832033909416835292905220548211156109a057600080fd5b600160a060020a0384166000908152602081905260409020546109c3908361128e565b600160a060020a0380861660009081526020818152604080832094909455600881528382203390931682529190915220546109fe908361128e565b600160a060020a03808616600090815260086020908152604080832033851684528252808320949094559186168152908190522054610a3d90836112a3565b600160a060020a03808516600081815260208190526040908190209390935591908616907fddf252ad1be2c89b69c2b068fc378daa952ba7f163c4a11628f55a4df523b3ef9085905190815260200160405180910390a35060019392505050565b60045481565b60065481565b60095460009060ff1615610abd57600080fd5b610ac9600754836112a3565b600755600160a060020a038316600090815260208190526040902054610aef90836112a3565b600160a060020a0384166000818152602081905260409081902092909255907f0f6798a560793a54c3bcfe86a93cde1e73087d944c0ea20544137d41213968859084905190815260200160405180910390a2600160a060020a03831660007fddf252ad1be2c89b69c2b068fc378daa952ba7f163c4a11628f55a4df523b3ef8460405190815260200160405180910390a350600192915050565b60015433600160a060020a03908116911614610ba457600080fd5b600160a060020a03331660009081526020819052604090205481901015610bca57600080fd5b600160a060020a033316600090815260208190526040902054610bed908261128e565b600160a060020a033316600090815260208190526040902055600754610c13908261128e565b600755600160a060020a0333167f5800808f79a46b76f108a491008ac316906334adb996175d3053964b8ee12c8e8260405190815260200160405180910390a250565b60015433600160a060020a0390811691161490565b600160a060020a031660009081526020819052604090205490565b600a5481565b60095460009060ff1615610c9f57600080fd5b60015433600160a060020a03908116911614610cba57600080fd5b6009805460ff191660011790557fae5184fba832cb2b1f702aca6117b8d265eaf03ad33eb133f19dde0f5920fa0860405160405180910390a150600190565b600154600160a060020a031681565b60035481565b600080600454600a0a6005548402811515610d2557fe5b049050801515610d385760019150610d3c565b8091505b50919050565b6012602052806000526040600020600091509050806000015490806001018054600181600116156101000203166002900480601f016020809104026020016040519081016040528092919081815260200182805460018160011615610100020316600290048015610df45780601f10610dc957610100808354040283529160200191610df4565b820191906000526020600020905b815481529060010190602001808311610dd757829003601f168201915b5050505050905082565b6000600160a060020a0383161515610e1557600080fd5b600160a060020a0333166000908152602081905260409020548211801590610e3d5750600082115b1515610e4857600080fd5b600160a060020a033316600090815260208190526040902054610e6b908361128e565b600160a060020a033381166000908152602081905260408082209390935590851681522054610e9a90836112a3565b60008085600160a060020a0316600160a060020a031681526020019081526020016000208190555082600160a060020a031633600160a060020a03167fddf252ad1be2c89b69c2b068fc378daa952ba7f163c4a11628f55a4df523b3ef8460405190815260200160405180910390a350600192915050565b6010602052600090815260409020805460018201546002830154600384015460049094015492939192909190600160a060020a031685565b60135490565b6013805482908110610f5e57fe5b600091825260209091200154600160a060020a0316905081565b60015433600160a060020a03908116911614610f9357600080fd5b600655565b600160a060020a03918216600090815260086020908152604080832093909416825291909152205490565b60055481565b60015433600160a060020a03908116911614610fe457600080fd5b600160a060020a0381161515610ff957600080fd5b600154600160a060020a0380831691167f8be0079c531659141344cd1fd0a4f28419497f9722a3daafe3b4186f6b6457e060405160405180910390a36001805473ffffffffffffffffffffffffffffffffffffffff1916600160a060020a0392909216919091179055565b600e60205260009081526040902080546001820154600283015460039093015491929091600160a060020a031684565b60135460009015156110a85750600061092c565b600160a060020a0382166000818152601260205260409020546013805490919081106110d057fe5b600091825260209091200154600160a060020a03161492915050565b60015433600160a060020a0390811691161461110757600080fd5b600555565b6000806111176112bc565b60015433600160a060020a0390811691161461113257600080fd5b6012600060138681548110151561114557fe5b6000918252602080832090910154600160a060020a03168352820192909252604001902054601380548690811061117857fe5b600091825260208220015460138054600160a060020a0390921692601292909190899081106111a357fe5b906000526020600020900160009054906101000a9004600160a060020a0316600160a060020a0316600160a060020a03168152602001908152602001600020600101808054600181600116156101000203166002900480601f01602080910402602001604051908101604052809291908181526020018280546001816001161561010002031660029004801561127a5780601f1061124f5761010080835404028352916020019161127a565b820191906000526020600020905b81548152906001019060200180831161125d57829003601f168201915b505050505090509250925092509193909250565b60008282111561129d57600080fd5b50900390565b6000828201838110156112b557600080fd5b9392505050565b60206040519081016040526000815290565b8154818355818115116112f2576000838152602090206112f2918101908301611375565b505050565b828054600181600116156101000203166002900490600052602060002090601f016020900481019282601f1061133857805160ff1916838001178555611365565b82800160010185558215611365579182015b8281111561136557825182559160200191906001019061134a565b50611371929150611375565b5090565b61073d91905b80821115611371576000815560010161137b5600a165627a7a723058206d09a7dd1b9a27a853eb996f9ccb830e91b78390647ccccebceb2719220bd0220029",
  "source": "pragma solidity ^0.4.21;\r\n\r\nimport \"./zeppelin/SafeMath.sol\";\r\nimport \"./zeppelin/Ownable.sol\";\r\nimport \"./zeppelin/ERC20.sol\";\r\n\r\n\r\ncontract PowerPiperToken is ERC20, Ownable {\r\n\r\n    using SafeMath for uint;\r\n\r\n    struct RedemptionStruct {\r\n        address redeemer;\r\n        string location;\r\n        uint amount;\r\n        uint timestamp;\r\n    }\r\n\r\n    struct OrderStruct {\r\n        address buyer;\r\n        uint amount;\r\n        uint timestamp;\r\n    }\r\n\r\n    struct Cert {\r\n        bytes32 url;\r\n        uint amount;\r\n        uint timestamp;\r\n    }\r\n\r\n    struct EquipmentStruct {\r\n        uint index;\r\n        uint kwh;\r\n        uint price;\r\n        address userId;\r\n    }\r\n\r\n    struct PlaceStruct {\r\n        uint index;\r\n        uint msq;\r\n        uint kwh;\r\n        uint price;\r\n        address userId;\r\n    }\r\n\r\n    struct UserStruct {\r\n        uint index;\r\n        string hash;\r\n    }\r\n\r\n    bytes32 public name;\r\n    bytes32 public symbol;\r\n    uint public decimals;\r\n    uint public fee;\r\n    uint public priceMarkup;\r\n    uint _totalSupply;\r\n    mapping(address => mapping(address => uint)) internal allowed;\r\n    bool public mintingFinished = false;\r\n    uint public reserves = 0;\r\n    RedemptionStruct[] redemptions;\r\n    OrderStruct[] orders;\r\n    Cert[] certificates;\r\n    mapping(address => EquipmentStruct) public equipments;\r\n    address[] private equipmentIndex;\r\n    mapping(address => PlaceStruct) public places;\r\n    address[] private placeIndex;\r\n    mapping(address => UserStruct) public users;\r\n    address[] public userIndex;\r\n\r\n    event Mint(address indexed to, uint amount);\r\n    event MintFinished();\r\n    event DestroyTokens(address indexed _from, uint _value);\r\n    event RedeemEvent(address _redeember, uint _amount, uint _timestamp);\r\n    event BuyDirectEvent(address _buyer, uint _amount, uint _timestamp);\r\n    event NewEquipment(address indexed _addr, address indexed _userAddr, uint _index, uint _kwh, uint _price);\r\n    event UpdateEquipment(address indexed _addr, address indexed _userAddr, uint _index, uint _kwh, uint _price);\r\n    event DeleteEquipment(address indexed _addr,  uint _index);\r\n    event NewPlace(address indexed _addr, address indexed _userAddr, uint _index, uint _msq, uint _kwh, uint _price);\r\n    event UpdatePlace(address indexed _addr, address indexed _userAddr, uint _index, uint _msq, uint _kwh, uint _price);\r\n    event DeletePlace(address indexed _addr,  uint _index);\r\n    event NewUser(address indexed _addr, uint _index, string _hash);\r\n    event UpdateUser(address indexed _addr,  uint _index, bytes32 _email, bytes32 _firstName, bytes32 _lastName);\r\n    event DeleteUser(address indexed _addr,  uint _index);\r\n\r\n    function PowerPiperToken() public {\r\n        symbol = \"PWP\";\r\n        name = \"PowerPiperToken\";\r\n        decimals = 3;\r\n        fee = 1 * 10 ** decimals; // 1%\r\n        priceMarkup = 5 * 10 ** decimals; // 5%\r\n    }\r\n\r\n    modifier canMint() {\r\n        require(!mintingFinished);\r\n        _;\r\n    }\r\n\r\n    modifier nonEmpty(bytes32 _str) {\r\n        require(bytes32(_str).length > 5);\r\n        _;\r\n    }\r\n\r\n    function balanceOf(address _tokenOwner) public constant returns (uint balance) {\r\n        return balances[_tokenOwner];\r\n    }\r\n\r\n    function transfer(address _to, uint _tokens) public returns (bool success) {\r\n        require(_to != address(0));\r\n        require(_tokens <= balances[msg.sender] && _tokens > 0);\r\n\r\n        balances[msg.sender] = SafeMath.sub(balances[msg.sender], _tokens);\r\n        balances[_to] = SafeMath.add(balances[_to], _tokens);\r\n        emit Transfer(msg.sender, _to, _tokens);\r\n        return true;\r\n    }\r\n\r\n    function approve(address _spender, uint _tokens) public returns (bool success) {\r\n        allowed[msg.sender][_spender] = _tokens;\r\n        emit Approval(msg.sender, _spender, _tokens);\r\n        return true;\r\n    }\r\n\r\n    function transferFrom(address _from, address _to, uint _tokens) public returns (bool success) {\r\n        require(_to != address(0));\r\n        require(_tokens <= balances[_from]);\r\n        require(_tokens <= allowed[_from][msg.sender]);\r\n\r\n        balances[_from] = SafeMath.sub(balances[_from], _tokens);\r\n        allowed[_from][msg.sender] = SafeMath.sub(allowed[_from][msg.sender], _tokens);\r\n        balances[_to] = SafeMath.add(balances[_to], _tokens);\r\n        emit Transfer(_from, _to, _tokens);\r\n        return true;\r\n    }\r\n\r\n    function allowance(address _tokenOwner, address _spender) public constant returns (uint remaining) {\r\n        return allowed[_tokenOwner][_spender];\r\n    }\r\n\r\n    function totalSupply() public constant returns (uint) {\r\n        return _totalSupply  - balances[address(0)];\r\n    }\r\n\r\n    function calculateFee(uint _amount) public view returns (uint) {\r\n        uint feeAmount = _amount * fee / (10 ** decimals);\r\n\r\n        if (feeAmount == 0) {\r\n            return 1;\r\n        } else {\r\n            return feeAmount;\r\n        }\r\n    }\r\n\r\n    function setNewFee(uint _fee) public onlyOwner {\r\n        fee = _fee;\r\n    }\r\n\r\n    function setPriceMarkup(uint _priceMarkup) public onlyOwner {\r\n        priceMarkup = _priceMarkup;\r\n    }\r\n\r\n    function mint(address _to, uint _amount) canMint public returns (bool) {\r\n        _totalSupply = SafeMath.add(_totalSupply, _amount);\r\n        balances[_to] = SafeMath.add(balances[_to], _amount);\r\n        emit Mint(_to, _amount);\r\n        emit Transfer(address(0), _to, _amount);\r\n        return true;\r\n    }\r\n\r\n    function finishMinting() canMint onlyOwner public returns (bool) {\r\n        mintingFinished = true;\r\n        emit MintFinished();\r\n        return true;\r\n    }\r\n\r\n    function destroyTokens(uint _amount) onlyOwner public {\r\n        require(balances[msg.sender] >= _amount);\r\n\r\n        balances[msg.sender] = SafeMath.sub(balances[msg.sender], _amount);\r\n        _totalSupply = SafeMath.sub(_totalSupply, _amount);\r\n\r\n        emit DestroyTokens(msg.sender, _amount);\r\n    }\r\n\r\n    /*function redeem(uint _value, string _location) public returns (uint) {\r\n        require(balanceOf(msg.sender) >= _value);\r\n\r\n        approve(msg.sender, _value);\r\n        transferFrom(msg.sender, address(this), _value);\r\n\r\n        RedemptionStruct memory redemption = RedemptionStruct({\r\n            redeemer: msg.sender,\r\n            amount: _value,\r\n            location: _location,\r\n            timestamp: now\r\n        });\r\n\r\n        redemptions.push(redemption);\r\n\r\n        emit RedeemEvent(redemption.redeemer, redemption.amount, redemption.timestamp);\r\n    }\r\n\r\n    function approveRedemption(uint _index) public onlyOwner {\r\n        require(redemptions[_index].amount >= 0);\r\n\r\n        RedemptionStruct memory redemption = redemptions[_index];\r\n        destroyTokens(redemption.amount);\r\n\r\n        redemptions[_index] = redemptions[redemptions.length-1];\r\n        redemptions.length--;\r\n    }\r\n\r\n    function declineRedemption(uint _index) public onlyOwner {\r\n        require(redemptions[_index].amount >= 0);\r\n\r\n        RedemptionStruct memory redemption = redemptions[_index];\r\n        transfer(redemption.redeemer, redemption.amount);\r\n\r\n        redemptions[_index] = redemptions[redemptions.length-1];\r\n        redemptions.length--;\r\n    }\r\n\r\n    function getRedemptionsLength() public constant onlyOwner returns (uint) {\r\n        return redemptions.length;\r\n    }\r\n\r\n    function getRedemption(uint _index) public constant onlyOwner returns (address, uint, string, uint) {\r\n        RedemptionStruct memory redemption = redemptions[_index];\r\n        return (\r\n            redemption.redeemer,\r\n            redemption.amount,\r\n            redemption.location,\r\n            redemption.timestamp\r\n        );\r\n    }\r\n\r\n    function getOrder(uint _index) public constant onlyOwner returns (address, uint, uint) {\r\n        OrderStruct memory order = orders[_index];\r\n        return (order.buyer, order.amount, order.timestamp);\r\n    }\r\n\r\n    function approveOrder(uint _index, uint _amount) public onlyOwner {\r\n        require(orders[_index].amount >= 0);\r\n\r\n        OrderStruct memory order = orders[_index];\r\n\r\n        uint feeAmount = calculateFee(_amount);\r\n        _amount = _amount.sub(feeAmount);\r\n        mint(address(this), feeAmount);\r\n\r\n        mint(order.buyer, _amount);\r\n\r\n        orders[_index] = orders[orders.length-1];\r\n        orders.length--;\r\n    }\r\n\r\n    function declineOrder(uint _index) public onlyOwner {\r\n        require(orders[_index].amount >= 0);\r\n\r\n        OrderStruct memory order = orders[_index];\r\n        order.buyer.transfer(order.amount);\r\n\r\n        orders[_index] = orders[orders.length-1];\r\n        orders.length--;\r\n    }\r\n\r\n    function getOrdersLength() public constant onlyOwner returns (uint) {\r\n        return orders.length;\r\n    }\r\n\r\n    function buyDirect() public payable {\r\n        require(msg.value > 0);\r\n\r\n        OrderStruct memory order = OrderStruct({\r\n            buyer: msg.sender,\r\n            amount: msg.value,\r\n            timestamp: now\r\n        });\r\n\r\n        orders.push(order);\r\n\r\n        emit BuyDirectEvent(order.buyer, order.amount, order.timestamp);\r\n    }\r\n\r\n    function addCertificate(bytes32 _url, uint _amount) public onlyOwner {\r\n        Cert memory certificate = Cert({\r\n            url: _url,\r\n            amount: _amount,\r\n            timestamp: now\r\n        });\r\n\r\n        reserves = reserves.add(certificate.amount);\r\n\r\n        certificates.push(certificate);\r\n    }\r\n\r\n    function getCertificatesLength() public constant onlyOwner returns (uint) {\r\n        return certificates.length;\r\n    }\r\n\r\n    function getCertificate(uint _index) public constant onlyOwner returns (bytes32, uint, uint) {\r\n        Cert memory certificate = certificates[_index];\r\n        return (\r\n            certificate.url,\r\n            certificate.amount,\r\n            certificate.timestamp\r\n        );\r\n    }\r\n\r\n    function deleteCertificate(uint _index) public onlyOwner {\r\n        require(certificates[_index].amount >= 0);\r\n\r\n        reserves = reserves.sub(certificates[_index].amount);\r\n\r\n        certificates[_index] = certificates[certificates.length-1];\r\n        certificates.length--;\r\n    }\r\n\r\n    function existsEquipment(address _addr) public constant returns(bool isIndexed) {\r\n        if(equipmentIndex.length == 0) return false;\r\n        return (equipmentIndex[equipments[_addr].index] == _addr);\r\n    }\r\n\r\n    function newEquipment(address _addr, address _userAddr, uint _kwh, uint _price)\r\n    onlyOwner\r\n    onlyBy(_userAddr)\r\n    public\r\n    returns(uint index) {\r\n        require(existsEquipment(_addr) == false);\r\n        require(existsUser(_addr) == true);\r\n        equipments[_addr].kwh = _kwh;\r\n        equipments[_addr].price = _price;\r\n        equipments[_addr].userId = _userAddr;\r\n        equipments[_addr].index = equipmentIndex.push(_addr) - 1;\r\n        emit NewEquipment(_addr, _userAddr, equipments[_addr].index, _kwh, _price);\r\n        // users[_addr].equipmentId.push(_addr);\r\n        return equipmentIndex.length - 1;\r\n    }\r\n\r\n    function getEquipment(address _addr)\r\n    public\r\n    constant\r\n    returns(uint index, uint kwh, uint price, address userId) {\r\n        require(existsEquipment(_addr) == true);\r\n        return(\r\n            equipments[_addr].index,\r\n            equipments[_addr].kwh,\r\n            equipments[_addr].price,\r\n            equipments[_addr].userId\r\n        );\r\n    }\r\n\r\n    function updateEquipment(address _addr, address _userAddr, uint _kwh, uint _price)\r\n    public\r\n    onlyOwner\r\n    onlyBy(_userAddr)\r\n    returns(bool) {\r\n        require(existsEquipment(_addr) == true);\r\n        require(existsUser(_userAddr) == true);\r\n        equipments[_addr].kwh = _kwh;\r\n        equipments[_addr].price = _price;\r\n        emit UpdateEquipment(_addr, _userAddr, equipments[_addr].index, _kwh, _price);\r\n        return true;\r\n    }\r\n\r\n    function deleteEquipment(address _addr, address _userAddr)\r\n    public\r\n    onlyOwner\r\n    onlyBy(_userAddr)\r\n    returns(uint index) {\r\n        require(existsEquipment(_addr) == true);\r\n        uint _rowToDelete = equipments[_addr].index;\r\n        address _keyToMove = equipmentIndex[equipmentIndex.length - 1];\r\n        equipmentIndex[_rowToDelete] = _keyToMove;\r\n        equipments[_keyToMove].index = _rowToDelete; \r\n        equipmentIndex.length--;\r\n        emit DeleteEquipment(_addr, _rowToDelete);\r\n        emit UpdateEquipment(_keyToMove, equipments[_keyToMove].userId, _rowToDelete, equipments[_keyToMove].kwh, equipments[_keyToMove].price);\r\n        return _rowToDelete;\r\n    }\r\n\r\n    function getEquipmentCount() public constant returns(uint count) {\r\n        return equipmentIndex.length;\r\n    }\r\n\r\n    function getEquipmentAtIndex(uint index) public  constant returns(address _addr) {\r\n        return equipmentIndex[index];\r\n    }\r\n\r\n    function existsPlace(address _addr) public constant returns(bool isIndexed) {\r\n        if(placeIndex.length == 0) return false;\r\n        return (placeIndex[places[_addr].index] == _addr);\r\n    }\r\n\r\n    function newPlace(address _addr, address _userAddr, uint _msq, uint _kwh, uint _price)\r\n    onlyOwner\r\n    onlyBy(_userAddr)\r\n    public\r\n    returns(uint index) {\r\n        require(existsPlace(_addr) == false);\r\n        require(existsUser(_addr) == true);\r\n        places[_addr].msq = _msq;\r\n        places[_addr].kwh = _kwh;\r\n        places[_addr].price = _price;\r\n        places[_addr].userId = _userAddr;\r\n        places[_addr].index = placeIndex.push(_addr) - 1;\r\n        emit NewPlace(_addr, _userAddr, places[_addr].index,  _msq, _kwh, _price);\r\n        // users[_addr].placeId.push(_addr);\r\n        return placeIndex.length - 1;\r\n    }\r\n\r\n    function getPlace(address _addr)\r\n    public\r\n    constant\r\n    returns(uint index, uint msq, uint kwh, uint price, address userId) {\r\n        require(existsPlace(_addr) == true);\r\n        return(\r\n            places[_addr].index,\r\n            places[_addr].msq,\r\n            places[_addr].kwh,\r\n            places[_addr].price,\r\n            places[_addr].userId\r\n        );\r\n    }\r\n\r\n    function updatePlace(address _addr, address _userAddr, uint _msq, uint _kwh, uint _price)\r\n    public\r\n    onlyOwner\r\n    onlyBy(_userAddr)\r\n    returns(bool) {\r\n        require(existsPlace(_addr) == true);\r\n        require(existsUser(_userAddr) == true);\r\n        places[_addr].msq = _msq;\r\n        places[_addr].kwh = _kwh;\r\n        places[_addr].price = _price;\r\n        emit UpdatePlace(_addr, _userAddr, places[_addr].index, _msq, _kwh, _price);\r\n        return true;\r\n    }\r\n\r\n    function deletePlace(address _addr, address _userAddr)\r\n    public\r\n    onlyOwner\r\n    onlyBy(_userAddr)\r\n    returns(uint index) {\r\n        require(existsPlace(_addr) == true);\r\n        uint _rowToDelete = places[_addr].index;\r\n        address _keyToMove = placeIndex[placeIndex.length - 1];\r\n        placeIndex[_rowToDelete] = _keyToMove;\r\n        places[_keyToMove].index = _rowToDelete; \r\n        placeIndex.length--;\r\n        emit DeletePlace(_addr, _rowToDelete);\r\n        emit UpdatePlace(_keyToMove, places[_keyToMove].userId, _rowToDelete, places[_keyToMove].msq, places[_keyToMove].kwh, places[_keyToMove].price);\r\n        return _rowToDelete;\r\n    }\r\n\r\n    function getPlaceCount() public constant returns(uint count) {\r\n        return placeIndex.length;\r\n    }\r\n\r\n    function getPlaceAtIndex(uint index) public constant returns(address _addr) {\r\n        return placeIndex[index];\r\n    }*/\r\n\r\n    function existsUser(address _addr) public constant returns(bool isIndexed) {\r\n        if(userIndex.length == 0) return false;\r\n        return (userIndex[users[_addr].index] == _addr);\r\n    }\r\n\r\n    function newUser(string _hash)\r\n    public\r\n    returns(bool) {\r\n        require(existsUser(msg.sender) == false);\r\n        users[msg.sender].index = userIndex.push(msg.sender);\r\n        users[msg.sender].hash = _hash;\r\n\r\n        emit NewUser(msg.sender, users[msg.sender].index,  _hash);\r\n        return true;\r\n    }\r\n\r\n    /*function getUser(address _addr)\r\n    onlyOwner\r\n    onlyBy(_addr)\r\n    public\r\n    constant\r\n    returns(uint index, bytes32 email, bytes32 firstName, bytes32 lastName) {\r\n        require(existsUser(_addr) == true);\r\n        return(\r\n            users[_addr].index,\r\n            users[_addr].email,\r\n            users[_addr].firstName,\r\n            users[_addr].lastName\r\n        );\r\n    }\r\n\r\n    function updateUser(address _addr, bytes32 _email, bytes32 _firstName, bytes32 _lastName)\r\n    onlyOwner\r\n    onlyBy(_addr)\r\n    public\r\n    nonEmpty(_email)\r\n    nonEmpty(_firstName)\r\n    nonEmpty(_lastName)\r\n    returns(bool) {\r\n        require(existsUser(_addr) == true);\r\n        users[_addr].email = _email;\r\n        users[_addr].firstName = _firstName;\r\n        users[_addr].lastName = _lastName;\r\n        emit UpdateUser(_addr, users[_addr].index, _email, _firstName, _lastName);\r\n        return true;\r\n    }\r\n\r\n    function deleteUser(address _addr)\r\n    public\r\n    onlyOwner\r\n    onlyBy(_addr)\r\n    returns(uint index) {\r\n        require(existsUser(_addr) == true);\r\n        uint _rowToDelete = users[_addr].index;\r\n        address _keyToMove = userIndex[userIndex.length - 1];\r\n        userIndex[_rowToDelete] = _keyToMove;\r\n        users[_keyToMove].index = _rowToDelete; \r\n        userIndex.length--;\r\n        emit DeleteUser(_addr, _rowToDelete);\r\n        emit UpdateUser(_keyToMove, _rowToDelete, users[_keyToMove].email, users[_keyToMove].firstName, users[_keyToMove].lastName);\r\n        return _rowToDelete;\r\n    }*/\r\n\r\n    function getUsers() public view returns(address[]) {\r\n        return userIndex;\r\n    }\r\n\r\n    function getUserCount() public view returns(uint count) {\r\n        return userIndex.length;\r\n    }\r\n\r\n    function getUserAtIndex(uint index)\r\n    public\r\n    onlyOwner\r\n    constant returns(uint, address, string) {\r\n        return (\r\n            users[userIndex[index]].index,\r\n            userIndex[index],\r\n            users[userIndex[index]].hash\r\n        );\r\n    }\r\n\r\n}\r\n",
  "sourcePath": "C:\\Users\\DXenu\\Desktop\\box\\demo_contract\\contracts\\PowerPiperToken.sol",
  "compiler": {
    "name": "solc",
    "version": "0.4.21+commit.dfe3193c.Emscripten.clang"
  },
  "schemaVersion": "2.0.0",
  "updatedAt": "2018-04-17T20:12:09.714Z"
}