{
  "contractName": "PowerPiperToken",
  "abi": [
    {
      "constant": true,
      "inputs": [],
      "name": "getUsers",
      "outputs": [
        {
          "name": "",
          "type": "address[]"
        }
      ],
      "payable": false,
      "stateMutability": "view",
      "type": "function"
    },
    {
      "constant": true,
      "inputs": [],
      "name": "mintingFinished",
      "outputs": [
        {
          "name": "",
          "type": "bool"
        }
      ],
      "payable": false,
      "stateMutability": "view",
      "type": "function"
    },
    {
      "constant": true,
      "inputs": [],
      "name": "name",
      "outputs": [
        {
          "name": "",
          "type": "bytes32"
        }
      ],
      "payable": false,
      "stateMutability": "view",
      "type": "function"
    },
    {
      "constant": false,
      "inputs": [
        {
          "name": "_spender",
          "type": "address"
        },
        {
          "name": "_tokens",
          "type": "uint256"
        }
      ],
      "name": "approve",
      "outputs": [
        {
          "name": "success",
          "type": "bool"
        }
      ],
      "payable": false,
      "stateMutability": "nonpayable",
      "type": "function"
    },
    {
      "constant": true,
      "inputs": [],
      "name": "bot",
      "outputs": [
        {
          "name": "",
          "type": "address"
        }
      ],
      "payable": false,
      "stateMutability": "view",
      "type": "function"
    },
    {
      "constant": true,
      "inputs": [],
      "name": "totalSupply",
      "outputs": [
        {
          "name": "",
          "type": "uint256"
        }
      ],
      "payable": false,
      "stateMutability": "view",
      "type": "function"
    },
    {
      "constant": false,
      "inputs": [
        {
          "name": "_hash",
          "type": "string"
        }
      ],
      "name": "newUser",
      "outputs": [
        {
          "name": "",
          "type": "bool"
        }
      ],
      "payable": false,
      "stateMutability": "nonpayable",
      "type": "function"
    },
    {
      "constant": false,
      "inputs": [
        {
          "name": "_from",
          "type": "address"
        },
        {
          "name": "_to",
          "type": "address"
        },
        {
          "name": "_tokens",
          "type": "uint256"
        }
      ],
      "name": "transferFrom",
      "outputs": [
        {
          "name": "success",
          "type": "bool"
        }
      ],
      "payable": false,
      "stateMutability": "nonpayable",
      "type": "function"
    },
    {
      "constant": true,
      "inputs": [],
      "name": "decimals",
      "outputs": [
        {
          "name": "",
          "type": "uint256"
        }
      ],
      "payable": false,
      "stateMutability": "view",
      "type": "function"
    },
    {
      "constant": true,
      "inputs": [],
      "name": "priceMarkup",
      "outputs": [
        {
          "name": "",
          "type": "uint256"
        }
      ],
      "payable": false,
      "stateMutability": "view",
      "type": "function"
    },
    {
      "constant": true,
      "inputs": [],
      "name": "_totalSupply",
      "outputs": [
        {
          "name": "",
          "type": "uint256"
        }
      ],
      "payable": false,
      "stateMutability": "view",
      "type": "function"
    },
    {
      "constant": false,
      "inputs": [
        {
          "name": "_to",
          "type": "address"
        },
        {
          "name": "_amount",
          "type": "uint256"
        }
      ],
      "name": "mint",
      "outputs": [
        {
          "name": "",
          "type": "bool"
        }
      ],
      "payable": false,
      "stateMutability": "nonpayable",
      "type": "function"
    },
    {
      "constant": false,
      "inputs": [
        {
          "name": "_addr",
          "type": "address"
        }
      ],
      "name": "deleteUser",
      "outputs": [
        {
          "name": "index",
          "type": "uint256"
        }
      ],
      "payable": false,
      "stateMutability": "nonpayable",
      "type": "function"
    },
    {
      "constant": false,
      "inputs": [
        {
          "name": "_amount",
          "type": "uint256"
        }
      ],
      "name": "destroyTokens",
      "outputs": [],
      "payable": false,
      "stateMutability": "nonpayable",
      "type": "function"
    },
    {
      "constant": true,
      "inputs": [],
      "name": "validate",
      "outputs": [
        {
          "name": "",
          "type": "bool"
        }
      ],
      "payable": false,
      "stateMutability": "view",
      "type": "function"
    },
    {
      "constant": false,
      "inputs": [
        {
          "name": "_bot",
          "type": "address"
        }
      ],
      "name": "setBot",
      "outputs": [],
      "payable": false,
      "stateMutability": "nonpayable",
      "type": "function"
    },
    {
      "constant": true,
      "inputs": [
        {
          "name": "_addr",
          "type": "address"
        }
      ],
      "name": "getUser",
      "outputs": [
        {
          "name": "index",
          "type": "uint256"
        },
        {
          "name": "_hash",
          "type": "string"
        }
      ],
      "payable": false,
      "stateMutability": "view",
      "type": "function"
    },
    {
      "constant": true,
      "inputs": [
        {
          "name": "_tokenOwner",
          "type": "address"
        }
      ],
      "name": "balanceOf",
      "outputs": [
        {
          "name": "balance",
          "type": "uint256"
        }
      ],
      "payable": false,
      "stateMutability": "view",
      "type": "function"
    },
    {
      "constant": true,
      "inputs": [],
      "name": "reserves",
      "outputs": [
        {
          "name": "",
          "type": "uint256"
        }
      ],
      "payable": false,
      "stateMutability": "view",
      "type": "function"
    },
    {
      "constant": false,
      "inputs": [],
      "name": "finishMinting",
      "outputs": [
        {
          "name": "",
          "type": "bool"
        }
      ],
      "payable": false,
      "stateMutability": "nonpayable",
      "type": "function"
    },
    {
      "constant": true,
      "inputs": [],
      "name": "owner",
      "outputs": [
        {
          "name": "",
          "type": "address"
        }
      ],
      "payable": false,
      "stateMutability": "view",
      "type": "function"
    },
    {
      "constant": true,
      "inputs": [],
      "name": "symbol",
      "outputs": [
        {
          "name": "",
          "type": "bytes32"
        }
      ],
      "payable": false,
      "stateMutability": "view",
      "type": "function"
    },
    {
      "constant": true,
      "inputs": [
        {
          "name": "",
          "type": "address"
        }
      ],
      "name": "users",
      "outputs": [
        {
          "name": "index",
          "type": "uint256"
        },
        {
          "name": "_hash",
          "type": "string"
        }
      ],
      "payable": false,
      "stateMutability": "view",
      "type": "function"
    },
    {
      "constant": false,
      "inputs": [
        {
          "name": "_to",
          "type": "address"
        },
        {
          "name": "_tokens",
          "type": "uint256"
        }
      ],
      "name": "transfer",
      "outputs": [
        {
          "name": "success",
          "type": "bool"
        }
      ],
      "payable": false,
      "stateMutability": "nonpayable",
      "type": "function"
    },
    {
      "constant": true,
      "inputs": [
        {
          "name": "",
          "type": "address"
        }
      ],
      "name": "places",
      "outputs": [
        {
          "name": "index",
          "type": "uint256"
        },
        {
          "name": "msq",
          "type": "uint256"
        },
        {
          "name": "kwh",
          "type": "uint256"
        },
        {
          "name": "price",
          "type": "uint256"
        },
        {
          "name": "userId",
          "type": "address"
        }
      ],
      "payable": false,
      "stateMutability": "view",
      "type": "function"
    },
    {
      "constant": false,
      "inputs": [
        {
          "name": "_addr",
          "type": "address"
        },
        {
          "name": "_hash",
          "type": "string"
        }
      ],
      "name": "updateUser",
      "outputs": [
        {
          "name": "",
          "type": "bool"
        }
      ],
      "payable": false,
      "stateMutability": "nonpayable",
      "type": "function"
    },
    {
      "constant": true,
      "inputs": [],
      "name": "getUserCount",
      "outputs": [
        {
          "name": "count",
          "type": "uint256"
        }
      ],
      "payable": false,
      "stateMutability": "view",
      "type": "function"
    },
    {
      "constant": true,
      "inputs": [
        {
          "name": "",
          "type": "uint256"
        }
      ],
      "name": "userIndex",
      "outputs": [
        {
          "name": "",
          "type": "address"
        }
      ],
      "payable": false,
      "stateMutability": "view",
      "type": "function"
    },
    {
      "constant": true,
      "inputs": [
        {
          "name": "_tokenOwner",
          "type": "address"
        },
        {
          "name": "_spender",
          "type": "address"
        }
      ],
      "name": "allowance",
      "outputs": [
        {
          "name": "remaining",
          "type": "uint256"
        }
      ],
      "payable": false,
      "stateMutability": "view",
      "type": "function"
    },
    {
      "constant": true,
      "inputs": [],
      "name": "fee",
      "outputs": [
        {
          "name": "",
          "type": "uint256"
        }
      ],
      "payable": false,
      "stateMutability": "view",
      "type": "function"
    },
    {
      "constant": false,
      "inputs": [
        {
          "name": "newOwner",
          "type": "address"
        }
      ],
      "name": "transferOwnership",
      "outputs": [],
      "payable": false,
      "stateMutability": "nonpayable",
      "type": "function"
    },
    {
      "constant": true,
      "inputs": [
        {
          "name": "",
          "type": "address"
        }
      ],
      "name": "equipments",
      "outputs": [
        {
          "name": "index",
          "type": "uint256"
        },
        {
          "name": "kwh",
          "type": "uint256"
        },
        {
          "name": "price",
          "type": "uint256"
        },
        {
          "name": "userId",
          "type": "address"
        }
      ],
      "payable": false,
      "stateMutability": "view",
      "type": "function"
    },
    {
      "constant": true,
      "inputs": [
        {
          "name": "_addr",
          "type": "address"
        }
      ],
      "name": "existsUser",
      "outputs": [
        {
          "name": "isIndexed",
          "type": "bool"
        }
      ],
      "payable": false,
      "stateMutability": "view",
      "type": "function"
    },
    {
      "constant": true,
      "inputs": [
        {
          "name": "index",
          "type": "uint256"
        }
      ],
      "name": "getUserAtIndex",
      "outputs": [
        {
          "name": "",
          "type": "uint256"
        },
        {
          "name": "",
          "type": "address"
        },
        {
          "name": "",
          "type": "string"
        }
      ],
      "payable": false,
      "stateMutability": "view",
      "type": "function"
    },
    {
      "inputs": [],
      "payable": false,
      "stateMutability": "nonpayable",
      "type": "constructor"
    },
    {
      "anonymous": false,
      "inputs": [
        {
          "indexed": false,
          "name": "_redeember",
          "type": "address"
        },
        {
          "indexed": false,
          "name": "_amount",
          "type": "uint256"
        },
        {
          "indexed": false,
          "name": "_timestamp",
          "type": "uint256"
        }
      ],
      "name": "RedeemEvent",
      "type": "event"
    },
    {
      "anonymous": false,
      "inputs": [
        {
          "indexed": false,
          "name": "_buyer",
          "type": "address"
        },
        {
          "indexed": false,
          "name": "_amount",
          "type": "uint256"
        },
        {
          "indexed": false,
          "name": "_timestamp",
          "type": "uint256"
        }
      ],
      "name": "BuyDirectEvent",
      "type": "event"
    },
    {
      "anonymous": false,
      "inputs": [
        {
          "indexed": true,
          "name": "_addr",
          "type": "address"
        },
        {
          "indexed": true,
          "name": "_userAddr",
          "type": "address"
        },
        {
          "indexed": false,
          "name": "_index",
          "type": "uint256"
        },
        {
          "indexed": false,
          "name": "_kwh",
          "type": "uint256"
        },
        {
          "indexed": false,
          "name": "_price",
          "type": "uint256"
        }
      ],
      "name": "NewEquipment",
      "type": "event"
    },
    {
      "anonymous": false,
      "inputs": [
        {
          "indexed": true,
          "name": "_addr",
          "type": "address"
        },
        {
          "indexed": true,
          "name": "_userAddr",
          "type": "address"
        },
        {
          "indexed": false,
          "name": "_index",
          "type": "uint256"
        },
        {
          "indexed": false,
          "name": "_kwh",
          "type": "uint256"
        },
        {
          "indexed": false,
          "name": "_price",
          "type": "uint256"
        }
      ],
      "name": "UpdateEquipment",
      "type": "event"
    },
    {
      "anonymous": false,
      "inputs": [
        {
          "indexed": true,
          "name": "_addr",
          "type": "address"
        },
        {
          "indexed": false,
          "name": "_index",
          "type": "uint256"
        }
      ],
      "name": "DeleteEquipment",
      "type": "event"
    },
    {
      "anonymous": false,
      "inputs": [
        {
          "indexed": true,
          "name": "_addr",
          "type": "address"
        },
        {
          "indexed": true,
          "name": "_userAddr",
          "type": "address"
        },
        {
          "indexed": false,
          "name": "_index",
          "type": "uint256"
        },
        {
          "indexed": false,
          "name": "_msq",
          "type": "uint256"
        },
        {
          "indexed": false,
          "name": "_kwh",
          "type": "uint256"
        },
        {
          "indexed": false,
          "name": "_price",
          "type": "uint256"
        }
      ],
      "name": "NewPlace",
      "type": "event"
    },
    {
      "anonymous": false,
      "inputs": [
        {
          "indexed": true,
          "name": "_addr",
          "type": "address"
        },
        {
          "indexed": true,
          "name": "_userAddr",
          "type": "address"
        },
        {
          "indexed": false,
          "name": "_index",
          "type": "uint256"
        },
        {
          "indexed": false,
          "name": "_msq",
          "type": "uint256"
        },
        {
          "indexed": false,
          "name": "_kwh",
          "type": "uint256"
        },
        {
          "indexed": false,
          "name": "_price",
          "type": "uint256"
        }
      ],
      "name": "UpdatePlace",
      "type": "event"
    },
    {
      "anonymous": false,
      "inputs": [
        {
          "indexed": true,
          "name": "_addr",
          "type": "address"
        },
        {
          "indexed": false,
          "name": "_index",
          "type": "uint256"
        }
      ],
      "name": "DeletePlace",
      "type": "event"
    },
    {
      "anonymous": false,
      "inputs": [
        {
          "indexed": true,
          "name": "_addr",
          "type": "address"
        },
        {
          "indexed": false,
          "name": "_index",
          "type": "uint256"
        },
        {
          "indexed": false,
          "name": "_hash",
          "type": "string"
        }
      ],
      "name": "NewUser",
      "type": "event"
    },
    {
      "anonymous": false,
      "inputs": [
        {
          "indexed": true,
          "name": "_addr",
          "type": "address"
        },
        {
          "indexed": false,
          "name": "_index",
          "type": "uint256"
        },
        {
          "indexed": false,
          "name": "_hash",
          "type": "string"
        }
      ],
      "name": "UpdateUser",
      "type": "event"
    },
    {
      "anonymous": false,
      "inputs": [
        {
          "indexed": true,
          "name": "_addr",
          "type": "address"
        },
        {
          "indexed": false,
          "name": "_index",
          "type": "uint256"
        }
      ],
      "name": "DeleteUser",
      "type": "event"
    },
    {
      "anonymous": false,
      "inputs": [
        {
          "indexed": true,
          "name": "to",
          "type": "address"
        },
        {
          "indexed": false,
          "name": "amount",
          "type": "uint256"
        }
      ],
      "name": "Mint",
      "type": "event"
    },
    {
      "anonymous": false,
      "inputs": [],
      "name": "MintFinished",
      "type": "event"
    },
    {
      "anonymous": false,
      "inputs": [
        {
          "indexed": true,
          "name": "_from",
          "type": "address"
        },
        {
          "indexed": false,
          "name": "_value",
          "type": "uint256"
        }
      ],
      "name": "DestroyTokens",
      "type": "event"
    },
    {
      "anonymous": false,
      "inputs": [
        {
          "indexed": true,
          "name": "previousOwner",
          "type": "address"
        },
        {
          "indexed": true,
          "name": "newOwner",
          "type": "address"
        }
      ],
      "name": "OwnershipTransferred",
      "type": "event"
    },
    {
      "anonymous": false,
      "inputs": [
        {
          "indexed": true,
          "name": "from",
          "type": "address"
        },
        {
          "indexed": true,
          "name": "to",
          "type": "address"
        },
        {
          "indexed": false,
          "name": "value",
          "type": "uint256"
        }
      ],
      "name": "Transfer",
      "type": "event"
    },
    {
      "anonymous": false,
      "inputs": [
        {
          "indexed": true,
          "name": "owner",
          "type": "address"
        },
        {
          "indexed": true,
          "name": "spender",
          "type": "address"
        },
        {
          "indexed": false,
          "name": "value",
          "type": "uint256"
        }
      ],
      "name": "Approval",
      "type": "event"
    },
    {
      "constant": true,
      "inputs": [
        {
          "name": "_amount",
          "type": "uint256"
        }
      ],
      "name": "calculateFee",
      "outputs": [
        {
          "name": "",
          "type": "uint256"
        }
      ],
      "payable": false,
      "stateMutability": "view",
      "type": "function"
    },
    {
      "constant": false,
      "inputs": [
        {
          "name": "_fee",
          "type": "uint256"
        }
      ],
      "name": "setNewFee",
      "outputs": [],
      "payable": false,
      "stateMutability": "nonpayable",
      "type": "function"
    },
    {
      "constant": false,
      "inputs": [
        {
          "name": "_priceMarkup",
          "type": "uint256"
        }
      ],
      "name": "setPriceMarkup",
      "outputs": [],
      "payable": false,
      "stateMutability": "nonpayable",
      "type": "function"
    }
  ],
  "bytecode": "0x60606040526004805460a060020a60ff02191690556000600c55341561002457600080fd5b60038054600160a060020a03191633600160a060020a03161781557f50575000000000000000000000000000000000000000000000000000000000006008557f506f7765725069706572546f6b656e00000000000000000000000000000000006007556009556103e8600a55611388600b55611a4a806100a56000396000f3006060604052600436106101cb5763ffffffff7c0100000000000000000000000000000000000000000000000000000000600035041662ce8e3e81146101d057806305d2035b1461023657806306fdde031461025d578063095ea7b31461028257806310814c37146102a457806318160ddd146102d35780631eed1192146102e657806323b872dd14610337578063313ce5671461035f5780633e04619d146103725780633eaaf86b1461038557806340c10f19146103985780635c60f226146103ba57806367fbd289146103d95780636901f668146103f15780636b5caec4146104045780636f77926b1461042357806370a08231146104c057806375172a8b146104df5780637d64bcb4146104f25780638da5cb5b1461050557806395d89b411461051857806399a5d7471461052b578063a87430ba14610541578063a9059cbb14610560578063ab2d479e14610582578063b0889819146105da578063b5cb15f714610639578063c37dfd6e1461064c578063d0dafe7e14610662578063dd62ed3e14610678578063ddca3f431461069d578063f2fde38b146106b0578063f3c110ea146106cf578063f409e87d14610722578063f4ef90be14610741578063ffcc7bbf14610757575b600080fd5b34156101db57600080fd5b6101e36107fb565b60405160208082528190810183818151815260200191508051906020019060200280838360005b8381101561022257808201518382015260200161020a565b505050509050019250505060405180910390f35b341561024157600080fd5b61024961087f565b604051901515815260200160405180910390f35b341561026857600080fd5b6102706108a0565b60405190815260200160405180910390f35b341561028d57600080fd5b610249600160a060020a03600435166024356108a6565b34156102af57600080fd5b6102b7610912565b604051600160a060020a03909116815260200160405180910390f35b34156102de57600080fd5b610270610921565b34156102f157600080fd5b61024960046024813581810190830135806020601f8201819004810201604051908101604052818152929190602084018383808284375094965061095295505050505050565b341561034257600080fd5b610249600160a060020a0360043581169060243516604435610aa1565b341561036a57600080fd5b610270610c0e565b341561037d57600080fd5b610270610c14565b341561039057600080fd5b610270610c1a565b34156103a357600080fd5b610249600160a060020a0360043516602435610c20565b34156103c557600080fd5b610270600160a060020a0360043516610d17565b34156103e457600080fd5b6103ef600435610f1a565b005b34156103fc57600080fd5b610249610fe7565b341561040f57600080fd5b6103ef600160a060020a0360043516610ffc565b341561042e57600080fd5b610442600160a060020a0360043516611046565b60405182815260406020820181815290820183818151815260200191508051906020019080838360005b8381101561048457808201518382015260200161046c565b50505050905090810190601f1680156104b15780820380516001836020036101000a031916815260200191505b50935050505060405180910390f35b34156104cb57600080fd5b610270600160a060020a0360043516611170565b34156104ea57600080fd5b61027061118b565b34156104fd57600080fd5b610249611191565b341561051057600080fd5b6102b761123e565b341561052357600080fd5b61027061124d565b341561053657600080fd5b610270600435611253565b341561054c57600080fd5b610442600160a060020a0360043516611287565b341561056b57600080fd5b610249600160a060020a0360043516602435611343565b341561058d57600080fd5b6105a1600160a060020a0360043516611457565b60405194855260208501939093526040808501929092526060840152600160a060020a03909116608083015260a0909101905180910390f35b34156105e557600080fd5b61024960048035600160a060020a03169060446024803590810190830135806020601f8201819004810201604051908101604052818152929190602084018383808284375094965061148f95505050505050565b341561064457600080fd5b6102706115ba565b341561065757600080fd5b6102b76004356115df565b341561066d57600080fd5b6103ef600435611607565b341561068357600080fd5b610270600160a060020a0360043581169060243516611627565b34156106a857600080fd5b610270611652565b34156106bb57600080fd5b6103ef600160a060020a0360043516611658565b34156106da57600080fd5b6106ee600160a060020a03600435166116f3565b6040519384526020840192909252604080840191909152600160a060020a0390911660608301526080909101905180910390f35b341561072d57600080fd5b610249600160a060020a0360043516611723565b341561074c57600080fd5b6103ef60043561177b565b341561076257600080fd5b61076d60043561179b565b604051838152600160a060020a038316602082015260606040820181815290820183818151815260200191508051906020019080838360005b838110156107be5780820151838201526020016107a6565b50505050905090810190601f1680156107eb5780820380516001836020036101000a031916815260200191505b5094505050505060405180910390f35b61080361194b565b60035433600160a060020a0390811691161461081e57600080fd5b600680548060200260200160405190810160405280929190818152602001828054801561087457602002820191906000526020600020905b8154600160a060020a03168152600190910190602001808311610856575b505050505090505b90565b60045474010000000000000000000000000000000000000000900460ff1681565b60075481565b600160a060020a03338116600081815260016020908152604080832094871680845294909152808220859055909291907f8c5be1e5ebec7d5bd14f71427d1e84f3dd0314c0f7b2291e5b200ac8c7c3b9259085905190815260200160405180910390a350600192915050565b600454600160a060020a031681565b60008080526020527fad3228b676f7d3cd4284a5443f17f1962b36e491b30a40b2405849e597ba5fb5546002540390565b600061095d33611723565b1561096757600080fd5b6006805460018101610979838261195d565b506000918252602080832091909101805473ffffffffffffffffffffffffffffffffffffffff191633600160a060020a03169081179091556006549083526005909152604090912060001990910181556001018280516109dd929160200190611986565b50600160a060020a03331660008181526005602052604090819020547f3f5552bae26386a672ea708b076b62b1fb9a9f821b6d35469971faa1dec9a15e9185905182815260406020820181815290820183818151815260200191508051906020019080838360005b83811015610a5d578082015183820152602001610a45565b50505050905090810190601f168015610a8a5780820380516001836020036101000a031916815260200191505b50935050505060405180910390a25060015b919050565b6000600160a060020a0383161515610ab857600080fd5b600160a060020a038416600090815260208190526040902054821115610add57600080fd5b600160a060020a0380851660009081526001602090815260408083203390941683529290522054821115610b1057600080fd5b600160a060020a038416600090815260208190526040902054610b33908361191d565b600160a060020a038086166000908152602081815260408083209490945560018152838220339093168252919091522054610b6e908361191d565b600160a060020a03808616600090815260016020908152604080832033851684528252808320949094559186168152908190522054610bad9083611932565b600160a060020a03808516600081815260208190526040908190209390935591908616907fddf252ad1be2c89b69c2b068fc378daa952ba7f163c4a11628f55a4df523b3ef9085905190815260200160405180910390a35060019392505050565b60095481565b600b5481565b60025481565b60045460009074010000000000000000000000000000000000000000900460ff1615610c4b57600080fd5b610c5760025483611932565b600255600160a060020a038316600090815260208190526040902054610c7d9083611932565b600160a060020a0384166000818152602081905260409081902092909255907f0f6798a560793a54c3bcfe86a93cde1e73087d944c0ea20544137d41213968859084905190815260200160405180910390a2600160a060020a03831660007fddf252ad1be2c89b69c2b068fc378daa952ba7f163c4a11628f55a4df523b3ef8460405190815260200160405180910390a350600192915050565b60008060008380600160a060020a031633600160a060020a0316141515610d3d57600080fd5b610d4633611723565b1515600114610d5457600080fd5b600160a060020a03331660009081526005602052604090205460068054919450906000198101908110610d8357fe5b60009182526020909120015460068054600160a060020a039092169350839185908110610dac57fe5b6000918252602080832091909101805473ffffffffffffffffffffffffffffffffffffffff1916600160a060020a0394851617905591841681526005909152604090208390556006805490610e0590600019830161195d565b5033600160a060020a03167f117183c06981515bdfa0b70d0448d8eb6ba07648cda62ab7c2b4361eeff80a1b8460405190815260200160405180910390a2600160a060020a038216600081815260056020526040908190207f2b46302f47437b923a28e2b58ff2446c2a30a86f911fcf4a46395fa79a18e56a918691600101905182815260406020820181815283546002600019610100600184161502019091160491830182905290606083019084908015610f025780601f10610ed757610100808354040283529160200191610f02565b820191906000526020600020905b815481529060010190602001808311610ee557829003601f168201915b5050935050505060405180910390a250909392505050565b60035433600160a060020a03908116911614610f3557600080fd5b600160a060020a03331660009081526020819052604090205481901015610f5b57600080fd5b600160a060020a033316600090815260208190526040902054610f7e908261191d565b600160a060020a033316600090815260208190526040902055600254610fa4908261191d565b600255600160a060020a0333167f5800808f79a46b76f108a491008ac316906334adb996175d3053964b8ee12c8e8260405190815260200160405180910390a250565b60035433600160a060020a0390811691161490565b60035433600160a060020a0390811691161461101757600080fd5b6004805473ffffffffffffffffffffffffffffffffffffffff1916600160a060020a0392909216919091179055565b600061105061194b565b8280600160a060020a031633600160a060020a0316148061107f575060035433600160a060020a039081169116145b151561108a57600080fd5b61109384611723565b15156001146110a157600080fd5b600160a060020a03841660009081526005602090815260409182902080546001918201805491949093849360029084161561010002600019019093169290920491601f83018190048102019051908101604052809291908181526020018280546001816001161561010002031660029004801561115f5780601f106111345761010080835404028352916020019161115f565b820191906000526020600020905b81548152906001019060200180831161114257829003601f168201915b505050505090509250925050915091565b600160a060020a031660009081526020819052604090205490565b600c5481565b60045460009074010000000000000000000000000000000000000000900460ff16156111bc57600080fd5b60035433600160a060020a039081169116146111d757600080fd5b6004805474ff00000000000000000000000000000000000000001916740100000000000000000000000000000000000000001790557fae5184fba832cb2b1f702aca6117b8d265eaf03ad33eb133f19dde0f5920fa0860405160405180910390a150600190565b600354600160a060020a031681565b60085481565b600080600954600a0a600a54840281151561126a57fe5b04905080151561127d5760019150611281565b8091505b50919050565b6005602052806000526040600020600091509050806000015490806001018054600181600116156101000203166002900480601f0160208091040260200160405190810160405280929190818152602001828054600181600116156101000203166002900480156113395780601f1061130e57610100808354040283529160200191611339565b820191906000526020600020905b81548152906001019060200180831161131c57829003601f168201915b5050505050905082565b6000600160a060020a038316151561135a57600080fd5b600160a060020a03331660009081526020819052604090205482118015906113825750600082115b151561138d57600080fd5b600160a060020a0333166000908152602081905260409020546113b0908361191d565b600160a060020a0333811660009081526020819052604080822093909355908516815220546113df9083611932565b60008085600160a060020a0316600160a060020a031681526020019081526020016000208190555082600160a060020a031633600160a060020a03167fddf252ad1be2c89b69c2b068fc378daa952ba7f163c4a11628f55a4df523b3ef8460405190815260200160405180910390a350600192915050565b6012602052600090815260409020805460018201546002830154600384015460049094015492939192909190600160a060020a031685565b60008280600160a060020a031633600160a060020a03161415156114b257600080fd5b6114bb33611723565b15156001146114c957600080fd5b600160a060020a03331660009081526005602052604090206001018380516114f5929160200190611986565b50600160a060020a03331660008181526005602052604090819020547f2b46302f47437b923a28e2b58ff2446c2a30a86f911fcf4a46395fa79a18e56a9186905182815260406020820181815290820183818151815260200191508051906020019080838360005b8381101561157557808201518382015260200161155d565b50505050905090810190601f1680156115a25780820380516001836020036101000a031916815260200191505b50935050505060405180910390a25060019392505050565b60035460009033600160a060020a039081169116146115d857600080fd5b5060065490565b60068054829081106115ed57fe5b600091825260209091200154600160a060020a0316905081565b60035433600160a060020a0390811691161461162257600080fd5b600b55565b600160a060020a03918216600090815260016020908152604080832093909416825291909152205490565b600a5481565b60035433600160a060020a0390811691161461167357600080fd5b600160a060020a038116151561168857600080fd5b600354600160a060020a0380831691167f8be0079c531659141344cd1fd0a4f28419497f9722a3daafe3b4186f6b6457e060405160405180910390a36003805473ffffffffffffffffffffffffffffffffffffffff1916600160a060020a0392909216919091179055565b601060205260009081526040902080546001820154600283015460039093015491929091600160a060020a031684565b600654600090151561173757506000610a9c565b600160a060020a03821660008181526005602052604090205460068054909190811061175f57fe5b600091825260209091200154600160a060020a03161492915050565b60035433600160a060020a0390811691161461179657600080fd5b600a55565b6000806117a661194b565b60035433600160a060020a039081169116146117c157600080fd5b600560006006868154811015156117d457fe5b6000918252602080832090910154600160a060020a03168352820192909252604001902054600680548690811061180757fe5b600091825260208220015460068054600160a060020a03909216926005929091908990811061183257fe5b906000526020600020900160009054906101000a9004600160a060020a0316600160a060020a0316600160a060020a03168152602001908152602001600020600101808054600181600116156101000203166002900480601f0160208091040260200160405190810160405280929190818152602001828054600181600116156101000203166002900480156119095780601f106118de57610100808354040283529160200191611909565b820191906000526020600020905b8154815290600101906020018083116118ec57829003601f168201915b505050505090509250925092509193909250565b60008282111561192c57600080fd5b50900390565b60008282018381101561194457600080fd5b9392505050565b60206040519081016040526000815290565b81548183558181151161198157600083815260209020611981918101908301611a04565b505050565b828054600181600116156101000203166002900490600052602060002090601f016020900481019282601f106119c757805160ff19168380011785556119f4565b828001600101855582156119f4579182015b828111156119f45782518255916020019190600101906119d9565b50611a00929150611a04565b5090565b61087c91905b80821115611a005760008155600101611a0a5600a165627a7a723058202804e643a9edf3cbb731b35e6d62721fb76b9ddea30c9270dabd22a0887cace70029",
  "source": "pragma solidity ^0.4.21;\r\n\r\nimport \"./templates/SafeMath.sol\";\r\nimport \"./templates/Basic.sol\";\r\nimport \"./templates/Mintable.sol\";\r\nimport \"./Users.sol\";\r\n\r\n\r\ncontract PowerPiperToken is Basic, Mintable, Users {\r\n\r\n    using SafeMath for uint;\r\n\r\n    struct RedemptionStruct {\r\n        address redeemer;\r\n        string location;\r\n        uint amount;\r\n        uint timestamp;\r\n    }\r\n\r\n    struct OrderStruct {\r\n        address buyer;\r\n        uint amount;\r\n        uint timestamp;\r\n    }\r\n\r\n    struct Cert {\r\n        bytes32 url;\r\n        uint amount;\r\n        uint timestamp;\r\n    }\r\n\r\n    struct EquipmentStruct {\r\n        uint index;\r\n        uint kwh;\r\n        uint price;\r\n        address userId;\r\n    }\r\n\r\n    struct PlaceStruct {\r\n        uint index;\r\n        uint msq;\r\n        uint kwh;\r\n        uint price;\r\n        address userId;\r\n    }\r\n\r\n    bytes32 public name;\r\n    bytes32 public symbol;\r\n    uint public decimals;\r\n    uint public fee;\r\n    uint public priceMarkup;\r\n    uint public reserves = 0;\r\n    RedemptionStruct[] redemptions;\r\n    OrderStruct[] orders;\r\n    Cert[] certificates;\r\n    mapping(address => EquipmentStruct) public equipments;\r\n    address[] private equipmentIndex;\r\n    mapping(address => PlaceStruct) public places;\r\n    address[] private placeIndex;\r\n\r\n    event RedeemEvent(address _redeember, uint _amount, uint _timestamp);\r\n    event BuyDirectEvent(address _buyer, uint _amount, uint _timestamp);\r\n    event NewEquipment(address indexed _addr, address indexed _userAddr, uint _index, uint _kwh, uint _price);\r\n    event UpdateEquipment(address indexed _addr, address indexed _userAddr, uint _index, uint _kwh, uint _price);\r\n    event DeleteEquipment(address indexed _addr,  uint _index);\r\n    event NewPlace(address indexed _addr, address indexed _userAddr, uint _index, uint _msq, uint _kwh, uint _price);\r\n    event UpdatePlace(address indexed _addr, address indexed _userAddr, uint _index, uint _msq, uint _kwh, uint _price);\r\n    event DeletePlace(address indexed _addr,  uint _index);\r\n\r\n    function PowerPiperToken() public {\r\n        symbol = \"PWP\";\r\n        name = \"PowerPiperToken\";\r\n        decimals = 3;\r\n        fee = 1 * 10 ** decimals; // 1%\r\n        priceMarkup = 5 * 10 ** decimals; // 5%\r\n    }\r\n\r\n    function calculateFee(uint _amount) public view returns (uint) {\r\n        uint feeAmount = _amount * fee / (10 ** decimals);\r\n\r\n        if (feeAmount == 0) {\r\n            return 1;\r\n        } else {\r\n            return feeAmount;\r\n        }\r\n    }\r\n\r\n    function setNewFee(uint _fee) public onlyOwner {\r\n        fee = _fee;\r\n    }\r\n\r\n    function setPriceMarkup(uint _priceMarkup) public onlyOwner {\r\n        priceMarkup = _priceMarkup;\r\n    }\r\n\r\n    /*function redeem(uint _value, string _location) public returns (uint) {\r\n        require(balanceOf(msg.sender) >= _value);\r\n\r\n        approve(msg.sender, _value);\r\n        transferFrom(msg.sender, address(this), _value);\r\n\r\n        RedemptionStruct memory redemption = RedemptionStruct({\r\n            redeemer: msg.sender,\r\n            amount: _value,\r\n            location: _location,\r\n            timestamp: now\r\n        });\r\n\r\n        redemptions.push(redemption);\r\n\r\n        emit RedeemEvent(redemption.redeemer, redemption.amount, redemption.timestamp);\r\n    }\r\n\r\n    function approveRedemption(uint _index) public onlyOwner {\r\n        require(redemptions[_index].amount >= 0);\r\n\r\n        RedemptionStruct memory redemption = redemptions[_index];\r\n        destroyTokens(redemption.amount);\r\n\r\n        redemptions[_index] = redemptions[redemptions.length-1];\r\n        redemptions.length--;\r\n    }\r\n\r\n    function declineRedemption(uint _index) public onlyOwner {\r\n        require(redemptions[_index].amount >= 0);\r\n\r\n        RedemptionStruct memory redemption = redemptions[_index];\r\n        transfer(redemption.redeemer, redemption.amount);\r\n\r\n        redemptions[_index] = redemptions[redemptions.length-1];\r\n        redemptions.length--;\r\n    }\r\n\r\n    function getRedemptionsLength() public constant onlyOwner returns (uint) {\r\n        return redemptions.length;\r\n    }\r\n\r\n    function getRedemption(uint _index) public constant onlyOwner returns (address, uint, string, uint) {\r\n        RedemptionStruct memory redemption = redemptions[_index];\r\n        return (\r\n            redemption.redeemer,\r\n            redemption.amount,\r\n            redemption.location,\r\n            redemption.timestamp\r\n        );\r\n    }\r\n\r\n    function getOrder(uint _index) public constant onlyOwner returns (address, uint, uint) {\r\n        OrderStruct memory order = orders[_index];\r\n        return (order.buyer, order.amount, order.timestamp);\r\n    }\r\n\r\n    function approveOrder(uint _index, uint _amount) public onlyOwner {\r\n        require(orders[_index].amount >= 0);\r\n\r\n        OrderStruct memory order = orders[_index];\r\n\r\n        uint feeAmount = calculateFee(_amount);\r\n        _amount = _amount.sub(feeAmount);\r\n        mint(address(this), feeAmount);\r\n\r\n        mint(order.buyer, _amount);\r\n\r\n        orders[_index] = orders[orders.length-1];\r\n        orders.length--;\r\n    }\r\n\r\n    function declineOrder(uint _index) public onlyOwner {\r\n        require(orders[_index].amount >= 0);\r\n\r\n        OrderStruct memory order = orders[_index];\r\n        order.buyer.transfer(order.amount);\r\n\r\n        orders[_index] = orders[orders.length-1];\r\n        orders.length--;\r\n    }\r\n\r\n    function getOrdersLength() public constant onlyOwner returns (uint) {\r\n        return orders.length;\r\n    }\r\n\r\n    function buyDirect() public payable {\r\n        require(msg.value > 0);\r\n\r\n        OrderStruct memory order = OrderStruct({\r\n            buyer: msg.sender,\r\n            amount: msg.value,\r\n            timestamp: now\r\n        });\r\n\r\n        orders.push(order);\r\n\r\n        emit BuyDirectEvent(order.buyer, order.amount, order.timestamp);\r\n    }\r\n\r\n    function addCertificate(bytes32 _url, uint _amount) public onlyOwner {\r\n        Cert memory certificate = Cert({\r\n            url: _url,\r\n            amount: _amount,\r\n            timestamp: now\r\n        });\r\n\r\n        reserves = reserves.add(certificate.amount);\r\n\r\n        certificates.push(certificate);\r\n    }\r\n\r\n    function getCertificatesLength() public constant onlyOwner returns (uint) {\r\n        return certificates.length;\r\n    }\r\n\r\n    function getCertificate(uint _index) public constant onlyOwner returns (bytes32, uint, uint) {\r\n        Cert memory certificate = certificates[_index];\r\n        return (\r\n            certificate.url,\r\n            certificate.amount,\r\n            certificate.timestamp\r\n        );\r\n    }\r\n\r\n    function deleteCertificate(uint _index) public onlyOwner {\r\n        require(certificates[_index].amount >= 0);\r\n\r\n        reserves = reserves.sub(certificates[_index].amount);\r\n\r\n        certificates[_index] = certificates[certificates.length-1];\r\n        certificates.length--;\r\n    }\r\n\r\n    function existsEquipment(address _addr) public constant returns(bool isIndexed) {\r\n        if(equipmentIndex.length == 0) return false;\r\n        return (equipmentIndex[equipments[_addr].index] == _addr);\r\n    }\r\n\r\n    function newEquipment(address _addr, address _userAddr, uint _kwh, uint _price)\r\n    onlyOwner\r\n    onlyBy(_userAddr)\r\n    public\r\n    returns(uint index) {\r\n        require(existsEquipment(_addr) == false);\r\n        require(existsUser(_addr) == true);\r\n        equipments[_addr].kwh = _kwh;\r\n        equipments[_addr].price = _price;\r\n        equipments[_addr].userId = _userAddr;\r\n        equipments[_addr].index = equipmentIndex.push(_addr) - 1;\r\n        emit NewEquipment(_addr, _userAddr, equipments[_addr].index, _kwh, _price);\r\n        // users[_addr].equipmentId.push(_addr);\r\n        return equipmentIndex.length - 1;\r\n    }\r\n\r\n    function getEquipment(address _addr)\r\n    public\r\n    constant\r\n    returns(uint index, uint kwh, uint price, address userId) {\r\n        require(existsEquipment(_addr) == true);\r\n        return(\r\n            equipments[_addr].index,\r\n            equipments[_addr].kwh,\r\n            equipments[_addr].price,\r\n            equipments[_addr].userId\r\n        );\r\n    }\r\n\r\n    function updateEquipment(address _addr, address _userAddr, uint _kwh, uint _price)\r\n    public\r\n    onlyOwner\r\n    onlyBy(_userAddr)\r\n    returns(bool) {\r\n        require(existsEquipment(_addr) == true);\r\n        require(existsUser(_userAddr) == true);\r\n        equipments[_addr].kwh = _kwh;\r\n        equipments[_addr].price = _price;\r\n        emit UpdateEquipment(_addr, _userAddr, equipments[_addr].index, _kwh, _price);\r\n        return true;\r\n    }\r\n\r\n    function deleteEquipment(address _addr, address _userAddr)\r\n    public\r\n    onlyOwner\r\n    onlyBy(_userAddr)\r\n    returns(uint index) {\r\n        require(existsEquipment(_addr) == true);\r\n        uint _rowToDelete = equipments[_addr].index;\r\n        address _keyToMove = equipmentIndex[equipmentIndex.length - 1];\r\n        equipmentIndex[_rowToDelete] = _keyToMove;\r\n        equipments[_keyToMove].index = _rowToDelete; \r\n        equipmentIndex.length--;\r\n        emit DeleteEquipment(_addr, _rowToDelete);\r\n        emit UpdateEquipment(_keyToMove, equipments[_keyToMove].userId, _rowToDelete, equipments[_keyToMove].kwh, equipments[_keyToMove].price);\r\n        return _rowToDelete;\r\n    }\r\n\r\n    function getEquipmentCount() public constant returns(uint count) {\r\n        return equipmentIndex.length;\r\n    }\r\n\r\n    function getEquipmentAtIndex(uint index) public  constant returns(address _addr) {\r\n        return equipmentIndex[index];\r\n    }\r\n\r\n    function existsPlace(address _addr) public constant returns(bool isIndexed) {\r\n        if(placeIndex.length == 0) return false;\r\n        return (placeIndex[places[_addr].index] == _addr);\r\n    }\r\n\r\n    function newPlace(address _addr, address _userAddr, uint _msq, uint _kwh, uint _price)\r\n    onlyOwner\r\n    onlyBy(_userAddr)\r\n    public\r\n    returns(uint index) {\r\n        require(existsPlace(_addr) == false);\r\n        require(existsUser(_addr) == true);\r\n        places[_addr].msq = _msq;\r\n        places[_addr].kwh = _kwh;\r\n        places[_addr].price = _price;\r\n        places[_addr].userId = _userAddr;\r\n        places[_addr].index = placeIndex.push(_addr) - 1;\r\n        emit NewPlace(_addr, _userAddr, places[_addr].index,  _msq, _kwh, _price);\r\n        // users[_addr].placeId.push(_addr);\r\n        return placeIndex.length - 1;\r\n    }\r\n\r\n    function getPlace(address _addr)\r\n    public\r\n    constant\r\n    returns(uint index, uint msq, uint kwh, uint price, address userId) {\r\n        require(existsPlace(_addr) == true);\r\n        return(\r\n            places[_addr].index,\r\n            places[_addr].msq,\r\n            places[_addr].kwh,\r\n            places[_addr].price,\r\n            places[_addr].userId\r\n        );\r\n    }\r\n\r\n    function updatePlace(address _addr, address _userAddr, uint _msq, uint _kwh, uint _price)\r\n    public\r\n    onlyOwner\r\n    onlyBy(_userAddr)\r\n    returns(bool) {\r\n        require(existsPlace(_addr) == true);\r\n        require(existsUser(_userAddr) == true);\r\n        places[_addr].msq = _msq;\r\n        places[_addr].kwh = _kwh;\r\n        places[_addr].price = _price;\r\n        emit UpdatePlace(_addr, _userAddr, places[_addr].index, _msq, _kwh, _price);\r\n        return true;\r\n    }\r\n\r\n    function deletePlace(address _addr, address _userAddr)\r\n    public\r\n    onlyOwner\r\n    onlyBy(_userAddr)\r\n    returns(uint index) {\r\n        require(existsPlace(_addr) == true);\r\n        uint _rowToDelete = places[_addr].index;\r\n        address _keyToMove = placeIndex[placeIndex.length - 1];\r\n        placeIndex[_rowToDelete] = _keyToMove;\r\n        places[_keyToMove].index = _rowToDelete; \r\n        placeIndex.length--;\r\n        emit DeletePlace(_addr, _rowToDelete);\r\n        emit UpdatePlace(_keyToMove, places[_keyToMove].userId, _rowToDelete, places[_keyToMove].msq, places[_keyToMove].kwh, places[_keyToMove].price);\r\n        return _rowToDelete;\r\n    }\r\n\r\n    function getPlaceCount() public constant returns(uint count) {\r\n        return placeIndex.length;\r\n    }\r\n\r\n    function getPlaceAtIndex(uint index) public constant returns(address _addr) {\r\n        return placeIndex[index];\r\n    }*/\r\n\r\n}\r\n",
  "sourcePath": "C:\\Users\\DXenu\\Desktop\\box\\demo_contract\\contracts\\PowerPiperToken.sol",
  "compiler": {
    "name": "solc",
    "version": "0.4.21+commit.dfe3193c.Emscripten.clang"
  },
  "schemaVersion": "2.0.0",
  "updatedAt": "2018-04-25T19:23:02.984Z"
}