{
  "contractName": "PowerPiperCrowdsale",
  "abi": [
    {
      "constant": true,
      "inputs": [],
      "name": "startDate",
      "outputs": [
        {
          "name": "",
          "type": "uint256"
        }
      ],
      "payable": false,
      "stateMutability": "view",
      "type": "function"
    },
    {
      "constant": true,
      "inputs": [
        {
          "name": "addr",
          "type": "address"
        }
      ],
      "name": "validate",
      "outputs": [
        {
          "name": "",
          "type": "bool"
        }
      ],
      "payable": false,
      "stateMutability": "view",
      "type": "function"
    },
    {
      "constant": true,
      "inputs": [],
      "name": "rate",
      "outputs": [
        {
          "name": "",
          "type": "uint256"
        }
      ],
      "payable": false,
      "stateMutability": "view",
      "type": "function"
    },
    {
      "constant": true,
      "inputs": [],
      "name": "decimals",
      "outputs": [
        {
          "name": "",
          "type": "uint8"
        }
      ],
      "payable": false,
      "stateMutability": "view",
      "type": "function"
    },
    {
      "constant": true,
      "inputs": [],
      "name": "cap",
      "outputs": [
        {
          "name": "",
          "type": "uint256"
        }
      ],
      "payable": false,
      "stateMutability": "view",
      "type": "function"
    },
    {
      "constant": true,
      "inputs": [],
      "name": "_totalSupply",
      "outputs": [
        {
          "name": "",
          "type": "uint256"
        }
      ],
      "payable": false,
      "stateMutability": "view",
      "type": "function"
    },
    {
      "constant": true,
      "inputs": [],
      "name": "weiRaised",
      "outputs": [
        {
          "name": "",
          "type": "uint256"
        }
      ],
      "payable": false,
      "stateMutability": "view",
      "type": "function"
    },
    {
      "constant": true,
      "inputs": [],
      "name": "bonusEnds",
      "outputs": [
        {
          "name": "",
          "type": "uint256"
        }
      ],
      "payable": false,
      "stateMutability": "view",
      "type": "function"
    },
    {
      "constant": true,
      "inputs": [],
      "name": "bonusRate",
      "outputs": [
        {
          "name": "",
          "type": "uint256"
        }
      ],
      "payable": false,
      "stateMutability": "view",
      "type": "function"
    },
    {
      "constant": true,
      "inputs": [],
      "name": "tokenName",
      "outputs": [
        {
          "name": "",
          "type": "bytes32"
        }
      ],
      "payable": false,
      "stateMutability": "view",
      "type": "function"
    },
    {
      "constant": true,
      "inputs": [],
      "name": "owner",
      "outputs": [
        {
          "name": "",
          "type": "address"
        }
      ],
      "payable": false,
      "stateMutability": "view",
      "type": "function"
    },
    {
      "constant": true,
      "inputs": [],
      "name": "symbol",
      "outputs": [
        {
          "name": "",
          "type": "bytes32"
        }
      ],
      "payable": false,
      "stateMutability": "view",
      "type": "function"
    },
    {
      "constant": true,
      "inputs": [],
      "name": "endDate",
      "outputs": [
        {
          "name": "",
          "type": "uint256"
        }
      ],
      "payable": false,
      "stateMutability": "view",
      "type": "function"
    },
    {
      "constant": false,
      "inputs": [
        {
          "name": "newOwner",
          "type": "address"
        }
      ],
      "name": "transferOwnership",
      "outputs": [],
      "payable": false,
      "stateMutability": "nonpayable",
      "type": "function"
    },
    {
      "inputs": [],
      "payable": false,
      "stateMutability": "nonpayable",
      "type": "constructor"
    },
    {
      "payable": true,
      "stateMutability": "payable",
      "type": "fallback"
    },
    {
      "anonymous": false,
      "inputs": [
        {
          "indexed": true,
          "name": "previousOwner",
          "type": "address"
        },
        {
          "indexed": true,
          "name": "newOwner",
          "type": "address"
        }
      ],
      "name": "OwnershipTransferred",
      "type": "event"
    },
    {
      "anonymous": false,
      "inputs": [
        {
          "indexed": true,
          "name": "from",
          "type": "address"
        },
        {
          "indexed": true,
          "name": "to",
          "type": "address"
        },
        {
          "indexed": false,
          "name": "value",
          "type": "uint256"
        }
      ],
      "name": "Transfer",
      "type": "event"
    },
    {
      "anonymous": false,
      "inputs": [
        {
          "indexed": true,
          "name": "owner",
          "type": "address"
        },
        {
          "indexed": true,
          "name": "spender",
          "type": "address"
        },
        {
          "indexed": false,
          "name": "value",
          "type": "uint256"
        }
      ],
      "name": "Approval",
      "type": "event"
    },
    {
      "constant": true,
      "inputs": [],
      "name": "hasClosed",
      "outputs": [
        {
          "name": "",
          "type": "bool"
        }
      ],
      "payable": false,
      "stateMutability": "view",
      "type": "function"
    },
    {
      "constant": true,
      "inputs": [],
      "name": "capReached",
      "outputs": [
        {
          "name": "",
          "type": "bool"
        }
      ],
      "payable": false,
      "stateMutability": "view",
      "type": "function"
    },
    {
      "constant": true,
      "inputs": [],
      "name": "totalSupply",
      "outputs": [
        {
          "name": "",
          "type": "uint256"
        }
      ],
      "payable": false,
      "stateMutability": "view",
      "type": "function"
    },
    {
      "constant": true,
      "inputs": [
        {
          "name": "_tokenOwner",
          "type": "address"
        }
      ],
      "name": "balanceOf",
      "outputs": [
        {
          "name": "balance",
          "type": "uint256"
        }
      ],
      "payable": false,
      "stateMutability": "view",
      "type": "function"
    },
    {
      "constant": false,
      "inputs": [
        {
          "name": "_to",
          "type": "address"
        },
        {
          "name": "_tokens",
          "type": "uint256"
        }
      ],
      "name": "transfer",
      "outputs": [
        {
          "name": "success",
          "type": "bool"
        }
      ],
      "payable": false,
      "stateMutability": "nonpayable",
      "type": "function"
    },
    {
      "constant": false,
      "inputs": [
        {
          "name": "_spender",
          "type": "address"
        },
        {
          "name": "_tokens",
          "type": "uint256"
        }
      ],
      "name": "approve",
      "outputs": [
        {
          "name": "success",
          "type": "bool"
        }
      ],
      "payable": false,
      "stateMutability": "nonpayable",
      "type": "function"
    },
    {
      "constant": false,
      "inputs": [
        {
          "name": "_from",
          "type": "address"
        },
        {
          "name": "_to",
          "type": "address"
        },
        {
          "name": "_tokens",
          "type": "uint256"
        }
      ],
      "name": "transferFrom",
      "outputs": [
        {
          "name": "success",
          "type": "bool"
        }
      ],
      "payable": false,
      "stateMutability": "nonpayable",
      "type": "function"
    },
    {
      "constant": true,
      "inputs": [
        {
          "name": "_tokenOwner",
          "type": "address"
        },
        {
          "name": "_spender",
          "type": "address"
        }
      ],
      "name": "allowance",
      "outputs": [
        {
          "name": "remaining",
          "type": "uint256"
        }
      ],
      "payable": false,
      "stateMutability": "view",
      "type": "function"
    },
    {
      "constant": false,
      "inputs": [
        {
          "name": "_spender",
          "type": "address"
        },
        {
          "name": "_tokens",
          "type": "uint256"
        },
        {
          "name": "_data",
          "type": "bytes"
        }
      ],
      "name": "approveAndCall",
      "outputs": [
        {
          "name": "success",
          "type": "bool"
        }
      ],
      "payable": false,
      "stateMutability": "nonpayable",
      "type": "function"
    },
    {
      "constant": false,
      "inputs": [
        {
          "name": "_tokenOwner",
          "type": "address"
        }
      ],
      "name": "reclaimToken",
      "outputs": [
        {
          "name": "success",
          "type": "bool"
        }
      ],
      "payable": false,
      "stateMutability": "nonpayable",
      "type": "function"
    }
  ],
  "bytecode": "0x6060604052600c805460ff19169055341561001957600080fd5b60008054600160a060020a03191633600160a060020a03161781557f50575000000000000000000000000000000000000000000000000000000000006001557f506f7765725069706572546f6b656e00000000000000000000000000000000006002556003805460ff1916811790554260c8810160055562093a808101600655624099800160075561138860085568056bc75e2d63100000600a55611770600955610bc59081906100ca90396000f30060606040526004361061013d5763ffffffff7c0100000000000000000000000000000000000000000000000000000000600035041663095ea7b381146102af5780630b97bc86146102e55780631515bc2b1461030a57806317ffc3201461031d57806318160ddd1461033c578063207c64fb1461034f57806323b872dd1461036e5780632c4e722e14610396578063313ce567146103a9578063355274ea146103d25780633eaaf86b146103e55780634042b66f146103f857806340c650031461040b5780634f9359451461041e5780635af123f4146104315780636c02a9311461044457806370a08231146104575780638da5cb5b1461047657806395d89b41146104a5578063a9059cbb146104b8578063c24a0f8b146104da578063cae9ca51146104ed578063dd62ed3e14610552578063f2fde38b14610577575b34336000600160a060020a038216151561015657600080fd5b82151561016257600080fd5b600554421015801561017657506007544211155b151561018157600080fd5b600a54610190600b5485610598565b111561019b57600080fd5b60065442116101af575060095434026101b6565b5060085434025b600c5460ff16156101c657600080fd5b600c805460ff19166001179055600160a060020a0382166000908152600d60205260409020546101f69082610598565b600160a060020a0383166000908152600d602052604090205560045461021c9082610598565b600455600160a060020a03821660007fddf252ad1be2c89b69c2b068fc378daa952ba7f163c4a11628f55a4df523b3ef8360405190815260200160405180910390a3600054600160a060020a031683156108fc0284604051600060405180830381858888f19350505050151561029157600080fd5b61029d600b5484610598565b600b555050600c805460ff1916905550005b34156102ba57600080fd5b6102d1600160a060020a03600435166024356105b1565b604051901515815260200160405180910390f35b34156102f057600080fd5b6102f861061d565b60405190815260200160405180910390f35b341561031557600080fd5b6102d1610623565b341561032857600080fd5b6102d1600160a060020a036004351661062b565b341561034757600080fd5b6102f8610671565b341561035a57600080fd5b6102d1600160a060020a03600435166106a3565b341561037957600080fd5b6102d1600160a060020a03600435811690602435166044356106ba565b34156103a157600080fd5b6102f86107bb565b34156103b457600080fd5b6103bc6107c1565b60405160ff909116815260200160405180910390f35b34156103dd57600080fd5b6102f86107ca565b34156103f057600080fd5b6102f86107d0565b341561040357600080fd5b6102f86107d6565b341561041657600080fd5b6102f86107dc565b341561042957600080fd5b6102d16107e2565b341561043c57600080fd5b6102f86107ed565b341561044f57600080fd5b6102f86107f3565b341561046257600080fd5b6102f8600160a060020a03600435166107f9565b341561048157600080fd5b610489610814565b604051600160a060020a03909116815260200160405180910390f35b34156104b057600080fd5b6102f8610823565b34156104c357600080fd5b6102d1600160a060020a0360043516602435610829565b34156104e557600080fd5b6102f8610926565b34156104f857600080fd5b6102d160048035600160a060020a03169060248035919060649060443590810190830135806020601f8201819004810201604051908101604052818152929190602084018383808284375094965061092c95505050505050565b341561055d57600080fd5b6102f8600160a060020a0360043581169060243516610aa8565b341561058257600080fd5b610596600160a060020a0360043516610ad3565b005b6000828201838110156105aa57600080fd5b9392505050565b600160a060020a033381166000818152600e6020908152604080832094871680845294909152808220859055909291907f8c5be1e5ebec7d5bd14f71427d1e84f3dd0314c0f7b2291e5b200ac8c7c3b9259085905190815260200160405180910390a350600192915050565b60055481565b600754421190565b60008054819033600160a060020a0390811691161461064957600080fd5b610652836107f9565b60005490915061066b90600160a060020a031682610b6e565b50919050565b60008052600d6020527f81955a0a11e65eac625c29e8882660bae4e165a75d72780094acae8ece9a29ee546004540390565b60005433600160a060020a03908116911614919050565b600160a060020a0383166000908152600d60205260408120546106dd9083610b84565b600160a060020a038086166000908152600d6020908152604080832094909455600e815283822033909316825291909152205461071a9083610b84565b600160a060020a038086166000908152600e6020908152604080832033851684528252808320949094559186168152600d909152205461075a9083610598565b600160a060020a038085166000818152600d6020526040908190209390935591908616907fddf252ad1be2c89b69c2b068fc378daa952ba7f163c4a11628f55a4df523b3ef9085905190815260200160405180910390a35060019392505050565b60085481565b60035460ff1681565b600a5481565b60045481565b600b5481565b60065481565b600a54600b54101590565b60095481565b60025481565b600160a060020a03166000908152600d602052604090205490565b600054600160a060020a031681565b60015481565b6000600160a060020a038316151561084057600080fd5b600160a060020a0333166000908152600d602052604090205482118015906108685750600082115b151561087357600080fd5b600160a060020a0333166000908152600d60205260409020546108969083610b84565b600160a060020a033381166000908152600d602052604080822093909355908516815220546108c59083610598565b600160a060020a038085166000818152600d602052604090819020939093559133909116907fddf252ad1be2c89b69c2b068fc378daa952ba7f163c4a11628f55a4df523b3ef9085905190815260200160405180910390a350600192915050565b60075481565b600160a060020a033381166000818152600e6020908152604080832094881680845294909152808220869055909291907f8c5be1e5ebec7d5bd14f71427d1e84f3dd0314c0f7b2291e5b200ac8c7c3b9259086905190815260200160405180910390a383600160a060020a0316638f4ffcb1338530866040518563ffffffff167c01000000000000000000000000000000000000000000000000000000000281526004018085600160a060020a0316600160a060020a0316815260200184815260200183600160a060020a0316600160a060020a0316815260200180602001828103825283818151815260200191508051906020019080838360005b83811015610a40578082015183820152602001610a28565b50505050905090810190601f168015610a6d5780820380516001836020036101000a031916815260200191505b5095505050505050600060405180830381600087803b1515610a8e57600080fd5b5af11515610a9b57600080fd5b5060019695505050505050565b600160a060020a039182166000908152600e6020908152604080832093909416825291909152205490565b60005433600160a060020a03908116911614610aee57600080fd5b600160a060020a0381161515610b0357600080fd5b600054600160a060020a0380831691167f8be0079c531659141344cd1fd0a4f28419497f9722a3daafe3b4186f6b6457e060405160405180910390a36000805473ffffffffffffffffffffffffffffffffffffffff1916600160a060020a0392909216919091179055565b610b788282610829565b1515610b8057fe5b5050565b600082821115610b9357600080fd5b509003905600a165627a7a7230582010cf83a0c3aa6577a9c7af032bf8ed4002b48474cc508acc4ac8cfe5be0010a80029",
  "source": "pragma solidity ^0.4.21;\r\n\r\nimport \"./zeppelin/Ownable.sol\";\r\nimport \"./zeppelin/ERC20.sol\";\r\nimport \"./zeppelin/ApproveAndCallFallBack.sol\";\r\nimport \"./zeppelin/SafeMath.sol\";\r\n\r\ncontract PowerPiperCrowdsale is ERC20, Ownable {\r\n\r\n    bytes32 public symbol;\r\n    bytes32 public  tokenName;\r\n    uint8 public decimals;\r\n    uint public _totalSupply;\r\n    uint public startDate;\r\n    uint public bonusEnds;\r\n    uint public endDate;\r\n    uint public rate;\r\n    uint public bonusRate;\r\n    uint public cap;\r\n    uint public weiRaised;\r\n    bool private reentrancyLock = false;\r\n\r\n    mapping(address => uint) balances;\r\n    mapping(address => mapping(address => uint)) allowed;\r\n\r\n    function PowerPiperCrowdsale() public {\r\n        symbol = \"PWP\";\r\n        tokenName = \"PowerPiperToken\";\r\n        decimals = 3;\r\n        startDate = now + 200 seconds;\r\n        bonusEnds = now + 1 weeks;\r\n        endDate = now + 7 weeks;\r\n        rate = 5000;\r\n        cap = 100 ether;\r\n        bonusRate = 6000;\r\n    }\r\n\r\n    function hasClosed() public view returns (bool) {\r\n        return now > endDate;\r\n    }\r\n\r\n    function capReached() public view returns (bool) {\r\n        return weiRaised >= cap;\r\n    }\r\n\r\n    function totalSupply() public constant returns (uint) {\r\n        return _totalSupply  - balances[address(0)];\r\n    }\r\n\r\n    function balanceOf(address _tokenOwner) public constant returns (uint balance) {\r\n        return balances[_tokenOwner];\r\n    }\r\n\r\n    function transfer(address _to, uint _tokens) public returns (bool success) {\r\n        require(_to != address(0));\r\n        require(_tokens <= balances[msg.sender] && _tokens > 0);\r\n\r\n        balances[msg.sender] = SafeMath.sub(balances[msg.sender], _tokens);\r\n        balances[_to] = SafeMath.add(balances[_to], _tokens);\r\n        emit Transfer(msg.sender, _to, _tokens);\r\n        return true;\r\n    }\r\n\r\n    function approve(address _spender, uint _tokens) public returns (bool success) {\r\n        allowed[msg.sender][_spender] = _tokens;\r\n        emit Approval(msg.sender, _spender, _tokens);\r\n        return true;\r\n    }\r\n\r\n    function transferFrom(address _from, address _to, uint _tokens) public returns (bool success) {\r\n        balances[_from] = SafeMath.sub(balances[_from], _tokens);\r\n        allowed[_from][msg.sender] = SafeMath.sub(allowed[_from][msg.sender], _tokens);\r\n        balances[_to] = SafeMath.add(balances[_to], _tokens);\r\n        emit Transfer(_from, _to, _tokens);\r\n        return true;\r\n    }\r\n\r\n    function allowance(address _tokenOwner, address _spender) public constant returns (uint remaining) {\r\n        return allowed[_tokenOwner][_spender];\r\n    }\r\n\r\n    function approveAndCall(address _spender, uint _tokens, bytes _data) public returns (bool success) {\r\n        allowed[msg.sender][_spender] = _tokens;\r\n        emit Approval(msg.sender, _spender, _tokens);\r\n        ApproveAndCallFallBack(_spender).receiveApproval(msg.sender, _tokens, this, _data);\r\n        return true;\r\n    }\r\n\r\n    function () public payable {\r\n\r\n        uint256 _weiAmount = msg.value;\r\n        address _beneficiary = msg.sender;\r\n        require(_beneficiary != address(0));\r\n        require(_weiAmount != 0);\r\n        require(now >= startDate && now <= endDate);\r\n        require(SafeMath.add(weiRaised, _weiAmount) <= cap);\r\n\r\n        uint tokens;\r\n\r\n        if (now <= bonusEnds) {\r\n            tokens = msg.value * bonusRate;\r\n        } else {\r\n            tokens = msg.value * rate;\r\n        }\r\n\r\n        require(!reentrancyLock);\r\n        reentrancyLock = true;\r\n        balances[_beneficiary] = SafeMath.add(balances[_beneficiary], tokens);\r\n        _totalSupply = SafeMath.add(_totalSupply, tokens);\r\n        emit Transfer(address(0), _beneficiary, tokens);\r\n        owner.transfer(_weiAmount);\r\n        weiRaised = SafeMath.add(weiRaised, _weiAmount);\r\n        reentrancyLock = false;\r\n    }\r\n\r\n    function safeTransfer(address _to, uint256 _tokens) internal {\r\n        assert(transfer(_to, _tokens));\r\n    }\r\n\r\n    function reclaimToken(address _tokenOwner) public onlyOwner returns (bool success) {\r\n        uint256 balance = balanceOf(_tokenOwner);\r\n        safeTransfer(owner, balance);\r\n    }\r\n\r\n}\r\n",
  "sourcePath": "C:\\Users\\DXenu\\Desktop\\box\\demo_contract\\contracts\\PowerPiperCrowdsale.sol",
  "compiler": {
    "name": "solc",
    "version": "0.4.21+commit.dfe3193c.Emscripten.clang"
  },
  "schemaVersion": "2.0.0",
  "updatedAt": "2018-04-16T10:14:28.062Z"
}