{
  "contractName": "PowerPiperCrowdsale",
  "abi": [
    {
      "constant": false,
      "inputs": [
        {
          "name": "_spender",
          "type": "address"
        },
        {
          "name": "_tokens",
          "type": "uint256"
        }
      ],
      "name": "approve",
      "outputs": [
        {
          "name": "success",
          "type": "bool"
        }
      ],
      "payable": false,
      "stateMutability": "nonpayable",
      "type": "function"
    },
    {
      "constant": true,
      "inputs": [],
      "name": "startDate",
      "outputs": [
        {
          "name": "",
          "type": "uint256"
        }
      ],
      "payable": false,
      "stateMutability": "view",
      "type": "function"
    },
    {
      "constant": true,
      "inputs": [],
      "name": "totalSupply",
      "outputs": [
        {
          "name": "",
          "type": "uint256"
        }
      ],
      "payable": false,
      "stateMutability": "view",
      "type": "function"
    },
    {
      "constant": false,
      "inputs": [
        {
          "name": "_from",
          "type": "address"
        },
        {
          "name": "_to",
          "type": "address"
        },
        {
          "name": "_tokens",
          "type": "uint256"
        }
      ],
      "name": "transferFrom",
      "outputs": [
        {
          "name": "success",
          "type": "bool"
        }
      ],
      "payable": false,
      "stateMutability": "nonpayable",
      "type": "function"
    },
    {
      "constant": true,
      "inputs": [],
      "name": "rate",
      "outputs": [
        {
          "name": "",
          "type": "uint256"
        }
      ],
      "payable": false,
      "stateMutability": "view",
      "type": "function"
    },
    {
      "constant": true,
      "inputs": [],
      "name": "decimals",
      "outputs": [
        {
          "name": "",
          "type": "uint8"
        }
      ],
      "payable": false,
      "stateMutability": "view",
      "type": "function"
    },
    {
      "constant": true,
      "inputs": [],
      "name": "cap",
      "outputs": [
        {
          "name": "",
          "type": "uint256"
        }
      ],
      "payable": false,
      "stateMutability": "view",
      "type": "function"
    },
    {
      "constant": true,
      "inputs": [],
      "name": "_totalSupply",
      "outputs": [
        {
          "name": "",
          "type": "uint256"
        }
      ],
      "payable": false,
      "stateMutability": "view",
      "type": "function"
    },
    {
      "constant": true,
      "inputs": [],
      "name": "weiRaised",
      "outputs": [
        {
          "name": "",
          "type": "uint256"
        }
      ],
      "payable": false,
      "stateMutability": "view",
      "type": "function"
    },
    {
      "constant": true,
      "inputs": [],
      "name": "bonusEnds",
      "outputs": [
        {
          "name": "",
          "type": "uint256"
        }
      ],
      "payable": false,
      "stateMutability": "view",
      "type": "function"
    },
    {
      "constant": true,
      "inputs": [],
      "name": "bonusRate",
      "outputs": [
        {
          "name": "",
          "type": "uint256"
        }
      ],
      "payable": false,
      "stateMutability": "view",
      "type": "function"
    },
    {
      "constant": true,
      "inputs": [],
      "name": "validate",
      "outputs": [
        {
          "name": "",
          "type": "bool"
        }
      ],
      "payable": false,
      "stateMutability": "view",
      "type": "function"
    },
    {
      "constant": true,
      "inputs": [],
      "name": "tokenName",
      "outputs": [
        {
          "name": "",
          "type": "bytes32"
        }
      ],
      "payable": false,
      "stateMutability": "view",
      "type": "function"
    },
    {
      "constant": true,
      "inputs": [
        {
          "name": "_tokenOwner",
          "type": "address"
        }
      ],
      "name": "balanceOf",
      "outputs": [
        {
          "name": "balance",
          "type": "uint256"
        }
      ],
      "payable": false,
      "stateMutability": "view",
      "type": "function"
    },
    {
      "constant": true,
      "inputs": [],
      "name": "owner",
      "outputs": [
        {
          "name": "",
          "type": "address"
        }
      ],
      "payable": false,
      "stateMutability": "view",
      "type": "function"
    },
    {
      "constant": true,
      "inputs": [],
      "name": "symbol",
      "outputs": [
        {
          "name": "",
          "type": "bytes32"
        }
      ],
      "payable": false,
      "stateMutability": "view",
      "type": "function"
    },
    {
      "constant": false,
      "inputs": [
        {
          "name": "_to",
          "type": "address"
        },
        {
          "name": "_tokens",
          "type": "uint256"
        }
      ],
      "name": "transfer",
      "outputs": [
        {
          "name": "success",
          "type": "bool"
        }
      ],
      "payable": false,
      "stateMutability": "nonpayable",
      "type": "function"
    },
    {
      "constant": true,
      "inputs": [],
      "name": "endDate",
      "outputs": [
        {
          "name": "",
          "type": "uint256"
        }
      ],
      "payable": false,
      "stateMutability": "view",
      "type": "function"
    },
    {
      "constant": true,
      "inputs": [
        {
          "name": "_tokenOwner",
          "type": "address"
        },
        {
          "name": "_spender",
          "type": "address"
        }
      ],
      "name": "allowance",
      "outputs": [
        {
          "name": "remaining",
          "type": "uint256"
        }
      ],
      "payable": false,
      "stateMutability": "view",
      "type": "function"
    },
    {
      "constant": false,
      "inputs": [
        {
          "name": "newOwner",
          "type": "address"
        }
      ],
      "name": "transferOwnership",
      "outputs": [],
      "payable": false,
      "stateMutability": "nonpayable",
      "type": "function"
    },
    {
      "inputs": [],
      "payable": false,
      "stateMutability": "nonpayable",
      "type": "constructor"
    },
    {
      "payable": true,
      "stateMutability": "payable",
      "type": "fallback"
    },
    {
      "anonymous": false,
      "inputs": [
        {
          "indexed": true,
          "name": "previousOwner",
          "type": "address"
        },
        {
          "indexed": true,
          "name": "newOwner",
          "type": "address"
        }
      ],
      "name": "OwnershipTransferred",
      "type": "event"
    },
    {
      "anonymous": false,
      "inputs": [
        {
          "indexed": true,
          "name": "from",
          "type": "address"
        },
        {
          "indexed": true,
          "name": "to",
          "type": "address"
        },
        {
          "indexed": false,
          "name": "value",
          "type": "uint256"
        }
      ],
      "name": "Transfer",
      "type": "event"
    },
    {
      "anonymous": false,
      "inputs": [
        {
          "indexed": true,
          "name": "owner",
          "type": "address"
        },
        {
          "indexed": true,
          "name": "spender",
          "type": "address"
        },
        {
          "indexed": false,
          "name": "value",
          "type": "uint256"
        }
      ],
      "name": "Approval",
      "type": "event"
    },
    {
      "constant": true,
      "inputs": [],
      "name": "hasClosed",
      "outputs": [
        {
          "name": "",
          "type": "bool"
        }
      ],
      "payable": false,
      "stateMutability": "view",
      "type": "function"
    },
    {
      "constant": true,
      "inputs": [],
      "name": "capReached",
      "outputs": [
        {
          "name": "",
          "type": "bool"
        }
      ],
      "payable": false,
      "stateMutability": "view",
      "type": "function"
    },
    {
      "constant": false,
      "inputs": [
        {
          "name": "_spender",
          "type": "address"
        },
        {
          "name": "_tokens",
          "type": "uint256"
        },
        {
          "name": "_data",
          "type": "bytes"
        }
      ],
      "name": "approveAndCall",
      "outputs": [
        {
          "name": "success",
          "type": "bool"
        }
      ],
      "payable": false,
      "stateMutability": "nonpayable",
      "type": "function"
    },
    {
      "constant": false,
      "inputs": [
        {
          "name": "_spender",
          "type": "address"
        },
        {
          "name": "_addedValue",
          "type": "uint256"
        }
      ],
      "name": "increaseApproval",
      "outputs": [
        {
          "name": "",
          "type": "bool"
        }
      ],
      "payable": false,
      "stateMutability": "nonpayable",
      "type": "function"
    },
    {
      "constant": false,
      "inputs": [
        {
          "name": "_spender",
          "type": "address"
        },
        {
          "name": "_subtractedValue",
          "type": "uint256"
        }
      ],
      "name": "decreaseApproval",
      "outputs": [
        {
          "name": "",
          "type": "bool"
        }
      ],
      "payable": false,
      "stateMutability": "nonpayable",
      "type": "function"
    },
    {
      "constant": false,
      "inputs": [
        {
          "name": "_tokenOwner",
          "type": "address"
        }
      ],
      "name": "reclaimToken",
      "outputs": [
        {
          "name": "",
          "type": "bool"
        }
      ],
      "payable": false,
      "stateMutability": "nonpayable",
      "type": "function"
    },
    {
      "constant": false,
      "inputs": [
        {
          "name": "_beneficiary",
          "type": "address"
        }
      ],
      "name": "addToWhitelist",
      "outputs": [],
      "payable": false,
      "stateMutability": "nonpayable",
      "type": "function"
    },
    {
      "constant": false,
      "inputs": [
        {
          "name": "_beneficiaries",
          "type": "address[]"
        }
      ],
      "name": "addManyToWhitelist",
      "outputs": [],
      "payable": false,
      "stateMutability": "nonpayable",
      "type": "function"
    },
    {
      "constant": false,
      "inputs": [
        {
          "name": "_beneficiary",
          "type": "address"
        }
      ],
      "name": "removeFromWhitelist",
      "outputs": [],
      "payable": false,
      "stateMutability": "nonpayable",
      "type": "function"
    },
    {
      "constant": false,
      "inputs": [
        {
          "name": "_beneficiary",
          "type": "address"
        }
      ],
      "name": "getWhitelistStatus",
      "outputs": [
        {
          "name": "",
          "type": "bool"
        }
      ],
      "payable": false,
      "stateMutability": "nonpayable",
      "type": "function"
    }
  ],
  "bytecode": "0x6060604052600e805460ff19169055341561001957600080fd5b60038054600160a060020a03191633600160a060020a03161781557f50575000000000000000000000000000000000000000000000000000000000006004557f506f7765725069706572546f6b656e00000000000000000000000000000000006005556006805460ff191690911790554260c8810160075562093a8081016008556240998001600955611388600a5568056bc75e2d63100000600c55611770600b55611006806100ca6000396000f30060606040526004361061017f5763ffffffff7c0100000000000000000000000000000000000000000000000000000000600035041663095ea7b381146102f15780630b97bc86146103275780631515bc2b1461034c57806317ffc3201461035f57806318160ddd1461037e57806323b872dd146103915780632c4e722e146103b9578063313ce567146103cc578063355274ea146103f55780633eaaf86b146104085780634042b66f1461041b57806340c650031461042e5780634f935945146104415780635af123f41461045457806366188463146104675780636901f668146104895780636c02a9311461049c57806370a08231146104af5780638ab1d681146104ce5780638c10671c146104ef5780638da5cb5b1461053e57806395d89b411461056d578063a9059cbb14610580578063c24a0f8b146105a2578063cae9ca51146105b5578063d73dd6231461061a578063d9ba32fc1461063c578063dd62ed3e1461065b578063e43252d714610680578063f2fde38b1461069f575b34336000600160a060020a038216151561019857600080fd5b8215156101a457600080fd5b60075442101580156101b857506009544211155b15156101c357600080fd5b600c546101d2600d54856106be565b11156101dd57600080fd5b60085442116101f15750600b5434026101f8565b50600a5434025b600e5460ff161561020857600080fd5b600e805460ff19166001179055600160a060020a03821660009081526020819052604090205461023890826106be565b600160a060020a03831660009081526020819052604090205560025461025e90826106be565b600255600160a060020a03821660007fddf252ad1be2c89b69c2b068fc378daa952ba7f163c4a11628f55a4df523b3ef8360405190815260200160405180910390a3600354600160a060020a031683156108fc0284604051600060405180830381858888f1935050505015156102d357600080fd5b6102df600d54846106be565b600d555050600e805460ff1916905550005b34156102fc57600080fd5b610313600160a060020a03600435166024356106d7565b604051901515815260200160405180910390f35b341561033257600080fd5b61033a610731565b60405190815260200160405180910390f35b341561035757600080fd5b610313610737565b341561036a57600080fd5b610313600160a060020a036004351661073f565b341561038957600080fd5b61033a610787565b341561039c57600080fd5b610313600160a060020a03600435811690602435166044356107b8565b34156103c457600080fd5b61033a610925565b34156103d757600080fd5b6103df61092b565b60405160ff909116815260200160405180910390f35b341561040057600080fd5b61033a610934565b341561041357600080fd5b61033a61093a565b341561042657600080fd5b61033a610940565b341561043957600080fd5b61033a610946565b341561044c57600080fd5b61031361094c565b341561045f57600080fd5b61033a610957565b341561047257600080fd5b610313600160a060020a036004351660243561095d565b341561049457600080fd5b610313610a3f565b34156104a757600080fd5b61033a610a54565b34156104ba57600080fd5b61033a600160a060020a0360043516610a5a565b34156104d957600080fd5b6104ed600160a060020a0360043516610a75565b005b34156104fa57600080fd5b6104ed6004602481358181019083013580602081810201604051908101604052809392919081815260200183836020028082843750949650610ab195505050505050565b341561054957600080fd5b610551610b2c565b604051600160a060020a03909116815260200160405180910390f35b341561057857600080fd5b61033a610b3b565b341561058b57600080fd5b610313600160a060020a0360043516602435610b41565b34156105ad57600080fd5b61033a610c55565b34156105c057600080fd5b61031360048035600160a060020a03169060248035919060649060443590810190830135806020601f82018190048102016040519081016040528181529291906020840183838082843750949650610c5b95505050505050565b341561062557600080fd5b610313600160a060020a0360043516602435610dc5565b341561064757600080fd5b610313600160a060020a0360043516610e51565b341561066657600080fd5b61033a600160a060020a0360043581169060243516610e8e565b341561068b57600080fd5b6104ed600160a060020a0360043516610eb9565b34156106aa57600080fd5b6104ed600160a060020a0360043516610ef8565b6000828201838110156106d057600080fd5b9392505050565b600160a060020a0333811660008181526001602090815260408083209487168084529490915280822085905590929190600080516020610fbb8339815191529085905190815260200160405180910390a350600192915050565b60075481565b600954421190565b600354600090819033600160a060020a0390811691161461075f57600080fd5b61076883610a5a565b60035490915061078190600160a060020a031682610f93565b50919050565b60008080526020527fad3228b676f7d3cd4284a5443f17f1962b36e491b30a40b2405849e597ba5fb5546002540390565b6000600160a060020a03831615156107cf57600080fd5b600160a060020a0384166000908152602081905260409020548211156107f457600080fd5b600160a060020a038085166000908152600160209081526040808320339094168352929052205482111561082757600080fd5b600160a060020a03841660009081526020819052604090205461084a9083610fa5565b600160a060020a0380861660009081526020818152604080832094909455600181528382203390931682529190915220546108859083610fa5565b600160a060020a038086166000908152600160209081526040808320338516845282528083209490945591861681529081905220546108c490836106be565b600160a060020a03808516600081815260208190526040908190209390935591908616907fddf252ad1be2c89b69c2b068fc378daa952ba7f163c4a11628f55a4df523b3ef9085905190815260200160405180910390a35060019392505050565b600a5481565b60065460ff1681565b600c5481565b60025481565b600d5481565b60085481565b600c54600d54101590565b600b5481565b600160a060020a033381166000908152600160209081526040808320938616835292905290812054808311156109ba57600160a060020a0333811660009081526001602090815260408083209388168352929052908120556109eb565b6109c48184610fa5565b600160a060020a033381166000908152600160209081526040808320938916835292905220555b600160a060020a033381166000818152600160209081526040808320948916808452949091529081902054600080516020610fbb833981519152915190815260200160405180910390a35060019392505050565b60035433600160a060020a0390811691161490565b60055481565b600160a060020a031660009081526020819052604090205490565b60035433600160a060020a03908116911614610a9057600080fd5b600160a060020a03166000908152600f60205260409020805460ff19169055565b60035460009033600160a060020a03908116911614610acf57600080fd5b5060005b8151811015610b28576001600f6000848481518110610aee57fe5b90602001906020020151600160a060020a031681526020810191909152604001600020805460ff1916911515919091179055600101610ad3565b5050565b600354600160a060020a031681565b60045481565b6000600160a060020a0383161515610b5857600080fd5b600160a060020a0333166000908152602081905260409020548211801590610b805750600082115b1515610b8b57600080fd5b600160a060020a033316600090815260208190526040902054610bae9083610fa5565b600160a060020a033381166000908152602081905260408082209390935590851681522054610bdd90836106be565b60008085600160a060020a0316600160a060020a031681526020019081526020016000208190555082600160a060020a031633600160a060020a03167fddf252ad1be2c89b69c2b068fc378daa952ba7f163c4a11628f55a4df523b3ef8460405190815260200160405180910390a350600192915050565b60095481565b600160a060020a0333811660008181526001602090815260408083209488168084529490915280822086905590929190600080516020610fbb8339815191529086905190815260200160405180910390a383600160a060020a0316638f4ffcb1338530866040518563ffffffff167c01000000000000000000000000000000000000000000000000000000000281526004018085600160a060020a0316600160a060020a0316815260200184815260200183600160a060020a0316600160a060020a0316815260200180602001828103825283818151815260200191508051906020019080838360005b83811015610d5d578082015183820152602001610d45565b50505050905090810190601f168015610d8a5780820380516001836020036101000a031916815260200191505b5095505050505050600060405180830381600087803b1515610dab57600080fd5b5af11515610db857600080fd5b5060019695505050505050565b600160a060020a033381166000908152600160209081526040808320938616835292905290812054610df790836106be565b600160a060020a033381166000818152600160209081526040808320948916808452949091529081902084905591929091600080516020610fbb83398151915291905190815260200160405180910390a350600192915050565b60035460009033600160a060020a03908116911614610e6f57600080fd5b50600160a060020a03166000908152600f602052604090205460ff1690565b600160a060020a03918216600090815260016020908152604080832093909416825291909152205490565b60035433600160a060020a03908116911614610ed457600080fd5b600160a060020a03166000908152600f60205260409020805460ff19166001179055565b60035433600160a060020a03908116911614610f1357600080fd5b600160a060020a0381161515610f2857600080fd5b600354600160a060020a0380831691167f8be0079c531659141344cd1fd0a4f28419497f9722a3daafe3b4186f6b6457e060405160405180910390a36003805473ffffffffffffffffffffffffffffffffffffffff1916600160a060020a0392909216919091179055565b610f9d8282610b41565b1515610b2857fe5b600082821115610fb457600080fd5b5090039056008c5be1e5ebec7d5bd14f71427d1e84f3dd0314c0f7b2291e5b200ac8c7c3b925a165627a7a72305820588aa605083201c50413edfba189a01ce8674d2fc891cd0b249b64427e8654200029",
  "source": "pragma solidity ^0.4.21;\r\n\r\nimport \"./templates/Ownable.sol\";\r\nimport \"./templates/Basic.sol\";\r\nimport \"./templates/ApproveAndCallFallBack.sol\";\r\nimport \"./templates/SafeMath.sol\";\r\n\r\ncontract PowerPiperCrowdsale is Basic, Ownable {\r\n\r\n    bytes32 public symbol;\r\n    bytes32 public  tokenName;\r\n    uint8 public decimals;\r\n    uint public startDate;\r\n    uint public bonusEnds;\r\n    uint public endDate;\r\n    uint public rate;\r\n    uint public bonusRate;\r\n    uint public cap;\r\n    uint public weiRaised;\r\n    bool private reentrancyLock = false;\r\n    mapping(address => bool) internal whitelist;\r\n\r\n    modifier isWhitelisted(address _beneficiary) {\r\n        require(whitelist[_beneficiary]);\r\n        _;\r\n    }\r\n\r\n    function PowerPiperCrowdsale() public {\r\n        symbol = \"PWP\";\r\n        tokenName = \"PowerPiperToken\";\r\n        decimals = 3;\r\n        startDate = now + 200 seconds;\r\n        bonusEnds = now + 1 weeks;\r\n        endDate = now + 7 weeks;\r\n        rate = 5000;\r\n        cap = 100 ether;\r\n        bonusRate = 6000;\r\n    }\r\n\r\n    function hasClosed() public view returns (bool) {\r\n        return now > endDate;\r\n    }\r\n\r\n    function capReached() public view returns (bool) {\r\n        return weiRaised >= cap;\r\n    }\r\n\r\n    function approveAndCall(address _spender, uint _tokens, bytes _data) public returns (bool success) {\r\n        allowed[msg.sender][_spender] = _tokens;\r\n        emit Approval(msg.sender, _spender, _tokens);\r\n        ApproveAndCallFallBack(_spender).receiveApproval(msg.sender, _tokens, this, _data);\r\n        return true;\r\n    }\r\n\r\n    function increaseApproval(address _spender, uint _addedValue) public returns (bool) {\r\n        allowed[msg.sender][_spender] = SafeMath.add(allowed[msg.sender][_spender], _addedValue);\r\n        emit Approval(msg.sender, _spender, allowed[msg.sender][_spender]);\r\n        return true;\r\n    }\r\n\r\n    function decreaseApproval(address _spender, uint _subtractedValue) public returns (bool) {\r\n        uint oldValue = allowed[msg.sender][_spender];\r\n        if (_subtractedValue > oldValue) {\r\n            allowed[msg.sender][_spender] = 0;\r\n        } else {\r\n            allowed[msg.sender][_spender] = SafeMath.sub(oldValue, _subtractedValue);\r\n        }\r\n        emit Approval(msg.sender, _spender, allowed[msg.sender][_spender]);\r\n        return true;\r\n    }\r\n\r\n    function () public payable { // isWhitelisted(_beneficiary) - disabled temporarily\r\n        uint256 _weiAmount = msg.value;\r\n        address _beneficiary = msg.sender;\r\n        require(_beneficiary != address(0));\r\n        require(_weiAmount != 0);\r\n        require(now >= startDate && now <= endDate);\r\n        require(SafeMath.add(weiRaised, _weiAmount) <= cap);\r\n\r\n        uint tokens;\r\n\r\n        if (now <= bonusEnds) {\r\n            tokens = msg.value * bonusRate;\r\n        } else {\r\n            tokens = msg.value * rate;\r\n        }\r\n\r\n        require(!reentrancyLock);\r\n        reentrancyLock = true;\r\n        balances[_beneficiary] = SafeMath.add(balances[_beneficiary], tokens);\r\n        _totalSupply = SafeMath.add(_totalSupply, tokens);\r\n        emit Transfer(address(0), _beneficiary, tokens);\r\n        owner.transfer(_weiAmount);\r\n        weiRaised = SafeMath.add(weiRaised, _weiAmount);\r\n        reentrancyLock = false;\r\n    }\r\n\r\n    function safeTransfer(address _to, uint256 _tokens) internal {\r\n        assert(transfer(_to, _tokens));\r\n    }\r\n\r\n    function reclaimToken(address _tokenOwner) public onlyOwner returns (bool) {\r\n        uint256 balance = balanceOf(_tokenOwner);\r\n        safeTransfer(owner, balance);\r\n    }\r\n\r\n    function addToWhitelist(address _beneficiary) public onlyOwner {\r\n        whitelist[_beneficiary] = true;\r\n    }\r\n\r\n    function addManyToWhitelist(address[] _beneficiaries) public onlyOwner {\r\n        for (uint256 i = 0; i < _beneficiaries.length; i++) {\r\n            whitelist[_beneficiaries[i]] = true;\r\n        }\r\n    }\r\n\r\n    function removeFromWhitelist(address _beneficiary) public onlyOwner {\r\n        whitelist[_beneficiary] = false;\r\n    }\r\n\r\n    function getWhitelistStatus(address _beneficiary) public onlyOwner returns (bool) {\r\n        return whitelist[_beneficiary];\r\n    }\r\n\r\n}\r\n",
  "sourcePath": "C:\\Users\\DXenu\\Desktop\\box\\demo_contract\\contracts\\PowerPiperCrowdsale.sol",
  "compiler": {
    "name": "solc",
    "version": "0.4.21+commit.dfe3193c.Emscripten.clang"
  },
  "schemaVersion": "2.0.0",
  "updatedAt": "2018-04-18T17:50:02.562Z"
}