{
  "contractName": "PowerPiperToken",
  "abi": [
    {
      "constant": false,
      "inputs": [
        {
          "name": "_addr",
          "type": "address"
        },
        {
          "name": "_userAddr",
          "type": "address"
        }
      ],
      "name": "deletePlace",
      "outputs": [
        {
          "name": "index",
          "type": "uint256"
        }
      ],
      "payable": false,
      "stateMutability": "nonpayable",
      "type": "function"
    },
    {
      "constant": true,
      "inputs": [],
      "name": "mintingFinished",
      "outputs": [
        {
          "name": "",
          "type": "bool"
        }
      ],
      "payable": false,
      "stateMutability": "view",
      "type": "function"
    },
    {
      "constant": true,
      "inputs": [],
      "name": "name",
      "outputs": [
        {
          "name": "",
          "type": "string"
        }
      ],
      "payable": false,
      "stateMutability": "view",
      "type": "function"
    },
    {
      "constant": false,
      "inputs": [
        {
          "name": "_spender",
          "type": "address"
        },
        {
          "name": "_value",
          "type": "uint256"
        }
      ],
      "name": "approve",
      "outputs": [
        {
          "name": "",
          "type": "bool"
        }
      ],
      "payable": false,
      "stateMutability": "nonpayable",
      "type": "function"
    },
    {
      "constant": true,
      "inputs": [
        {
          "name": "_addr",
          "type": "address"
        }
      ],
      "name": "getPlace",
      "outputs": [
        {
          "name": "index",
          "type": "uint256"
        },
        {
          "name": "msq",
          "type": "uint8"
        },
        {
          "name": "kwh",
          "type": "uint8"
        },
        {
          "name": "price",
          "type": "uint16"
        },
        {
          "name": "userId",
          "type": "address"
        }
      ],
      "payable": false,
      "stateMutability": "view",
      "type": "function"
    },
    {
      "constant": false,
      "inputs": [
        {
          "name": "token",
          "type": "address"
        }
      ],
      "name": "reclaimToken",
      "outputs": [],
      "payable": false,
      "stateMutability": "nonpayable",
      "type": "function"
    },
    {
      "constant": true,
      "inputs": [],
      "name": "totalSupply",
      "outputs": [
        {
          "name": "",
          "type": "uint256"
        }
      ],
      "payable": false,
      "stateMutability": "view",
      "type": "function"
    },
    {
      "constant": false,
      "inputs": [
        {
          "name": "_addr",
          "type": "address"
        },
        {
          "name": "_userAddr",
          "type": "address"
        }
      ],
      "name": "deleteEquipment",
      "outputs": [
        {
          "name": "index",
          "type": "uint256"
        }
      ],
      "payable": false,
      "stateMutability": "nonpayable",
      "type": "function"
    },
    {
      "constant": false,
      "inputs": [
        {
          "name": "_addr",
          "type": "address"
        },
        {
          "name": "_userAddr",
          "type": "address"
        },
        {
          "name": "_kwh",
          "type": "uint8"
        },
        {
          "name": "_price",
          "type": "uint16"
        }
      ],
      "name": "updateEquipment",
      "outputs": [
        {
          "name": "",
          "type": "bool"
        }
      ],
      "payable": false,
      "stateMutability": "nonpayable",
      "type": "function"
    },
    {
      "constant": true,
      "inputs": [
        {
          "name": "index",
          "type": "uint256"
        }
      ],
      "name": "getEquipmentAtIndex",
      "outputs": [
        {
          "name": "_addr",
          "type": "address"
        }
      ],
      "payable": false,
      "stateMutability": "view",
      "type": "function"
    },
    {
      "constant": false,
      "inputs": [
        {
          "name": "_from",
          "type": "address"
        },
        {
          "name": "_to",
          "type": "address"
        },
        {
          "name": "_value",
          "type": "uint256"
        }
      ],
      "name": "transferFrom",
      "outputs": [
        {
          "name": "",
          "type": "bool"
        }
      ],
      "payable": false,
      "stateMutability": "nonpayable",
      "type": "function"
    },
    {
      "constant": true,
      "inputs": [
        {
          "name": "_addr",
          "type": "address"
        }
      ],
      "name": "existsPlace",
      "outputs": [
        {
          "name": "isIndexed",
          "type": "bool"
        }
      ],
      "payable": false,
      "stateMutability": "view",
      "type": "function"
    },
    {
      "constant": false,
      "inputs": [
        {
          "name": "contractAddr",
          "type": "address"
        }
      ],
      "name": "reclaimContract",
      "outputs": [],
      "payable": false,
      "stateMutability": "nonpayable",
      "type": "function"
    },
    {
      "constant": true,
      "inputs": [],
      "name": "rate",
      "outputs": [
        {
          "name": "",
          "type": "uint256"
        }
      ],
      "payable": false,
      "stateMutability": "view",
      "type": "function"
    },
    {
      "constant": true,
      "inputs": [],
      "name": "decimals",
      "outputs": [
        {
          "name": "",
          "type": "uint8"
        }
      ],
      "payable": false,
      "stateMutability": "view",
      "type": "function"
    },
    {
      "constant": false,
      "inputs": [
        {
          "name": "_to",
          "type": "address"
        },
        {
          "name": "_amount",
          "type": "uint256"
        }
      ],
      "name": "mint",
      "outputs": [
        {
          "name": "",
          "type": "bool"
        }
      ],
      "payable": false,
      "stateMutability": "nonpayable",
      "type": "function"
    },
    {
      "constant": true,
      "inputs": [],
      "name": "energyPriceMarkup",
      "outputs": [
        {
          "name": "",
          "type": "uint256"
        }
      ],
      "payable": false,
      "stateMutability": "view",
      "type": "function"
    },
    {
      "constant": false,
      "inputs": [
        {
          "name": "_addr",
          "type": "address"
        }
      ],
      "name": "deleteUser",
      "outputs": [
        {
          "name": "index",
          "type": "uint256"
        }
      ],
      "payable": false,
      "stateMutability": "nonpayable",
      "type": "function"
    },
    {
      "constant": false,
      "inputs": [
        {
          "name": "_spender",
          "type": "address"
        },
        {
          "name": "_subtractedValue",
          "type": "uint256"
        }
      ],
      "name": "decreaseApproval",
      "outputs": [
        {
          "name": "",
          "type": "bool"
        }
      ],
      "payable": false,
      "stateMutability": "nonpayable",
      "type": "function"
    },
    {
      "constant": true,
      "inputs": [],
      "name": "validate",
      "outputs": [
        {
          "name": "",
          "type": "bool"
        }
      ],
      "payable": false,
      "stateMutability": "view",
      "type": "function"
    },
    {
      "constant": true,
      "inputs": [],
      "name": "getPlaceCount",
      "outputs": [
        {
          "name": "count",
          "type": "uint256"
        }
      ],
      "payable": false,
      "stateMutability": "view",
      "type": "function"
    },
    {
      "constant": true,
      "inputs": [
        {
          "name": "_addr",
          "type": "address"
        }
      ],
      "name": "getUser",
      "outputs": [
        {
          "name": "index",
          "type": "uint256"
        },
        {
          "name": "email",
          "type": "bytes32"
        },
        {
          "name": "firstName",
          "type": "bytes32"
        },
        {
          "name": "lastName",
          "type": "bytes32"
        }
      ],
      "payable": false,
      "stateMutability": "view",
      "type": "function"
    },
    {
      "constant": true,
      "inputs": [
        {
          "name": "_owner",
          "type": "address"
        }
      ],
      "name": "balanceOf",
      "outputs": [
        {
          "name": "balance",
          "type": "uint256"
        }
      ],
      "payable": false,
      "stateMutability": "view",
      "type": "function"
    },
    {
      "constant": true,
      "inputs": [
        {
          "name": "_addr",
          "type": "address"
        }
      ],
      "name": "getEquipment",
      "outputs": [
        {
          "name": "index",
          "type": "uint256"
        },
        {
          "name": "kwh",
          "type": "uint8"
        },
        {
          "name": "price",
          "type": "uint16"
        },
        {
          "name": "userId",
          "type": "address"
        }
      ],
      "payable": false,
      "stateMutability": "view",
      "type": "function"
    },
    {
      "constant": false,
      "inputs": [],
      "name": "finishMinting",
      "outputs": [
        {
          "name": "",
          "type": "bool"
        }
      ],
      "payable": false,
      "stateMutability": "nonpayable",
      "type": "function"
    },
    {
      "constant": true,
      "inputs": [],
      "name": "owner",
      "outputs": [
        {
          "name": "",
          "type": "address"
        }
      ],
      "payable": false,
      "stateMutability": "view",
      "type": "function"
    },
    {
      "constant": true,
      "inputs": [],
      "name": "symbol",
      "outputs": [
        {
          "name": "",
          "type": "string"
        }
      ],
      "payable": false,
      "stateMutability": "view",
      "type": "function"
    },
    {
      "constant": false,
      "inputs": [
        {
          "name": "_addr",
          "type": "address"
        },
        {
          "name": "_email",
          "type": "bytes32"
        },
        {
          "name": "_firstName",
          "type": "bytes32"
        },
        {
          "name": "_lastName",
          "type": "bytes32"
        }
      ],
      "name": "updateUser",
      "outputs": [
        {
          "name": "",
          "type": "bool"
        }
      ],
      "payable": false,
      "stateMutability": "nonpayable",
      "type": "function"
    },
    {
      "constant": false,
      "inputs": [],
      "name": "reclaimEther",
      "outputs": [],
      "payable": false,
      "stateMutability": "nonpayable",
      "type": "function"
    },
    {
      "constant": false,
      "inputs": [
        {
          "name": "_to",
          "type": "address"
        },
        {
          "name": "_value",
          "type": "uint256"
        }
      ],
      "name": "transfer",
      "outputs": [
        {
          "name": "",
          "type": "bool"
        }
      ],
      "payable": false,
      "stateMutability": "nonpayable",
      "type": "function"
    },
    {
      "constant": true,
      "inputs": [],
      "name": "getUserCount",
      "outputs": [
        {
          "name": "count",
          "type": "uint256"
        }
      ],
      "payable": false,
      "stateMutability": "view",
      "type": "function"
    },
    {
      "constant": true,
      "inputs": [
        {
          "name": "from_",
          "type": "address"
        },
        {
          "name": "value_",
          "type": "uint256"
        },
        {
          "name": "data_",
          "type": "bytes"
        }
      ],
      "name": "tokenFallback",
      "outputs": [],
      "payable": false,
      "stateMutability": "pure",
      "type": "function"
    },
    {
      "constant": false,
      "inputs": [
        {
          "name": "_addr",
          "type": "address"
        },
        {
          "name": "_userAddr",
          "type": "address"
        },
        {
          "name": "_msq",
          "type": "uint8"
        },
        {
          "name": "_kwh",
          "type": "uint8"
        },
        {
          "name": "_price",
          "type": "uint16"
        }
      ],
      "name": "updatePlace",
      "outputs": [
        {
          "name": "",
          "type": "bool"
        }
      ],
      "payable": false,
      "stateMutability": "nonpayable",
      "type": "function"
    },
    {
      "constant": false,
      "inputs": [
        {
          "name": "_spender",
          "type": "address"
        },
        {
          "name": "_addedValue",
          "type": "uint256"
        }
      ],
      "name": "increaseApproval",
      "outputs": [
        {
          "name": "",
          "type": "bool"
        }
      ],
      "payable": false,
      "stateMutability": "nonpayable",
      "type": "function"
    },
    {
      "constant": true,
      "inputs": [
        {
          "name": "_owner",
          "type": "address"
        },
        {
          "name": "_spender",
          "type": "address"
        }
      ],
      "name": "allowance",
      "outputs": [
        {
          "name": "",
          "type": "uint256"
        }
      ],
      "payable": false,
      "stateMutability": "view",
      "type": "function"
    },
    {
      "constant": true,
      "inputs": [],
      "name": "fee",
      "outputs": [
        {
          "name": "",
          "type": "uint256"
        }
      ],
      "payable": false,
      "stateMutability": "view",
      "type": "function"
    },
    {
      "constant": false,
      "inputs": [
        {
          "name": "_addr",
          "type": "address"
        },
        {
          "name": "_userAddr",
          "type": "address"
        },
        {
          "name": "_kwh",
          "type": "uint8"
        },
        {
          "name": "_price",
          "type": "uint16"
        }
      ],
      "name": "newEquipment",
      "outputs": [
        {
          "name": "index",
          "type": "uint256"
        }
      ],
      "payable": false,
      "stateMutability": "nonpayable",
      "type": "function"
    },
    {
      "constant": true,
      "inputs": [
        {
          "name": "_addr",
          "type": "address"
        }
      ],
      "name": "existsEquipment",
      "outputs": [
        {
          "name": "isIndexed",
          "type": "bool"
        }
      ],
      "payable": false,
      "stateMutability": "view",
      "type": "function"
    },
    {
      "constant": true,
      "inputs": [
        {
          "name": "index",
          "type": "uint256"
        }
      ],
      "name": "getPlaceAtIndex",
      "outputs": [
        {
          "name": "_addr",
          "type": "address"
        }
      ],
      "payable": false,
      "stateMutability": "view",
      "type": "function"
    },
    {
      "constant": false,
      "inputs": [
        {
          "name": "newOwner",
          "type": "address"
        }
      ],
      "name": "transferOwnership",
      "outputs": [],
      "payable": false,
      "stateMutability": "nonpayable",
      "type": "function"
    },
    {
      "constant": true,
      "inputs": [
        {
          "name": "_addr",
          "type": "address"
        }
      ],
      "name": "existsUser",
      "outputs": [
        {
          "name": "isIndexed",
          "type": "bool"
        }
      ],
      "payable": false,
      "stateMutability": "view",
      "type": "function"
    },
    {
      "constant": false,
      "inputs": [
        {
          "name": "_addr",
          "type": "address"
        },
        {
          "name": "_email",
          "type": "bytes32"
        },
        {
          "name": "_firstName",
          "type": "bytes32"
        },
        {
          "name": "_lastName",
          "type": "bytes32"
        }
      ],
      "name": "newtUser",
      "outputs": [
        {
          "name": "index",
          "type": "uint256"
        }
      ],
      "payable": false,
      "stateMutability": "nonpayable",
      "type": "function"
    },
    {
      "constant": false,
      "inputs": [
        {
          "name": "_addr",
          "type": "address"
        },
        {
          "name": "_userAddr",
          "type": "address"
        },
        {
          "name": "_msq",
          "type": "uint8"
        },
        {
          "name": "_kwh",
          "type": "uint8"
        },
        {
          "name": "_price",
          "type": "uint16"
        }
      ],
      "name": "newPlace",
      "outputs": [
        {
          "name": "index",
          "type": "uint256"
        }
      ],
      "payable": false,
      "stateMutability": "nonpayable",
      "type": "function"
    },
    {
      "constant": true,
      "inputs": [],
      "name": "getEquipmentCount",
      "outputs": [
        {
          "name": "count",
          "type": "uint256"
        }
      ],
      "payable": false,
      "stateMutability": "view",
      "type": "function"
    },
    {
      "constant": true,
      "inputs": [
        {
          "name": "index",
          "type": "uint256"
        }
      ],
      "name": "getUserAtIndex",
      "outputs": [
        {
          "name": "_addr",
          "type": "address"
        }
      ],
      "payable": false,
      "stateMutability": "view",
      "type": "function"
    },
    {
      "inputs": [
        {
          "name": "_initialAmount",
          "type": "uint256"
        }
      ],
      "payable": false,
      "stateMutability": "nonpayable",
      "type": "constructor"
    },
    {
      "payable": false,
      "stateMutability": "nonpayable",
      "type": "fallback"
    },
    {
      "anonymous": false,
      "inputs": [
        {
          "indexed": true,
          "name": "_addr",
          "type": "address"
        },
        {
          "indexed": true,
          "name": "_userAddr",
          "type": "address"
        },
        {
          "indexed": false,
          "name": "_index",
          "type": "uint256"
        },
        {
          "indexed": false,
          "name": "_msq",
          "type": "uint8"
        },
        {
          "indexed": false,
          "name": "_kwh",
          "type": "uint8"
        },
        {
          "indexed": false,
          "name": "_price",
          "type": "uint16"
        }
      ],
      "name": "NewPlace",
      "type": "event"
    },
    {
      "anonymous": false,
      "inputs": [
        {
          "indexed": true,
          "name": "_addr",
          "type": "address"
        },
        {
          "indexed": true,
          "name": "_userAddr",
          "type": "address"
        },
        {
          "indexed": false,
          "name": "_index",
          "type": "uint256"
        },
        {
          "indexed": false,
          "name": "_msq",
          "type": "uint8"
        },
        {
          "indexed": false,
          "name": "_kwh",
          "type": "uint8"
        },
        {
          "indexed": false,
          "name": "_price",
          "type": "uint16"
        }
      ],
      "name": "UpdatePlace",
      "type": "event"
    },
    {
      "anonymous": false,
      "inputs": [
        {
          "indexed": true,
          "name": "_addr",
          "type": "address"
        },
        {
          "indexed": false,
          "name": "_index",
          "type": "uint256"
        }
      ],
      "name": "DeletePlace",
      "type": "event"
    },
    {
      "anonymous": false,
      "inputs": [
        {
          "indexed": true,
          "name": "_addr",
          "type": "address"
        },
        {
          "indexed": true,
          "name": "_userAddr",
          "type": "address"
        },
        {
          "indexed": false,
          "name": "_index",
          "type": "uint256"
        },
        {
          "indexed": false,
          "name": "_kwh",
          "type": "uint8"
        },
        {
          "indexed": false,
          "name": "_price",
          "type": "uint16"
        }
      ],
      "name": "NewEquipment",
      "type": "event"
    },
    {
      "anonymous": false,
      "inputs": [
        {
          "indexed": true,
          "name": "_addr",
          "type": "address"
        },
        {
          "indexed": true,
          "name": "_userAddr",
          "type": "address"
        },
        {
          "indexed": false,
          "name": "_index",
          "type": "uint256"
        },
        {
          "indexed": false,
          "name": "_kwh",
          "type": "uint8"
        },
        {
          "indexed": false,
          "name": "_price",
          "type": "uint16"
        }
      ],
      "name": "UpdateEquipment",
      "type": "event"
    },
    {
      "anonymous": false,
      "inputs": [
        {
          "indexed": true,
          "name": "_addr",
          "type": "address"
        },
        {
          "indexed": false,
          "name": "_index",
          "type": "uint256"
        }
      ],
      "name": "DeleteEquipment",
      "type": "event"
    },
    {
      "anonymous": false,
      "inputs": [
        {
          "indexed": true,
          "name": "_addr",
          "type": "address"
        },
        {
          "indexed": false,
          "name": "_index",
          "type": "uint256"
        },
        {
          "indexed": false,
          "name": "_email",
          "type": "bytes32"
        },
        {
          "indexed": false,
          "name": "_firstName",
          "type": "bytes32"
        },
        {
          "indexed": false,
          "name": "_lastName",
          "type": "bytes32"
        }
      ],
      "name": "NewUser",
      "type": "event"
    },
    {
      "anonymous": false,
      "inputs": [
        {
          "indexed": true,
          "name": "_addr",
          "type": "address"
        },
        {
          "indexed": false,
          "name": "_index",
          "type": "uint256"
        },
        {
          "indexed": false,
          "name": "_email",
          "type": "bytes32"
        },
        {
          "indexed": false,
          "name": "_firstName",
          "type": "bytes32"
        },
        {
          "indexed": false,
          "name": "_lastName",
          "type": "bytes32"
        }
      ],
      "name": "UpdateUser",
      "type": "event"
    },
    {
      "anonymous": false,
      "inputs": [
        {
          "indexed": true,
          "name": "_addr",
          "type": "address"
        },
        {
          "indexed": false,
          "name": "_index",
          "type": "uint256"
        }
      ],
      "name": "DeleteUser",
      "type": "event"
    },
    {
      "anonymous": false,
      "inputs": [
        {
          "indexed": true,
          "name": "to",
          "type": "address"
        },
        {
          "indexed": false,
          "name": "amount",
          "type": "uint256"
        }
      ],
      "name": "Mint",
      "type": "event"
    },
    {
      "anonymous": false,
      "inputs": [],
      "name": "MintFinished",
      "type": "event"
    },
    {
      "anonymous": false,
      "inputs": [
        {
          "indexed": true,
          "name": "previousOwner",
          "type": "address"
        },
        {
          "indexed": true,
          "name": "newOwner",
          "type": "address"
        }
      ],
      "name": "OwnershipTransferred",
      "type": "event"
    },
    {
      "anonymous": false,
      "inputs": [
        {
          "indexed": true,
          "name": "from",
          "type": "address"
        },
        {
          "indexed": true,
          "name": "to",
          "type": "address"
        },
        {
          "indexed": false,
          "name": "value",
          "type": "uint256"
        }
      ],
      "name": "Transfer",
      "type": "event"
    },
    {
      "anonymous": false,
      "inputs": [
        {
          "indexed": true,
          "name": "owner",
          "type": "address"
        },
        {
          "indexed": true,
          "name": "spender",
          "type": "address"
        },
        {
          "indexed": false,
          "name": "value",
          "type": "uint256"
        }
      ],
      "name": "Approval",
      "type": "event"
    },
    {
      "constant": true,
      "inputs": [],
      "name": "getEnergyPriceMarkup",
      "outputs": [
        {
          "name": "",
          "type": "uint256"
        }
      ],
      "payable": false,
      "stateMutability": "view",
      "type": "function"
    },
    {
      "constant": true,
      "inputs": [],
      "name": "getRate",
      "outputs": [
        {
          "name": "",
          "type": "uint256"
        }
      ],
      "payable": false,
      "stateMutability": "view",
      "type": "function"
    },
    {
      "constant": true,
      "inputs": [],
      "name": "getFee",
      "outputs": [
        {
          "name": "",
          "type": "uint256"
        }
      ],
      "payable": false,
      "stateMutability": "view",
      "type": "function"
    },
    {
      "constant": true,
      "inputs": [
        {
          "name": "_amount",
          "type": "uint256"
        }
      ],
      "name": "calculateFee",
      "outputs": [
        {
          "name": "",
          "type": "uint256"
        }
      ],
      "payable": false,
      "stateMutability": "view",
      "type": "function"
    },
    {
      "constant": false,
      "inputs": [
        {
          "name": "_fee",
          "type": "uint256"
        }
      ],
      "name": "setNewFee",
      "outputs": [],
      "payable": false,
      "stateMutability": "nonpayable",
      "type": "function"
    },
    {
      "constant": false,
      "inputs": [
        {
          "name": "_priceMarkup",
          "type": "uint256"
        }
      ],
      "name": "setPriceMarkup",
      "outputs": [
        {
          "name": "",
          "type": "uint256"
        }
      ],
      "payable": false,
      "stateMutability": "nonpayable",
      "type": "function"
    }
  ],
  "bytecode": "0x60606040526003805460a060020a60ff021916905561012c600a556103e8600b55611388600c55341561003157600080fd5b6040516020806125778339810160405280805160038054600160a060020a03191633600160a060020a0316179055915050341561006d57600080fd5b600160a060020a0333166000908152602081905260409020819055600d556124dd8061009a6000396000f30060606040526004361061024d5763ffffffff60e060020a60003504166304af4860811461025a57806305d2035b1461029157806306fdde03146102b8578063095ea7b314610342578063142478d61461036457806317ffc320146103c657806318160ddd146103e55780631a4f36c5146103f85780631aeb4c561461041d578063216d9fce1461044f57806323b872dd146104815780632a2bb4c4146104a95780632aed7f3f146104c85780632c4e722e146104e7578063313ce567146104fa57806340c10f191461052357806349d53158146105455780635c60f226146105585780636618846314610577578063679aefce146105995780636901f668146105ac5780636f75cada146105bf5780636f77926b146105d257806370a082311461061d5780637b2f8f9b1461063c5780637d64bcb4146106955780637f5d695a146106a85780638da5cb5b146106bb57806395d89b41146106ce57806399a5d747146106e15780639bd19ca9146106f75780639f727c271461071f578063a9059cbb14610732578063b5cb15f714610754578063c0ee0b8a14610767578063ced72f8714610796578063d0dafe7e146107a9578063d5bdb6ec146107bf578063d73dd623146107f7578063dd62ed3e14610819578063ddca3f431461083e578063e9ae769314610851578063ecac117414610883578063f03ba3ee146108a2578063f2fde38b146108b8578063f409e87d146108d7578063f4ef90be146108f6578063f53f35ff1461090c578063fa2b259c14610934578063ff67dada1461096c578063ffcc7bbf1461097f575b341561025857600080fd5b005b341561026557600080fd5b61027f600160a060020a0360043581169060243516610995565b60405190815260200160405180910390f35b341561029c57600080fd5b6102a4610b74565b604051901515815260200160405180910390f35b34156102c357600080fd5b6102cb610b95565b60405160208082528190810183818151815260200191508051906020019080838360005b838110156103075780820151838201526020016102ef565b50505050905090810190601f1680156103345780820380516001836020036101000a031916815260200191505b509250505060405180910390f35b341561034d57600080fd5b6102a4600160a060020a0360043516602435610bcc565b341561036f57600080fd5b610383600160a060020a0360043516610c38565b60405194855260ff93841660208601529190921660408085019190915261ffff9092166060840152600160a060020a0316608083015260a0909101905180910390f35b34156103d157600080fd5b610258600160a060020a0360043516610ca5565b34156103f057600080fd5b61027f610d4e565b341561040357600080fd5b61027f600160a060020a0360043581169060243516610d54565b341561042857600080fd5b6102a4600160a060020a036004358116906024351660ff6044351661ffff60643516610f1f565b341561045a57600080fd5b610465600435611026565b604051600160a060020a03909116815260200160405180910390f35b341561048c57600080fd5b6102a4600160a060020a0360043581169060243516604435611054565b34156104b457600080fd5b6102a4600160a060020a03600435166111d4565b34156104d357600080fd5b610258600160a060020a036004351661122c565b34156104f257600080fd5b61027f6112b5565b341561050557600080fd5b61050d6112bb565b60405160ff909116815260200160405180910390f35b341561052e57600080fd5b6102a4600160a060020a03600435166024356112c0565b341561055057600080fd5b61027f6113df565b341561056357600080fd5b61027f600160a060020a03600435166113e5565b341561058257600080fd5b6102a4600160a060020a03600435166024356115a3565b34156105a457600080fd5b61027f61169d565b34156105b757600080fd5b6102a46116a4565b34156105ca57600080fd5b61027f6116b9565b34156105dd57600080fd5b6105f1600160a060020a03600435166116bf565b604051938452602084019290925260408084019190915260608301919091526080909101905180910390f35b341561062857600080fd5b61027f600160a060020a0360043516611752565b341561064757600080fd5b61065b600160a060020a036004351661176d565b60405193845260ff909216602084015261ffff16604080840191909152600160a060020a0390911660608301526080909101905180910390f35b34156106a057600080fd5b6102a46117cb565b34156106b357600080fd5b61027f611878565b34156106c657600080fd5b61046561187e565b34156106d957600080fd5b6102cb61188d565b34156106ec57600080fd5b61027f6004356118c4565b341561070257600080fd5b6102a4600160a060020a03600435166024356044356064356118f5565b341561072a57600080fd5b6102586119de565b341561073d57600080fd5b6102a4600160a060020a0360043516602435611a31565b341561075f57600080fd5b61027f611b43565b341561077257600080fd5b61025860048035600160a060020a0316906024803591604435918201910135611b49565b34156107a157600080fd5b61027f611b4e565b34156107b457600080fd5b61027f600435611b54565b34156107ca57600080fd5b6102a4600160a060020a036004358116906024351660ff6044358116906064351661ffff60843516611b7b565b341561080257600080fd5b6102a4600160a060020a0360043516602435611ca4565b341561082457600080fd5b61027f600160a060020a0360043581169060243516611d48565b341561084957600080fd5b61027f611d73565b341561085c57600080fd5b61027f600160a060020a036004358116906024351660ff6044351661ffff60643516611d79565b341561088e57600080fd5b6102a4600160a060020a0360043516611f51565b34156108ad57600080fd5b610465600435611f8d565b34156108c357600080fd5b610258600160a060020a0360043516611f9e565b34156108e257600080fd5b6102a4600160a060020a036004351661202c565b341561090157600080fd5b610258600435612068565b341561091757600080fd5b61027f600160a060020a0360043516602435604435606435612088565b341561093f57600080fd5b61027f600160a060020a036004358116906024351660ff6044358116906064351661ffff6084351661219f565b341561097757600080fd5b61027f61239c565b341561098a57600080fd5b6104656004356123a2565b6003546000908190819033600160a060020a039081169116146109b757600080fd5b8380600160a060020a031633600160a060020a03161415156109d857600080fd5b6109e1866111d4565b15156001146109ef57600080fd5b600160a060020a03861660009081526008602052604090205460098054919450906000198101908110610a1e57fe5b60009182526020909120015460098054600160a060020a039092169350839185908110610a4757fe5b60009182526020808320919091018054600160a060020a031916600160a060020a0394851617905591841681526008909152604090208390556009805490610a93906000198301612474565b5085600160a060020a03167f6c1d95bd25751045e988b768e3e9d37019d92428e694b456cc77d0eb83a49bd18460405190815260200160405180910390a2600160a060020a0382811660008181526008602052604090819020600101546401000000008104909316927f14e6f8ed13bdc5b46b0fec74e94e70b199f0a484e034fb5ab0bb646db34f5f8a91879160ff8082169261010083049091169162010000900461ffff16905193845260ff9283166020850152911660408084019190915261ffff90911660608301526080909101905180910390a35090949350505050565b60035474010000000000000000000000000000000000000000900460ff1681565b60408051908101604052600f81527f506f7765725069706572546f6b656e0000000000000000000000000000000000602082015281565b600160a060020a03338116600081815260026020908152604080832094871680845294909152808220859055909291907f8c5be1e5ebec7d5bd14f71427d1e84f3dd0314c0f7b2291e5b200ac8c7c3b9259085905190815260200160405180910390a350600192915050565b6000806000806000610c49866111d4565b1515600114610c5757600080fd5b50505050600160a060020a0391821660009081526008602052604090208054600190910154909360ff808316946101008404909116935062010000830461ffff169264010000000090041690565b60035460009033600160a060020a03908116911614610cc357600080fd5b81600160a060020a03166370a082313060405160e060020a63ffffffff8416028152600160a060020a039091166004820152602401602060405180830381600087803b1515610d1157600080fd5b5af11515610d1e57600080fd5b5050506040518051600354909250610d4a9150600160a060020a0384811691168363ffffffff6123ce16565b5050565b600d5481565b6003546000908190819033600160a060020a03908116911614610d7657600080fd5b8380600160a060020a031633600160a060020a0316141515610d9757600080fd5b610da086611f51565b1515600114610dae57600080fd5b600160a060020a03861660009081526006602052604090205460078054919450906000198101908110610ddd57fe5b60009182526020909120015460078054600160a060020a039092169350839185908110610e0657fe5b60009182526020808320919091018054600160a060020a031916600160a060020a0394851617905591841681526006909152604090208390556007805490610e52906000198301612474565b5085600160a060020a03167fd148fe57b3fff28741992aeda9478edbabac766349efe9845531a6c5a49436f18460405190815260200160405180910390a2600160a060020a03828116600081815260066020526040908190206001015463010000008104909316927f0a4c250e9de61a8a976cda60c9c8f15010b642fba1c79edaa71c8a14764d576491879160ff81169161010090910461ffff16905192835260ff909116602083015261ffff166040808301919091526060909101905180910390a35090949350505050565b60035460009033600160a060020a03908116911614610f3d57600080fd5b8380600160a060020a031633600160a060020a0316141515610f5e57600080fd5b610f6786611f51565b1515600114610f7557600080fd5b610f7e8561202c565b1515600114610f8c57600080fd5b600160a060020a038681166000818152600660205260409081902060018101805460ff191660ff8a161762ffff00191661010061ffff8a160217905554928816927f0a4c250e9de61a8a976cda60c9c8f15010b642fba1c79edaa71c8a14764d576491889088905192835260ff909116602083015261ffff166040808301919091526060909101905180910390a350600195945050505050565b600060078281548110151561103757fe5b600091825260209091200154600160a060020a031690505b919050565b6000600160a060020a038316151561106b57600080fd5b600160a060020a03841660009081526020819052604090205482111561109057600080fd5b600160a060020a03808516600090815260026020908152604080832033909416835292905220548211156110c357600080fd5b600160a060020a0384166000908152602081905260409020546110ec908363ffffffff61244616565b600160a060020a038086166000908152602081905260408082209390935590851681522054611121908363ffffffff61245b16565b600160a060020a0380851660009081526020818152604080832094909455878316825260028152838220339093168252919091522054611167908363ffffffff61244616565b600160a060020a03808616600081815260026020908152604080832033861684529091529081902093909355908516917fddf252ad1be2c89b69c2b068fc378daa952ba7f163c4a11628f55a4df523b3ef9085905190815260200160405180910390a35060019392505050565b60095460009015156111e85750600061104f565b600160a060020a03821660008181526008602052604090205460098054909190811061121057fe5b600091825260209091200154600160a060020a03161492915050565b60035460009033600160a060020a0390811691161461124a57600080fd5b506003548190600160a060020a038083169163f2fde38b911660405160e060020a63ffffffff8416028152600160a060020a039091166004820152602401600060405180830381600087803b15156112a157600080fd5b5af115156112ae57600080fd5b5050505050565b600c5481565b600381565b60035460009033600160a060020a039081169116146112de57600080fd5b60035474010000000000000000000000000000000000000000900460ff161561130657600080fd5b600154611319908363ffffffff61245b16565b600155600160a060020a038316600090815260208190526040902054611345908363ffffffff61245b16565b600160a060020a0384166000818152602081905260409081902092909255907f0f6798a560793a54c3bcfe86a93cde1e73087d944c0ea20544137d41213968859084905190815260200160405180910390a2600160a060020a03831660007fddf252ad1be2c89b69c2b068fc378daa952ba7f163c4a11628f55a4df523b3ef8460405190815260200160405180910390a350600192915050565b600b5481565b6003546000908190819033600160a060020a0390811691161461140757600080fd5b8380600160a060020a031633600160a060020a031614151561142857600080fd5b6114318561202c565b151560011461143f57600080fd5b600160a060020a0385166000908152600460205260409020546005805491945090600019810190811061146e57fe5b60009182526020909120015460058054600160a060020a03909216935083918590811061149757fe5b60009182526020808320919091018054600160a060020a031916600160a060020a03948516179055918416815260049091526040902083905560058054906114e3906000198301612474565b5084600160a060020a03167f117183c06981515bdfa0b70d0448d8eb6ba07648cda62ab7c2b4361eeff80a1b8460405190815260200160405180910390a2600160a060020a03821660008181526004602052604090819020600181015460028201546003909201547f36cd692caa63e05d06ec64ae3a07dffe3b224fecb32af5fa7bc1469f5bcdde57938893919051938452602084019290925260408084019190915260608301919091526080909101905180910390a250909392505050565b600160a060020a0333811660009081526002602090815260408083209386168352929052908120548083111561160057600160a060020a033381166000908152600260209081526040808320938816835292905290812055611637565b611610818463ffffffff61244616565b600160a060020a033381166000908152600260209081526040808320938916835292905220555b600160a060020a0333811660008181526002602090815260408083209489168084529490915290819020547f8c5be1e5ebec7d5bd14f71427d1e84f3dd0314c0f7b2291e5b200ac8c7c3b925915190815260200160405180910390a35060019392505050565b600c545b90565b60035433600160a060020a0390811691161490565b60095490565b60035460009081908190819033600160a060020a039081169116146116e357600080fd5b8480600160a060020a031633600160a060020a031614151561170457600080fd5b61170d8661202c565b151560011461171b57600080fd5b50505050600160a060020a039190911660009081526004602052604090208054600182015460028301546003909301549194909350565b600160a060020a031660009081526020819052604090205490565b60008060008061177c85611f51565b151560011461178a57600080fd5b50505050600160a060020a0390811660009081526006602052604090208054600190910154909260ff821692610100830461ffff1692630100000090041690565b60035460009033600160a060020a039081169116146117e957600080fd5b60035474010000000000000000000000000000000000000000900460ff161561181157600080fd5b6003805474ff00000000000000000000000000000000000000001916740100000000000000000000000000000000000000001790557fae5184fba832cb2b1f702aca6117b8d265eaf03ad33eb133f19dde0f5920fa0860405160405180910390a150600190565b600b5490565b600354600160a060020a031681565b60408051908101604052600381527f5057500000000000000000000000000000000000000000000000000000000000602082015281565b6000806103e8600a5484028115156118d857fe5b0490508015156118eb57600191506118ef565b8091505b50919050565b60035460009033600160a060020a0390811691161461191357600080fd5b8480600160a060020a031633600160a060020a031614151561193457600080fd5b8484846119408961202c565b151560011461194e57600080fd5b600160a060020a03891660008181526004602052604090819020600181018b9055600281018a905560038101899055547f36cd692caa63e05d06ec64ae3a07dffe3b224fecb32af5fa7bc1469f5bcdde57918b908b908b9051938452602084019290925260408084019190915260608301919091526080909101905180910390a250600198975050505050505050565b60035433600160a060020a039081169116146119f957600080fd5b600354600160a060020a039081169030163180156108fc0290604051600060405180830381858888f193505050501515611a2f57fe5b565b6000600160a060020a0383161515611a4857600080fd5b600160a060020a033316600090815260208190526040902054821115611a6d57600080fd5b600160a060020a033316600090815260208190526040902054611a96908363ffffffff61244616565b600160a060020a033381166000908152602081905260408082209390935590851681522054611acb908363ffffffff61245b16565b60008085600160a060020a0316600160a060020a031681526020019081526020016000208190555082600160a060020a031633600160a060020a03167fddf252ad1be2c89b69c2b068fc378daa952ba7f163c4a11628f55a4df523b3ef8460405190815260200160405180910390a350600192915050565b60055490565b600080fd5b600a5490565b60035460009033600160a060020a03908116911614611b7257600080fd5b600b9190915590565b60035460009033600160a060020a03908116911614611b9957600080fd5b8480600160a060020a031633600160a060020a0316141515611bba57600080fd5b611bc3876111d4565b1515600114611bd157600080fd5b611bda8661202c565b1515600114611be857600080fd5b600160a060020a038781166000818152600860205260409081902060018101805460ff191660ff8b81169190911761ff001916610100918b16919091021763ffff000019166201000061ffff8a160217905554928916927f14e6f8ed13bdc5b46b0fec74e94e70b199f0a484e034fb5ab0bb646db34f5f8a918990899089905193845260ff9283166020850152911660408084019190915261ffff90911660608301526080909101905180910390a35060019695505050505050565b600160a060020a033381166000908152600260209081526040808320938616835292905290812054611cdc908363ffffffff61245b16565b600160a060020a0333811660008181526002602090815260408083209489168084529490915290819020849055919290917f8c5be1e5ebec7d5bd14f71427d1e84f3dd0314c0f7b2291e5b200ac8c7c3b92591905190815260200160405180910390a350600192915050565b600160a060020a03918216600090815260026020908152604080832093909416825291909152205490565b600a5481565b60035460009033600160a060020a03908116911614611d9757600080fd5b8380600160a060020a031633600160a060020a0316141515611db857600080fd5b611dc186611f51565b15611dcb57600080fd5b611dd48661202c565b1515600114611de257600080fd5b600160a060020a0386811660009081526006602052604090206001908101805460ff191660ff88161762ffff00191661010061ffff8816021776ffffffffffffffffffffffffffffffffffffffff00000019166301000000938916939093029290921790915560078054808301611e598382612474565b60009283526020808420929092018054600160a060020a031916600160a060020a038c81169182179092558085526006909352604093849020949091039384905588169290917f33e6002de33fb59e2bee761013a061b0a46de2ff5fbc0fe7c5783203ee867ab99190889088905192835260ff909116602083015261ffff166040808301919091526060909101905180910390a3600160a060020a0386166000908152600460205260409020600501805460018101611f188382612474565b5060009182526020909120018054600160a060020a038816600160a060020a031990911617905560075460001901915050949350505050565b6007546000901515611f655750600061104f565b600160a060020a03821660008181526006602052604090205460078054909190811061121057fe5b600060098281548110151561103757fe5b60035433600160a060020a03908116911614611fb957600080fd5b600160a060020a0381161515611fce57600080fd5b600354600160a060020a0380831691167f8be0079c531659141344cd1fd0a4f28419497f9722a3daafe3b4186f6b6457e060405160405180910390a360038054600160a060020a031916600160a060020a0392909216919091179055565b60055460009015156120405750600061104f565b600160a060020a03821660008181526004602052604090205460058054909190811061121057fe5b60035433600160a060020a0390811691161461208357600080fd5b600a55565b60008360035433600160a060020a039081169116146120a657600080fd5b83836120b18861202c565b156120bb57600080fd5b600160a060020a03881660009081526004602052604090206001808201899055600282018890556003909101869055600580548083016120fb8382612474565b60009283526020808420929092018054600160a060020a031916600160a060020a038e16908117909155808452600490925260409283902093900392839055917f78b833eacd29aac1183e31c8289157ed550f3b1f9f1526bf2055ef195cac287f918a908a908a9051938452602084019290925260408084019190915260608301919091526080909101905180910390a25050600554600019019695505050505050565b60035460009033600160a060020a039081169116146121bd57600080fd5b8480600160a060020a031633600160a060020a03161415156121de57600080fd5b6121e7876111d4565b156121f157600080fd5b6121fa8761202c565b151560011461220857600080fd5b600160a060020a0387811660009081526008602052604090206001908101805460ff191660ff8981169190911761ff001916610100918916919091021763ffff000019166201000061ffff8816021777ffffffffffffffffffffffffffffffffffffffff000000001916640100000000938a169390930292909217909155600980548083016122978382612474565b60009283526020808420929092018054600160a060020a031916600160a060020a038d81169182179092558085526008909352604093849020949091039384905589169290917f2a4af3dcdaf87b692186cac5b607d155f4e1c99f127fdd97c6a8a257b3a063d191908990899089905193845260ff9283166020850152911660408084019190915261ffff90911660608301526080909101905180910390a3600160a060020a0387166000908152600460208190526040909120018054600181016123628382612474565b5060009182526020909120018054600160a060020a038916600160a060020a03199091161790556009546000190191505095945050505050565b60075490565b60035460009033600160a060020a039081169116146123c057600080fd5b600580548390811061103757fe5b82600160a060020a031663a9059cbb838360405160e060020a63ffffffff8516028152600160a060020a0390921660048301526024820152604401602060405180830381600087803b151561242257600080fd5b5af1151561242f57600080fd5b50505060405180519050151561244157fe5b505050565b60008282111561245557600080fd5b50900390565b60008282018381101561246d57600080fd5b9392505050565b815481835581811511612441576000838152602090206124419181019083016116a191905b808211156124ad5760008155600101612499565b50905600a165627a7a7230582049ea390df67e862d6b3ff33d48d222596e6f0390c419be4df25c3711258793950029",
  "source": "pragma solidity ^0.4.21;\r\n\r\nimport \"./zeppelin/MintableToken.sol\";\r\nimport \"./zeppelin/NoOwner.sol\";\r\nimport \"./zeppelin/SafeMath.sol\";\r\nimport \"./Management.sol\";\r\n// import \"zeppelin-solidity/contracts/token/ERC20/MintableToken.sol\";\r\n// import \"zeppelin-solidity/contracts/ownership/NoOwner.sol\";\r\n// import \"zeppelin-solidity/contracts/math/SafeMath.sol\";\r\n// import \"./Management.sol\";\r\n\r\n/*\r\n@TODOs:\r\n* adding Management -> +4 failing crowdsale tests\r\n* equipment transfers (?)\r\n* insurance/ escrow\r\n* can't be deleted before contract ends\r\n* ensure contract time-dependency\r\n* getByLocation, getByKWh, ...\r\n* more throurough KYC\r\n* tests\r\n* privacy checks\r\n* encrypt sensitive user data (crypto.js or better)\r\n* ...\r\n*/\r\n\r\ncontract PowerPiperToken is MintableToken, NoOwner, Management {\r\n\r\n    using SafeMath for uint;\r\n\r\n    string public constant name = \"PowerPiperToken\";\r\n    string public constant symbol = \"PWP\";\r\n    uint8 public constant decimals = 3;\r\n    uint public fee = 300; // 300 = 0.3% in 1-digit precision\r\n    uint public energyPriceMarkup = 1000; // 1000 = 1% in 3-digit precision\r\n    uint public rate = 5000;\r\n    // mapping (address => uint256) balances;\r\n    uint256 public totalSupply;\r\n\r\n    function PowerPiperToken(uint256 _initialAmount) public {\r\n        balances[msg.sender] = _initialAmount;\r\n        totalSupply = _initialAmount;\r\n    }\r\n\r\n    function getEnergyPriceMarkup() public constant returns (uint) {\r\n        return energyPriceMarkup;\r\n    }\r\n\r\n    function getRate() public constant returns (uint) {\r\n        return rate;\r\n    }\r\n\r\n    function getFee() public constant returns (uint) {\r\n        return fee;\r\n    }\r\n\r\n    function calculateFee(uint _amount) public view returns (uint) {\r\n        uint feeAmount = _amount * fee / 1000;\r\n\r\n        if (feeAmount == 0) {\r\n            return 1;\r\n        } else {\r\n            return feeAmount;\r\n        }\r\n    }\r\n\r\n    function setNewFee(uint _fee) public onlyOwner {\r\n        fee = _fee;\r\n    }\r\n\r\n    function setPriceMarkup(uint _priceMarkup) public onlyOwner returns (uint) {\r\n        energyPriceMarkup = _priceMarkup;\r\n    }\r\n\r\n}\r\n",
  "sourcePath": "C:\\Users\\DXenu\\Desktop\\box\\demo_contract\\contracts\\PowerPiperToken.sol",
  "compiler": {
    "name": "solc",
    "version": "0.4.21+commit.dfe3193c.Emscripten.clang"
  },
  "schemaVersion": "2.0.0",
  "updatedAt": "2018-04-16T13:47:55.380Z"
}