{
  "contractName": "ProofOfLoss",
  "abi": [
    {
      "constant": true,
      "inputs": [
        {
          "name": "",
          "type": "address"
        }
      ],
      "name": "getLoss",
      "outputs": [
        {
          "name": "receiver",
          "type": "address"
        },
        {
          "name": "initialBlockNumber",
          "type": "uint256"
        }
      ],
      "payable": false,
      "stateMutability": "view",
      "type": "function"
    },
    {
      "anonymous": false,
      "inputs": [
        {
          "indexed": true,
          "name": "_owner",
          "type": "address"
        },
        {
          "indexed": true,
          "name": "_receiver",
          "type": "address"
        },
        {
          "indexed": false,
          "name": "_state",
          "type": "bool"
        }
      ],
      "name": "RecoverBalance",
      "type": "event"
    },
    {
      "constant": true,
      "inputs": [
        {
          "name": "_owner",
          "type": "address"
        }
      ],
      "name": "existedLoss",
      "outputs": [
        {
          "name": "",
          "type": "bool"
        }
      ],
      "payable": false,
      "stateMutability": "view",
      "type": "function"
    },
    {
      "constant": false,
      "inputs": [
        {
          "name": "_owner",
          "type": "address"
        }
      ],
      "name": "recoverBalance",
      "outputs": [],
      "payable": true,
      "stateMutability": "payable",
      "type": "function"
    }
  ],
  "bytecode": "0x6060604052341561000f57600080fd5b61021f8061001e6000396000f3006060604052600436106100565763ffffffff7c010000000000000000000000000000000000000000000000000000000060003504166368662ea0811461005b578063d74a946d14610071578063fb7418dc146100b2575b600080fd5b61006f600160a060020a03600435166100e5565b005b341561007c57600080fd5b610090600160a060020a0360043516610186565b604051600160a060020a03909216825260208201526040908101905180910390f35b34156100bd57600080fd5b6100d1600160a060020a03600435166101ab565b604051901515815260200160405180910390f35b6000348190116100f457600080fd5b6100fd826101ab565b1561010757600080fd5b50600160a060020a0381811660008181526020819052604090819020805473ffffffffffffffffffffffffffffffffffffffff19163394851690811782554360019283015592917fe90198ac3b36c091e5843f4ca94a37981cd21c7e69068e9f88df6be6c1177e6e919051901515815260200160405180910390a35050565b60006020819052908152604090208054600190910154600160a060020a039091169082565b600160a060020a038082166000908152602081905260408120805491929091161580156101da57506001810154155b156101e857600091506101ed565b600191505b509190505600a165627a7a723058202504acf0d37fef10af4568d04ae0f2488b1d47f4864450992ededf76687065ef0029",
  "source": "pragma solidity ^0.4.21;\r\n\r\n\r\ncontract ProofOfLoss {\r\n    struct LossStruct {\r\n        address receiver;\r\n        uint initialBlockNumber;\r\n    }\r\n\r\n    event RecoverBalance(address indexed _owner, address indexed _receiver, bool _state);\r\n    mapping (address => LossStruct) public getLoss;\r\n\r\n    function existedLoss(address _owner) public view returns (bool) {   \r\n        LossStruct storage _loss = getLoss[_owner];\r\n        if (_loss.receiver == address(0) && _loss.initialBlockNumber == 0) {\r\n            return false;\r\n        }\r\n\r\n        return true;\r\n    }\r\n\r\n    function recoverBalance(address _owner) public payable {\r\n        require(msg.value > 0);\r\n        require(!existedLoss(_owner));\r\n\r\n        address _receiver = msg.sender;\r\n        getLoss[_owner].receiver = _receiver;\r\n        getLoss[_owner].initialBlockNumber = block.number;\r\n        emit RecoverBalance(_owner, _receiver, true);\r\n    }\r\n\r\n}\r\n",
  "sourcePath": "C:\\Users\\DXenu\\Desktop\\box\\demo_contract\\contracts\\utils\\ProofOfLoss.sol",
  "compiler": {
    "name": "solc",
    "version": "0.4.21+commit.dfe3193c.Emscripten.clang"
  },
  "schemaVersion": "2.0.0",
  "updatedAt": "2018-04-15T12:42:41.832Z"
}