{
  "contractName": "ProofOfLoss",
  "abi": [
    {
      "constant": true,
      "inputs": [
        {
          "name": "",
          "type": "address"
        }
      ],
      "name": "getLoss",
      "outputs": [
        {
          "name": "receiver",
          "type": "address"
        },
        {
          "name": "initialBlockNumber",
          "type": "uint256"
        }
      ],
      "payable": false,
      "stateMutability": "view",
      "type": "function"
    },
    {
      "anonymous": false,
      "inputs": [
        {
          "indexed": true,
          "name": "_owner",
          "type": "address"
        },
        {
          "indexed": true,
          "name": "_receiver",
          "type": "address"
        },
        {
          "indexed": false,
          "name": "_state",
          "type": "bool"
        }
      ],
      "name": "RecoverBalance",
      "type": "event"
    },
    {
      "constant": true,
      "inputs": [
        {
          "name": "_owner",
          "type": "address"
        }
      ],
      "name": "existedLoss",
      "outputs": [
        {
          "name": "",
          "type": "bool"
        }
      ],
      "payable": false,
      "stateMutability": "view",
      "type": "function"
    },
    {
      "constant": false,
      "inputs": [
        {
          "name": "_owner",
          "type": "address"
        }
      ],
      "name": "recoverBalance",
      "outputs": [],
      "payable": true,
      "stateMutability": "payable",
      "type": "function"
    }
  ],
  "bytecode": "0x6060604052341561000f57600080fd5b6103e78061001e6000396000f300606060405260043610610057576000357c0100000000000000000000000000000000000000000000000000000000900463ffffffff16806368662ea01461005c578063d74a946d1461008a578063fb7418dc1461010a575b600080fd5b610088600480803573ffffffffffffffffffffffffffffffffffffffff1690602001909190505061015b565b005b341561009557600080fd5b6100c1600480803573ffffffffffffffffffffffffffffffffffffffff169060200190919050506102b7565b604051808373ffffffffffffffffffffffffffffffffffffffff1673ffffffffffffffffffffffffffffffffffffffff1681526020018281526020019250505060405180910390f35b341561011557600080fd5b610141600480803573ffffffffffffffffffffffffffffffffffffffff169060200190919050506102fb565b604051808215151515815260200191505060405180910390f35b6000803411151561016b57600080fd5b610174826102fb565b15151561018057600080fd5b339050806000808473ffffffffffffffffffffffffffffffffffffffff1673ffffffffffffffffffffffffffffffffffffffff16815260200190815260200160002060000160006101000a81548173ffffffffffffffffffffffffffffffffffffffff021916908373ffffffffffffffffffffffffffffffffffffffff160217905550436000808473ffffffffffffffffffffffffffffffffffffffff1673ffffffffffffffffffffffffffffffffffffffff168152602001908152602001600020600101819055508073ffffffffffffffffffffffffffffffffffffffff168273ffffffffffffffffffffffffffffffffffffffff167fe90198ac3b36c091e5843f4ca94a37981cd21c7e69068e9f88df6be6c1177e6e6001604051808215151515815260200191505060405180910390a35050565b60006020528060005260406000206000915090508060000160009054906101000a900473ffffffffffffffffffffffffffffffffffffffff16908060010154905082565b6000806000808473ffffffffffffffffffffffffffffffffffffffff1673ffffffffffffffffffffffffffffffffffffffff1681526020019081526020016000209050600073ffffffffffffffffffffffffffffffffffffffff168160000160009054906101000a900473ffffffffffffffffffffffffffffffffffffffff1673ffffffffffffffffffffffffffffffffffffffff161480156103a2575060008160010154145b156103b057600091506103b5565b600191505b509190505600a165627a7a723058204f89193d5396c8da67ffd990d7f9ab2ea1f025e6e20d66c8d7d567bb3a645fc80029",
  "source": "pragma solidity ^0.4.19;\r\n\r\n\r\ncontract ProofOfLoss {\r\n    struct LossStruct {\r\n        address receiver;\r\n        uint initialBlockNumber;\r\n    }\r\n\r\n    event RecoverBalance(address indexed _owner, address indexed _receiver, bool _state);\r\n    mapping (address => LossStruct) public getLoss;\r\n\r\n    function existedLoss(address _owner) public view returns (bool) {   \r\n        LossStruct storage _loss = getLoss[_owner];\r\n        if (_loss.receiver == address(0) && _loss.initialBlockNumber == 0) {\r\n            return false;\r\n        }\r\n\r\n        return true;\r\n    }\r\n\r\n    function recoverBalance(address _owner) public payable {\r\n        require(msg.value > 0);\r\n        require(!existedLoss(_owner));\r\n\r\n        address _receiver = msg.sender;\r\n        getLoss[_owner].receiver = _receiver;\r\n        getLoss[_owner].initialBlockNumber = block.number;\r\n        RecoverBalance(_owner, _receiver, true);\r\n    }\r\n\r\n}\r\n",
  "sourcePath": "C:\\Users\\DXenu\\Desktop\\box\\demo_contract\\contracts\\utils\\ProofOfLoss.sol",
  "compiler": {
    "name": "solc",
    "version": "0.4.19+commit.c4cbbb05.Emscripten.clang"
  },
  "schemaVersion": "2.0.0",
  "updatedAt": "2018-04-03T19:43:49.122Z"
}