{
  "contractName": "Redemptions",
  "abi": [
    {
      "constant": true,
      "inputs": [],
      "name": "owner",
      "outputs": [
        {
          "name": "",
          "type": "address"
        }
      ],
      "payable": false,
      "stateMutability": "view",
      "type": "function"
    },
    {
      "constant": false,
      "inputs": [
        {
          "name": "newOwner",
          "type": "address"
        }
      ],
      "name": "transferOwnership",
      "outputs": [],
      "payable": false,
      "stateMutability": "nonpayable",
      "type": "function"
    },
    {
      "anonymous": false,
      "inputs": [
        {
          "indexed": false,
          "name": "_redeember",
          "type": "address"
        },
        {
          "indexed": false,
          "name": "_amount",
          "type": "uint256"
        },
        {
          "indexed": false,
          "name": "_timestamp",
          "type": "uint256"
        }
      ],
      "name": "RedeemEvent",
      "type": "event"
    },
    {
      "anonymous": false,
      "inputs": [
        {
          "indexed": true,
          "name": "previousOwner",
          "type": "address"
        },
        {
          "indexed": true,
          "name": "newOwner",
          "type": "address"
        }
      ],
      "name": "OwnershipTransferred",
      "type": "event"
    },
    {
      "constant": false,
      "inputs": [
        {
          "name": "_value",
          "type": "uint256"
        },
        {
          "name": "_location",
          "type": "string"
        }
      ],
      "name": "redeem",
      "outputs": [
        {
          "name": "",
          "type": "uint256"
        }
      ],
      "payable": false,
      "stateMutability": "nonpayable",
      "type": "function"
    },
    {
      "constant": false,
      "inputs": [
        {
          "name": "_index",
          "type": "uint256"
        }
      ],
      "name": "approveRedemption",
      "outputs": [],
      "payable": false,
      "stateMutability": "nonpayable",
      "type": "function"
    },
    {
      "constant": false,
      "inputs": [
        {
          "name": "_index",
          "type": "uint256"
        }
      ],
      "name": "declineRedemption",
      "outputs": [],
      "payable": false,
      "stateMutability": "nonpayable",
      "type": "function"
    },
    {
      "constant": true,
      "inputs": [],
      "name": "getRedemptionsLength",
      "outputs": [
        {
          "name": "",
          "type": "uint256"
        }
      ],
      "payable": false,
      "stateMutability": "view",
      "type": "function"
    },
    {
      "constant": true,
      "inputs": [
        {
          "name": "_index",
          "type": "uint256"
        }
      ],
      "name": "getRedemption",
      "outputs": [
        {
          "name": "",
          "type": "address"
        },
        {
          "name": "",
          "type": "uint256"
        },
        {
          "name": "",
          "type": "string"
        },
        {
          "name": "",
          "type": "uint256"
        }
      ],
      "payable": false,
      "stateMutability": "view",
      "type": "function"
    }
  ],
  "bytecode": "0x606060405260008054600160a060020a033316600160a060020a0319909116179055610d65806100306000396000f3006060604052600436106100695763ffffffff60e060020a6000350416631953cc21811461006e57806324b76fd51461011b578063342a382d1461018357806370047924146101965780638da5cb5b146101ae578063f2fde38b146101dd578063f4f33158146101fc575b600080fd5b341561007957600080fd5b610084600435610212565b604051600160a060020a0385168152602081018490526060810182905260806040820181815290820184818151815260200191508051906020019080838360005b838110156100dd5780820151838201526020016100c5565b50505050905090810190601f16801561010a5780820380516001836020036101000a031916815260200191505b509550505050505060405180910390f35b341561012657600080fd5b610171600480359060446024803590810190830135806020601f8201819004810201604051908101604052818152929190602084018383808284375094965061037395505050505050565b60405190815260200160405180910390f35b341561018e57600080fd5b6101716105f2565b34156101a157600080fd5b6101ac600435610616565b005b34156101b957600080fd5b6101c1610898565b604051600160a060020a03909116815260200160405180910390f35b34156101e857600080fd5b6101ac600160a060020a03600435166108a7565b341561020757600080fd5b6101ac600435610942565b60008061021d610b29565b6000610227610b3b565b60005433600160a060020a0390811691161461024257600080fd5b600180548790811061025057fe5b9060005260206000209060040201608060405190810160405290816000820160009054906101000a9004600160a060020a0316600160a060020a0316600160a060020a03168152602001600182018054600181600116156101000203166002900480601f0160208091040260200160405190810160405280929190818152602001828054600181600116156101000203166002900480156103325780601f1061030757610100808354040283529160200191610332565b820191906000526020600020905b81548152906001019060200180831161031557829003601f168201915b505050918352505060028201546020820152600390910154604090910152905080518160400151826020015183606001519299919850965090945092505050565b600061037d610b3b565b6002548490600160a060020a03166370a082313360405160e060020a63ffffffff8416028152600160a060020a039091166004820152602401602060405180830381600087803b15156103cf57600080fd5b5af115156103dc57600080fd5b50505060405180519050101515156103f357600080fd5b600254600160a060020a031663095ea7b3338660405160e060020a63ffffffff8516028152600160a060020a0390921660048301526024820152604401602060405180830381600087803b151561044957600080fd5b5af1151561045657600080fd5b50505060405180515050600254600160a060020a03166323b872dd33308760405160e060020a63ffffffff8616028152600160a060020a0393841660048201529190921660248201526044810191909152606401602060405180830381600087803b15156104c357600080fd5b5af115156104d057600080fd5b505050604051805190505060806040519081016040528033600160a060020a031681526020018481526020018581526020014281525090506001805480600101828161051c9190610b6a565b600092835260209092208391600402018151815473ffffffffffffffffffffffffffffffffffffffff1916600160a060020a0391909116178155602082015181600101908051610570929160200190610b96565b50604082015181600201556060820151600390910155507f0e46a0c191564864bd7a70f14ef566cba8f8494211c829a52275f65d5b7d4ce290508151826040015183606001516040518084600160a060020a0316600160a060020a03168152602001838152602001828152602001935050505060405180910390a15092915050565b6000805433600160a060020a0390811691161461060e57600080fd5b506001545b90565b61061e610b3b565b60005433600160a060020a0390811691161461063957600080fd5b600060018381548110151561064a57fe5b9060005260206000209060040201600201541015151561066957600080fd5b600180548390811061067757fe5b9060005260206000209060040201608060405190810160405290816000820160009054906101000a9004600160a060020a0316600160a060020a0316600160a060020a03168152602001600182018054600181600116156101000203166002900480601f0160208091040260200160405190810160405280929190818152602001828054600181600116156101000203166002900480156107595780601f1061072e57610100808354040283529160200191610759565b820191906000526020600020905b81548152906001019060200180831161073c57829003601f168201915b5050509183525050600282015460208201526003918201546040918201529054919250600160a060020a03909116906367fbd2899083015160405160e060020a63ffffffff84160281526004810191909152602401600060405180830381600087803b15156107c757600080fd5b5af115156107d457600080fd5b50506001805490915060001981019081106107eb57fe5b906000526020600020906004020160018381548110151561080857fe5b600091825260209091208254600490920201805473ffffffffffffffffffffffffffffffffffffffff1916600160a060020a039092169190911781556001808301805461086c92808501929160026000199282161561010002929092011604610c14565b50600282810154908201556003918201549101556001805490610893906000198301610b6a565b505050565b600054600160a060020a031681565b60005433600160a060020a039081169116146108c257600080fd5b600160a060020a03811615156108d757600080fd5b600054600160a060020a0380831691167f8be0079c531659141344cd1fd0a4f28419497f9722a3daafe3b4186f6b6457e060405160405180910390a36000805473ffffffffffffffffffffffffffffffffffffffff1916600160a060020a0392909216919091179055565b61094a610b3b565b60005433600160a060020a0390811691161461096557600080fd5b600060018381548110151561097657fe5b9060005260206000209060040201600201541015151561099557600080fd5b60018054839081106109a357fe5b9060005260206000209060040201608060405190810160405290816000820160009054906101000a9004600160a060020a0316600160a060020a0316600160a060020a03168152602001600182018054600181600116156101000203166002900480601f016020809104026020016040519081016040528092919081815260200182805460018160011615610100020316600290048015610a855780601f10610a5a57610100808354040283529160200191610a85565b820191906000526020600020905b815481529060010190602001808311610a6857829003601f168201915b5050509183525050600282810154602083015260039092015460409091015254909150600160a060020a031663a9059cbb8251836040015160405160e060020a63ffffffff8516028152600160a060020a0390921660048301526024820152604401602060405180830381600087803b1515610b0057600080fd5b5af11515610b0d57600080fd5b505050604051805150506001805460001981019081106107eb57fe5b60206040519081016040526000815290565b60806040519081016040526000815260208101610b56610b29565b815260200160008152602001600081525090565b815481835581811511610893576004028160040283600052602060002091820191016108939190610c89565b828054600181600116156101000203166002900490600052602060002090601f016020900481019282601f10610bd757805160ff1916838001178555610c04565b82800160010185558215610c04579182015b82811115610c04578251825591602001919060010190610be9565b50610c10929150610cd8565b5090565b828054600181600116156101000203166002900490600052602060002090601f016020900481019282601f10610c4d5780548555610c04565b82800160010185558215610c0457600052602060002091601f016020900482015b82811115610c04578254825591600101919060010190610c6e565b61061391905b80821115610c1057805473ffffffffffffffffffffffffffffffffffffffff191681556000610cc16001830182610cf2565b506000600282018190556003820155600401610c8f565b61061391905b80821115610c105760008155600101610cde565b50805460018160011615610100020316600290046000825580601f10610d185750610d36565b601f016020900490600052602060002090810190610d369190610cd8565b505600a165627a7a723058207b98f49e762bfcd7fa86c47c90e1c83647c684e7d0127c0d5bc0597489203e8f0029",
  "source": "pragma solidity ^0.4.21;\r\n\r\nimport \"./zeppelin/Ownable.sol\";\r\nimport \"./zeppelin/SafeMath.sol\";\r\n// import \"zeppelin-solidity/contracts/ownership/Ownable.sol\";\r\n// import \"zeppelin-solidity/contracts/math/SafeMath.sol\";\r\nimport \"./PowerPiperToken.sol\";\r\nimport \"./Exchange.sol\";\r\n\r\n\r\ncontract Redemptions is Ownable {\r\n    using SafeMath for uint;\r\n\r\n    struct Redemption {\r\n        address redeemer;\r\n        string location;\r\n        uint amount;\r\n        uint timestamp;\r\n    }\r\n\r\n    Redemption[] redemptions;\r\n    PowerPiperToken _token;\r\n    Exchange _exchange;\r\n    event RedeemEvent(address _redeember, uint _amount, uint _timestamp);\r\n\r\n    function redeem(uint _value, string _location) public returns (uint) {\r\n        require(_token.balanceOf(msg.sender) >= _value);\r\n\r\n        _token.approve(msg.sender, _value);\r\n        _token.transferFrom(msg.sender, this, _value);\r\n\r\n        Redemption memory redemption = Redemption({\r\n            redeemer: msg.sender,\r\n            amount: _value,\r\n            location: _location,\r\n            timestamp: now\r\n        });\r\n\r\n        redemptions.push(redemption);\r\n\r\n        emit RedeemEvent(redemption.redeemer, redemption.amount, redemption.timestamp);\r\n    }\r\n\r\n    function approveRedemption(uint _index) public onlyOwner {\r\n        require(redemptions[_index].amount >= 0);\r\n\r\n        Redemption memory redemption = redemptions[_index];\r\n        _exchange.destroyTokens(redemption.amount);\r\n\r\n        redemptions[_index] = redemptions[redemptions.length-1];\r\n        redemptions.length--;\r\n    }\r\n\r\n    function declineRedemption(uint _index) public onlyOwner {\r\n        require(redemptions[_index].amount >= 0);\r\n\r\n        Redemption memory redemption = redemptions[_index];\r\n        _token.transfer(redemption.redeemer, redemption.amount);\r\n\r\n        redemptions[_index] = redemptions[redemptions.length-1];\r\n        redemptions.length--;\r\n    }\r\n\r\n    function getRedemptionsLength() public constant onlyOwner returns (uint) {\r\n        return redemptions.length;\r\n    }\r\n\r\n    function getRedemption(uint _index) public constant onlyOwner returns (address, uint, string, uint) {\r\n        Redemption memory redemption = redemptions[_index];\r\n        return (\r\n            redemption.redeemer,\r\n            redemption.amount,\r\n            redemption.location,\r\n            redemption.timestamp\r\n        );\r\n    }\r\n\r\n}\r\n",
  "sourcePath": "C:\\Users\\DXenu\\Desktop\\box\\demo_contract\\contracts\\Redemption.sol",
  "compiler": {
    "name": "solc",
    "version": "0.4.21+commit.dfe3193c.Emscripten.clang"
  },
  "schemaVersion": "2.0.0",
  "updatedAt": "2018-04-16T06:40:34.658Z"
}