{
  "contractName": "Redemptions",
  "abi": [
    {
      "constant": true,
      "inputs": [
        {
          "name": "addr",
          "type": "address"
        }
      ],
      "name": "validate",
      "outputs": [
        {
          "name": "",
          "type": "bool"
        }
      ],
      "payable": false,
      "stateMutability": "view",
      "type": "function"
    },
    {
      "constant": true,
      "inputs": [],
      "name": "owner",
      "outputs": [
        {
          "name": "",
          "type": "address"
        }
      ],
      "payable": false,
      "stateMutability": "view",
      "type": "function"
    },
    {
      "constant": false,
      "inputs": [
        {
          "name": "newOwner",
          "type": "address"
        }
      ],
      "name": "transferOwnership",
      "outputs": [],
      "payable": false,
      "stateMutability": "nonpayable",
      "type": "function"
    },
    {
      "anonymous": false,
      "inputs": [
        {
          "indexed": false,
          "name": "_redeember",
          "type": "address"
        },
        {
          "indexed": false,
          "name": "_amount",
          "type": "uint256"
        },
        {
          "indexed": false,
          "name": "_timestamp",
          "type": "uint256"
        }
      ],
      "name": "RedeemEvent",
      "type": "event"
    },
    {
      "anonymous": false,
      "inputs": [
        {
          "indexed": true,
          "name": "previousOwner",
          "type": "address"
        },
        {
          "indexed": true,
          "name": "newOwner",
          "type": "address"
        }
      ],
      "name": "OwnershipTransferred",
      "type": "event"
    },
    {
      "constant": false,
      "inputs": [
        {
          "name": "_value",
          "type": "uint256"
        },
        {
          "name": "_location",
          "type": "string"
        }
      ],
      "name": "redeem",
      "outputs": [
        {
          "name": "",
          "type": "uint256"
        }
      ],
      "payable": false,
      "stateMutability": "nonpayable",
      "type": "function"
    },
    {
      "constant": false,
      "inputs": [
        {
          "name": "_index",
          "type": "uint256"
        }
      ],
      "name": "approveRedemption",
      "outputs": [],
      "payable": false,
      "stateMutability": "nonpayable",
      "type": "function"
    },
    {
      "constant": false,
      "inputs": [
        {
          "name": "_index",
          "type": "uint256"
        }
      ],
      "name": "declineRedemption",
      "outputs": [],
      "payable": false,
      "stateMutability": "nonpayable",
      "type": "function"
    },
    {
      "constant": true,
      "inputs": [],
      "name": "getRedemptionsLength",
      "outputs": [
        {
          "name": "",
          "type": "uint256"
        }
      ],
      "payable": false,
      "stateMutability": "view",
      "type": "function"
    },
    {
      "constant": true,
      "inputs": [
        {
          "name": "_index",
          "type": "uint256"
        }
      ],
      "name": "getRedemption",
      "outputs": [
        {
          "name": "",
          "type": "address"
        },
        {
          "name": "",
          "type": "uint256"
        },
        {
          "name": "",
          "type": "string"
        },
        {
          "name": "",
          "type": "uint256"
        }
      ],
      "payable": false,
      "stateMutability": "view",
      "type": "function"
    }
  ],
  "bytecode": "0x606060405260008054600160a060020a033316600160a060020a0319909116179055610dba806100306000396000f3006060604052600436106100745763ffffffff60e060020a6000350416631953cc218114610079578063207c64fb1461012657806324b76fd514610159578063342a382d146101c157806370047924146101d45780638da5cb5b146101ec578063f2fde38b1461021b578063f4f331581461023a575b600080fd5b341561008457600080fd5b61008f600435610250565b604051600160a060020a0385168152602081018490526060810182905260806040820181815290820184818151815260200191508051906020019080838360005b838110156100e85780820151838201526020016100d0565b50505050905090810190601f1680156101155780820380516001836020036101000a031916815260200191505b509550505050505060405180910390f35b341561013157600080fd5b610145600160a060020a03600435166103b1565b604051901515815260200160405180910390f35b341561016457600080fd5b6101af600480359060446024803590810190830135806020601f820181900481020160405190810160405281815292919060208401838380828437509496506103c895505050505050565b60405190815260200160405180910390f35b34156101cc57600080fd5b6101af610647565b34156101df57600080fd5b6101ea60043561066b565b005b34156101f757600080fd5b6101ff6108ed565b604051600160a060020a03909116815260200160405180910390f35b341561022657600080fd5b6101ea600160a060020a03600435166108fc565b341561024557600080fd5b6101ea600435610997565b60008061025b610b7e565b6000610265610b90565b60005433600160a060020a0390811691161461028057600080fd5b600180548790811061028e57fe5b9060005260206000209060040201608060405190810160405290816000820160009054906101000a9004600160a060020a0316600160a060020a0316600160a060020a03168152602001600182018054600181600116156101000203166002900480601f0160208091040260200160405190810160405280929190818152602001828054600181600116156101000203166002900480156103705780601f1061034557610100808354040283529160200191610370565b820191906000526020600020905b81548152906001019060200180831161035357829003601f168201915b505050918352505060028201546020820152600390910154604090910152905080518160400151826020015183606001519299919850965090945092505050565b60005433600160a060020a03908116911614919050565b60006103d2610b90565b6002548490600160a060020a03166370a082313360405160e060020a63ffffffff8416028152600160a060020a039091166004820152602401602060405180830381600087803b151561042457600080fd5b5af1151561043157600080fd5b505050604051805190501015151561044857600080fd5b600254600160a060020a031663095ea7b3338660405160e060020a63ffffffff8516028152600160a060020a0390921660048301526024820152604401602060405180830381600087803b151561049e57600080fd5b5af115156104ab57600080fd5b50505060405180515050600254600160a060020a03166323b872dd33308760405160e060020a63ffffffff8616028152600160a060020a0393841660048201529190921660248201526044810191909152606401602060405180830381600087803b151561051857600080fd5b5af1151561052557600080fd5b505050604051805190505060806040519081016040528033600160a060020a03168152602001848152602001858152602001428152509050600180548060010182816105719190610bbf565b600092835260209092208391600402018151815473ffffffffffffffffffffffffffffffffffffffff1916600160a060020a03919091161781556020820151816001019080516105c5929160200190610beb565b50604082015181600201556060820151600390910155507f0e46a0c191564864bd7a70f14ef566cba8f8494211c829a52275f65d5b7d4ce290508151826040015183606001516040518084600160a060020a0316600160a060020a03168152602001838152602001828152602001935050505060405180910390a15092915050565b6000805433600160a060020a0390811691161461066357600080fd5b506001545b90565b610673610b90565b60005433600160a060020a0390811691161461068e57600080fd5b600060018381548110151561069f57fe5b906000526020600020906004020160020154101515156106be57600080fd5b60018054839081106106cc57fe5b9060005260206000209060040201608060405190810160405290816000820160009054906101000a9004600160a060020a0316600160a060020a0316600160a060020a03168152602001600182018054600181600116156101000203166002900480601f0160208091040260200160405190810160405280929190818152602001828054600181600116156101000203166002900480156107ae5780601f10610783576101008083540402835291602001916107ae565b820191906000526020600020905b81548152906001019060200180831161079157829003601f168201915b5050509183525050600282015460208201526003918201546040918201529054919250600160a060020a03909116906367fbd2899083015160405160e060020a63ffffffff84160281526004810191909152602401600060405180830381600087803b151561081c57600080fd5b5af1151561082957600080fd5b505060018054909150600019810190811061084057fe5b906000526020600020906004020160018381548110151561085d57fe5b600091825260209091208254600490920201805473ffffffffffffffffffffffffffffffffffffffff1916600160a060020a03909216919091178155600180830180546108c192808501929160026000199282161561010002929092011604610c69565b506002828101549082015560039182015491015560018054906108e8906000198301610bbf565b505050565b600054600160a060020a031681565b60005433600160a060020a0390811691161461091757600080fd5b600160a060020a038116151561092c57600080fd5b600054600160a060020a0380831691167f8be0079c531659141344cd1fd0a4f28419497f9722a3daafe3b4186f6b6457e060405160405180910390a36000805473ffffffffffffffffffffffffffffffffffffffff1916600160a060020a0392909216919091179055565b61099f610b90565b60005433600160a060020a039081169116146109ba57600080fd5b60006001838154811015156109cb57fe5b906000526020600020906004020160020154101515156109ea57600080fd5b60018054839081106109f857fe5b9060005260206000209060040201608060405190810160405290816000820160009054906101000a9004600160a060020a0316600160a060020a0316600160a060020a03168152602001600182018054600181600116156101000203166002900480601f016020809104026020016040519081016040528092919081815260200182805460018160011615610100020316600290048015610ada5780601f10610aaf57610100808354040283529160200191610ada565b820191906000526020600020905b815481529060010190602001808311610abd57829003601f168201915b5050509183525050600282810154602083015260039092015460409091015254909150600160a060020a031663a9059cbb8251836040015160405160e060020a63ffffffff8516028152600160a060020a0390921660048301526024820152604401602060405180830381600087803b1515610b5557600080fd5b5af11515610b6257600080fd5b5050506040518051505060018054600019810190811061084057fe5b60206040519081016040526000815290565b60806040519081016040526000815260208101610bab610b7e565b815260200160008152602001600081525090565b8154818355818115116108e8576004028160040283600052602060002091820191016108e89190610cde565b828054600181600116156101000203166002900490600052602060002090601f016020900481019282601f10610c2c57805160ff1916838001178555610c59565b82800160010185558215610c59579182015b82811115610c59578251825591602001919060010190610c3e565b50610c65929150610d2d565b5090565b828054600181600116156101000203166002900490600052602060002090601f016020900481019282601f10610ca25780548555610c59565b82800160010185558215610c5957600052602060002091601f016020900482015b82811115610c59578254825591600101919060010190610cc3565b61066891905b80821115610c6557805473ffffffffffffffffffffffffffffffffffffffff191681556000610d166001830182610d47565b506000600282018190556003820155600401610ce4565b61066891905b80821115610c655760008155600101610d33565b50805460018160011615610100020316600290046000825580601f10610d6d5750610d8b565b601f016020900490600052602060002090810190610d8b9190610d2d565b505600a165627a7a72305820ddb762699f2f591c281dd6aead9a5eb83df5b31db36f892ecba2c0248021108f0029",
  "source": "pragma solidity ^0.4.21;\r\n\r\nimport \"./zeppelin/Ownable.sol\";\r\nimport \"./zeppelin/SafeMath.sol\";\r\n// import \"zeppelin-solidity/contracts/ownership/Ownable.sol\";\r\n// import \"zeppelin-solidity/contracts/math/SafeMath.sol\";\r\nimport \"./PowerPiperToken.sol\";\r\nimport \"./Exchange.sol\";\r\n\r\n\r\ncontract Redemptions is Ownable {\r\n    using SafeMath for uint;\r\n\r\n    struct Redemption {\r\n        address redeemer;\r\n        string location;\r\n        uint amount;\r\n        uint timestamp;\r\n    }\r\n\r\n    Redemption[] redemptions;\r\n    PowerPiperToken _token;\r\n    Exchange _exchange;\r\n    event RedeemEvent(address _redeember, uint _amount, uint _timestamp);\r\n\r\n    function redeem(uint _value, string _location) public returns (uint) {\r\n        require(_token.balanceOf(msg.sender) >= _value);\r\n\r\n        _token.approve(msg.sender, _value);\r\n        _token.transferFrom(msg.sender, this, _value);\r\n\r\n        Redemption memory redemption = Redemption({\r\n            redeemer: msg.sender,\r\n            amount: _value,\r\n            location: _location,\r\n            timestamp: now\r\n        });\r\n\r\n        redemptions.push(redemption);\r\n\r\n        emit RedeemEvent(redemption.redeemer, redemption.amount, redemption.timestamp);\r\n    }\r\n\r\n    function approveRedemption(uint _index) public onlyOwner {\r\n        require(redemptions[_index].amount >= 0);\r\n\r\n        Redemption memory redemption = redemptions[_index];\r\n        _exchange.destroyTokens(redemption.amount);\r\n\r\n        redemptions[_index] = redemptions[redemptions.length-1];\r\n        redemptions.length--;\r\n    }\r\n\r\n    function declineRedemption(uint _index) public onlyOwner {\r\n        require(redemptions[_index].amount >= 0);\r\n\r\n        Redemption memory redemption = redemptions[_index];\r\n        _token.transfer(redemption.redeemer, redemption.amount);\r\n\r\n        redemptions[_index] = redemptions[redemptions.length-1];\r\n        redemptions.length--;\r\n    }\r\n\r\n    function getRedemptionsLength() public constant onlyOwner returns (uint) {\r\n        return redemptions.length;\r\n    }\r\n\r\n    function getRedemption(uint _index) public constant onlyOwner returns (address, uint, string, uint) {\r\n        Redemption memory redemption = redemptions[_index];\r\n        return (\r\n            redemption.redeemer,\r\n            redemption.amount,\r\n            redemption.location,\r\n            redemption.timestamp\r\n        );\r\n    }\r\n\r\n}\r\n",
  "sourcePath": "C:\\Users\\DXenu\\Desktop\\box\\demo_contract\\contracts\\Redemption.sol",
  "compiler": {
    "name": "solc",
    "version": "0.4.21+commit.dfe3193c.Emscripten.clang"
  },
  "schemaVersion": "2.0.0",
  "updatedAt": "2018-04-16T11:26:29.012Z"
}