{
  "contractName": "RefundVault",
  "abi": [
    {
      "constant": true,
      "inputs": [
        {
          "name": "addr",
          "type": "address"
        }
      ],
      "name": "validate",
      "outputs": [
        {
          "name": "",
          "type": "bool"
        }
      ],
      "payable": false,
      "stateMutability": "view",
      "type": "function"
    },
    {
      "constant": true,
      "inputs": [],
      "name": "wallet",
      "outputs": [
        {
          "name": "",
          "type": "address"
        }
      ],
      "payable": false,
      "stateMutability": "view",
      "type": "function"
    },
    {
      "constant": true,
      "inputs": [],
      "name": "owner",
      "outputs": [
        {
          "name": "",
          "type": "address"
        }
      ],
      "payable": false,
      "stateMutability": "view",
      "type": "function"
    },
    {
      "constant": true,
      "inputs": [],
      "name": "state",
      "outputs": [
        {
          "name": "",
          "type": "uint8"
        }
      ],
      "payable": false,
      "stateMutability": "view",
      "type": "function"
    },
    {
      "constant": true,
      "inputs": [
        {
          "name": "",
          "type": "address"
        }
      ],
      "name": "deposited",
      "outputs": [
        {
          "name": "",
          "type": "uint256"
        }
      ],
      "payable": false,
      "stateMutability": "view",
      "type": "function"
    },
    {
      "constant": false,
      "inputs": [
        {
          "name": "newOwner",
          "type": "address"
        }
      ],
      "name": "transferOwnership",
      "outputs": [],
      "payable": false,
      "stateMutability": "nonpayable",
      "type": "function"
    },
    {
      "inputs": [
        {
          "name": "_wallet",
          "type": "address"
        }
      ],
      "payable": false,
      "stateMutability": "nonpayable",
      "type": "constructor"
    },
    {
      "anonymous": false,
      "inputs": [],
      "name": "Closed",
      "type": "event"
    },
    {
      "anonymous": false,
      "inputs": [],
      "name": "RefundsEnabled",
      "type": "event"
    },
    {
      "anonymous": false,
      "inputs": [
        {
          "indexed": true,
          "name": "beneficiary",
          "type": "address"
        },
        {
          "indexed": false,
          "name": "weiAmount",
          "type": "uint256"
        }
      ],
      "name": "Refunded",
      "type": "event"
    },
    {
      "anonymous": false,
      "inputs": [
        {
          "indexed": true,
          "name": "previousOwner",
          "type": "address"
        },
        {
          "indexed": true,
          "name": "newOwner",
          "type": "address"
        }
      ],
      "name": "OwnershipTransferred",
      "type": "event"
    },
    {
      "constant": false,
      "inputs": [
        {
          "name": "investor",
          "type": "address"
        }
      ],
      "name": "deposit",
      "outputs": [],
      "payable": true,
      "stateMutability": "payable",
      "type": "function"
    },
    {
      "constant": false,
      "inputs": [],
      "name": "close",
      "outputs": [],
      "payable": false,
      "stateMutability": "nonpayable",
      "type": "function"
    },
    {
      "constant": false,
      "inputs": [],
      "name": "enableRefunds",
      "outputs": [],
      "payable": false,
      "stateMutability": "nonpayable",
      "type": "function"
    },
    {
      "constant": false,
      "inputs": [
        {
          "name": "investor",
          "type": "address"
        }
      ],
      "name": "refund",
      "outputs": [],
      "payable": false,
      "stateMutability": "nonpayable",
      "type": "function"
    }
  ],
  "bytecode": "0x6060604052341561000f57600080fd5b6040516020806106648339810160405280805160008054600160a060020a03191633600160a060020a039081169190911790915590925082161515905061005557600080fd5b60028054600160a060020a031916600160a060020a03929092169190911760a060020a60ff02191690556105d68061008e6000396000f3006060604052600436106100a35763ffffffff7c0100000000000000000000000000000000000000000000000000000000600035041663207c64fb81146100a857806343d726d6146100db578063521eb273146100f05780638c52dc411461011f5780638da5cb5b14610132578063c19d93fb14610145578063cb13cddb1461017c578063f2fde38b146101ad578063f340fa01146101cc578063fa89401a146101e0575b600080fd5b34156100b357600080fd5b6100c7600160a060020a03600435166101ff565b604051901515815260200160405180910390f35b34156100e657600080fd5b6100ee610216565b005b34156100fb57600080fd5b6101036102f1565b604051600160a060020a03909116815260200160405180910390f35b341561012a57600080fd5b6100ee610300565b341561013d57600080fd5b610103610391565b341561015057600080fd5b6101586103a0565b6040518082600281111561016857fe5b60ff16815260200191505060405180910390f35b341561018757600080fd5b61019b600160a060020a03600435166103b0565b60405190815260200160405180910390f35b34156101b857600080fd5b6100ee600160a060020a03600435166103c2565b6100ee600160a060020a036004351661045d565b34156101eb57600080fd5b6100ee600160a060020a03600435166104e1565b60005433600160a060020a03908116911614919050565b60005433600160a060020a0390811691161461023157600080fd5b60006002805460a060020a900460ff169081111561024b57fe5b1461025557600080fd5b6002805474ff00000000000000000000000000000000000000001916740200000000000000000000000000000000000000001790557f1cdde67b72a90f19919ac732a437ac2f7a10fc128d28c2a6e525d89ce5cd9d3a60405160405180910390a1600254600160a060020a039081169030163180156108fc0290604051600060405180830381858888f1935050505015156102ef57600080fd5b565b600254600160a060020a031681565b60005433600160a060020a0390811691161461031b57600080fd5b60006002805460a060020a900460ff169081111561033557fe5b1461033f57600080fd5b6002805474ff0000000000000000000000000000000000000000191660a060020a1790557f599d8e5a83cffb867d051598c4d70e805d59802d8081c1c7d6dffc5b6aca2b8960405160405180910390a1565b600054600160a060020a031681565b60025460a060020a900460ff1681565b60016020526000908152604090205481565b60005433600160a060020a039081169116146103dd57600080fd5b600160a060020a03811615156103f257600080fd5b600054600160a060020a0380831691167f8be0079c531659141344cd1fd0a4f28419497f9722a3daafe3b4186f6b6457e060405160405180910390a36000805473ffffffffffffffffffffffffffffffffffffffff1916600160a060020a0392909216919091179055565b60005433600160a060020a0390811691161461047857600080fd5b60006002805460a060020a900460ff169081111561049257fe5b1461049c57600080fd5b600160a060020a0381166000908152600160205260409020546104c5903463ffffffff61059116565b600160a060020a03909116600090815260016020526040902055565b600060016002805460a060020a900460ff16908111156104fd57fe5b1461050757600080fd5b50600160a060020a038116600081815260016020526040808220805492905590919082156108fc0290839051600060405180830381858888f19350505050151561055057600080fd5b81600160a060020a03167fd7dee2702d63ad89917b6a4da9981c90c4d24f8c2bdfd64c604ecae57d8d06518260405190815260200160405180910390a25050565b6000828201838110156105a357600080fd5b93925050505600a165627a7a723058201f700edaf299fe4d6e712f7fc59d3a4b66f9629c494ac0b5c1179aa016b78aa00029",
  "source": "pragma solidity ^0.4.21;\r\n\r\nimport \".//SafeMath.sol\";\r\nimport \"./Ownable.sol\";\r\n\r\n\r\ncontract RefundVault is Ownable {\r\n    using SafeMath for uint256;\r\n\r\n    enum State { Active, Refunding, Closed }\r\n\r\n    mapping (address => uint256) public deposited;\r\n    address public wallet;\r\n    State public state;\r\n\r\n    event Closed();\r\n    event RefundsEnabled();\r\n    event Refunded(address indexed beneficiary, uint256 weiAmount);\r\n\r\n    function RefundVault(address _wallet) public {\r\n        require(_wallet != address(0));\r\n        wallet = _wallet;\r\n        state = State.Active;\r\n    }\r\n\r\n    function deposit(address investor) onlyOwner public payable {\r\n        require(state == State.Active);\r\n        deposited[investor] = deposited[investor].add(msg.value);\r\n    }\r\n\r\n    function close() onlyOwner public {\r\n        require(state == State.Active);\r\n        state = State.Closed;\r\n        emit Closed();\r\n        wallet.transfer(address(this).balance);\r\n    }\r\n\r\n    function enableRefunds() onlyOwner public {\r\n        require(state == State.Active);\r\n        state = State.Refunding;\r\n        emit RefundsEnabled();\r\n    }\r\n\r\n    function refund(address investor) public {\r\n        require(state == State.Refunding);\r\n        uint256 depositedValue = deposited[investor];\r\n        deposited[investor] = 0;\r\n        investor.transfer(depositedValue);\r\n        emit Refunded(investor, depositedValue);\r\n    }\r\n\r\n}\r\n",
  "sourcePath": "C:\\Users\\DXenu\\Desktop\\box\\demo_contract\\contracts\\zeppelin\\RefundVault.sol",
  "compiler": {
    "name": "solc",
    "version": "0.4.21+commit.dfe3193c.Emscripten.clang"
  },
  "schemaVersion": "2.0.0",
  "updatedAt": "2018-04-16T11:26:31.750Z"
}