{
  "contractName": "Relay",
  "abi": [
    {
      "constant": true,
      "inputs": [],
      "name": "owner",
      "outputs": [
        {
          "name": "",
          "type": "address"
        }
      ],
      "payable": false,
      "stateMutability": "view",
      "type": "function"
    },
    {
      "constant": true,
      "inputs": [],
      "name": "currentVersion",
      "outputs": [
        {
          "name": "",
          "type": "address"
        }
      ],
      "payable": false,
      "stateMutability": "view",
      "type": "function"
    },
    {
      "inputs": [
        {
          "name": "initAddr",
          "type": "address"
        }
      ],
      "payable": false,
      "stateMutability": "nonpayable",
      "type": "constructor"
    },
    {
      "payable": false,
      "stateMutability": "nonpayable",
      "type": "fallback"
    },
    {
      "constant": false,
      "inputs": [
        {
          "name": "newVersion",
          "type": "address"
        }
      ],
      "name": "changeContract",
      "outputs": [],
      "payable": false,
      "stateMutability": "nonpayable",
      "type": "function"
    }
  ],
  "bytecode": "0x6060604052341561000f57600080fd5b6040516020806101f88339810160405280805160008054600160a060020a03928316600160a060020a0319918216179091556001805433909316929091169190911790555050610194806100646000396000f3006060604052600436106100565763ffffffff7c01000000000000000000000000000000000000000000000000000000006000350416633d71c3af811461009f5780638da5cb5b146100be5780639d888e86146100ed575b341561006157600080fd5b60008054600160a060020a0316903660405180838380828437820191505092505050600060405180830381855af4915050151561009d57600080fd5b005b34156100aa57600080fd5b61009d600160a060020a0360043516610100565b34156100c957600080fd5b6100d161014a565b604051600160a060020a03909116815260200160405180910390f35b34156100f857600080fd5b6100d1610159565b60015433600160a060020a0390811691161461011b57600080fd5b6000805473ffffffffffffffffffffffffffffffffffffffff1916600160a060020a0392909216919091179055565b600154600160a060020a031681565b600054600160a060020a0316815600a165627a7a72305820e675ea235a6af4d7643aeb787a2a5db3a667caca898057e6a82e952f7ddbd62f0029",
  "source": "pragma solidity ^0.4.21;\r\n\r\n\r\ncontract Relay {\r\n    address public currentVersion;\r\n    address public owner;\r\n\r\n    modifier onlyOwner() {\r\n        require(msg.sender == owner);\r\n        _;\r\n    }\r\n\r\n    function Relay(address initAddr) public {\r\n        currentVersion = initAddr;\r\n        owner = msg.sender;\r\n    }\r\n\r\n    function changeContract(address newVersion) public onlyOwner() {\r\n        currentVersion = newVersion;\r\n    }\r\n\r\n    function () external {\r\n        require(currentVersion.delegatecall(msg.data));\r\n    }\r\n}\r\n",
  "sourcePath": "C:\\Users\\DXenu\\Desktop\\box\\demo_contract\\contracts\\utils\\Relay.sol",
  "compiler": {
    "name": "solc",
    "version": "0.4.21+commit.dfe3193c.Emscripten.clang"
  },
  "schemaVersion": "2.0.0",
  "updatedAt": "2018-04-14T07:31:48.197Z"
}