{
  "contractName": "Relay",
  "abi": [
    {
      "constant": true,
      "inputs": [],
      "name": "bot",
      "outputs": [
        {
          "name": "",
          "type": "address"
        }
      ],
      "payable": false,
      "stateMutability": "view",
      "type": "function"
    },
    {
      "constant": true,
      "inputs": [],
      "name": "validate",
      "outputs": [
        {
          "name": "",
          "type": "bool"
        }
      ],
      "payable": false,
      "stateMutability": "view",
      "type": "function"
    },
    {
      "constant": false,
      "inputs": [
        {
          "name": "_bot",
          "type": "address"
        }
      ],
      "name": "setBot",
      "outputs": [],
      "payable": false,
      "stateMutability": "nonpayable",
      "type": "function"
    },
    {
      "constant": true,
      "inputs": [],
      "name": "owner",
      "outputs": [
        {
          "name": "",
          "type": "address"
        }
      ],
      "payable": false,
      "stateMutability": "view",
      "type": "function"
    },
    {
      "constant": true,
      "inputs": [],
      "name": "currentVersion",
      "outputs": [
        {
          "name": "",
          "type": "address"
        }
      ],
      "payable": false,
      "stateMutability": "view",
      "type": "function"
    },
    {
      "constant": false,
      "inputs": [
        {
          "name": "newOwner",
          "type": "address"
        }
      ],
      "name": "transferOwnership",
      "outputs": [],
      "payable": false,
      "stateMutability": "nonpayable",
      "type": "function"
    },
    {
      "inputs": [
        {
          "name": "initAddr",
          "type": "address"
        }
      ],
      "payable": false,
      "stateMutability": "nonpayable",
      "type": "constructor"
    },
    {
      "payable": false,
      "stateMutability": "nonpayable",
      "type": "fallback"
    },
    {
      "anonymous": false,
      "inputs": [
        {
          "indexed": true,
          "name": "previousOwner",
          "type": "address"
        },
        {
          "indexed": true,
          "name": "newOwner",
          "type": "address"
        }
      ],
      "name": "OwnershipTransferred",
      "type": "event"
    },
    {
      "constant": false,
      "inputs": [
        {
          "name": "newVersion",
          "type": "address"
        }
      ],
      "name": "changeContract",
      "outputs": [],
      "payable": false,
      "stateMutability": "nonpayable",
      "type": "function"
    }
  ],
  "bytecode": "0x6060604052341561000f57600080fd5b6040516020806103a08339810160405280805160008054600160a060020a03338116600160a060020a0319928316179092556002805492909316911617905550506103418061005f6000396000f3006060604052600436106100825763ffffffff7c010000000000000000000000000000000000000000000000000000000060003504166310814c3781146100cb5780633d71c3af146100fa5780636901f668146101195780636b5caec4146101405780638da5cb5b1461015f5780639d888e8614610172578063f2fde38b14610185575b341561008d57600080fd5b600254600160a060020a031660003660405180838380828437820191505092505050600060405180830381855af491505015156100c957600080fd5b005b34156100d657600080fd5b6100de6101a4565b604051600160a060020a03909116815260200160405180910390f35b341561010557600080fd5b6100c9600160a060020a03600435166101b3565b341561012457600080fd5b61012c6101fd565b604051901515815260200160405180910390f35b341561014b57600080fd5b6100c9600160a060020a0360043516610212565b341561016a57600080fd5b6100de61025c565b341561017d57600080fd5b6100de61026b565b341561019057600080fd5b6100c9600160a060020a036004351661027a565b600154600160a060020a031681565b60005433600160a060020a039081169116146101ce57600080fd5b6002805473ffffffffffffffffffffffffffffffffffffffff1916600160a060020a0392909216919091179055565b60005433600160a060020a0390811691161490565b60005433600160a060020a0390811691161461022d57600080fd5b6001805473ffffffffffffffffffffffffffffffffffffffff1916600160a060020a0392909216919091179055565b600054600160a060020a031681565b600254600160a060020a031681565b60005433600160a060020a0390811691161461029557600080fd5b600160a060020a03811615156102aa57600080fd5b600054600160a060020a0380831691167f8be0079c531659141344cd1fd0a4f28419497f9722a3daafe3b4186f6b6457e060405160405180910390a36000805473ffffffffffffffffffffffffffffffffffffffff1916600160a060020a03929092169190911790555600a165627a7a723058203dd46d2a094218c6c783c724b7c49196a50984c580bd90ee237a245df52883d70029",
  "source": "pragma solidity ^0.4.21;\r\n\r\nimport \"../templates/Ownable.sol\";\r\n\r\ncontract Relay is Ownable {\r\n    address public currentVersion;\r\n\r\n    function Relay(address initAddr) public {\r\n        currentVersion = initAddr;\r\n    }\r\n\r\n    function changeContract(address newVersion) public onlyOwner {\r\n        currentVersion = newVersion;\r\n    }\r\n\r\n    function () external {\r\n        require(currentVersion.delegatecall(msg.data));\r\n    }\r\n\r\n}\r\n",
  "sourcePath": "C:\\Users\\DXenu\\Desktop\\box\\demo_contract\\contracts\\utils\\Relay.sol",
  "compiler": {
    "name": "solc",
    "version": "0.4.21+commit.dfe3193c.Emscripten.clang"
  },
  "schemaVersion": "2.0.0",
  "updatedAt": "2018-04-25T19:23:01.611Z"
}