{
  "contractName": "Relay",
  "abi": [
    {
      "constant": true,
      "inputs": [],
      "name": "validate",
      "outputs": [
        {
          "name": "",
          "type": "bool"
        }
      ],
      "payable": false,
      "stateMutability": "view",
      "type": "function"
    },
    {
      "constant": true,
      "inputs": [],
      "name": "owner",
      "outputs": [
        {
          "name": "",
          "type": "address"
        }
      ],
      "payable": false,
      "stateMutability": "view",
      "type": "function"
    },
    {
      "constant": true,
      "inputs": [],
      "name": "currentVersion",
      "outputs": [
        {
          "name": "",
          "type": "address"
        }
      ],
      "payable": false,
      "stateMutability": "view",
      "type": "function"
    },
    {
      "constant": false,
      "inputs": [
        {
          "name": "newOwner",
          "type": "address"
        }
      ],
      "name": "transferOwnership",
      "outputs": [],
      "payable": false,
      "stateMutability": "nonpayable",
      "type": "function"
    },
    {
      "inputs": [
        {
          "name": "initAddr",
          "type": "address"
        }
      ],
      "payable": false,
      "stateMutability": "nonpayable",
      "type": "constructor"
    },
    {
      "payable": false,
      "stateMutability": "nonpayable",
      "type": "fallback"
    },
    {
      "anonymous": false,
      "inputs": [
        {
          "indexed": true,
          "name": "previousOwner",
          "type": "address"
        },
        {
          "indexed": true,
          "name": "newOwner",
          "type": "address"
        }
      ],
      "name": "OwnershipTransferred",
      "type": "event"
    },
    {
      "constant": false,
      "inputs": [
        {
          "name": "newVersion",
          "type": "address"
        }
      ],
      "name": "changeContract",
      "outputs": [],
      "payable": false,
      "stateMutability": "nonpayable",
      "type": "function"
    }
  ],
  "bytecode": "0x6060604052341561000f57600080fd5b6040516020806102ff8339810160405280805160008054600160a060020a03338116600160a060020a0319928316179092556001805492909316911617905550506102a08061005f6000396000f30060606040526004361061006c5763ffffffff7c01000000000000000000000000000000000000000000000000000000006000350416633d71c3af81146100b55780636901f668146100d45780638da5cb5b146100fb5780639d888e861461012a578063f2fde38b1461013d575b341561007757600080fd5b600154600160a060020a031660003660405180838380828437820191505092505050600060405180830381855af491505015156100b357600080fd5b005b34156100c057600080fd5b6100b3600160a060020a036004351661015c565b34156100df57600080fd5b6100e76101a6565b604051901515815260200160405180910390f35b341561010657600080fd5b61010e6101bb565b604051600160a060020a03909116815260200160405180910390f35b341561013557600080fd5b61010e6101ca565b341561014857600080fd5b6100b3600160a060020a03600435166101d9565b60005433600160a060020a0390811691161461017757600080fd5b6001805473ffffffffffffffffffffffffffffffffffffffff1916600160a060020a0392909216919091179055565b60005433600160a060020a0390811691161490565b600054600160a060020a031681565b600154600160a060020a031681565b60005433600160a060020a039081169116146101f457600080fd5b600160a060020a038116151561020957600080fd5b600054600160a060020a0380831691167f8be0079c531659141344cd1fd0a4f28419497f9722a3daafe3b4186f6b6457e060405160405180910390a36000805473ffffffffffffffffffffffffffffffffffffffff1916600160a060020a03929092169190911790555600a165627a7a72305820041e47a3ab1b37c79fbf57676e54db57c121aab83bea506ab0f297015aa1f37f0029",
  "source": "pragma solidity ^0.4.21;\r\n\r\nimport \"../templates/Ownable.sol\";\r\n\r\ncontract Relay is Ownable {\r\n    address public currentVersion;\r\n\r\n    function Relay(address initAddr) public {\r\n        currentVersion = initAddr;\r\n    }\r\n\r\n    function changeContract(address newVersion) public onlyOwner {\r\n        currentVersion = newVersion;\r\n    }\r\n\r\n    function () external {\r\n        require(currentVersion.delegatecall(msg.data));\r\n    }\r\n\r\n}\r\n",
  "sourcePath": "C:\\Users\\DXenu\\Desktop\\box\\demo_contract\\contracts\\utils\\Relay.sol",
  "compiler": {
    "name": "solc",
    "version": "0.4.21+commit.dfe3193c.Emscripten.clang"
  },
  "schemaVersion": "2.0.0",
  "updatedAt": "2018-04-18T17:50:01.280Z"
}