{
  "contractName": "User",
  "abi": [
    {
      "constant": true,
      "inputs": [],
      "name": "owner",
      "outputs": [
        {
          "name": "",
          "type": "address"
        }
      ],
      "payable": false,
      "stateMutability": "view",
      "type": "function"
    },
    {
      "constant": false,
      "inputs": [
        {
          "name": "newOwner",
          "type": "address"
        }
      ],
      "name": "transferOwnership",
      "outputs": [],
      "payable": false,
      "stateMutability": "nonpayable",
      "type": "function"
    },
    {
      "inputs": [],
      "payable": false,
      "stateMutability": "nonpayable",
      "type": "constructor"
    },
    {
      "anonymous": false,
      "inputs": [
        {
          "indexed": true,
          "name": "_addr",
          "type": "address"
        },
        {
          "indexed": false,
          "name": "_index",
          "type": "uint256"
        },
        {
          "indexed": false,
          "name": "_email",
          "type": "bytes32"
        },
        {
          "indexed": false,
          "name": "_firstName",
          "type": "bytes32"
        },
        {
          "indexed": false,
          "name": "_lastName",
          "type": "bytes32"
        }
      ],
      "name": "NewUser",
      "type": "event"
    },
    {
      "anonymous": false,
      "inputs": [
        {
          "indexed": true,
          "name": "_addr",
          "type": "address"
        },
        {
          "indexed": false,
          "name": "_index",
          "type": "uint256"
        },
        {
          "indexed": false,
          "name": "_email",
          "type": "bytes32"
        },
        {
          "indexed": false,
          "name": "_firstName",
          "type": "bytes32"
        },
        {
          "indexed": false,
          "name": "_lastName",
          "type": "bytes32"
        }
      ],
      "name": "UpdateUser",
      "type": "event"
    },
    {
      "anonymous": false,
      "inputs": [
        {
          "indexed": true,
          "name": "_addr",
          "type": "address"
        },
        {
          "indexed": false,
          "name": "_index",
          "type": "uint256"
        }
      ],
      "name": "DeleteUser",
      "type": "event"
    },
    {
      "anonymous": false,
      "inputs": [
        {
          "indexed": true,
          "name": "previousOwner",
          "type": "address"
        },
        {
          "indexed": true,
          "name": "newOwner",
          "type": "address"
        }
      ],
      "name": "OwnershipTransferred",
      "type": "event"
    },
    {
      "constant": true,
      "inputs": [
        {
          "name": "_addr",
          "type": "address"
        }
      ],
      "name": "existsUser",
      "outputs": [
        {
          "name": "isIndexed",
          "type": "bool"
        }
      ],
      "payable": false,
      "stateMutability": "view",
      "type": "function"
    },
    {
      "constant": false,
      "inputs": [
        {
          "name": "_addr",
          "type": "address"
        },
        {
          "name": "_email",
          "type": "bytes32"
        },
        {
          "name": "_firstName",
          "type": "bytes32"
        },
        {
          "name": "_lastName",
          "type": "bytes32"
        }
      ],
      "name": "newtUser",
      "outputs": [
        {
          "name": "index",
          "type": "uint256"
        }
      ],
      "payable": false,
      "stateMutability": "nonpayable",
      "type": "function"
    },
    {
      "constant": true,
      "inputs": [
        {
          "name": "_addr",
          "type": "address"
        }
      ],
      "name": "getUser",
      "outputs": [
        {
          "name": "index",
          "type": "uint256"
        },
        {
          "name": "email",
          "type": "bytes32"
        },
        {
          "name": "firstName",
          "type": "bytes32"
        },
        {
          "name": "lastName",
          "type": "bytes32"
        }
      ],
      "payable": false,
      "stateMutability": "view",
      "type": "function"
    },
    {
      "constant": false,
      "inputs": [
        {
          "name": "_addr",
          "type": "address"
        },
        {
          "name": "_email",
          "type": "bytes32"
        },
        {
          "name": "_firstName",
          "type": "bytes32"
        },
        {
          "name": "_lastName",
          "type": "bytes32"
        }
      ],
      "name": "updateUser",
      "outputs": [
        {
          "name": "",
          "type": "bool"
        }
      ],
      "payable": false,
      "stateMutability": "nonpayable",
      "type": "function"
    },
    {
      "constant": false,
      "inputs": [
        {
          "name": "_addr",
          "type": "address"
        }
      ],
      "name": "deleteUser",
      "outputs": [
        {
          "name": "index",
          "type": "uint256"
        }
      ],
      "payable": false,
      "stateMutability": "nonpayable",
      "type": "function"
    },
    {
      "constant": true,
      "inputs": [],
      "name": "getUserCount",
      "outputs": [
        {
          "name": "count",
          "type": "uint256"
        }
      ],
      "payable": false,
      "stateMutability": "view",
      "type": "function"
    },
    {
      "constant": true,
      "inputs": [
        {
          "name": "index",
          "type": "uint256"
        }
      ],
      "name": "getUserAtIndex",
      "outputs": [
        {
          "name": "_addr",
          "type": "address"
        }
      ],
      "payable": false,
      "stateMutability": "view",
      "type": "function"
    }
  ],
  "bytecode": "0x6060604052341561000f57600080fd5b60008054600160a060020a033316600160a060020a03199091161790556108448061003b6000396000f3006060604052600436106100985763ffffffff7c01000000000000000000000000000000000000000000000000000000006000350416635c60f226811461009d5780636f77926b146100ce5780638da5cb5b146101195780639bd19ca914610148578063b5cb15f714610184578063f2fde38b14610197578063f409e87d146101b8578063f53f35ff146101d7578063ffcc7bbf146101ff575b600080fd5b34156100a857600080fd5b6100bc600160a060020a0360043516610215565b60405190815260200160405180910390f35b34156100d957600080fd5b6100ed600160a060020a03600435166103df565b604051938452602084019290925260408084019190915260608301919091526080909101905180910390f35b341561012457600080fd5b61012c610475565b604051600160a060020a03909116815260200160405180910390f35b341561015357600080fd5b610170600160a060020a0360043516602435604435606435610484565b604051901515815260200160405180910390f35b341561018f57600080fd5b6100bc61056c565b34156101a257600080fd5b6101b6600160a060020a0360043516610573565b005b34156101c357600080fd5b610170600160a060020a036004351661060e565b34156101e257600080fd5b6100bc600160a060020a0360043516602435604435606435610668565b341561020a57600080fd5b61012c60043561078c565b600080548190819033600160a060020a0390811691161461023557600080fd5b8380600160a060020a031633600160a060020a031614151561025657600080fd5b61025f8561060e565b151560011461026d57600080fd5b600160a060020a0385166000908152600160205260409020546002805491945090600019810190811061029c57fe5b60009182526020909120015460028054600160a060020a0390921693508391859081106102c557fe5b6000918252602080832091909101805473ffffffffffffffffffffffffffffffffffffffff1916600160a060020a039485161790559184168152600190915260409020839055600280549061031e9060001983016107d1565b5084600160a060020a03167f117183c06981515bdfa0b70d0448d8eb6ba07648cda62ab7c2b4361eeff80a1b8460405190815260200160405180910390a2600160a060020a0382166000818152600160208190526040918290209081015460028201546003909201547f36cd692caa63e05d06ec64ae3a07dffe3b224fecb32af5fa7bc1469f5bcdde57938893919051938452602084019290925260408084019190915260608301919091526080909101905180910390a250909392505050565b6000805481908190819033600160a060020a0390811691161461040157600080fd5b8480600160a060020a031633600160a060020a031614151561042257600080fd5b61042b8661060e565b151560011461043957600080fd5b50505050600160a060020a0391909116600090815260016020819052604090912080549181015460028201546003909201549294909350909190565b600054600160a060020a031681565b6000805433600160a060020a039081169116146104a057600080fd5b8480600160a060020a031633600160a060020a03161415156104c157600080fd5b8484846104cd8961060e565b15156001146104db57600080fd5b600160a060020a0389166000818152600160208190526040918290209081018b9055600281018a905560038101899055547f36cd692caa63e05d06ec64ae3a07dffe3b224fecb32af5fa7bc1469f5bcdde57918b908b908b9051938452602084019290925260408084019190915260608301919091526080909101905180910390a250600198975050505050505050565b6002545b90565b60005433600160a060020a0390811691161461058e57600080fd5b600160a060020a03811615156105a357600080fd5b600054600160a060020a0380831691167f8be0079c531659141344cd1fd0a4f28419497f9722a3daafe3b4186f6b6457e060405160405180910390a36000805473ffffffffffffffffffffffffffffffffffffffff1916600160a060020a0392909216919091179055565b600254600090151561062257506000610663565b600160a060020a03821660008181526001602052604090205460028054909190811061064a57fe5b600091825260209091200154600160a060020a03161490505b919050565b60008360005433600160a060020a0390811691161461068657600080fd5b83836106918861060e565b1561069b57600080fd5b600160a060020a03881660009081526001602081905260409091208082018990556002808201899055600390910187905580548083016106db83826107d1565b6000928352602080842092909201805473ffffffffffffffffffffffffffffffffffffffff1916600160a060020a038e16908117909155808452600190925260409283902093900392839055917f78b833eacd29aac1183e31c8289157ed550f3b1f9f1526bf2055ef195cac287f918a908a908a9051938452602084019290925260408084019190915260608301919091526080909101905180910390a25050600254600019019695505050505050565b6000805433600160a060020a039081169116146107a857600080fd5b60028054839081106107b657fe5b600091825260209091200154600160a060020a031692915050565b8154818355818115116107f5576000838152602090206107f59181019083016107fa565b505050565b61057091905b808211156108145760008155600101610800565b50905600a165627a7a72305820e5b503cb587e3b1081fcc02453fab790561d53b7736abe0c76433bf6da7453150029",
  "source": "pragma solidity ^0.4.21;\n\n// File: contracts\\zeppelin\\Ownable.sol\n\ncontract Ownable {\r\n\r\n    address public owner;\r\n\r\n    event OwnershipTransferred(address indexed previousOwner, address indexed newOwner);\r\n\r\n    function Ownable() public {\r\n        owner = msg.sender;\r\n    }\r\n\r\n    modifier onlyOwner() {\r\n        require(msg.sender == owner);\r\n        _;\r\n    }\r\n\r\n    modifier onlyBy(address _account) {\r\n        require(msg.sender == _account);\r\n        _;\r\n    }\r\n\r\n    function transferOwnership(address newOwner) public onlyOwner {\r\n        require(newOwner != address(0));\r\n        emit OwnershipTransferred(owner, newOwner);\r\n        owner = newOwner;\r\n    }\r\n\r\n}\n\n// File: contracts\\zeppelin\\SafeMath.sol\n\nlibrary SafeMath {\r\n\r\n    function mul(uint256 a, uint256 b) internal pure returns (uint256) {\r\n        if (a == 0) {\r\n            return 0;\r\n        }\r\n        uint256 c = a * b;\r\n        assert(c / a == b);\r\n        return c;\r\n    }\r\n\r\n    function div(uint256 a, uint256 b) internal pure returns (uint256) {\r\n        assert(b > 0);\r\n        uint256 c = a / b;\r\n        // assert(a == b * c + a % b); // There is no case in which this doesn't hold\r\n        return c;\r\n    }\r\n\r\n    function sub(uint256 a, uint256 b) internal pure returns (uint256) {\r\n        assert(b <= a);\r\n        return a - b;\r\n    }\r\n\r\n    function add(uint256 a, uint256 b) internal pure returns (uint256) {\r\n        uint256 c = a + b;\r\n        assert(c >= a);\r\n        return c;\r\n    }\r\n\r\n}\n\n// File: contracts\\User.sol\n\n// import \"zeppelin-solidity/contracts/ownership/Ownable.sol\";\r\n// import \"zeppelin-solidity/contracts/math/SafeMath.sol\";\r\n\r\n\r\ncontract User is Ownable {\r\n    using SafeMath for uint;\r\n\r\n    struct UserStruct {\r\n        uint index;\r\n        bytes32 email;\r\n        bytes32 firstName;\r\n        bytes32 lastName;\r\n        address[] placeId;\r\n        address[] equipmentId;\r\n    }\r\n\r\n    event NewUser(address indexed _addr, uint _index, bytes32 _email, bytes32 _firstName, bytes32 _lastName);\r\n    event UpdateUser(address indexed _addr,  uint _index, bytes32 _email, bytes32 _firstName, bytes32 _lastName);\r\n    event DeleteUser(address indexed _addr,  uint _index);\r\n    \r\n    mapping(address => UserStruct) users;\r\n    address[] private userIndex;\r\n\r\n    modifier onlyBy(address _account) {\r\n        require(msg.sender == _account);\r\n        _;\r\n    }\r\n\r\n    function User() public {\r\n    }\r\n\r\n    modifier nonEmpty(bytes32 _str) {\r\n        require(bytes32(_str).length > 5);\r\n        _;\r\n    }\r\n\r\n    function existsUser(address _addr) public constant returns(bool isIndexed) {\r\n        if(userIndex.length == 0) return false;\r\n        return (userIndex[users[_addr].index] == _addr);\r\n    }\r\n\r\n    function newtUser(address _addr, bytes32 _email, bytes32 _firstName, bytes32 _lastName)\r\n    nonEmpty(_email)\r\n    onlyOwner\r\n    public\r\n    nonEmpty(_firstName)\r\n    nonEmpty(_lastName)\r\n    returns(uint index) {\r\n        require(existsUser(_addr) == false);\r\n        users[_addr].email = _email;\r\n        users[_addr].firstName = _firstName;\r\n        users[_addr].lastName = _lastName;\r\n        users[_addr].index = userIndex.push(_addr) - 1;\r\n        emit NewUser(_addr, users[_addr].index,  _email, _firstName, _lastName);\r\n        return userIndex.length - 1;\r\n    }\r\n\r\n    function getUser(address _addr)\r\n    onlyOwner\r\n    onlyBy(_addr)\r\n    public\r\n    constant\r\n    returns(uint index, bytes32 email, bytes32 firstName, bytes32 lastName) {\r\n        require(existsUser(_addr) == true);\r\n        return(\r\n            users[_addr].index,\r\n            users[_addr].email,\r\n            users[_addr].firstName,\r\n            users[_addr].lastName\r\n        );\r\n    }\r\n\r\n    function updateUser(address _addr, bytes32 _email, bytes32 _firstName, bytes32 _lastName)\r\n    onlyOwner\r\n    onlyBy(_addr)\r\n    public\r\n    nonEmpty(_email)\r\n    nonEmpty(_firstName)\r\n    nonEmpty(_lastName)\r\n    returns(bool) {\r\n        require(existsUser(_addr) == true);\r\n        users[_addr].email = _email;\r\n        users[_addr].firstName = _firstName;\r\n        users[_addr].lastName = _lastName;\r\n        emit UpdateUser(_addr, users[_addr].index, _email, _firstName, _lastName);\r\n        return true;\r\n    }\r\n\r\n    function deleteUser(address _addr)\r\n    public\r\n    onlyOwner\r\n    onlyBy(_addr)\r\n    returns(uint index) {\r\n        require(existsUser(_addr) == true);\r\n        uint _rowToDelete = users[_addr].index;\r\n        address _keyToMove = userIndex[userIndex.length - 1];\r\n        userIndex[_rowToDelete] = _keyToMove;\r\n        users[_keyToMove].index = _rowToDelete; \r\n        userIndex.length--;\r\n        emit DeleteUser(_addr, _rowToDelete);\r\n        emit UpdateUser(_keyToMove, _rowToDelete, users[_keyToMove].email, users[_keyToMove].firstName, users[_keyToMove].lastName);\r\n        return _rowToDelete;\r\n    }\r\n\r\n    function getUserCount() public constant returns(uint count) {\r\n        return userIndex.length;\r\n    }\r\n\r\n    function getUserAtIndex(uint index)\r\n    public\r\n    onlyOwner\r\n    constant returns(address _addr) {\r\n        return userIndex[index];\r\n    }\r\n}\n\n// File: contracts\\zeppelin\\ERC20.sol\n\ncontract ERC20 {\r\n\r\n    function allowance(address owner, address spender) public view returns (uint256);\r\n    function transferFrom(address from, address to, uint256 tokens) public returns (bool);\r\n    function approve(address spender, uint256 tokens) public returns (bool);\r\n    function totalSupply() public view returns (uint256);\r\n    function balanceOf(address who) public view returns (uint256);\r\n    function transfer(address to, uint256 tokens) public returns (bool);\r\n\r\n    event Transfer(address indexed from, address indexed to, uint256 value);\r\n    event Approval(address indexed owner, address indexed spender, uint256 value);\r\n\r\n}\n\n// File: contracts\\zeppelin\\BasicToken.sol\n\ncontract BasicToken is ERC20 {\r\n    using SafeMath for uint256;\r\n\r\n    mapping(address => uint256) balances;\r\n\r\n    uint256 totalSupply_;\r\n\r\n    function totalSupply() public view returns (uint256) {\r\n        return totalSupply_;\r\n    }\r\n\r\n    function transfer(address _to, uint256 _value) public returns (bool) {\r\n        require(_to != address(0));\r\n        require(_value <= balances[msg.sender]);\r\n\r\n        // SafeMath.sub will throw if there is not enough balance.\r\n        balances[msg.sender] = balances[msg.sender].sub(_value);\r\n        balances[_to] = balances[_to].add(_value);\r\n        emit Transfer(msg.sender, _to, _value);\r\n        return true;\r\n    }\r\n\r\n    function balanceOf(address _owner) public view returns (uint256 balance) {\r\n        return balances[_owner];\r\n    }\r\n\r\n}\n\n// File: contracts\\zeppelin\\StandardToken.sol\n\ncontract StandardToken is ERC20, BasicToken {\r\n\r\n    mapping (address => mapping (address => uint256)) internal allowed;\r\n\r\n    function transferFrom(address _from, address _to, uint256 _value) public returns (bool) {\r\n        require(_to != address(0));\r\n        require(_value <= balances[_from]);\r\n        require(_value <= allowed[_from][msg.sender]);\r\n\r\n        balances[_from] = balances[_from].sub(_value);\r\n        balances[_to] = balances[_to].add(_value);\r\n        allowed[_from][msg.sender] = allowed[_from][msg.sender].sub(_value);\r\n        emit Transfer(_from, _to, _value);\r\n        return true;\r\n    }\r\n\r\n    function approve(address _spender, uint256 _value) public returns (bool) {\r\n        allowed[msg.sender][_spender] = _value;\r\n        emit Approval(msg.sender, _spender, _value);\r\n        return true;\r\n    }\r\n\r\n    function allowance(address _owner, address _spender) public view returns (uint256) {\r\n        return allowed[_owner][_spender];\r\n    }\r\n\r\n    function increaseApproval(address _spender, uint _addedValue) public returns (bool) {\r\n        allowed[msg.sender][_spender] = allowed[msg.sender][_spender].add(_addedValue);\r\n        emit Approval(msg.sender, _spender, allowed[msg.sender][_spender]);\r\n        return true;\r\n    }\r\n\r\n    function decreaseApproval(address _spender, uint _subtractedValue) public returns (bool) {\r\n        uint oldValue = allowed[msg.sender][_spender];\r\n        if (_subtractedValue > oldValue) {\r\n            allowed[msg.sender][_spender] = 0;\r\n        } else {\r\n            allowed[msg.sender][_spender] = oldValue.sub(_subtractedValue);\r\n        }\r\n        emit Approval(msg.sender, _spender, allowed[msg.sender][_spender]);\r\n        return true;\r\n    }\r\n\r\n}\n\n// File: contracts\\zeppelin\\MintableToken.sol\n\ncontract MintableToken is StandardToken, Ownable {\r\n    event Mint(address indexed to, uint256 amount);\r\n    event MintFinished();\r\n\r\n    bool public mintingFinished = false;\r\n\r\n    modifier canMint() {\r\n        require(!mintingFinished);\r\n        _;\r\n    }\r\n\r\n    function mint(address _to, uint256 _amount) onlyOwner canMint public returns (bool) {\r\n        totalSupply_ = totalSupply_.add(_amount);\r\n        balances[_to] = balances[_to].add(_amount);\r\n        emit Mint(_to, _amount);\r\n        emit Transfer(address(0), _to, _amount);\r\n        return true;\r\n    }\r\n\r\n    function finishMinting() onlyOwner canMint public returns (bool) {\r\n        mintingFinished = true;\r\n        emit MintFinished();\r\n        return true;\r\n    }\r\n}\n\n// File: contracts\\Equipment.sol\n\n// import \"zeppelin-solidity/contracts/token/ERC20/MintableToken.sol\";\r\n// import \"zeppelin-solidity/contracts/ownership/Ownable.sol\";\r\n// import \"zeppelin-solidity/contracts/math/SafeMath.sol\";\r\r\n\r\n\r\ncontract Equipments is Ownable, User {\r\n    using SafeMath for uint;\r\n\r\n    struct EquipmentStruct {\r\n        uint index;\r\n        uint8 kwh;\r\n        uint16 price;\r\n        address userId;\r\n    }\r\n\r\n    event NewEquipment(address indexed _addr, address indexed _userAddr, uint _index, uint8 _kwh, uint16 _price);\r\n    event UpdateEquipment(address indexed _addr, address indexed _userAddr, uint _index, uint8 _kwh, uint16 _price);\r\n    event DeleteEquipment(address indexed _addr,  uint _index);\r\n    \r\n    mapping(address => EquipmentStruct) equipments;\r\n    address[] private equipmentIndex;\r\n\r\n    function Equipments() public {\r\n    }\r\n\r\n    function existsEquipment(address _addr) public constant returns(bool isIndexed) {\r\n        if(equipmentIndex.length == 0) return false;\r\n        return (equipmentIndex[equipments[_addr].index] == _addr);\r\n    }\r\n\r\n    function newEquipment(address _addr, address _userAddr, uint8 _kwh, uint16 _price)\r\n    onlyOwner\r\n    onlyBy(_userAddr)\r\n    public\r\n    returns(uint index) {\r\n        require(existsEquipment(_addr) == false);\r\n        require(existsUser(_addr) == true);\r\n        equipments[_addr].kwh = _kwh;\r\n        equipments[_addr].price = _price;\r\n        equipments[_addr].userId = _userAddr;\r\n        equipments[_addr].index = equipmentIndex.push(_addr) - 1;\r\n        emit NewEquipment(_addr, _userAddr, equipments[_addr].index, _kwh, _price);\r\n        users[_addr].equipmentId.push(_addr);\r\n        return equipmentIndex.length - 1;\r\n    }\r\n\r\n    function getEquipment(address _addr)\r\n    public\r\n    constant\r\n    returns(uint index, uint8 kwh, uint16 price, address userId) {\r\n        require(existsEquipment(_addr) == true);\r\n        return(\r\n            equipments[_addr].index,\r\n            equipments[_addr].kwh,\r\n            equipments[_addr].price,\r\n            equipments[_addr].userId\r\n        );\r\n    }\r\n\r\n    function updateEquipment(address _addr, address _userAddr, uint8 _kwh, uint16 _price)\r\n    public\r\n    onlyOwner\r\n    onlyBy(_userAddr)\r\n    returns(bool) {\r\n        require(existsEquipment(_addr) == true);\r\n        require(existsUser(_userAddr) == true);\r\n        equipments[_addr].kwh = _kwh;\r\n        equipments[_addr].price = _price;\r\n        emit UpdateEquipment(_addr, _userAddr, equipments[_addr].index, _kwh, _price);\r\n        return true;\r\n    }\r\n\r\n    function deleteEquipment(address _addr, address _userAddr)\r\n    public\r\n    onlyOwner\r\n    onlyBy(_userAddr)\r\n    returns(uint index) {\r\n        require(existsEquipment(_addr) == true);\r\n        uint _rowToDelete = equipments[_addr].index;\r\n        address _keyToMove = equipmentIndex[equipmentIndex.length - 1];\r\n        equipmentIndex[_rowToDelete] = _keyToMove;\r\n        equipments[_keyToMove].index = _rowToDelete; \r\n        equipmentIndex.length--;\r\n        emit DeleteEquipment(_addr, _rowToDelete);\r\n        emit UpdateEquipment(_keyToMove, equipments[_keyToMove].userId, _rowToDelete, equipments[_keyToMove].kwh, equipments[_keyToMove].price);\r\n        return _rowToDelete;\r\n    }\r\n\r\n    function getEquipmentCount() public constant returns(uint count) {\r\n        return equipmentIndex.length;\r\n    }\r\n\r\n    function getEquipmentAtIndex(uint index) public  constant returns(address _addr) {\r\n        return equipmentIndex[index];\r\n    }\r\n\r\n}\n\n// File: contracts\\Place.sol\n\n// import \"zeppelin-solidity/contracts/ownership/Ownable.sol\";\r\n// import \"zeppelin-solidity/contracts/math/SafeMath.sol\";\r\r\n\r\n\r\ncontract Places is Ownable, User {\r\n    using SafeMath for uint;\r\n\r\n    struct PlaceStruct {\r\n        uint index;\r\n        uint8 msq;\r\n        uint8 kwh;\r\n        uint16 price;\r\n        address userId;\r\n    }\r\n\r\n    event NewPlace(address indexed _addr, address indexed _userAddr, uint _index, uint8 _msq, uint8 _kwh, uint16 _price);\r\n    event UpdatePlace(address indexed _addr, address indexed _userAddr, uint _index, uint8 _msq, uint8 _kwh, uint16 _price);\r\n    event DeletePlace(address indexed _addr,  uint _index);\r\n    \r\n    mapping(address => PlaceStruct) places;\r\n    address[] private placeIndex;\r\n\r\n    function Places() public {\r\n    }\r\n\r\n    function existsPlace(address _addr) public constant returns(bool isIndexed) {\r\n        if(placeIndex.length == 0) return false;\r\n        return (placeIndex[places[_addr].index] == _addr);\r\n    }\r\n\r\n    function newPlace(address _addr, address _userAddr, uint8 _msq, uint8 _kwh, uint16 _price)\r\n    onlyOwner\r\n    onlyBy(_userAddr)\r\n    public\r\n    returns(uint index) {\r\n        require(existsPlace(_addr) == false);\r\n        require(existsUser(_addr) == true);\r\n        places[_addr].msq = _msq;\r\n        places[_addr].kwh = _kwh;\r\n        places[_addr].price = _price;\r\n        places[_addr].userId = _userAddr;\r\n        places[_addr].index = placeIndex.push(_addr) - 1;\r\n        emit NewPlace(_addr, _userAddr, places[_addr].index,  _msq, _kwh, _price);\r\n        users[_addr].placeId.push(_addr);\r\n        return placeIndex.length - 1;\r\n    }\r\n\r\n    function getPlace(address _addr)\r\n    public\r\n    constant\r\n    returns(uint index, uint8 msq, uint8 kwh, uint16 price, address userId) {\r\n        require(existsPlace(_addr) == true);\r\n        return(\r\n            places[_addr].index,\r\n            places[_addr].msq,\r\n            places[_addr].kwh,\r\n            places[_addr].price,\r\n            places[_addr].userId\r\n        );\r\n    }\r\n\r\n    function updatePlace(address _addr, address _userAddr, uint8 _msq, uint8 _kwh, uint16 _price)\r\n    public\r\n    onlyOwner\r\n    onlyBy(_userAddr)\r\n    returns(bool) {\r\n        require(existsPlace(_addr) == true);\r\n        require(existsUser(_userAddr) == true);\r\n        places[_addr].msq = _msq;\r\n        places[_addr].kwh = _kwh;\r\n        places[_addr].price = _price;\r\n        emit UpdatePlace(_addr, _userAddr, places[_addr].index, _msq, _kwh, _price);\r\n        return true;\r\n    }\r\n\r\n    function deletePlace(address _addr, address _userAddr)\r\n    public\r\n    onlyOwner\r\n    onlyBy(_userAddr)\r\n    returns(uint index) {\r\n        require(existsPlace(_addr) == true);\r\n        uint _rowToDelete = places[_addr].index;\r\n        address _keyToMove = placeIndex[placeIndex.length - 1];\r\n        placeIndex[_rowToDelete] = _keyToMove;\r\n        places[_keyToMove].index = _rowToDelete; \r\n        placeIndex.length--;\r\n        emit DeletePlace(_addr, _rowToDelete);\r\n        emit UpdatePlace(_keyToMove, places[_keyToMove].userId, _rowToDelete, places[_keyToMove].msq, places[_keyToMove].kwh, places[_keyToMove].price);\r\n        return _rowToDelete;\r\n    }\r\n\r\n    function getPlaceCount() public constant returns(uint count) {\r\n        return placeIndex.length;\r\n    }\r\n\r\n    function getPlaceAtIndex(uint index) public constant returns(address _addr) {\r\n        return placeIndex[index];\r\n    }\r\n\r\n}\n\n// File: contracts\\Management.sol\n\ncontract Management is Equipments, Places {\r\n}\n\n// File: contracts\\zeppelin\\HasNoContracts.sol\n\ncontract HasNoContracts is Ownable {\r\n\r\n    function reclaimContract(address contractAddr) external onlyOwner {\r\n        Ownable contractInst = Ownable(contractAddr);\r\n        contractInst.transferOwnership(owner);\r\n    }\r\n}\n\n// File: contracts\\zeppelin\\HasNoEther.sol\n\ncontract HasNoEther is Ownable {\r\n\r\n    function HasNoEther() public payable {\r\n        require(msg.value == 0);\r\n    }\r\n\r\n    function() external {\r\n    }\r\n\r\n    function reclaimEther() external onlyOwner {\r\n        assert(owner.send(address(this).balance));\r\n    }\r\n\r\n}\n\n// File: contracts\\zeppelin\\SafeERC20.sol\n\nlibrary SafeERC20 {\r\n\r\n    function safeTransfer(ERC20 token, address to, uint256 value) internal {\r\n        assert(token.transfer(to, value));\r\n    }\r\n\r\n    function safeTransferFrom(ERC20 token, address from, address to, uint256 value) internal {\r\n        assert(token.transferFrom(from, to, value));\r\n    }\r\n\r\n    function safeApprove(ERC20 token, address spender, uint256 value) internal {\r\n        assert(token.approve(spender, value));\r\n    }\r\n\r\n}\n\n// File: contracts\\zeppelin\\CanReclaimToken.sol\n\ncontract CanReclaimToken is Ownable {\r\n    using SafeERC20 for ERC20;\r\n\r\n    function reclaimToken(ERC20 token) external onlyOwner {\r\n        uint256 balance = token.balanceOf(this);\r\n        token.safeTransfer(owner, balance);\r\n    }\r\n\r\n}\n\n// File: contracts\\zeppelin\\HasNoTokens.sol\n\n/**\r\n * @title Contracts that should not own Tokens\r\n * @author Remco Bloemen <remco@2π.com>\r\n * @dev This blocks incoming ERC223 tokens to prevent accidental loss of tokens.\r\n * Should tokens (any ERC20Basic compatible) end up in the contract, it allows the\r\n * owner to reclaim the tokens.\r\n */\r\ncontract HasNoTokens is CanReclaimToken {\r\n\r\n  /**\r\n    * @dev Reject all ERC223 compatible tokens\r\n    * @param from_ address The address that is transferring the tokens\r\n    * @param value_ uint256 the amount of the specified token\r\n    * @param data_ Bytes The data passed from the caller.\r\n    */\r\n    function tokenFallback(address from_, uint256 value_, bytes data_) pure external {\r\n        from_;\r\n        value_;\r\n        data_;\r\n        revert();\r\n    }\r\n\r\n}\n\n// File: contracts\\zeppelin\\NoOwner.sol\n\ncontract NoOwner is HasNoEther, HasNoTokens, HasNoContracts {\r\n}\n\n// File: contracts\\PowerPiperToken.sol\n\n// import \"zeppelin-solidity/contracts/token/ERC20/MintableToken.sol\";\r\n// import \"zeppelin-solidity/contracts/ownership/NoOwner.sol\";\r\n// import \"zeppelin-solidity/contracts/math/SafeMath.sol\";\r\n// import \"./Management.sol\";\r\n\r\n/*\r\n@TODOs:\r\n* adding Management -> +4 failing crowdsale tests\r\n* equipment transfers (?)\r\n* insurance/ escrow\r\n* can't be deleted before contract ends\r\n* ensure contract time-dependency\r\n* getByLocation, getByKWh, ...\r\n* more throurough KYC\r\n* tests\r\n* privacy checks\r\n* encrypt sensitive user data (crypto.js or better)\r\n* ...\r\n*/\r\n\r\ncontract PowerPiperToken is MintableToken, NoOwner, Management {\r\n\r\n    using SafeMath for uint;\r\n\r\n    string public constant name = \"PowerPiperToken\";\r\n    string public constant symbol = \"PWP\";\r\n    uint8 public constant decimals = 3;\r\n    uint public fee = 300; // 300 = 0.3% in 1-digit precision\r\n    uint public energyPriceMarkup = 1000; // 1000 = 1% in 3-digit precision\r\n    uint public rate = 5000;\r\n    // mapping (address => uint256) balances;\r\n    uint256 public totalSupply;\r\n\r\n    function PowerPiperToken(uint256 _initialAmount) public {\r\n        balances[msg.sender] = _initialAmount;\r\n        totalSupply = _initialAmount;\r\n    }\r\n\r\n    function getEnergyPriceMarkup() public constant returns (uint) {\r\n        return energyPriceMarkup;\r\n    }\r\n\r\n    function getRate() public constant returns (uint) {\r\n        return rate;\r\n    }\r\n\r\n    function getFee() public constant returns (uint) {\r\n        return fee;\r\n    }\r\n\r\n    function calculateFee(uint _amount) public view returns (uint) {\r\n        uint feeAmount = _amount * fee / 1000;\r\n\r\n        if (feeAmount == 0) {\r\n            return 1;\r\n        } else {\r\n            return feeAmount;\r\n        }\r\n    }\r\n\r\n    function setNewFee(uint _fee) public onlyOwner {\r\n        fee = _fee;\r\n    }\r\n\r\n    function setPriceMarkup(uint _priceMarkup) public onlyOwner returns (uint) {\r\n        energyPriceMarkup = _priceMarkup;\r\n    }\r\n\r\n}\n",
  "sourcePath": "C:\\Users\\DXenu\\Desktop\\box\\demo_contract\\contracts\\flat\\PowerPiperFlattenedToken.sol",
  "compiler": {
    "name": "solc",
    "version": "0.4.21+commit.dfe3193c.Emscripten.clang"
  },
  "schemaVersion": "2.0.0",
  "updatedAt": "2018-04-16T11:26:29.013Z"
}