{
  "contractName": "Whitelist",
  "abi": [
    {
      "constant": true,
      "inputs": [
        {
          "name": "addr",
          "type": "address"
        }
      ],
      "name": "validate",
      "outputs": [
        {
          "name": "",
          "type": "bool"
        }
      ],
      "payable": false,
      "stateMutability": "view",
      "type": "function"
    },
    {
      "constant": true,
      "inputs": [],
      "name": "owner",
      "outputs": [
        {
          "name": "",
          "type": "address"
        }
      ],
      "payable": false,
      "stateMutability": "view",
      "type": "function"
    },
    {
      "constant": true,
      "inputs": [
        {
          "name": "",
          "type": "address"
        }
      ],
      "name": "whitelist",
      "outputs": [
        {
          "name": "",
          "type": "bool"
        }
      ],
      "payable": false,
      "stateMutability": "view",
      "type": "function"
    },
    {
      "constant": false,
      "inputs": [
        {
          "name": "newOwner",
          "type": "address"
        }
      ],
      "name": "transferOwnership",
      "outputs": [],
      "payable": false,
      "stateMutability": "nonpayable",
      "type": "function"
    },
    {
      "anonymous": false,
      "inputs": [
        {
          "indexed": false,
          "name": "addr",
          "type": "address"
        }
      ],
      "name": "WhitelistedAddressAdded",
      "type": "event"
    },
    {
      "anonymous": false,
      "inputs": [
        {
          "indexed": false,
          "name": "addr",
          "type": "address"
        }
      ],
      "name": "WhitelistedAddressRemoved",
      "type": "event"
    },
    {
      "anonymous": false,
      "inputs": [
        {
          "indexed": true,
          "name": "previousOwner",
          "type": "address"
        },
        {
          "indexed": true,
          "name": "newOwner",
          "type": "address"
        }
      ],
      "name": "OwnershipTransferred",
      "type": "event"
    },
    {
      "constant": false,
      "inputs": [
        {
          "name": "addr",
          "type": "address"
        }
      ],
      "name": "addAddressToWhitelist",
      "outputs": [
        {
          "name": "success",
          "type": "bool"
        }
      ],
      "payable": false,
      "stateMutability": "nonpayable",
      "type": "function"
    },
    {
      "constant": false,
      "inputs": [
        {
          "name": "addrs",
          "type": "address[]"
        }
      ],
      "name": "addAddressesToWhitelist",
      "outputs": [
        {
          "name": "success",
          "type": "bool"
        }
      ],
      "payable": false,
      "stateMutability": "nonpayable",
      "type": "function"
    },
    {
      "constant": false,
      "inputs": [
        {
          "name": "addr",
          "type": "address"
        }
      ],
      "name": "removeAddressFromWhitelist",
      "outputs": [
        {
          "name": "success",
          "type": "bool"
        }
      ],
      "payable": false,
      "stateMutability": "nonpayable",
      "type": "function"
    },
    {
      "constant": false,
      "inputs": [
        {
          "name": "addrs",
          "type": "address[]"
        }
      ],
      "name": "removeAddressesFromWhitelist",
      "outputs": [
        {
          "name": "success",
          "type": "bool"
        }
      ],
      "payable": false,
      "stateMutability": "nonpayable",
      "type": "function"
    }
  ],
  "bytecode": "0x606060405260008054600160a060020a033316600160a060020a031990911617905561051d806100306000396000f30060606040526004361061008d5763ffffffff7c0100000000000000000000000000000000000000000000000000000000600035041663207c64fb811461009257806324953eaa146100c5578063286dd3f5146101145780637b9417c8146101335780638da5cb5b146101525780639b19251a14610181578063e2ec6ec3146101a0578063f2fde38b146101ef575b600080fd5b341561009d57600080fd5b6100b1600160a060020a0360043516610210565b604051901515815260200160405180910390f35b34156100d057600080fd5b6100b1600460248135818101908301358060208181020160405190810160405280939291908181526020018383602002808284375094965061022895505050505050565b341561011f57600080fd5b6100b1600160a060020a0360043516610289565b341561013e57600080fd5b6100b1600160a060020a036004351661032d565b341561015d57600080fd5b6101656103d7565b604051600160a060020a03909116815260200160405180910390f35b341561018c57600080fd5b6100b1600160a060020a03600435166103e6565b34156101ab57600080fd5b6100b160046024813581810190830135806020818102016040519081016040528093929190818152602001838360200280828437509496506103fb95505050505050565b34156101fa57600080fd5b61020e600160a060020a0360043516610456565b005b60005433600160a060020a039081169116145b919050565b60008054819033600160a060020a0390811691161461024657600080fd5b5060005b82518110156102835761027183828151811061026257fe5b90602001906020020151610289565b1561027b57600191505b60010161024a565b50919050565b6000805433600160a060020a039081169116146102a557600080fd5b600160a060020a03821660009081526001602052604090205460ff161561022357600160a060020a03821660009081526001602052604090819020805460ff191690557ff1abf01a1043b7c244d128e8595cf0c1d10743b022b03a02dffd8ca3bf729f5a90839051600160a060020a03909116815260200160405180910390a1506001919050565b6000805433600160a060020a0390811691161461034957600080fd5b600160a060020a03821660009081526001602052604090205460ff16151561022357600160a060020a038216600090815260016020819052604091829020805460ff191690911790557fd1bba68c128cc3f427e5831b3c6f99f480b6efa6b9e80c757768f6124158cc3f90839051600160a060020a03909116815260200160405180910390a1506001919050565b600054600160a060020a031681565b60016020526000908152604090205460ff1681565b60008054819033600160a060020a0390811691161461041957600080fd5b5060005b82518110156102835761044483828151811061043557fe5b9060200190602002015161032d565b1561044e57600191505b60010161041d565b60005433600160a060020a0390811691161461047157600080fd5b600160a060020a038116151561048657600080fd5b600054600160a060020a0380831691167f8be0079c531659141344cd1fd0a4f28419497f9722a3daafe3b4186f6b6457e060405160405180910390a36000805473ffffffffffffffffffffffffffffffffffffffff1916600160a060020a03929092169190911790555600a165627a7a7230582087949fc9fa29d0c683b4c00680dc823747a0ee1029605cd5317c25047c1b69360029",
  "source": "pragma solidity ^0.4.21;\r\n\r\nimport \"./Ownable.sol\";\r\n\r\n\r\ncontract Whitelist is Ownable {\r\n    mapping(address => bool) public whitelist;\r\n  \r\n    event WhitelistedAddressAdded(address addr);\r\n    event WhitelistedAddressRemoved(address addr);\r\n\r\n    modifier onlyWhitelisted() {\r\n        require(whitelist[msg.sender]);\r\n        _;\r\n    }\r\n\r\n    function addAddressToWhitelist(address addr) onlyOwner public returns(bool success) {\r\n        if (!whitelist[addr]) {\r\n            whitelist[addr] = true;\r\n            emit WhitelistedAddressAdded(addr);\r\n            success = true; \r\n        }\r\n    }\r\n\r\n    function addAddressesToWhitelist(address[] addrs) onlyOwner public returns(bool success) {\r\n        for (uint256 i = 0; i < addrs.length; i++) {\r\n            if (addAddressToWhitelist(addrs[i])) {\r\n                success = true;\r\n            }\r\n        }\r\n    }\r\n\r\n    function removeAddressFromWhitelist(address addr) onlyOwner public returns(bool success) {\r\n        if (whitelist[addr]) {\r\n            whitelist[addr] = false;\r\n            emit WhitelistedAddressRemoved(addr);\r\n            success = true;\r\n        }\r\n    }\r\n\r\n    function removeAddressesFromWhitelist(address[] addrs) onlyOwner public returns(bool success) {\r\n        for (uint256 i = 0; i < addrs.length; i++) {\r\n            if (removeAddressFromWhitelist(addrs[i])) {\r\n                success = true;\r\n            }\r\n        }\r\n    }\r\n\r\n}\r\n",
  "sourcePath": "C:\\Users\\DXenu\\Desktop\\box\\demo_contract\\contracts\\zeppelin\\Whitelist.sol",
  "compiler": {
    "name": "solc",
    "version": "0.4.21+commit.dfe3193c.Emscripten.clang"
  },
  "schemaVersion": "2.0.0",
  "updatedAt": "2018-04-16T11:26:29.036Z"
}