{
  "contractName": "Whitelist",
  "abi": [
    {
      "constant": true,
      "inputs": [],
      "name": "owner",
      "outputs": [
        {
          "name": "",
          "type": "address"
        }
      ],
      "payable": false,
      "stateMutability": "view",
      "type": "function"
    },
    {
      "constant": true,
      "inputs": [
        {
          "name": "",
          "type": "address"
        }
      ],
      "name": "whitelist",
      "outputs": [
        {
          "name": "",
          "type": "bool"
        }
      ],
      "payable": false,
      "stateMutability": "view",
      "type": "function"
    },
    {
      "constant": false,
      "inputs": [
        {
          "name": "newOwner",
          "type": "address"
        }
      ],
      "name": "transferOwnership",
      "outputs": [],
      "payable": false,
      "stateMutability": "nonpayable",
      "type": "function"
    },
    {
      "anonymous": false,
      "inputs": [
        {
          "indexed": false,
          "name": "addr",
          "type": "address"
        }
      ],
      "name": "WhitelistedAddressAdded",
      "type": "event"
    },
    {
      "anonymous": false,
      "inputs": [
        {
          "indexed": false,
          "name": "addr",
          "type": "address"
        }
      ],
      "name": "WhitelistedAddressRemoved",
      "type": "event"
    },
    {
      "anonymous": false,
      "inputs": [
        {
          "indexed": true,
          "name": "previousOwner",
          "type": "address"
        },
        {
          "indexed": true,
          "name": "newOwner",
          "type": "address"
        }
      ],
      "name": "OwnershipTransferred",
      "type": "event"
    },
    {
      "constant": false,
      "inputs": [
        {
          "name": "addr",
          "type": "address"
        }
      ],
      "name": "addAddressToWhitelist",
      "outputs": [
        {
          "name": "success",
          "type": "bool"
        }
      ],
      "payable": false,
      "stateMutability": "nonpayable",
      "type": "function"
    },
    {
      "constant": false,
      "inputs": [
        {
          "name": "addrs",
          "type": "address[]"
        }
      ],
      "name": "addAddressesToWhitelist",
      "outputs": [
        {
          "name": "success",
          "type": "bool"
        }
      ],
      "payable": false,
      "stateMutability": "nonpayable",
      "type": "function"
    },
    {
      "constant": false,
      "inputs": [
        {
          "name": "addr",
          "type": "address"
        }
      ],
      "name": "removeAddressFromWhitelist",
      "outputs": [
        {
          "name": "success",
          "type": "bool"
        }
      ],
      "payable": false,
      "stateMutability": "nonpayable",
      "type": "function"
    },
    {
      "constant": false,
      "inputs": [
        {
          "name": "addrs",
          "type": "address[]"
        }
      ],
      "name": "removeAddressesFromWhitelist",
      "outputs": [
        {
          "name": "success",
          "type": "bool"
        }
      ],
      "payable": false,
      "stateMutability": "nonpayable",
      "type": "function"
    }
  ],
  "bytecode": "0x606060405260008054600160a060020a033316600160a060020a03199091161790556104dc806100306000396000f3006060604052600436106100825763ffffffff7c010000000000000000000000000000000000000000000000000000000060003504166324953eaa8114610087578063286dd3f5146100ea5780637b9417c8146101095780638da5cb5b146101285780639b19251a14610157578063e2ec6ec314610176578063f2fde38b146101c5575b600080fd5b341561009257600080fd5b6100d660046024813581810190830135806020818102016040519081016040528093929190818152602001838360200280828437509496506101e695505050505050565b604051901515815260200160405180910390f35b34156100f557600080fd5b6100d6600160a060020a0360043516610247565b341561011457600080fd5b6100d6600160a060020a03600435166102ec565b341561013357600080fd5b61013b610396565b604051600160a060020a03909116815260200160405180910390f35b341561016257600080fd5b6100d6600160a060020a03600435166103a5565b341561018157600080fd5b6100d660046024813581810190830135806020818102016040519081016040528093929190818152602001838360200280828437509496506103ba95505050505050565b34156101d057600080fd5b6101e4600160a060020a0360043516610415565b005b60008054819033600160a060020a0390811691161461020457600080fd5b5060005b82518110156102415761022f83828151811061022057fe5b90602001906020020151610247565b1561023957600191505b600101610208565b50919050565b6000805433600160a060020a0390811691161461026357600080fd5b600160a060020a03821660009081526001602052604090205460ff16156102e757600160a060020a03821660009081526001602052604090819020805460ff191690557ff1abf01a1043b7c244d128e8595cf0c1d10743b022b03a02dffd8ca3bf729f5a90839051600160a060020a03909116815260200160405180910390a15060015b919050565b6000805433600160a060020a0390811691161461030857600080fd5b600160a060020a03821660009081526001602052604090205460ff1615156102e757600160a060020a038216600090815260016020819052604091829020805460ff191690911790557fd1bba68c128cc3f427e5831b3c6f99f480b6efa6b9e80c757768f6124158cc3f90839051600160a060020a03909116815260200160405180910390a1506001919050565b600054600160a060020a031681565b60016020526000908152604090205460ff1681565b60008054819033600160a060020a039081169116146103d857600080fd5b5060005b8251811015610241576104038382815181106103f457fe5b906020019060200201516102ec565b1561040d57600191505b6001016103dc565b60005433600160a060020a0390811691161461043057600080fd5b600160a060020a038116151561044557600080fd5b600054600160a060020a0380831691167f8be0079c531659141344cd1fd0a4f28419497f9722a3daafe3b4186f6b6457e060405160405180910390a36000805473ffffffffffffffffffffffffffffffffffffffff1916600160a060020a03929092169190911790555600a165627a7a7230582016466e1c6f9f19bb27880d2a5f8259f17abf47156e867500600f848f0a44d7900029",
  "source": "pragma solidity ^0.4.21;\r\n\r\nimport \"./Ownable.sol\";\r\n\r\n\r\ncontract Whitelist is Ownable {\r\n    mapping(address => bool) public whitelist;\r\n  \r\n    event WhitelistedAddressAdded(address addr);\r\n    event WhitelistedAddressRemoved(address addr);\r\n\r\n    modifier onlyWhitelisted() {\r\n        require(whitelist[msg.sender]);\r\n        _;\r\n    }\r\n\r\n    function addAddressToWhitelist(address addr) onlyOwner public returns(bool success) {\r\n        if (!whitelist[addr]) {\r\n            whitelist[addr] = true;\r\n            emit WhitelistedAddressAdded(addr);\r\n            success = true; \r\n        }\r\n    }\r\n\r\n    function addAddressesToWhitelist(address[] addrs) onlyOwner public returns(bool success) {\r\n        for (uint256 i = 0; i < addrs.length; i++) {\r\n            if (addAddressToWhitelist(addrs[i])) {\r\n                success = true;\r\n            }\r\n        }\r\n    }\r\n\r\n    function removeAddressFromWhitelist(address addr) onlyOwner public returns(bool success) {\r\n        if (whitelist[addr]) {\r\n            whitelist[addr] = false;\r\n            emit WhitelistedAddressRemoved(addr);\r\n            success = true;\r\n        }\r\n    }\r\n\r\n    function removeAddressesFromWhitelist(address[] addrs) onlyOwner public returns(bool success) {\r\n        for (uint256 i = 0; i < addrs.length; i++) {\r\n            if (removeAddressFromWhitelist(addrs[i])) {\r\n                success = true;\r\n            }\r\n        }\r\n    }\r\n\r\n}\r\n",
  "sourcePath": "C:\\Users\\DXenu\\Desktop\\box\\demo_contract\\contracts\\zeppelin\\Whitelist.sol",
  "compiler": {
    "name": "solc",
    "version": "0.4.21+commit.dfe3193c.Emscripten.clang"
  },
  "schemaVersion": "2.0.0",
  "updatedAt": "2018-04-15T12:42:41.837Z"
}